{
  "contractName": "DecentraLoan",
  "abi": [
    {
      "inputs": [
        {
          "internalType": "address",
          "name": "owner",
          "type": "address"
        },
        {
          "internalType": "address",
          "name": "lender",
          "type": "address"
        },
        {
          "internalType": "uint256",
          "name": "amount",
          "type": "uint256"
        },
        {
          "internalType": "uint256",
          "name": "interest",
          "type": "uint256"
        },
        {
          "internalType": "uint256",
          "name": "repaymentPeriod",
          "type": "uint256"
        },
        {
          "internalType": "uint256",
          "name": "platform",
          "type": "uint256"
        }
      ],
      "stateMutability": "nonpayable",
      "type": "constructor"
    },
    {
      "anonymous": false,
      "inputs": [
        {
          "indexed": false,
          "internalType": "address",
          "name": "lender",
          "type": "address"
        },
        {
          "indexed": false,
          "internalType": "uint256",
          "name": "amount",
          "type": "uint256"
        },
        {
          "indexed": false,
          "internalType": "uint256",
          "name": "interest",
          "type": "uint256"
        },
        {
          "indexed": false,
          "internalType": "uint256",
          "name": "repaymentPeriod",
          "type": "uint256"
        }
      ],
      "name": "Created",
      "type": "event"
    },
    {
      "anonymous": false,
      "inputs": [
        {
          "indexed": false,
          "internalType": "address",
          "name": "lender",
          "type": "address"
        },
        {
          "indexed": false,
          "internalType": "address",
          "name": "borrower",
          "type": "address"
        },
        {
          "indexed": false,
          "internalType": "uint256",
          "name": "amount",
          "type": "uint256"
        },
        {
          "indexed": false,
          "internalType": "uint256",
          "name": "interest",
          "type": "uint256"
        },
        {
          "indexed": false,
          "internalType": "uint256",
          "name": "repaymentPeriod",
          "type": "uint256"
        }
      ],
      "name": "DealReached",
      "type": "event"
    },
    {
      "anonymous": false,
      "inputs": [],
      "name": "Delinquent",
      "type": "event"
    },
    {
      "anonymous": false,
      "inputs": [
        {
          "indexed": false,
          "internalType": "address",
          "name": "investor",
          "type": "address"
        },
        {
          "indexed": false,
          "internalType": "uint256",
          "name": "blockvalue",
          "type": "uint256"
        }
      ],
      "name": "Invested",
      "type": "event"
    },
    {
      "anonymous": false,
      "inputs": [
        {
          "indexed": false,
          "internalType": "address",
          "name": "lender",
          "type": "address"
        },
        {
          "indexed": false,
          "internalType": "uint256",
          "name": "amount",
          "type": "uint256"
        },
        {
          "indexed": false,
          "internalType": "uint256",
          "name": "interest",
          "type": "uint256"
        },
        {
          "indexed": false,
          "internalType": "uint256",
          "name": "repaymentPeriod",
          "type": "uint256"
        }
      ],
      "name": "Modified",
      "type": "event"
    },
    {
      "anonymous": false,
      "inputs": [
        {
          "indexed": false,
          "internalType": "address",
          "name": "investor",
          "type": "address"
        },
        {
          "indexed": false,
          "internalType": "uint256",
          "name": "usd",
          "type": "uint256"
        }
      ],
      "name": "PaidInvestor",
      "type": "event"
    },
    {
      "anonymous": false,
      "inputs": [
        {
          "indexed": false,
          "internalType": "address",
          "name": "sender",
          "type": "address"
        },
        {
          "indexed": false,
          "internalType": "uint256",
          "name": "amount",
          "type": "uint256"
        },
        {
          "indexed": false,
          "internalType": "uint256",
          "name": "paymentNumber",
          "type": "uint256"
        },
        {
          "indexed": false,
          "internalType": "string",
          "name": "evidence",
          "type": "string"
        }
      ],
      "name": "PaymentSent",
      "type": "event"
    },
    {
      "anonymous": false,
      "inputs": [
        {
          "indexed": false,
          "internalType": "address",
          "name": "sender",
          "type": "address"
        },
        {
          "indexed": false,
          "internalType": "uint256",
          "name": "paymentNumber",
          "type": "uint256"
        },
        {
          "indexed": false,
          "internalType": "string",
          "name": "evidence",
          "type": "string"
        }
      ],
      "name": "PaymentValidated",
      "type": "event"
    },
    {
      "anonymous": false,
      "inputs": [
        {
          "indexed": false,
          "internalType": "address",
          "name": "sender",
          "type": "address"
        },
        {
          "indexed": false,
          "internalType": "uint256",
          "name": "amount",
          "type": "uint256"
        }
      ],
      "name": "Received",
      "type": "event"
    },
    {
      "anonymous": false,
      "inputs": [
        {
          "indexed": false,
          "internalType": "address",
          "name": "investor",
          "type": "address"
        },
        {
          "indexed": false,
          "internalType": "uint256",
          "name": "weis",
          "type": "uint256"
        }
      ],
      "name": "ReturnedInvestment",
      "type": "event"
    },
    {
      "anonymous": false,
      "inputs": [],
      "name": "Terminated",
      "type": "event"
    },
    {
      "anonymous": false,
      "inputs": [
        {
          "indexed": false,
          "internalType": "address",
          "name": "lender",
          "type": "address"
        }
      ],
      "name": "Withdrawn",
      "type": "event"
    },
    {
      "stateMutability": "payable",
      "type": "receive"
    },
    {
      "inputs": [],
      "name": "GetLoanAmount",
      "outputs": [
        {
          "internalType": "uint256",
          "name": "",
          "type": "uint256"
        }
      ],
      "stateMutability": "view",
      "type": "function"
    },
    {
      "inputs": [],
      "name": "Invest",
      "outputs": [],
      "stateMutability": "payable",
      "type": "function"
    },
    {
      "inputs": [],
      "name": "GetInvestors",
      "outputs": [
        {
          "internalType": "address payable[10]",
          "name": "",
          "type": "address[10]"
        }
      ],
      "stateMutability": "view",
      "type": "function"
    },
    {
      "inputs": [],
      "name": "ReturnInvestments",
      "outputs": [],
      "stateMutability": "payable",
      "type": "function"
    },
    {
      "inputs": [
        {
          "internalType": "uint256",
          "name": "usd_amount",
          "type": "uint256"
        }
      ],
      "name": "PayInvestors",
      "outputs": [],
      "stateMutability": "payable",
      "type": "function"
    },
    {
      "inputs": [
        {
          "internalType": "uint256",
          "name": "amount",
          "type": "uint256"
        },
        {
          "internalType": "uint256",
          "name": "interest",
          "type": "uint256"
        },
        {
          "internalType": "uint256",
          "name": "repaymentPeriod",
          "type": "uint256"
        }
      ],
      "name": "Modify",
      "outputs": [],
      "stateMutability": "payable",
      "type": "function"
    },
    {
      "inputs": [
        {
          "internalType": "address",
          "name": "_borrower",
          "type": "address"
        },
        {
          "internalType": "uint256",
          "name": "_amount",
          "type": "uint256"
        },
        {
          "internalType": "uint256",
          "name": "_interest",
          "type": "uint256"
        },
        {
          "internalType": "uint256",
          "name": "_repaymentPeriod",
          "type": "uint256"
        }
      ],
      "name": "Deal",
      "outputs": [],
      "stateMutability": "payable",
      "type": "function"
    },
    {
      "inputs": [],
      "name": "Withdraw",
      "outputs": [],
      "stateMutability": "payable",
      "type": "function"
    },
    {
      "inputs": [
        {
          "internalType": "address",
          "name": "sender",
          "type": "address"
        },
        {
          "internalType": "uint256",
          "name": "paymentNumber",
          "type": "uint256"
        },
        {
          "internalType": "uint256",
          "name": "amount",
          "type": "uint256"
        },
        {
          "internalType": "uint256",
          "name": "rcvd_interest",
          "type": "uint256"
        },
        {
          "internalType": "string",
          "name": "evidence",
          "type": "string"
        }
      ],
      "name": "SendPayment",
      "outputs": [],
      "stateMutability": "payable",
      "type": "function"
    },
    {
      "inputs": [
        {
          "internalType": "uint256",
          "name": "paymentNumber",
          "type": "uint256"
        }
      ],
      "name": "GetEvidence",
      "outputs": [
        {
          "components": [
            {
              "internalType": "address",
              "name": "sender",
              "type": "address"
            },
            {
              "internalType": "string",
              "name": "transactionHash",
              "type": "string"
            },
            {
              "internalType": "enum DecentraLoan.EvidenceStatus",
              "name": "evidenceStatus",
              "type": "uint8"
            }
          ],
          "internalType": "struct DecentraLoan.Evidence",
          "name": "",
          "type": "tuple"
        }
      ],
      "stateMutability": "view",
      "type": "function"
    },
    {
      "inputs": [
        {
          "internalType": "address",
          "name": "user",
          "type": "address"
        }
      ],
      "name": "ValidateEvidence",
      "outputs": [],
      "stateMutability": "payable",
      "type": "function"
    },
    {
      "inputs": [],
      "name": "Terminate",
      "outputs": [],
      "stateMutability": "payable",
      "type": "function"
    },
    {
      "inputs": [],
      "name": "SetDelinquentStatus",
      "outputs": [],
      "stateMutability": "payable",
      "type": "function"
    },
    {
      "inputs": [],
      "name": "Info",
      "outputs": [
        {
          "internalType": "address",
          "name": "",
          "type": "address"
        },
        {
          "internalType": "address",
          "name": "",
          "type": "address"
        },
        {
          "internalType": "uint256",
          "name": "",
          "type": "uint256"
        },
        {
          "internalType": "uint256",
          "name": "",
          "type": "uint256"
        },
        {
          "internalType": "uint256",
          "name": "",
          "type": "uint256"
        },
        {
          "internalType": "uint256",
          "name": "",
          "type": "uint256"
        },
        {
          "internalType": "uint256",
          "name": "",
          "type": "uint256"
        },
        {
          "internalType": "enum DecentraLoan.StateType",
          "name": "",
          "type": "uint8"
        }
      ],
      "stateMutability": "view",
      "type": "function"
    }
  ],
  "bytecode": "0x60806040523480156200001157600080fd5b5060405162002c6438038062002c648339818101604052810190620000379190620001a7565b84600c60006101000a81548173ffffffffffffffffffffffffffffffffffffffff021916908373ffffffffffffffffffffffffffffffffffffffff16021790555083600e8190555082600f819055508160108190555080601181905550856000806101000a81548173ffffffffffffffffffffffffffffffffffffffff021916908373ffffffffffffffffffffffffffffffffffffffff1602179055506000601260006101000a81548160ff0219169083600681111562000121577f4e487b7100000000000000000000000000000000000000000000000000000000600052602160045260246000fd5b021790555060006015819055507f99a12a7aefbbb67909c2bee4a5e2ddb98b2183b8ae2a59e5a7db47f53453345d858585856040516200016594939291906200025f565b60405180910390a15050505050506200031e565b6000815190506200018a81620002ea565b92915050565b600081519050620001a18162000304565b92915050565b60008060008060008060c08789031215620001c157600080fd5b6000620001d189828a0162000179565b9650506020620001e489828a0162000179565b9550506040620001f789828a0162000190565b94505060606200020a89828a0162000190565b93505060806200021d89828a0162000190565b92505060a06200023089828a0162000190565b9150509295509295509295565b6200024881620002ac565b82525050565b6200025981620002e0565b82525050565b60006080820190506200027660008301876200023d565b6200028560208301866200024e565b6200029460408301856200024e565b620002a360608301846200024e565b95945050505050565b6000620002b982620002c0565b9050919050565b600073ffffffffffffffffffffffffffffffffffffffff82169050919050565b6000819050919050565b620002f581620002ac565b81146200030157600080fd5b50565b6200030f81620002e0565b81146200031b57600080fd5b50565b612936806200032e6000396000f3fe6080604052600436106100e05760003560e01c806357ea89b61161007f578063b3a8191911610059578063b3a819191461024a578063c081996114610266578063d383d2e314610270578063dab053e21461028c57610120565b806357ea89b61461021a5780639364330e146102245780639445eb3a1461024057610120565b806324d09da4116100bb57806324d09da4146101645780634012e02e1461018f5780635677640b146101c157806357baac0d146101fe57610120565b8062b373d6146101255780631843d3e31461012f57806324c859641461015a57610120565b36610120577f88a5966d370b9919b20f3e2c13ff65706f196a4e32cc2c12bf57088f8852587433346040516101169291906122ed565b60405180910390a1005b600080fd5b61012d6102a8565b005b34801561013b57600080fd5b506101446103e8565b60405161015191906123e5565b60405180910390f35b610162610469565b005b34801561017057600080fd5b5061017961064e565b6040516101869190612423565b60405180910390f35b34801561019b57600080fd5b506101a4610658565b6040516101b898979695949392919061226f565b60405180910390f35b3480156101cd57600080fd5b506101e860048036038101906101e39190611f7f565b6106e3565b6040516101f59190612401565b60405180910390f35b61021860048036038101906102139190611fa8565b6108c3565b005b610222610a20565b005b61023e60048036038101906102399190611e8d565b610bb0565b005b610248610dca565b005b610264600480360381019061025f9190611f7f565b610f08565b005b61026e6110f6565b005b61028a60048036038101906102859190611ef0565b611337565b005b6102a660048036038101906102a19190611e64565b6117ea565b005b60008054906101000a900473ffffffffffffffffffffffffffffffffffffffff1673ffffffffffffffffffffffffffffffffffffffff163373ffffffffffffffffffffffffffffffffffffffff161461030057600080fd5b6004601260006101000a81548160ff0219169083600681111561034c577f4e487b7100000000000000000000000000000000000000000000000000000000600052602160045260246000fd5b0217905550600c60009054906101000a900473ffffffffffffffffffffffffffffffffffffffff1673ffffffffffffffffffffffffffffffffffffffff166108fc479081150290604051600060405180830381858888f193505050501580156103b9573d6000803e3d6000fd5b507f02516052c46f2d9f26baf31e46f2a4791a00df958d2a4cf892fe9edebb69cd3260405160405180910390a1565b6103f0611c9d565b6001600a806020026040519081016040528092919082600a801561045f576020028201915b8160009054906101000a900473ffffffffffffffffffffffffffffffffffffffff1673ffffffffffffffffffffffffffffffffffffffff1681526020019060010190808311610415575b5050505050905090565b60008054906101000a900473ffffffffffffffffffffffffffffffffffffffff1673ffffffffffffffffffffffffffffffffffffffff163373ffffffffffffffffffffffffffffffffffffffff16146104c157600080fd5b60005b600b5481101561064b57600181600a8110610508577f4e487b7100000000000000000000000000000000000000000000000000000000600052603260045260246000fd5b0160009054906101000a900473ffffffffffffffffffffffffffffffffffffffff1673ffffffffffffffffffffffffffffffffffffffff166108fc6601c6bf52634000600a600e5461055a9190612564565b6105649190612595565b9081150290604051600060405180830381858888f1935050505015801561058f573d6000803e3d6000fd5b507fd14c96933a4a33d20a125a7148222f07ef59ed810a59a3fffd9137bbdd0ddd9c600182600a81106105eb577f4e487b7100000000000000000000000000000000000000000000000000000000600052603260045260246000fd5b0160009054906101000a900473ffffffffffffffffffffffffffffffffffffffff166601c6bf52634000600e546106229190612595565b6040516106309291906121f3565b60405180910390a1808061064390612765565b9150506104c4565b50565b6000600e54905090565b600080600080600080600080600c60009054906101000a900473ffffffffffffffffffffffffffffffffffffffff16600d60009054906101000a900473ffffffffffffffffffffffffffffffffffffffff16600e54601454600f54601054601554601260009054906101000a900460ff16975097509750975097509750975097509091929394959697565b6106eb611cc0565b6015548211156106fa57600080fd5b60138281548110610734577f4e487b7100000000000000000000000000000000000000000000000000000000600052603260045260246000fd5b90600052602060002090600302016040518060600160405290816000820160009054906101000a900473ffffffffffffffffffffffffffffffffffffffff1673ffffffffffffffffffffffffffffffffffffffff1673ffffffffffffffffffffffffffffffffffffffff1681526020016001820180546107b390612733565b80601f01602080910402602001604051908101604052809291908181526020018280546107df90612733565b801561082c5780601f106108015761010080835404028352916020019161082c565b820191906000526020600020905b81548152906001019060200180831161080f57829003601f168201915b505050505081526020016002820160009054906101000a900460ff166002811115610880577f4e487b7100000000000000000000000000000000000000000000000000000000600052602160045260246000fd5b60028111156108b8577f4e487b7100000000000000000000000000000000000000000000000000000000600052602160045260246000fd5b815250509050919050565b60008054906101000a900473ffffffffffffffffffffffffffffffffffffffff1673ffffffffffffffffffffffffffffffffffffffff163373ffffffffffffffffffffffffffffffffffffffff161461091b57600080fd5b60006006811115610955577f4e487b7100000000000000000000000000000000000000000000000000000000600052602160045260246000fd5b601260009054906101000a900460ff16600681111561099d577f4e487b7100000000000000000000000000000000000000000000000000000000600052602160045260246000fd5b146109a757600080fd5b82600e8190555081600f81905550806010819055507fff917abbd5265db0321d1698dfe74287ae6b93d1cd1f486a618d1124feb0b8bc600c60009054906101000a900473ffffffffffffffffffffffffffffffffffffffff16848484604051610a1394939291906123a0565b60405180910390a1505050565b60008054906101000a900473ffffffffffffffffffffffffffffffffffffffff1673ffffffffffffffffffffffffffffffffffffffff163373ffffffffffffffffffffffffffffffffffffffff1614610a7857600080fd5b60006006811115610ab2577f4e487b7100000000000000000000000000000000000000000000000000000000600052602160045260246000fd5b601260009054906101000a900460ff166006811115610afa577f4e487b7100000000000000000000000000000000000000000000000000000000600052602160045260246000fd5b14610b0457600080fd5b6006601260006101000a81548160ff02191690836006811115610b50577f4e487b7100000000000000000000000000000000000000000000000000000000600052602160045260246000fd5b02179055507ff45a04d08a70caa7eb4b747571305559ad9fdf4a093afd41506b35c8a306fa94600c60009054906101000a900473ffffffffffffffffffffffffffffffffffffffff16604051610ba691906121d8565b60405180910390a1565b60008054906101000a900473ffffffffffffffffffffffffffffffffffffffff1673ffffffffffffffffffffffffffffffffffffffff163373ffffffffffffffffffffffffffffffffffffffff1614610c0857600080fd5b60006006811115610c42577f4e487b7100000000000000000000000000000000000000000000000000000000600052602160045260246000fd5b601260009054906101000a900460ff166006811115610c8a577f4e487b7100000000000000000000000000000000000000000000000000000000600052602160045260246000fd5b14610c9457600080fd5b83600d60006101000a81548173ffffffffffffffffffffffffffffffffffffffff021916908373ffffffffffffffffffffffffffffffffffffffff16021790555082600e8190555081600f81905550806010819055506002601260006101000a81548160ff02191690836006811115610d36577f4e487b7100000000000000000000000000000000000000000000000000000000600052602160045260246000fd5b02179055507f8fe0ac573acf497793f3dcb9d6a4ee36413e0231ccaa4074d0dd5534be01e38b600c60009054906101000a900473ffffffffffffffffffffffffffffffffffffffff16600d60009054906101000a900473ffffffffffffffffffffffffffffffffffffffff16600e54600f54601054604051610dbc95949392919061221c565b60405180910390a150505050565b60008054906101000a900473ffffffffffffffffffffffffffffffffffffffff1673ffffffffffffffffffffffffffffffffffffffff163373ffffffffffffffffffffffffffffffffffffffff1614610e2257600080fd5b60008054906101000a900473ffffffffffffffffffffffffffffffffffffffff1673ffffffffffffffffffffffffffffffffffffffff166108fc479081150290604051600060405180830381858888f19350505050158015610e88573d6000803e3d6000fd5b506005601260006101000a81548160ff02191690836006811115610ed5577f4e487b7100000000000000000000000000000000000000000000000000000000600052602160045260246000fd5b02179055507f56a9f39a7e827c383642a56b2ca4614ea9e1e7553a99dac156511be09dd1449560405160405180910390a1565b60008054906101000a900473ffffffffffffffffffffffffffffffffffffffff1673ffffffffffffffffffffffffffffffffffffffff163373ffffffffffffffffffffffffffffffffffffffff1614610f6057600080fd5b60005b600b548110156110f257600181600a8110610fa7577f4e487b7100000000000000000000000000000000000000000000000000000000600052603260045260246000fd5b0160009054906101000a900473ffffffffffffffffffffffffffffffffffffffff1673ffffffffffffffffffffffffffffffffffffffff166108fc6601c6bf52634000606485610ff79190612564565b6110019190612595565b9081150290604051600060405180830381858888f1935050505015801561102c573d6000803e3d6000fd5b507f6bb3934e1c154e4f4f60d85c51a1a47a51c3f4a954b921baaa558cdf7ba9f025600182600a8110611088577f4e487b7100000000000000000000000000000000000000000000000000000000600052603260045260246000fd5b0160009054906101000a900473ffffffffffffffffffffffffffffffffffffffff166601c6bf526340006064856110bf9190612564565b6110c99190612595565b6040516110d79291906121f3565b60405180910390a180806110ea90612765565b915050610f63565b5050565b60068081111561112f577f4e487b7100000000000000000000000000000000000000000000000000000000600052602160045260246000fd5b601260009054906101000a900460ff166006811115611177577f4e487b7100000000000000000000000000000000000000000000000000000000600052602160045260246000fd5b1415806112045750600460068111156111b9577f4e487b7100000000000000000000000000000000000000000000000000000000600052602160045260246000fd5b601260009054906101000a900460ff166006811115611201577f4e487b7100000000000000000000000000000000000000000000000000000000600052602160045260246000fd5b14155b61120d57600080fd5b600a600b541061121c57600080fd5b6601c6bf52634000600a600e546112339190612564565b61123d9190612595565b341461124857600080fd5b336001600b54600a8110611285577f4e487b7100000000000000000000000000000000000000000000000000000000600052603260045260246000fd5b0160006101000a81548173ffffffffffffffffffffffffffffffffffffffff021916908373ffffffffffffffffffffffffffffffffffffffff160217905550600b60008154809291906112d790612765565b91905055507fc3f75dfc78f6efac88ad5abb5e606276b903647d97b2a62a1ef89840a658bbc3336601c6bf52634000600a600e546113159190612564565b61131f9190612595565b60405161132d9291906122ed565b60405180910390a1565b60008054906101000a900473ffffffffffffffffffffffffffffffffffffffff1673ffffffffffffffffffffffffffffffffffffffff163373ffffffffffffffffffffffffffffffffffffffff161461138f57600080fd5b600c60009054906101000a900473ffffffffffffffffffffffffffffffffffffffff1673ffffffffffffffffffffffffffffffffffffffff168573ffffffffffffffffffffffffffffffffffffffff1614806114385750600d60009054906101000a900473ffffffffffffffffffffffffffffffffffffffff1673ffffffffffffffffffffffffffffffffffffffff168573ffffffffffffffffffffffffffffffffffffffff16145b8061148e575060008054906101000a900473ffffffffffffffffffffffffffffffffffffffff1673ffffffffffffffffffffffffffffffffffffffff168573ffffffffffffffffffffffffffffffffffffffff16145b61149757600080fd5b600260068111156114d1577f4e487b7100000000000000000000000000000000000000000000000000000000600052602160045260246000fd5b601260009054906101000a900460ff166006811115611519577f4e487b7100000000000000000000000000000000000000000000000000000000600052602160045260246000fd5b1461152357600080fd5b6000831161153057600080fd5b6000601554141561154757826014819055506115ba565b601054601554141561158257600060148190555061157d6001600b5461156d919061250e565b836115789190612564565b610f08565b6115b9565b8260145461159091906125ef565b6014819055506115b86001600b546115a8919061250e565b836115b39190612564565b610f08565b5b5b601360405180606001604052808773ffffffffffffffffffffffffffffffffffffffff16815260200183815260200160006002811115611623577f4e487b7100000000000000000000000000000000000000000000000000000000600052602160045260246000fd5b815250908060018154018082558091505060019003906000526020600020906003020160009091909190915060008201518160000160006101000a81548173ffffffffffffffffffffffffffffffffffffffff021916908373ffffffffffffffffffffffffffffffffffffffff16021790555060208201518160010190805190602001906116b2929190611d2f565b5060408201518160020160006101000a81548160ff02191690836002811115611704577f4e487b7100000000000000000000000000000000000000000000000000000000600052602160045260246000fd5b021790555050506003601260006101000a81548160ff02191690836006811115611757577f4e487b7100000000000000000000000000000000000000000000000000000000600052602160045260246000fd5b02179055507f5cfc5f208b7752cea928bde39e788a6ba0683d77941de216b2a1c34d754bf904858486601388815481106117ba577f4e487b7100000000000000000000000000000000000000000000000000000000600052603260045260246000fd5b90600052602060002090600302016001016040516117db9493929190612354565b60405180910390a15050505050565b60008054906101000a900473ffffffffffffffffffffffffffffffffffffffff1673ffffffffffffffffffffffffffffffffffffffff163373ffffffffffffffffffffffffffffffffffffffff161461184257600080fd5b600d60009054906101000a900473ffffffffffffffffffffffffffffffffffffffff1673ffffffffffffffffffffffffffffffffffffffff168173ffffffffffffffffffffffffffffffffffffffff161480156119595750600c60009054906101000a900473ffffffffffffffffffffffffffffffffffffffff1673ffffffffffffffffffffffffffffffffffffffff1660136015548154811061190f577f4e487b7100000000000000000000000000000000000000000000000000000000600052603260045260246000fd5b906000526020600020906003020160000160009054906101000a900473ffffffffffffffffffffffffffffffffffffffff1673ffffffffffffffffffffffffffffffffffffffff16145b80611a775750600c60009054906101000a900473ffffffffffffffffffffffffffffffffffffffff1673ffffffffffffffffffffffffffffffffffffffff168173ffffffffffffffffffffffffffffffffffffffff16148015611a765750600d60009054906101000a900473ffffffffffffffffffffffffffffffffffffffff1673ffffffffffffffffffffffffffffffffffffffff16601360155481548110611a2c577f4e487b7100000000000000000000000000000000000000000000000000000000600052603260045260246000fd5b906000526020600020906003020160000160009054906101000a900473ffffffffffffffffffffffffffffffffffffffff1673ffffffffffffffffffffffffffffffffffffffff16145b5b611a8057600080fd5b60036006811115611aba577f4e487b7100000000000000000000000000000000000000000000000000000000600052602160045260246000fd5b601260009054906101000a900460ff166006811115611b02577f4e487b7100000000000000000000000000000000000000000000000000000000600052602160045260246000fd5b14611b0c57600080fd5b6002601360155481548110611b4a577f4e487b7100000000000000000000000000000000000000000000000000000000600052603260045260246000fd5b906000526020600020906003020160020160006101000a81548160ff02191690836002811115611ba3577f4e487b7100000000000000000000000000000000000000000000000000000000600052602160045260246000fd5b02179055506002601260006101000a81548160ff02191690836006811115611bf4577f4e487b7100000000000000000000000000000000000000000000000000000000600052602160045260246000fd5b02179055507f81c0c81b76f6d40169ac434db902906d87dba0f6ecd6f0249356df7f6977e60281601554601360155481548110611c5a577f4e487b7100000000000000000000000000000000000000000000000000000000600052603260045260246000fd5b9060005260206000209060030201600101604051611c7a93929190612316565b60405180910390a160156000815480929190611c9590612765565b919050555050565b604051806101400160405280600a90602082028036833780820191505090505090565b6040518060600160405280600073ffffffffffffffffffffffffffffffffffffffff1681526020016060815260200160006002811115611d29577f4e487b7100000000000000000000000000000000000000000000000000000000600052602160045260246000fd5b81525090565b828054611d3b90612733565b90600052602060002090601f016020900481019282611d5d5760008555611da4565b82601f10611d7657805160ff1916838001178555611da4565b82800160010185558215611da4579182015b82811115611da3578251825591602001919060010190611d88565b5b509050611db19190611db5565b5090565b5b80821115611dce576000816000905550600101611db6565b5090565b6000611de5611de08461246f565b61243e565b905082815260208101848484011115611dfd57600080fd5b611e088482856126f1565b509392505050565b600081359050611e1f816128d2565b92915050565b600082601f830112611e3657600080fd5b8135611e46848260208601611dd2565b91505092915050565b600081359050611e5e816128e9565b92915050565b600060208284031215611e7657600080fd5b6000611e8484828501611e10565b91505092915050565b60008060008060808587031215611ea357600080fd5b6000611eb187828801611e10565b9450506020611ec287828801611e4f565b9350506040611ed387828801611e4f565b9250506060611ee487828801611e4f565b91505092959194509250565b600080600080600060a08688031215611f0857600080fd5b6000611f1688828901611e10565b9550506020611f2788828901611e4f565b9450506040611f3888828901611e4f565b9350506060611f4988828901611e4f565b925050608086013567ffffffffffffffff811115611f6657600080fd5b611f7288828901611e25565b9150509295509295909350565b600060208284031215611f9157600080fd5b6000611f9f84828501611e4f565b91505092915050565b600080600060608486031215611fbd57600080fd5b6000611fcb86828701611e4f565b9350506020611fdc86828701611e4f565b9250506040611fed86828701611e4f565b9150509250925092565b6000612003838361201e565b60208301905092915050565b61201881612697565b82525050565b61202781612635565b82525050565b61203681612623565b82525050565b61204581612623565b82525050565b612054816124be565b61205e81846124e1565b92506120698261249f565b8060005b8381101561209a5781516120818782611ff7565b965061208c836124d4565b92505060018101905061206d565b505050505050565b6120ab816126a9565b82525050565b6120ba816126bb565b82525050565b60006120cb826124c9565b6120d581856124ec565b93506120e5818560208601612700565b6120ee81612899565b840191505092915050565b6000815461210681612733565b61211081866124fd565b9450600182166000811461212b576001811461213d57612170565b60ff1983168652602086019350612170565b612146856124a9565b60005b8381101561216857815481890152600182019150602081019050612149565b808801955050505b50505092915050565b6000606083016000830151612191600086018261202d565b50602083015184820360208601526121a982826120c0565b91505060408301516121be60408601826120a2565b508091505092915050565b6121d28161268d565b82525050565b60006020820190506121ed600083018461203c565b92915050565b6000604082019050612208600083018561200f565b61221560208301846121c9565b9392505050565b600060a082019050612231600083018861203c565b61223e602083018761203c565b61224b60408301866121c9565b61225860608301856121c9565b61226560808301846121c9565b9695505050505050565b600061010082019050612285600083018b61203c565b612292602083018a61203c565b61229f60408301896121c9565b6122ac60608301886121c9565b6122b960808301876121c9565b6122c660a08301866121c9565b6122d360c08301856121c9565b6122e060e08301846120b1565b9998505050505050505050565b6000604082019050612302600083018561203c565b61230f60208301846121c9565b9392505050565b600060608201905061232b600083018661203c565b61233860208301856121c9565b818103604083015261234a81846120f9565b9050949350505050565b6000608082019050612369600083018761203c565b61237660208301866121c9565b61238360408301856121c9565b818103606083015261239581846120f9565b905095945050505050565b60006080820190506123b5600083018761203c565b6123c260208301866121c9565b6123cf60408301856121c9565b6123dc60608301846121c9565b95945050505050565b6000610140820190506123fb600083018461204b565b92915050565b6000602082019050818103600083015261241b8184612179565b905092915050565b600060208201905061243860008301846121c9565b92915050565b6000604051905081810181811067ffffffffffffffff821117156124655761246461286a565b5b8060405250919050565b600067ffffffffffffffff82111561248a5761248961286a565b5b601f19601f8301169050602081019050919050565b6000819050919050565b60008190508160005260206000209050919050565b6000600a9050919050565b600081519050919050565b6000602082019050919050565b600081905092915050565b600082825260208201905092915050565b600082825260208201905092915050565b60006125198261268d565b91506125248361268d565b9250827fffffffffffffffffffffffffffffffffffffffffffffffffffffffffffffffff03821115612559576125586127ae565b5b828201905092915050565b600061256f8261268d565b915061257a8361268d565b92508261258a576125896127dd565b5b828204905092915050565b60006125a08261268d565b91506125ab8361268d565b9250817fffffffffffffffffffffffffffffffffffffffffffffffffffffffffffffffff04831182151516156125e4576125e36127ae565b5b828202905092915050565b60006125fa8261268d565b91506126058361268d565b925082821015612618576126176127ae565b5b828203905092915050565b600061262e8261266d565b9050919050565b60006126408261266d565b9050919050565b6000819050612655826128aa565b919050565b6000819050612668826128be565b919050565b600073ffffffffffffffffffffffffffffffffffffffff82169050919050565b6000819050919050565b60006126a2826126cd565b9050919050565b60006126b482612647565b9050919050565b60006126c68261265a565b9050919050565b60006126d8826126df565b9050919050565b60006126ea8261266d565b9050919050565b82818337600083830152505050565b60005b8381101561271e578082015181840152602081019050612703565b8381111561272d576000848401525b50505050565b6000600282049050600182168061274b57607f821691505b6020821081141561275f5761275e61283b565b5b50919050565b60006127708261268d565b91507fffffffffffffffffffffffffffffffffffffffffffffffffffffffffffffffff8214156127a3576127a26127ae565b5b600182019050919050565b7f4e487b7100000000000000000000000000000000000000000000000000000000600052601160045260246000fd5b7f4e487b7100000000000000000000000000000000000000000000000000000000600052601260045260246000fd5b7f4e487b7100000000000000000000000000000000000000000000000000000000600052602160045260246000fd5b7f4e487b7100000000000000000000000000000000000000000000000000000000600052602260045260246000fd5b7f4e487b7100000000000000000000000000000000000000000000000000000000600052604160045260246000fd5b6000601f19601f8301169050919050565b600381106128bb576128ba61280c565b5b50565b600781106128cf576128ce61280c565b5b50565b6128db81612623565b81146128e657600080fd5b50565b6128f28161268d565b81146128fd57600080fd5b5056fea2646970667358221220b119ba0dede3f86d59a8059083f73b2427f1320e3a367e86a1de15744ca3b1fb64736f6c63430008000033",
  "immutableReferences": {},
  "source": "// SPDX-License-Identifier: MIT\r\npragma solidity ^0.8.0;\r\n\r\ncontract DecentraLoan {\r\n    enum StateType {\r\n        Available,\r\n        DealReached,\r\n        Active,\r\n        AwaitingValidation,\r\n        Delinquent,\r\n        Terminated,\r\n        Withdrawn\r\n    }\r\n\r\n    enum EvidenceStatus {\r\n        Unverified, \r\n        Invalid, \r\n        Valid\r\n    }\r\n\r\n    struct Evidence {\r\n        address sender;\r\n        string transactionHash;\r\n        EvidenceStatus evidenceStatus;\r\n    }\r\n\r\n    // contract owner (who pays for the gas fees..)\r\n    address private _owner;\r\n    \r\n    address payable[10] private _investors;\r\n    uint256 private InvestorIndex;\r\n\r\n    // lender specific variables\r\n    address private Lender;\r\n    address private Borrower;\r\n    uint256 private LoanAmount;\r\n    uint256 private InterestRate;\r\n    uint256 private RepaymentPeriod;\r\n    uint256 private Platform;\r\n\r\n    // loan contract specific variables\r\n    StateType private State;\r\n    Evidence[] private Evidences;\r\n    uint256 private Balance;\r\n    uint256 private PaymentNumber;\r\n\r\n    // contract constructor\r\n    constructor(\r\n        address owner,\r\n        address lender,\r\n        uint256 amount,\r\n        uint256 interest,\r\n        uint256 repaymentPeriod,\r\n        uint256 platform\r\n    ) {\r\n        Lender = lender;\r\n        LoanAmount = amount;\r\n        InterestRate = interest;\r\n        RepaymentPeriod = repaymentPeriod;\r\n        Platform = platform;\r\n\r\n        _owner = owner;\r\n\r\n        State = StateType.Available;\r\n\r\n        PaymentNumber = 0;\r\n\r\n        emit Created(lender, amount, interest, repaymentPeriod);\r\n    }\r\n    \r\n    function GetLoanAmount() public view returns (uint256) {\r\n        return LoanAmount;\r\n    }\r\n    \r\n    function Invest() public payable {\r\n        require(State != StateType.Withdrawn || State != StateType.Delinquent);\r\n        require(InvestorIndex < 10);\r\n        require(msg.value == ((LoanAmount/10)*(5e14)));\r\n        \r\n        _investors[InvestorIndex] = payable(msg.sender);\r\n        InvestorIndex++;\r\n        \r\n        emit Invested(msg.sender, (LoanAmount/10)*(5e14));\r\n    }\r\n    \r\n    function GetInvestors() public view returns (address payable[10] memory) {\r\n        return _investors;\r\n    }\r\n    \r\n    function ReturnInvestments() public payable {\r\n        require(msg.sender == _owner);\r\n        \r\n        for (uint256 i = 0; i < InvestorIndex; i++) {\r\n            _investors[i].transfer((LoanAmount/10)*(5e14));\r\n            \r\n            emit ReturnedInvestment(_investors[i], (LoanAmount)*(5e14));\r\n        }\r\n    }\r\n    \r\n    function PayInvestors(uint256 usd_amount) public payable {\r\n        require(msg.sender == _owner);\r\n        \r\n        for (uint256 i = 0; i < InvestorIndex; i++) {\r\n            _investors[i].transfer((usd_amount/100)*(5e14));\r\n            \r\n            emit PaidInvestor(_investors[i], (usd_amount/100)*(5e14));\r\n        }\r\n    }\r\n\r\n    // modify available (non-active) contract [lender]\r\n    function Modify(\r\n        // address user,\r\n        uint256 amount,\r\n        uint256 interest,\r\n        uint256 repaymentPeriod\r\n    ) public payable {\r\n        require(msg.sender == _owner);\r\n        // require(user == Lender);\r\n        require(State == StateType.Available);\r\n\r\n        LoanAmount = amount;\r\n        InterestRate = interest;\r\n        RepaymentPeriod = repaymentPeriod;\r\n\r\n        emit Modified(Lender, amount, interest, repaymentPeriod);\r\n    }\r\n\r\n    // leander and borrower reached a deal, \r\n    // do virtual handshake and set loan state to Active\r\n    function Deal(\r\n        // address user,\r\n        address _borrower,\r\n        uint256 _amount,\r\n        uint256 _interest,\r\n        uint256 _repaymentPeriod\r\n    ) public payable {\r\n        require(msg.sender == _owner);\r\n        // require(user == Lender);\r\n        require(State == StateType.Available);\r\n\r\n        // set borrower\r\n        Borrower = _borrower;\r\n        \r\n        // change loan parameters if reached deal changed any\r\n        LoanAmount = _amount;\r\n        InterestRate = _interest;\r\n        RepaymentPeriod = _repaymentPeriod;\r\n\r\n        // set loan status to Active\r\n        State = StateType.Active;\r\n\r\n        emit DealReached(\r\n            Lender,\r\n            Borrower,\r\n            LoanAmount,\r\n            InterestRate,\r\n            RepaymentPeriod\r\n        );\r\n    }\r\n\r\n    function Withdraw() public payable {\r\n        require(msg.sender == _owner);\r\n        require(State == StateType.Available);\r\n        // require(_lender == Lender);\r\n\r\n        State = StateType.Withdrawn;\r\n\r\n        emit Withdrawn(Lender);\r\n    }\r\n\r\n    // sends payment with required evidence attached [lender|borrower]\r\n    function SendPayment(\r\n        address sender,\r\n        uint256 paymentNumber,\r\n        uint256 amount,\r\n        uint256 rcvd_interest,\r\n        string memory evidence\r\n    ) public payable {\r\n        require(msg.sender == _owner);\r\n        require(sender == Lender || sender == Borrower || sender == _owner); // require sender is lender or borrower\r\n        require(State == StateType.Active); // require that it is an active contract\r\n        require(amount > 0); // require payment amount is not 0\r\n\r\n        if (PaymentNumber == 0) {\r\n            // Lender sent core loan amount, this is considered as payment 0.\r\n            Balance = amount;\r\n        } \r\n        else if (PaymentNumber == RepaymentPeriod) {\r\n            Balance = 0;\r\n            PayInvestors(rcvd_interest/(InvestorIndex+1)); // pay interest to investors\r\n        }\r\n        else {\r\n            // subtract paid amount to the balance\r\n            Balance = Balance - amount;\r\n            PayInvestors(rcvd_interest/(InvestorIndex+1)); // pay interest to investors\r\n        }\r\n\r\n        // send evidence for counterparty validation, initialy unverified\r\n        Evidences.push(\r\n            Evidence(\r\n                sender,\r\n                evidence,\r\n                EvidenceStatus.Unverified\r\n            )\r\n        );\r\n\r\n        State = StateType.AwaitingValidation; // set state to awaiting validation\r\n\r\n        emit PaymentSent(\r\n            sender,\r\n            amount,\r\n            paymentNumber,\r\n            Evidences[paymentNumber].transactionHash\r\n        );\r\n    }\r\n\r\n    function GetEvidence(uint256 paymentNumber)\r\n        public\r\n        view\r\n        returns (Evidence memory)\r\n    {\r\n        require(paymentNumber <= PaymentNumber);\r\n\r\n        return Evidences[paymentNumber];\r\n    }\r\n\r\n    function ValidateEvidence(address user)\r\n        public\r\n        payable\r\n    {\r\n        require(msg.sender == _owner);\r\n        require(\r\n            (user == Borrower && Evidences[PaymentNumber].sender == Lender) ||\r\n                (user == Lender && Evidences[PaymentNumber].sender == Borrower)\r\n        );\r\n        require(State == StateType.AwaitingValidation);\r\n\r\n        // validate from website, validation code is stored encrypted in the blockchain\r\n        // encryption is only lifted by having the decryption key that is server unique\r\n        // after some checks, validate...\r\n        Evidences[PaymentNumber].evidenceStatus = EvidenceStatus.Valid;\r\n\r\n        State = StateType.Active; // set loan state back to active\r\n\r\n        emit PaymentValidated(\r\n            user,\r\n            PaymentNumber,\r\n            Evidences[PaymentNumber].transactionHash\r\n        );\r\n        \r\n        PaymentNumber++;\r\n    }\r\n\r\n    /**\r\n     * EVENTS\r\n     **/\r\n    event Received(address sender, uint256 amount);\r\n\r\n    event Created(\r\n        address lender,\r\n        uint256 amount,\r\n        uint256 interest,\r\n        uint256 repaymentPeriod\r\n    );\r\n    event Modified(\r\n        address lender,\r\n        uint256 amount,\r\n        uint256 interest,\r\n        uint256 repaymentPeriod\r\n    );\r\n    event Withdrawn(\r\n        address lender\r\n    );\r\n    event DealReached(\r\n        address lender,\r\n        address borrower,\r\n        uint256 amount,\r\n        uint256 interest,\r\n        uint256 repaymentPeriod\r\n    );\r\n    event PaymentSent(\r\n        address sender,\r\n        uint256 amount,\r\n        uint256 paymentNumber,\r\n        string evidence\r\n    );\r\n    event PaymentValidated(\r\n        address sender,\r\n        uint256 paymentNumber,\r\n        string evidence\r\n    );\r\n    \r\n    event PaidInvestor(\r\n        address investor,\r\n        uint256 usd  \r\n    );\r\n    \r\n    event Invested(\r\n        address investor, \r\n        uint256 blockvalue\r\n    );\r\n    \r\n    event ReturnedInvestment(\r\n        address investor,\r\n        uint256 weis    \r\n    );\r\n    \r\n    event Delinquent();\r\n    \r\n    event Terminated ();\r\n\r\n    // Receive any ethereum randomly sent to the contract from outside\r\n    receive() external payable {\r\n        emit Received(msg.sender, msg.value);\r\n    }\r\n    \r\n    function Terminate() public payable {\r\n        require(msg.sender == _owner);\r\n        \r\n        payable(_owner).transfer(address(this).balance);\r\n        \r\n        State = StateType.Terminated;\r\n        \r\n        emit Terminated();\r\n    }\r\n    \r\n    function SetDelinquentStatus() public payable {\r\n        require(msg.sender == _owner);\r\n        \r\n        State = StateType.Delinquent;\r\n        \r\n        // payout insurance to lender\r\n        payable(Lender).transfer(address(this).balance);\r\n        \r\n        emit Delinquent();\r\n    }\r\n\r\n    // get tupple with information about current contract\r\n    function Info()\r\n        public\r\n        view\r\n        returns (\r\n            address,\r\n            address,\r\n            uint256,\r\n            uint256,\r\n            uint256,\r\n            uint256,\r\n            uint256,\r\n            StateType\r\n        )\r\n    {\r\n        return (\r\n            Lender,\r\n            Borrower,\r\n            LoanAmount,\r\n            Balance,\r\n            InterestRate,\r\n            RepaymentPeriod,\r\n            PaymentNumber,\r\n            State\r\n        );\r\n    }\r\n}",
  "sourcePath": "C:\\Users\\abdie\\Documents\\Developer\\Capstone\\CAPSTONE_APP\\contracts\\DecentraLoan.sol",
  "compiler": {
    "name": "solc",
    "version": "0.8.0+commit.c7dfd78e.Emscripten.clang"
  },
  "schemaVersion": "3.3.3",
  "updatedAt": "2021-04-28T18:55:08.278Z",
  "devdoc": {
    "kind": "dev",
    "methods": {},
    "version": 1
  },
  "userdoc": {
    "events": {
      "Received(address,uint256)": {
        "notice": "EVENTS*"
      }
    },
    "kind": "user",
    "methods": {},
    "version": 1
  }
}