{
  "contractName": "DecentraLoanPlatform",
  "abi": [
    {
      "inputs": [],
      "stateMutability": "nonpayable",
      "type": "constructor"
    },
    {
      "inputs": [],
      "name": "GetLoans",
      "outputs": [
        {
          "internalType": "address[]",
          "name": "",
          "type": "address[]"
        }
      ],
      "stateMutability": "view",
      "type": "function"
    },
    {
      "inputs": [
        {
          "internalType": "address",
          "name": "lender",
          "type": "address"
        },
        {
          "internalType": "uint256",
          "name": "amount",
          "type": "uint256"
        },
        {
          "internalType": "uint256",
          "name": "interest",
          "type": "uint256"
        },
        {
          "internalType": "uint256",
          "name": "months",
          "type": "uint256"
        },
        {
          "internalType": "uint256",
          "name": "platform",
          "type": "uint256"
        }
      ],
      "name": "NewLoan",
      "outputs": [],
      "stateMutability": "payable",
      "type": "function"
    },
    {
      "inputs": [],
      "name": "Decomise",
      "outputs": [],
      "stateMutability": "payable",
      "type": "function"
    }
  ],
  "bytecode": "0x608060405234801561001057600080fd5b5033600160006101000a81548173ffffffffffffffffffffffffffffffffffffffff021916908373ffffffffffffffffffffffffffffffffffffffff1602179055506000600160146101000a81548160ff02191690831515021790555061316b8061007c6000396000f3fe608060405260043610620000385760003560e01c80633151a669146200003d578063583f4a44146200006d578063aa8ba74c146200008d575b600080fd5b3480156200004a57600080fd5b506200005562000099565b604051620000649190620004d3565b60405180910390f35b6200008b60048036038101906200008591906200032d565b62000144565b005b620000976200025f565b005b6060600160149054906101000a900460ff1615620000b657600080fd5b60008054806020026020016040519081016040528092919081815260200182805480156200013a57602002820191906000526020600020905b8160009054906101000a900473ffffffffffffffffffffffffffffffffffffffff1673ffffffffffffffffffffffffffffffffffffffff1681526020019060010190808311620000ef575b5050505050905090565b600160149054906101000a900460ff16156200015f57600080fd5b60003386868686866040516200017590620002f1565b620001869695949392919062000466565b604051809103906000f080158015620001a3573d6000803e3d6000fd5b50905060008190508073ffffffffffffffffffffffffffffffffffffffff166108fc349081150290604051600060405180830381858888f19350505050158015620001f2573d6000803e3d6000fd5b506000819080600181540180825580915050600190039060005260206000200160009091909190916101000a81548173ffffffffffffffffffffffffffffffffffffffff021916908373ffffffffffffffffffffffffffffffffffffffff16021790555050505050505050565b600160149054906101000a900460ff16156200027a57600080fd5b600160009054906101000a900473ffffffffffffffffffffffffffffffffffffffff1673ffffffffffffffffffffffffffffffffffffffff163373ffffffffffffffffffffffffffffffffffffffff1614620002d557600080fd5b60018060146101000a81548160ff021916908315150217905550565b612b9380620005a383390190565b60008135905062000310816200056e565b92915050565b600081359050620003278162000588565b92915050565b600080600080600060a086880312156200034657600080fd5b60006200035688828901620002ff565b9550506020620003698882890162000316565b94505060406200037c8882890162000316565b93505060606200038f8882890162000316565b9250506080620003a28882890162000316565b9150509295509295909350565b6000620003bd8383620003c9565b60208301905092915050565b620003d48162000530565b82525050565b620003e58162000530565b82525050565b6000620003f88262000507565b6200040481856200051f565b93506200041183620004f7565b8060005b83811015620004485781516200042c8882620003af565b9750620004398362000512565b92505060018101905062000415565b5085935050505092915050565b620004608162000564565b82525050565b600060c0820190506200047d6000830189620003da565b6200048c6020830188620003da565b6200049b604083018762000455565b620004aa606083018662000455565b620004b9608083018562000455565b620004c860a083018462000455565b979650505050505050565b60006020820190508181036000830152620004ef8184620003eb565b905092915050565b6000819050602082019050919050565b600081519050919050565b6000602082019050919050565b600082825260208201905092915050565b60006200053d8262000544565b9050919050565b600073ffffffffffffffffffffffffffffffffffffffff82169050919050565b6000819050919050565b620005798162000530565b81146200058557600080fd5b50565b620005938162000564565b81146200059f57600080fd5b5056fe60806040523480156200001157600080fd5b5060405162002b9338038062002b938339818101604052810190620000379190620001a7565b84600c60006101000a81548173ffffffffffffffffffffffffffffffffffffffff021916908373ffffffffffffffffffffffffffffffffffffffff16021790555083600e8190555082600f819055508160108190555080601181905550856000806101000a81548173ffffffffffffffffffffffffffffffffffffffff021916908373ffffffffffffffffffffffffffffffffffffffff1602179055506000601260006101000a81548160ff0219169083600681111562000121577f4e487b7100000000000000000000000000000000000000000000000000000000600052602160045260246000fd5b021790555060006015819055507f99a12a7aefbbb67909c2bee4a5e2ddb98b2183b8ae2a59e5a7db47f53453345d858585856040516200016594939291906200025f565b60405180910390a15050505050506200031e565b6000815190506200018a81620002ea565b92915050565b600081519050620001a18162000304565b92915050565b60008060008060008060c08789031215620001c157600080fd5b6000620001d189828a0162000179565b9650506020620001e489828a0162000179565b9550506040620001f789828a0162000190565b94505060606200020a89828a0162000190565b93505060806200021d89828a0162000190565b92505060a06200023089828a0162000190565b9150509295509295509295565b6200024881620002ac565b82525050565b6200025981620002e0565b82525050565b60006080820190506200027660008301876200023d565b6200028560208301866200024e565b6200029460408301856200024e565b620002a360608301846200024e565b95945050505050565b6000620002b982620002c0565b9050919050565b600073ffffffffffffffffffffffffffffffffffffffff82169050919050565b6000819050919050565b620002f581620002ac565b81146200030157600080fd5b50565b6200030f81620002e0565b81146200031b57600080fd5b50565b612865806200032e6000396000f3fe6080604052600436106100e05760003560e01c806357ea89b61161007f578063b3a8191911610059578063b3a819191461024a578063c081996114610266578063d383d2e314610270578063dab053e21461028c57610120565b806357ea89b61461021a5780639364330e146102245780639445eb3a1461024057610120565b806324d09da4116100bb57806324d09da4146101645780634012e02e1461018f5780635677640b146101c157806357baac0d146101fe57610120565b8062b373d6146101255780631843d3e31461012f57806324c859641461015a57610120565b36610120577f88a5966d370b9919b20f3e2c13ff65706f196a4e32cc2c12bf57088f88525874333460405161011692919061221c565b60405180910390a1005b600080fd5b61012d6102a8565b005b34801561013b57600080fd5b50610144610353565b6040516101519190612314565b60405180910390f35b6101626103d4565b005b34801561017057600080fd5b506101796105b9565b6040516101869190612352565b60405180910390f35b34801561019b57600080fd5b506101a46105c3565b6040516101b898979695949392919061219e565b60405180910390f35b3480156101cd57600080fd5b506101e860048036038101906101e39190611eae565b61064e565b6040516101f59190612330565b60405180910390f35b61021860048036038101906102139190611ed7565b61082e565b005b61022261098b565b005b61023e60048036038101906102399190611dbc565b610b1b565b005b610248610d35565b005b610264600480360381019061025f9190611eae565b610e73565b005b61026e611061565b005b61028a60048036038101906102859190611e1f565b6112a2565b005b6102a660048036038101906102a19190611d93565b611719565b005b60008054906101000a900473ffffffffffffffffffffffffffffffffffffffff1673ffffffffffffffffffffffffffffffffffffffff163373ffffffffffffffffffffffffffffffffffffffff161461030057600080fd5b6004601260006101000a81548160ff0219169083600681111561034c577f4e487b7100000000000000000000000000000000000000000000000000000000600052602160045260246000fd5b0217905550565b61035b611bcc565b6001600a806020026040519081016040528092919082600a80156103ca576020028201915b8160009054906101000a900473ffffffffffffffffffffffffffffffffffffffff1673ffffffffffffffffffffffffffffffffffffffff1681526020019060010190808311610380575b5050505050905090565b60008054906101000a900473ffffffffffffffffffffffffffffffffffffffff1673ffffffffffffffffffffffffffffffffffffffff163373ffffffffffffffffffffffffffffffffffffffff161461042c57600080fd5b60005b600b548110156105b657600181600a8110610473577f4e487b7100000000000000000000000000000000000000000000000000000000600052603260045260246000fd5b0160009054906101000a900473ffffffffffffffffffffffffffffffffffffffff1673ffffffffffffffffffffffffffffffffffffffff166108fc6601c6bf52634000600a600e546104c59190612493565b6104cf91906124c4565b9081150290604051600060405180830381858888f193505050501580156104fa573d6000803e3d6000fd5b507fd14c96933a4a33d20a125a7148222f07ef59ed810a59a3fffd9137bbdd0ddd9c600182600a8110610556577f4e487b7100000000000000000000000000000000000000000000000000000000600052603260045260246000fd5b0160009054906101000a900473ffffffffffffffffffffffffffffffffffffffff166601c6bf52634000600e5461058d91906124c4565b60405161059b929190612122565b60405180910390a180806105ae90612694565b91505061042f565b50565b6000600e54905090565b600080600080600080600080600c60009054906101000a900473ffffffffffffffffffffffffffffffffffffffff16600d60009054906101000a900473ffffffffffffffffffffffffffffffffffffffff16600e54601454600f54601054601554601260009054906101000a900460ff16975097509750975097509750975097509091929394959697565b610656611bef565b60155482111561066557600080fd5b6013828154811061069f577f4e487b7100000000000000000000000000000000000000000000000000000000600052603260045260246000fd5b90600052602060002090600302016040518060600160405290816000820160009054906101000a900473ffffffffffffffffffffffffffffffffffffffff1673ffffffffffffffffffffffffffffffffffffffff1673ffffffffffffffffffffffffffffffffffffffff16815260200160018201805461071e90612662565b80601f016020809104026020016040519081016040528092919081815260200182805461074a90612662565b80156107975780601f1061076c57610100808354040283529160200191610797565b820191906000526020600020905b81548152906001019060200180831161077a57829003601f168201915b505050505081526020016002820160009054906101000a900460ff1660028111156107eb577f4e487b7100000000000000000000000000000000000000000000000000000000600052602160045260246000fd5b6002811115610823577f4e487b7100000000000000000000000000000000000000000000000000000000600052602160045260246000fd5b815250509050919050565b60008054906101000a900473ffffffffffffffffffffffffffffffffffffffff1673ffffffffffffffffffffffffffffffffffffffff163373ffffffffffffffffffffffffffffffffffffffff161461088657600080fd5b600060068111156108c0577f4e487b7100000000000000000000000000000000000000000000000000000000600052602160045260246000fd5b601260009054906101000a900460ff166006811115610908577f4e487b7100000000000000000000000000000000000000000000000000000000600052602160045260246000fd5b1461091257600080fd5b82600e8190555081600f81905550806010819055507fff917abbd5265db0321d1698dfe74287ae6b93d1cd1f486a618d1124feb0b8bc600c60009054906101000a900473ffffffffffffffffffffffffffffffffffffffff1684848460405161097e94939291906122cf565b60405180910390a1505050565b60008054906101000a900473ffffffffffffffffffffffffffffffffffffffff1673ffffffffffffffffffffffffffffffffffffffff163373ffffffffffffffffffffffffffffffffffffffff16146109e357600080fd5b60006006811115610a1d577f4e487b7100000000000000000000000000000000000000000000000000000000600052602160045260246000fd5b601260009054906101000a900460ff166006811115610a65577f4e487b7100000000000000000000000000000000000000000000000000000000600052602160045260246000fd5b14610a6f57600080fd5b6006601260006101000a81548160ff02191690836006811115610abb577f4e487b7100000000000000000000000000000000000000000000000000000000600052602160045260246000fd5b02179055507ff45a04d08a70caa7eb4b747571305559ad9fdf4a093afd41506b35c8a306fa94600c60009054906101000a900473ffffffffffffffffffffffffffffffffffffffff16604051610b119190612107565b60405180910390a1565b60008054906101000a900473ffffffffffffffffffffffffffffffffffffffff1673ffffffffffffffffffffffffffffffffffffffff163373ffffffffffffffffffffffffffffffffffffffff1614610b7357600080fd5b60006006811115610bad577f4e487b7100000000000000000000000000000000000000000000000000000000600052602160045260246000fd5b601260009054906101000a900460ff166006811115610bf5577f4e487b7100000000000000000000000000000000000000000000000000000000600052602160045260246000fd5b14610bff57600080fd5b83600d60006101000a81548173ffffffffffffffffffffffffffffffffffffffff021916908373ffffffffffffffffffffffffffffffffffffffff16021790555082600e8190555081600f81905550806010819055506002601260006101000a81548160ff02191690836006811115610ca1577f4e487b7100000000000000000000000000000000000000000000000000000000600052602160045260246000fd5b02179055507f8fe0ac573acf497793f3dcb9d6a4ee36413e0231ccaa4074d0dd5534be01e38b600c60009054906101000a900473ffffffffffffffffffffffffffffffffffffffff16600d60009054906101000a900473ffffffffffffffffffffffffffffffffffffffff16600e54600f54601054604051610d2795949392919061214b565b60405180910390a150505050565b60008054906101000a900473ffffffffffffffffffffffffffffffffffffffff1673ffffffffffffffffffffffffffffffffffffffff163373ffffffffffffffffffffffffffffffffffffffff1614610d8d57600080fd5b60008054906101000a900473ffffffffffffffffffffffffffffffffffffffff1673ffffffffffffffffffffffffffffffffffffffff166108fc479081150290604051600060405180830381858888f19350505050158015610df3573d6000803e3d6000fd5b506005601260006101000a81548160ff02191690836006811115610e40577f4e487b7100000000000000000000000000000000000000000000000000000000600052602160045260246000fd5b02179055507f56a9f39a7e827c383642a56b2ca4614ea9e1e7553a99dac156511be09dd1449560405160405180910390a1565b60008054906101000a900473ffffffffffffffffffffffffffffffffffffffff1673ffffffffffffffffffffffffffffffffffffffff163373ffffffffffffffffffffffffffffffffffffffff1614610ecb57600080fd5b60005b600b5481101561105d57600181600a8110610f12577f4e487b7100000000000000000000000000000000000000000000000000000000600052603260045260246000fd5b0160009054906101000a900473ffffffffffffffffffffffffffffffffffffffff1673ffffffffffffffffffffffffffffffffffffffff166108fc6601c6bf52634000606485610f629190612493565b610f6c91906124c4565b9081150290604051600060405180830381858888f19350505050158015610f97573d6000803e3d6000fd5b507f6bb3934e1c154e4f4f60d85c51a1a47a51c3f4a954b921baaa558cdf7ba9f025600182600a8110610ff3577f4e487b7100000000000000000000000000000000000000000000000000000000600052603260045260246000fd5b0160009054906101000a900473ffffffffffffffffffffffffffffffffffffffff166601c6bf5263400060648561102a9190612493565b61103491906124c4565b604051611042929190612122565b60405180910390a1808061105590612694565b915050610ece565b5050565b60068081111561109a577f4e487b7100000000000000000000000000000000000000000000000000000000600052602160045260246000fd5b601260009054906101000a900460ff1660068111156110e2577f4e487b7100000000000000000000000000000000000000000000000000000000600052602160045260246000fd5b14158061116f575060046006811115611124577f4e487b7100000000000000000000000000000000000000000000000000000000600052602160045260246000fd5b601260009054906101000a900460ff16600681111561116c577f4e487b7100000000000000000000000000000000000000000000000000000000600052602160045260246000fd5b14155b61117857600080fd5b600a600b541061118757600080fd5b6601c6bf52634000600a600e5461119e9190612493565b6111a891906124c4565b34146111b357600080fd5b336001600b54600a81106111f0577f4e487b7100000000000000000000000000000000000000000000000000000000600052603260045260246000fd5b0160006101000a81548173ffffffffffffffffffffffffffffffffffffffff021916908373ffffffffffffffffffffffffffffffffffffffff160217905550600b600081548092919061124290612694565b91905055507fc3f75dfc78f6efac88ad5abb5e606276b903647d97b2a62a1ef89840a658bbc3336601c6bf52634000600a600e546112809190612493565b61128a91906124c4565b60405161129892919061221c565b60405180910390a1565b60008054906101000a900473ffffffffffffffffffffffffffffffffffffffff1673ffffffffffffffffffffffffffffffffffffffff163373ffffffffffffffffffffffffffffffffffffffff16146112fa57600080fd5b600c60009054906101000a900473ffffffffffffffffffffffffffffffffffffffff1673ffffffffffffffffffffffffffffffffffffffff168573ffffffffffffffffffffffffffffffffffffffff1614806113a35750600d60009054906101000a900473ffffffffffffffffffffffffffffffffffffffff1673ffffffffffffffffffffffffffffffffffffffff168573ffffffffffffffffffffffffffffffffffffffff16145b806113f9575060008054906101000a900473ffffffffffffffffffffffffffffffffffffffff1673ffffffffffffffffffffffffffffffffffffffff168573ffffffffffffffffffffffffffffffffffffffff16145b61140257600080fd5b6002600681111561143c577f4e487b7100000000000000000000000000000000000000000000000000000000600052602160045260246000fd5b601260009054906101000a900460ff166006811115611484577f4e487b7100000000000000000000000000000000000000000000000000000000600052602160045260246000fd5b1461148e57600080fd5b6000831161149b57600080fd5b600060155414156114b257826014819055506114e9565b826014546114c0919061251e565b6014819055506114e86001600b546114d8919061243d565b836114e39190612493565b610e73565b5b601360405180606001604052808773ffffffffffffffffffffffffffffffffffffffff16815260200183815260200160006002811115611552577f4e487b7100000000000000000000000000000000000000000000000000000000600052602160045260246000fd5b815250908060018154018082558091505060019003906000526020600020906003020160009091909190915060008201518160000160006101000a81548173ffffffffffffffffffffffffffffffffffffffff021916908373ffffffffffffffffffffffffffffffffffffffff16021790555060208201518160010190805190602001906115e1929190611c5e565b5060408201518160020160006101000a81548160ff02191690836002811115611633577f4e487b7100000000000000000000000000000000000000000000000000000000600052602160045260246000fd5b021790555050506003601260006101000a81548160ff02191690836006811115611686577f4e487b7100000000000000000000000000000000000000000000000000000000600052602160045260246000fd5b02179055507f5cfc5f208b7752cea928bde39e788a6ba0683d77941de216b2a1c34d754bf904858486601388815481106116e9577f4e487b7100000000000000000000000000000000000000000000000000000000600052603260045260246000fd5b906000526020600020906003020160010160405161170a9493929190612283565b60405180910390a15050505050565b60008054906101000a900473ffffffffffffffffffffffffffffffffffffffff1673ffffffffffffffffffffffffffffffffffffffff163373ffffffffffffffffffffffffffffffffffffffff161461177157600080fd5b600d60009054906101000a900473ffffffffffffffffffffffffffffffffffffffff1673ffffffffffffffffffffffffffffffffffffffff168173ffffffffffffffffffffffffffffffffffffffff161480156118885750600c60009054906101000a900473ffffffffffffffffffffffffffffffffffffffff1673ffffffffffffffffffffffffffffffffffffffff1660136015548154811061183e577f4e487b7100000000000000000000000000000000000000000000000000000000600052603260045260246000fd5b906000526020600020906003020160000160009054906101000a900473ffffffffffffffffffffffffffffffffffffffff1673ffffffffffffffffffffffffffffffffffffffff16145b806119a65750600c60009054906101000a900473ffffffffffffffffffffffffffffffffffffffff1673ffffffffffffffffffffffffffffffffffffffff168173ffffffffffffffffffffffffffffffffffffffff161480156119a55750600d60009054906101000a900473ffffffffffffffffffffffffffffffffffffffff1673ffffffffffffffffffffffffffffffffffffffff1660136015548154811061195b577f4e487b7100000000000000000000000000000000000000000000000000000000600052603260045260246000fd5b906000526020600020906003020160000160009054906101000a900473ffffffffffffffffffffffffffffffffffffffff1673ffffffffffffffffffffffffffffffffffffffff16145b5b6119af57600080fd5b600360068111156119e9577f4e487b7100000000000000000000000000000000000000000000000000000000600052602160045260246000fd5b601260009054906101000a900460ff166006811115611a31577f4e487b7100000000000000000000000000000000000000000000000000000000600052602160045260246000fd5b14611a3b57600080fd5b6002601360155481548110611a79577f4e487b7100000000000000000000000000000000000000000000000000000000600052603260045260246000fd5b906000526020600020906003020160020160006101000a81548160ff02191690836002811115611ad2577f4e487b7100000000000000000000000000000000000000000000000000000000600052602160045260246000fd5b02179055506002601260006101000a81548160ff02191690836006811115611b23577f4e487b7100000000000000000000000000000000000000000000000000000000600052602160045260246000fd5b02179055507f81c0c81b76f6d40169ac434db902906d87dba0f6ecd6f0249356df7f6977e60281601554601360155481548110611b89577f4e487b7100000000000000000000000000000000000000000000000000000000600052603260045260246000fd5b9060005260206000209060030201600101604051611ba993929190612245565b60405180910390a160156000815480929190611bc490612694565b919050555050565b604051806101400160405280600a90602082028036833780820191505090505090565b6040518060600160405280600073ffffffffffffffffffffffffffffffffffffffff1681526020016060815260200160006002811115611c58577f4e487b7100000000000000000000000000000000000000000000000000000000600052602160045260246000fd5b81525090565b828054611c6a90612662565b90600052602060002090601f016020900481019282611c8c5760008555611cd3565b82601f10611ca557805160ff1916838001178555611cd3565b82800160010185558215611cd3579182015b82811115611cd2578251825591602001919060010190611cb7565b5b509050611ce09190611ce4565b5090565b5b80821115611cfd576000816000905550600101611ce5565b5090565b6000611d14611d0f8461239e565b61236d565b905082815260208101848484011115611d2c57600080fd5b611d37848285612620565b509392505050565b600081359050611d4e81612801565b92915050565b600082601f830112611d6557600080fd5b8135611d75848260208601611d01565b91505092915050565b600081359050611d8d81612818565b92915050565b600060208284031215611da557600080fd5b6000611db384828501611d3f565b91505092915050565b60008060008060808587031215611dd257600080fd5b6000611de087828801611d3f565b9450506020611df187828801611d7e565b9350506040611e0287828801611d7e565b9250506060611e1387828801611d7e565b91505092959194509250565b600080600080600060a08688031215611e3757600080fd5b6000611e4588828901611d3f565b9550506020611e5688828901611d7e565b9450506040611e6788828901611d7e565b9350506060611e7888828901611d7e565b925050608086013567ffffffffffffffff811115611e9557600080fd5b611ea188828901611d54565b9150509295509295909350565b600060208284031215611ec057600080fd5b6000611ece84828501611d7e565b91505092915050565b600080600060608486031215611eec57600080fd5b6000611efa86828701611d7e565b9350506020611f0b86828701611d7e565b9250506040611f1c86828701611d7e565b9150509250925092565b6000611f328383611f4d565b60208301905092915050565b611f47816125c6565b82525050565b611f5681612564565b82525050565b611f6581612552565b82525050565b611f7481612552565b82525050565b611f83816123ed565b611f8d8184612410565b9250611f98826123ce565b8060005b83811015611fc9578151611fb08782611f26565b9650611fbb83612403565b925050600181019050611f9c565b505050505050565b611fda816125d8565b82525050565b611fe9816125ea565b82525050565b6000611ffa826123f8565b612004818561241b565b935061201481856020860161262f565b61201d816127c8565b840191505092915050565b6000815461203581612662565b61203f818661242c565b9450600182166000811461205a576001811461206c5761209f565b60ff198316865260208601935061209f565b612075856123d8565b60005b8381101561209757815481890152600182019150602081019050612078565b808801955050505b50505092915050565b60006060830160008301516120c06000860182611f5c565b50602083015184820360208601526120d88282611fef565b91505060408301516120ed6040860182611fd1565b508091505092915050565b612101816125bc565b82525050565b600060208201905061211c6000830184611f6b565b92915050565b60006040820190506121376000830185611f3e565b61214460208301846120f8565b9392505050565b600060a0820190506121606000830188611f6b565b61216d6020830187611f6b565b61217a60408301866120f8565b61218760608301856120f8565b61219460808301846120f8565b9695505050505050565b6000610100820190506121b4600083018b611f6b565b6121c1602083018a611f6b565b6121ce60408301896120f8565b6121db60608301886120f8565b6121e860808301876120f8565b6121f560a08301866120f8565b61220260c08301856120f8565b61220f60e0830184611fe0565b9998505050505050505050565b60006040820190506122316000830185611f6b565b61223e60208301846120f8565b9392505050565b600060608201905061225a6000830186611f6b565b61226760208301856120f8565b81810360408301526122798184612028565b9050949350505050565b60006080820190506122986000830187611f6b565b6122a560208301866120f8565b6122b260408301856120f8565b81810360608301526122c48184612028565b905095945050505050565b60006080820190506122e46000830187611f6b565b6122f160208301866120f8565b6122fe60408301856120f8565b61230b60608301846120f8565b95945050505050565b60006101408201905061232a6000830184611f7a565b92915050565b6000602082019050818103600083015261234a81846120a8565b905092915050565b600060208201905061236760008301846120f8565b92915050565b6000604051905081810181811067ffffffffffffffff8211171561239457612393612799565b5b8060405250919050565b600067ffffffffffffffff8211156123b9576123b8612799565b5b601f19601f8301169050602081019050919050565b6000819050919050565b60008190508160005260206000209050919050565b6000600a9050919050565b600081519050919050565b6000602082019050919050565b600081905092915050565b600082825260208201905092915050565b600082825260208201905092915050565b6000612448826125bc565b9150612453836125bc565b9250827fffffffffffffffffffffffffffffffffffffffffffffffffffffffffffffffff03821115612488576124876126dd565b5b828201905092915050565b600061249e826125bc565b91506124a9836125bc565b9250826124b9576124b861270c565b5b828204905092915050565b60006124cf826125bc565b91506124da836125bc565b9250817fffffffffffffffffffffffffffffffffffffffffffffffffffffffffffffffff0483118215151615612513576125126126dd565b5b828202905092915050565b6000612529826125bc565b9150612534836125bc565b925082821015612547576125466126dd565b5b828203905092915050565b600061255d8261259c565b9050919050565b600061256f8261259c565b9050919050565b6000819050612584826127d9565b919050565b6000819050612597826127ed565b919050565b600073ffffffffffffffffffffffffffffffffffffffff82169050919050565b6000819050919050565b60006125d1826125fc565b9050919050565b60006125e382612576565b9050919050565b60006125f582612589565b9050919050565b60006126078261260e565b9050919050565b60006126198261259c565b9050919050565b82818337600083830152505050565b60005b8381101561264d578082015181840152602081019050612632565b8381111561265c576000848401525b50505050565b6000600282049050600182168061267a57607f821691505b6020821081141561268e5761268d61276a565b5b50919050565b600061269f826125bc565b91507fffffffffffffffffffffffffffffffffffffffffffffffffffffffffffffffff8214156126d2576126d16126dd565b5b600182019050919050565b7f4e487b7100000000000000000000000000000000000000000000000000000000600052601160045260246000fd5b7f4e487b7100000000000000000000000000000000000000000000000000000000600052601260045260246000fd5b7f4e487b7100000000000000000000000000000000000000000000000000000000600052602160045260246000fd5b7f4e487b7100000000000000000000000000000000000000000000000000000000600052602260045260246000fd5b7f4e487b7100000000000000000000000000000000000000000000000000000000600052604160045260246000fd5b6000601f19601f8301169050919050565b600381106127ea576127e961273b565b5b50565b600781106127fe576127fd61273b565b5b50565b61280a81612552565b811461281557600080fd5b50565b612821816125bc565b811461282c57600080fd5b5056fea264697066735822122008c22e998abd30116a211c8d2f059cc12fb78b51d15764d024b8a3db51508f8d64736f6c63430008000033a2646970667358221220d03fa422ef78c98fd33f5e8d649a8ad4ee59e8a6afb1b8198364c198eb452bba64736f6c63430008000033",
  "immutableReferences": {},
  "source": "// SPDX-License-Identifier: MIT\r\npragma solidity ^0.8.0;\r\n\r\nimport \"./DecentraLoan.sol\";\r\n\r\ncontract DecentraLoanPlatform {\r\n    address[] private _loans;\r\n    \r\n    address private _owner;\r\n    bool private _obsolete;\r\n\r\n    constructor () {\r\n        _owner = msg.sender;\r\n        _obsolete = false;\r\n    }\r\n\r\n    function GetLoans() public view returns (address[] memory) {\r\n        require(!_obsolete);\r\n        \r\n        return _loans;\r\n    }\r\n\r\n    // Loan Factory Methods\r\n    function NewLoan(\r\n        address lender,\r\n        uint256 amount,\r\n        uint256 interest,\r\n        uint256 months,\r\n        uint256 platform\r\n    ) \r\n    public \r\n    payable \r\n    {\r\n        require(!_obsolete);\r\n        \r\n        DecentraLoan newContract = new DecentraLoan(msg.sender, lender, amount, interest, months, platform);\r\n        \r\n        address contractAddress = address(newContract);\r\n        \r\n        payable(contractAddress).transfer(msg.value);\r\n       \r\n        _loans.push(contractAddress);\r\n    }\r\n    \r\n    function Decomise() public payable {\r\n        require(!_obsolete);\r\n        require(msg.sender == _owner);\r\n        _obsolete = true;\r\n    }\r\n\r\n}",
  "sourcePath": "C:/Users/abdie/Documents/Developer/Capstone/CAPSTONE_APP/contracts/DecentraLoanPlatform.sol",
  "compiler": {
    "name": "solc",
    "version": "0.8.0+commit.c7dfd78e.Emscripten.clang"
  },
  "schemaVersion": "3.3.3",
  "updatedAt": "2021-04-25T03:57:25.739Z",
  "devdoc": {
    "kind": "dev",
    "methods": {},
    "version": 1
  },
  "userdoc": {
    "kind": "user",
    "methods": {},
    "version": 1
  }
}