{
  "contractName": "DecentraLoan",
  "abi": [
    {
      "inputs": [
        {
          "internalType": "address",
          "name": "owner",
          "type": "address"
        },
        {
          "internalType": "address",
          "name": "lender",
          "type": "address"
        },
        {
          "internalType": "uint256",
          "name": "amount",
          "type": "uint256"
        },
        {
          "internalType": "uint256",
          "name": "interest",
          "type": "uint256"
        },
        {
          "internalType": "uint256",
          "name": "repaymentPeriod",
          "type": "uint256"
        },
        {
          "internalType": "uint256",
          "name": "platform",
          "type": "uint256"
        }
      ],
      "stateMutability": "nonpayable",
      "type": "constructor"
    },
    {
      "anonymous": false,
      "inputs": [
        {
          "indexed": false,
          "internalType": "address",
          "name": "lender",
          "type": "address"
        },
        {
          "indexed": false,
          "internalType": "uint256",
          "name": "amount",
          "type": "uint256"
        },
        {
          "indexed": false,
          "internalType": "uint256",
          "name": "interest",
          "type": "uint256"
        },
        {
          "indexed": false,
          "internalType": "uint256",
          "name": "repaymentPeriod",
          "type": "uint256"
        }
      ],
      "name": "Created",
      "type": "event"
    },
    {
      "anonymous": false,
      "inputs": [
        {
          "indexed": false,
          "internalType": "address",
          "name": "lender",
          "type": "address"
        },
        {
          "indexed": false,
          "internalType": "address",
          "name": "borrower",
          "type": "address"
        },
        {
          "indexed": false,
          "internalType": "uint256",
          "name": "amount",
          "type": "uint256"
        },
        {
          "indexed": false,
          "internalType": "uint256",
          "name": "interest",
          "type": "uint256"
        },
        {
          "indexed": false,
          "internalType": "uint256",
          "name": "repaymentPeriod",
          "type": "uint256"
        }
      ],
      "name": "DealReached",
      "type": "event"
    },
    {
      "anonymous": false,
      "inputs": [
        {
          "indexed": false,
          "internalType": "address",
          "name": "lender",
          "type": "address"
        },
        {
          "indexed": false,
          "internalType": "uint256",
          "name": "amount",
          "type": "uint256"
        },
        {
          "indexed": false,
          "internalType": "uint256",
          "name": "interest",
          "type": "uint256"
        },
        {
          "indexed": false,
          "internalType": "uint256",
          "name": "repaymentPeriod",
          "type": "uint256"
        }
      ],
      "name": "Modified",
      "type": "event"
    },
    {
      "anonymous": false,
      "inputs": [
        {
          "indexed": false,
          "internalType": "address",
          "name": "sender",
          "type": "address"
        },
        {
          "indexed": false,
          "internalType": "uint256",
          "name": "amount",
          "type": "uint256"
        },
        {
          "indexed": false,
          "internalType": "uint256",
          "name": "paymentNumber",
          "type": "uint256"
        },
        {
          "indexed": false,
          "internalType": "string",
          "name": "evidence",
          "type": "string"
        }
      ],
      "name": "PaymentSent",
      "type": "event"
    },
    {
      "anonymous": false,
      "inputs": [
        {
          "indexed": false,
          "internalType": "address",
          "name": "sender",
          "type": "address"
        },
        {
          "indexed": false,
          "internalType": "uint256",
          "name": "paymentNumber",
          "type": "uint256"
        },
        {
          "indexed": false,
          "internalType": "string",
          "name": "evidence",
          "type": "string"
        }
      ],
      "name": "PaymentValidated",
      "type": "event"
    },
    {
      "anonymous": false,
      "inputs": [
        {
          "indexed": false,
          "internalType": "address",
          "name": "sender",
          "type": "address"
        },
        {
          "indexed": false,
          "internalType": "uint256",
          "name": "amount",
          "type": "uint256"
        }
      ],
      "name": "Received",
      "type": "event"
    },
    {
      "anonymous": false,
      "inputs": [
        {
          "indexed": false,
          "internalType": "address",
          "name": "lender",
          "type": "address"
        },
        {
          "indexed": false,
          "internalType": "string",
          "name": "reason",
          "type": "string"
        }
      ],
      "name": "Withdrawn",
      "type": "event"
    },
    {
      "inputs": [],
      "name": "Balance",
      "outputs": [
        {
          "internalType": "uint256",
          "name": "",
          "type": "uint256"
        }
      ],
      "stateMutability": "view",
      "type": "function"
    },
    {
      "inputs": [],
      "name": "Borrower",
      "outputs": [
        {
          "internalType": "address",
          "name": "",
          "type": "address"
        }
      ],
      "stateMutability": "view",
      "type": "function"
    },
    {
      "inputs": [
        {
          "internalType": "uint256",
          "name": "",
          "type": "uint256"
        }
      ],
      "name": "Evidences",
      "outputs": [
        {
          "internalType": "address",
          "name": "sender",
          "type": "address"
        },
        {
          "internalType": "string",
          "name": "transactionHash",
          "type": "string"
        },
        {
          "internalType": "enum DecentraLoan.EvidenceStatus",
          "name": "evidenceStatus",
          "type": "uint8"
        }
      ],
      "stateMutability": "view",
      "type": "function"
    },
    {
      "inputs": [],
      "name": "InterestRate",
      "outputs": [
        {
          "internalType": "uint256",
          "name": "",
          "type": "uint256"
        }
      ],
      "stateMutability": "view",
      "type": "function"
    },
    {
      "inputs": [],
      "name": "Lender",
      "outputs": [
        {
          "internalType": "address",
          "name": "",
          "type": "address"
        }
      ],
      "stateMutability": "view",
      "type": "function"
    },
    {
      "inputs": [],
      "name": "LoanAmount",
      "outputs": [
        {
          "internalType": "uint256",
          "name": "",
          "type": "uint256"
        }
      ],
      "stateMutability": "view",
      "type": "function"
    },
    {
      "inputs": [],
      "name": "PaymentNumber",
      "outputs": [
        {
          "internalType": "uint256",
          "name": "",
          "type": "uint256"
        }
      ],
      "stateMutability": "view",
      "type": "function"
    },
    {
      "inputs": [],
      "name": "Platform",
      "outputs": [
        {
          "internalType": "uint256",
          "name": "",
          "type": "uint256"
        }
      ],
      "stateMutability": "view",
      "type": "function"
    },
    {
      "inputs": [],
      "name": "RepaymentPeriod",
      "outputs": [
        {
          "internalType": "uint256",
          "name": "",
          "type": "uint256"
        }
      ],
      "stateMutability": "view",
      "type": "function"
    },
    {
      "inputs": [],
      "name": "State",
      "outputs": [
        {
          "internalType": "enum DecentraLoan.StateType",
          "name": "",
          "type": "uint8"
        }
      ],
      "stateMutability": "view",
      "type": "function"
    },
    {
      "inputs": [],
      "name": "_owner",
      "outputs": [
        {
          "internalType": "address",
          "name": "",
          "type": "address"
        }
      ],
      "stateMutability": "view",
      "type": "function"
    },
    {
      "stateMutability": "payable",
      "type": "receive"
    },
    {
      "inputs": [
        {
          "internalType": "address",
          "name": "user",
          "type": "address"
        },
        {
          "internalType": "uint256",
          "name": "amount",
          "type": "uint256"
        },
        {
          "internalType": "uint256",
          "name": "interest",
          "type": "uint256"
        },
        {
          "internalType": "uint256",
          "name": "repaymentPeriod",
          "type": "uint256"
        }
      ],
      "name": "Modify",
      "outputs": [],
      "stateMutability": "payable",
      "type": "function"
    },
    {
      "inputs": [
        {
          "internalType": "address",
          "name": "user",
          "type": "address"
        },
        {
          "internalType": "address",
          "name": "_borrower",
          "type": "address"
        },
        {
          "internalType": "uint256",
          "name": "_amount",
          "type": "uint256"
        },
        {
          "internalType": "uint256",
          "name": "_interest",
          "type": "uint256"
        },
        {
          "internalType": "uint256",
          "name": "_repaymentPeriod",
          "type": "uint256"
        }
      ],
      "name": "Deal",
      "outputs": [],
      "stateMutability": "payable",
      "type": "function"
    },
    {
      "inputs": [
        {
          "internalType": "address",
          "name": "_lender",
          "type": "address"
        },
        {
          "internalType": "string",
          "name": "_reason",
          "type": "string"
        }
      ],
      "name": "Withdraw",
      "outputs": [],
      "stateMutability": "payable",
      "type": "function"
    },
    {
      "inputs": [
        {
          "internalType": "address",
          "name": "sender",
          "type": "address"
        },
        {
          "internalType": "uint256",
          "name": "paymentNumber",
          "type": "uint256"
        },
        {
          "internalType": "uint256",
          "name": "amount",
          "type": "uint256"
        },
        {
          "internalType": "string",
          "name": "evidence",
          "type": "string"
        }
      ],
      "name": "SendPayment",
      "outputs": [],
      "stateMutability": "payable",
      "type": "function"
    },
    {
      "inputs": [
        {
          "internalType": "uint256",
          "name": "paymentNumber",
          "type": "uint256"
        }
      ],
      "name": "GetEvidence",
      "outputs": [
        {
          "components": [
            {
              "internalType": "address",
              "name": "sender",
              "type": "address"
            },
            {
              "internalType": "string",
              "name": "transactionHash",
              "type": "string"
            },
            {
              "internalType": "enum DecentraLoan.EvidenceStatus",
              "name": "evidenceStatus",
              "type": "uint8"
            }
          ],
          "internalType": "struct DecentraLoan.Evidence",
          "name": "",
          "type": "tuple"
        }
      ],
      "stateMutability": "view",
      "type": "function"
    },
    {
      "inputs": [
        {
          "internalType": "address",
          "name": "user",
          "type": "address"
        },
        {
          "internalType": "uint256",
          "name": "paymentNumber",
          "type": "uint256"
        }
      ],
      "name": "ValidateEvidence",
      "outputs": [],
      "stateMutability": "payable",
      "type": "function"
    },
    {
      "inputs": [],
      "name": "Info",
      "outputs": [
        {
          "internalType": "address",
          "name": "",
          "type": "address"
        },
        {
          "internalType": "address",
          "name": "",
          "type": "address"
        },
        {
          "internalType": "uint256",
          "name": "",
          "type": "uint256"
        },
        {
          "internalType": "uint256",
          "name": "",
          "type": "uint256"
        },
        {
          "internalType": "uint256",
          "name": "",
          "type": "uint256"
        },
        {
          "internalType": "uint256",
          "name": "",
          "type": "uint256"
        },
        {
          "internalType": "enum DecentraLoan.StateType",
          "name": "",
          "type": "uint8"
        }
      ],
      "stateMutability": "view",
      "type": "function"
    }
  ],
  "bytecode": "0x60806040523480156200001157600080fd5b5060405162002437380380620024378339818101604052810190620000379190620001a7565b84600160006101000a81548173ffffffffffffffffffffffffffffffffffffffff021916908373ffffffffffffffffffffffffffffffffffffffff16021790555083600381905550826004819055508160058190555080600681905550856000806101000a81548173ffffffffffffffffffffffffffffffffffffffff021916908373ffffffffffffffffffffffffffffffffffffffff1602179055506000600760006101000a81548160ff0219169083600681111562000121577f4e487b7100000000000000000000000000000000000000000000000000000000600052602160045260246000fd5b02179055506000600a819055507f99a12a7aefbbb67909c2bee4a5e2ddb98b2183b8ae2a59e5a7db47f53453345d858585856040516200016594939291906200025f565b60405180910390a15050505050506200031e565b6000815190506200018a81620002ea565b92915050565b600081519050620001a18162000304565b92915050565b60008060008060008060c08789031215620001c157600080fd5b6000620001d189828a0162000179565b9650506020620001e489828a0162000179565b9550506040620001f789828a0162000190565b94505060606200020a89828a0162000190565b93505060806200021d89828a0162000190565b92505060a06200023089828a0162000190565b9150509295509295509295565b6200024881620002ac565b82525050565b6200025981620002e0565b82525050565b60006080820190506200027660008301876200023d565b6200028560208301866200024e565b6200029460408301856200024e565b620002a360608301846200024e565b95945050505050565b6000620002b982620002c0565b9050919050565b600073ffffffffffffffffffffffffffffffffffffffff82169050919050565b6000819050919050565b620002f581620002ac565b81146200030157600080fd5b50565b6200030f81620002e0565b81146200031b57600080fd5b50565b612109806200032e6000396000f3fe60806040526004361061010d5760003560e01c806348dc0b6e11610095578063e1db806111610064578063e1db80611461036c578063eca2dbb2146103ab578063f1b6dccd146103c7578063fa16ab6c146103f2578063ff1871ea1461041d5761014d565b806348dc0b6e146102bd5780635677640b146102e85780636f5cc86a14610325578063b2bdfa7b146103415761014d565b80633cd4730c116100dc5780633cd4730c146101fe5780633f105d2c146102295780634012e02e146102455780634097f3681461027657806343fa6164146102a15761014d565b806302b89ffc146101525780630cda162d1461017d5780630ef67887146101a85780631b1917b3146101d35761014d565b3661014d577f88a5966d370b9919b20f3e2c13ff65706f196a4e32cc2c12bf57088f885258743334604051610143929190611c46565b60405180910390a1005b600080fd5b34801561015e57600080fd5b50610167610439565b6040516101749190611d7b565b60405180910390f35b34801561018957600080fd5b5061019261043f565b60405161019f9190611afb565b60405180910390f35b3480156101b457600080fd5b506101bd610465565b6040516101ca9190611d7b565b60405180910390f35b3480156101df57600080fd5b506101e861046b565b6040516101f59190611d7b565b60405180910390f35b34801561020a57600080fd5b50610213610471565b6040516102209190611d7b565b60405180910390f35b610243600480360381019061023e91906117c8565b610477565b005b34801561025157600080fd5b5061025a610643565b60405161026d9796959493929190611b69565b60405180910390f35b34801561028257600080fd5b5061028b6106c7565b6040516102989190611afb565b60405180910390f35b6102bb60048036038101906102b69190611751565b6106ed565b005b3480156102c957600080fd5b506102d2610962565b6040516102df9190611d7b565b60405180910390f35b3480156102f457600080fd5b5061030f600480360381019061030a9190611936565b610968565b60405161031c9190611d59565b60405180910390f35b61033f600480360381019061033a9190611858565b610b13565b005b34801561034d57600080fd5b50610356610f03565b6040516103639190611afb565b60405180910390f35b34801561037857600080fd5b50610393600480360381019061038e9190611936565b610f27565b6040516103a293929190611c08565b60405180910390f35b6103c560048036038101906103c091906118d3565b611006565b005b3480156103d357600080fd5b506103dc6111be565b6040516103e99190611d3e565b60405180910390f35b3480156103fe57600080fd5b506104076111d1565b6040516104149190611d7b565b60405180910390f35b6104376004803603810190610432919061181c565b6111d7565b005b600a5481565b600260009054906101000a900473ffffffffffffffffffffffffffffffffffffffff1681565b60095481565b60055481565b60035481565b60008054906101000a900473ffffffffffffffffffffffffffffffffffffffff1673ffffffffffffffffffffffffffffffffffffffff163373ffffffffffffffffffffffffffffffffffffffff16146104cf57600080fd5b60006006811115610509577f4e487b7100000000000000000000000000000000000000000000000000000000600052602160045260246000fd5b600760009054906101000a900460ff166006811115610551577f4e487b7100000000000000000000000000000000000000000000000000000000600052602160045260246000fd5b1461055b57600080fd5b600160009054906101000a900473ffffffffffffffffffffffffffffffffffffffff1673ffffffffffffffffffffffffffffffffffffffff168273ffffffffffffffffffffffffffffffffffffffff16146105b557600080fd5b6006600760006101000a81548160ff02191690836006811115610601577f4e487b7100000000000000000000000000000000000000000000000000000000600052602160045260246000fd5b02179055507fbd5db3365d7536129a956b8ed83c01b025489fa82650e7c5d916f7e5e3a4ea7b8282604051610637929190611bd8565b60405180910390a15050565b6000806000806000806000600160009054906101000a900473ffffffffffffffffffffffffffffffffffffffff16600260009054906101000a900473ffffffffffffffffffffffffffffffffffffffff16600354600954600454600554600760009054906101000a900460ff16965096509650965096509650965090919293949596565b600160009054906101000a900473ffffffffffffffffffffffffffffffffffffffff1681565b60008054906101000a900473ffffffffffffffffffffffffffffffffffffffff1673ffffffffffffffffffffffffffffffffffffffff163373ffffffffffffffffffffffffffffffffffffffff161461074557600080fd5b600160009054906101000a900473ffffffffffffffffffffffffffffffffffffffff1673ffffffffffffffffffffffffffffffffffffffff168573ffffffffffffffffffffffffffffffffffffffff161461079f57600080fd5b600060068111156107d9577f4e487b7100000000000000000000000000000000000000000000000000000000600052602160045260246000fd5b600760009054906101000a900460ff166006811115610821577f4e487b7100000000000000000000000000000000000000000000000000000000600052602160045260246000fd5b1461082b57600080fd5b83600260006101000a81548173ffffffffffffffffffffffffffffffffffffffff021916908373ffffffffffffffffffffffffffffffffffffffff1602179055508260038190555081600481905550806005819055506002600760006101000a81548160ff021916908360068111156108cd577f4e487b7100000000000000000000000000000000000000000000000000000000600052602160045260246000fd5b02179055507f8fe0ac573acf497793f3dcb9d6a4ee36413e0231ccaa4074d0dd5534be01e38b600160009054906101000a900473ffffffffffffffffffffffffffffffffffffffff16600260009054906101000a900473ffffffffffffffffffffffffffffffffffffffff16600354600454600554604051610953959493929190611b16565b60405180910390a15050505050565b60045481565b6109706115ad565b600a5482111561097f57600080fd5b600860008381526020019081526020016000206040518060600160405290816000820160009054906101000a900473ffffffffffffffffffffffffffffffffffffffff1673ffffffffffffffffffffffffffffffffffffffff1673ffffffffffffffffffffffffffffffffffffffff168152602001600182018054610a0390611f35565b80601f0160208091040260200160405190810160405280929190818152602001828054610a2f90611f35565b8015610a7c5780601f10610a5157610100808354040283529160200191610a7c565b820191906000526020600020905b815481529060010190602001808311610a5f57829003601f168201915b505050505081526020016002820160009054906101000a900460ff166002811115610ad0577f4e487b7100000000000000000000000000000000000000000000000000000000600052602160045260246000fd5b6002811115610b08577f4e487b7100000000000000000000000000000000000000000000000000000000600052602160045260246000fd5b815250509050919050565b60008054906101000a900473ffffffffffffffffffffffffffffffffffffffff1673ffffffffffffffffffffffffffffffffffffffff163373ffffffffffffffffffffffffffffffffffffffff1614610b6b57600080fd5b600160009054906101000a900473ffffffffffffffffffffffffffffffffffffffff1673ffffffffffffffffffffffffffffffffffffffff168473ffffffffffffffffffffffffffffffffffffffff161480610c145750600260009054906101000a900473ffffffffffffffffffffffffffffffffffffffff1673ffffffffffffffffffffffffffffffffffffffff168473ffffffffffffffffffffffffffffffffffffffff16145b80610c6a575060008054906101000a900473ffffffffffffffffffffffffffffffffffffffff1673ffffffffffffffffffffffffffffffffffffffff168473ffffffffffffffffffffffffffffffffffffffff16145b610c7357600080fd5b60026006811115610cad577f4e487b7100000000000000000000000000000000000000000000000000000000600052602160045260246000fd5b600760009054906101000a900460ff166006811115610cf5577f4e487b7100000000000000000000000000000000000000000000000000000000600052602160045260246000fd5b14610cff57600080fd5b60008211610d0c57600080fd5b81600954610d1a9190611e39565b60098190555060405180606001604052808573ffffffffffffffffffffffffffffffffffffffff16815260200182815260200160006002811115610d87577f4e487b7100000000000000000000000000000000000000000000000000000000600052602160045260246000fd5b8152506008600085815260200190815260200160002060008201518160000160006101000a81548173ffffffffffffffffffffffffffffffffffffffff021916908373ffffffffffffffffffffffffffffffffffffffff1602179055506020820151816001019080519060200190610e0092919061161c565b5060408201518160020160006101000a81548160ff02191690836002811115610e52577f4e487b7100000000000000000000000000000000000000000000000000000000600052602160045260246000fd5b02179055509050506003600760006101000a81548160ff02191690836006811115610ea6577f4e487b7100000000000000000000000000000000000000000000000000000000600052602160045260246000fd5b02179055507f5cfc5f208b7752cea928bde39e788a6ba0683d77941de216b2a1c34d754bf90484838560086000888152602001908152602001600020600101604051610ef59493929190611cad565b60405180910390a150505050565b60008054906101000a900473ffffffffffffffffffffffffffffffffffffffff1681565b60086020528060005260406000206000915090508060000160009054906101000a900473ffffffffffffffffffffffffffffffffffffffff1690806001018054610f7090611f35565b80601f0160208091040260200160405190810160405280929190818152602001828054610f9c90611f35565b8015610fe95780601f10610fbe57610100808354040283529160200191610fe9565b820191906000526020600020905b815481529060010190602001808311610fcc57829003601f168201915b5050505050908060020160009054906101000a900460ff16905083565b60008054906101000a900473ffffffffffffffffffffffffffffffffffffffff1673ffffffffffffffffffffffffffffffffffffffff163373ffffffffffffffffffffffffffffffffffffffff161461105e57600080fd5b600160009054906101000a900473ffffffffffffffffffffffffffffffffffffffff1673ffffffffffffffffffffffffffffffffffffffff168473ffffffffffffffffffffffffffffffffffffffff16146110b857600080fd5b600060068111156110f2577f4e487b7100000000000000000000000000000000000000000000000000000000600052602160045260246000fd5b600760009054906101000a900460ff16600681111561113a577f4e487b7100000000000000000000000000000000000000000000000000000000600052602160045260246000fd5b1461114457600080fd5b8260038190555081600481905550806005819055507fff917abbd5265db0321d1698dfe74287ae6b93d1cd1f486a618d1124feb0b8bc600160009054906101000a900473ffffffffffffffffffffffffffffffffffffffff168484846040516111b09493929190611cf9565b60405180910390a150505050565b600760009054906101000a900460ff1681565b60065481565b60008054906101000a900473ffffffffffffffffffffffffffffffffffffffff1673ffffffffffffffffffffffffffffffffffffffff163373ffffffffffffffffffffffffffffffffffffffff161461122f57600080fd5b600260009054906101000a900473ffffffffffffffffffffffffffffffffffffffff1673ffffffffffffffffffffffffffffffffffffffff168273ffffffffffffffffffffffffffffffffffffffff1614801561130f5750600160009054906101000a900473ffffffffffffffffffffffffffffffffffffffff1673ffffffffffffffffffffffffffffffffffffffff166008600083815260200190815260200160002060000160009054906101000a900473ffffffffffffffffffffffffffffffffffffffff1673ffffffffffffffffffffffffffffffffffffffff16145b806113f65750600160009054906101000a900473ffffffffffffffffffffffffffffffffffffffff1673ffffffffffffffffffffffffffffffffffffffff168273ffffffffffffffffffffffffffffffffffffffff161480156113f55750600260009054906101000a900473ffffffffffffffffffffffffffffffffffffffff1673ffffffffffffffffffffffffffffffffffffffff166008600083815260200190815260200160002060000160009054906101000a900473ffffffffffffffffffffffffffffffffffffffff1673ffffffffffffffffffffffffffffffffffffffff16145b5b6113ff57600080fd5b60036006811115611439577f4e487b7100000000000000000000000000000000000000000000000000000000600052602160045260246000fd5b600760009054906101000a900460ff166006811115611481577f4e487b7100000000000000000000000000000000000000000000000000000000600052602160045260246000fd5b1461148b57600080fd5b60026008600083815260200190815260200160002060020160006101000a81548160ff021916908360028111156114eb577f4e487b7100000000000000000000000000000000000000000000000000000000600052602160045260246000fd5b0217905550600a600081548092919061150390611f67565b91905055506002600760006101000a81548160ff02191690836006811115611554577f4e487b7100000000000000000000000000000000000000000000000000000000600052602160045260246000fd5b02179055507f81c0c81b76f6d40169ac434db902906d87dba0f6ecd6f0249356df7f6977e6028282600860008581526020019081526020016000206001016040516115a193929190611c6f565b60405180910390a15050565b6040518060600160405280600073ffffffffffffffffffffffffffffffffffffffff1681526020016060815260200160006002811115611616577f4e487b7100000000000000000000000000000000000000000000000000000000600052602160045260246000fd5b81525090565b82805461162890611f35565b90600052602060002090601f01602090048101928261164a5760008555611691565b82601f1061166357805160ff1916838001178555611691565b82800160010185558215611691579182015b82811115611690578251825591602001919060010190611675565b5b50905061169e91906116a2565b5090565b5b808211156116bb5760008160009055506001016116a3565b5090565b60006116d26116cd84611dc7565b611d96565b9050828152602081018484840111156116ea57600080fd5b6116f5848285611ef3565b509392505050565b60008135905061170c816120a5565b92915050565b600082601f83011261172357600080fd5b81356117338482602086016116bf565b91505092915050565b60008135905061174b816120bc565b92915050565b600080600080600060a0868803121561176957600080fd5b6000611777888289016116fd565b9550506020611788888289016116fd565b94505060406117998882890161173c565b93505060606117aa8882890161173c565b92505060806117bb8882890161173c565b9150509295509295909350565b600080604083850312156117db57600080fd5b60006117e9858286016116fd565b925050602083013567ffffffffffffffff81111561180657600080fd5b61181285828601611712565b9150509250929050565b6000806040838503121561182f57600080fd5b600061183d858286016116fd565b925050602061184e8582860161173c565b9150509250929050565b6000806000806080858703121561186e57600080fd5b600061187c878288016116fd565b945050602061188d8782880161173c565b935050604061189e8782880161173c565b925050606085013567ffffffffffffffff8111156118bb57600080fd5b6118c787828801611712565b91505092959194509250565b600080600080608085870312156118e957600080fd5b60006118f7878288016116fd565b94505060206119088782880161173c565b93505060406119198782880161173c565b925050606061192a8782880161173c565b91505092959194509250565b60006020828403121561194857600080fd5b60006119568482850161173c565b91505092915050565b61196881611e6d565b82525050565b61197781611e6d565b82525050565b61198681611ecf565b82525050565b61199581611ecf565b82525050565b6119a481611ee1565b82525050565b60006119b582611e0c565b6119bf8185611e17565b93506119cf818560208601611f02565b6119d88161206c565b840191505092915050565b60006119ee82611e0c565b6119f88185611e28565b9350611a08818560208601611f02565b611a118161206c565b840191505092915050565b60008154611a2981611f35565b611a338186611e28565b94506001821660008114611a4e5760018114611a6057611a93565b60ff1983168652602086019350611a93565b611a6985611df7565b60005b83811015611a8b57815481890152600182019150602081019050611a6c565b808801955050505b50505092915050565b6000606083016000830151611ab4600086018261195f565b5060208301518482036020860152611acc82826119aa565b9150506040830151611ae1604086018261197d565b508091505092915050565b611af581611ec5565b82525050565b6000602082019050611b10600083018461196e565b92915050565b600060a082019050611b2b600083018861196e565b611b38602083018761196e565b611b456040830186611aec565b611b526060830185611aec565b611b5f6080830184611aec565b9695505050505050565b600060e082019050611b7e600083018a61196e565b611b8b602083018961196e565b611b986040830188611aec565b611ba56060830187611aec565b611bb26080830186611aec565b611bbf60a0830185611aec565b611bcc60c083018461199b565b98975050505050505050565b6000604082019050611bed600083018561196e565b8181036020830152611bff81846119e3565b90509392505050565b6000606082019050611c1d600083018661196e565b8181036020830152611c2f81856119e3565b9050611c3e604083018461198c565b949350505050565b6000604082019050611c5b600083018561196e565b611c686020830184611aec565b9392505050565b6000606082019050611c84600083018661196e565b611c916020830185611aec565b8181036040830152611ca38184611a1c565b9050949350505050565b6000608082019050611cc2600083018761196e565b611ccf6020830186611aec565b611cdc6040830185611aec565b8181036060830152611cee8184611a1c565b905095945050505050565b6000608082019050611d0e600083018761196e565b611d1b6020830186611aec565b611d286040830185611aec565b611d356060830184611aec565b95945050505050565b6000602082019050611d53600083018461199b565b92915050565b60006020820190508181036000830152611d738184611a9c565b905092915050565b6000602082019050611d906000830184611aec565b92915050565b6000604051905081810181811067ffffffffffffffff82111715611dbd57611dbc61203d565b5b8060405250919050565b600067ffffffffffffffff821115611de257611de161203d565b5b601f19601f8301169050602081019050919050565b60008190508160005260206000209050919050565b600081519050919050565b600082825260208201905092915050565b600082825260208201905092915050565b6000611e4482611ec5565b9150611e4f83611ec5565b925082821015611e6257611e61611fb0565b5b828203905092915050565b6000611e7882611ea5565b9050919050565b6000819050611e8d8261207d565b919050565b6000819050611ea082612091565b919050565b600073ffffffffffffffffffffffffffffffffffffffff82169050919050565b6000819050919050565b6000611eda82611e7f565b9050919050565b6000611eec82611e92565b9050919050565b82818337600083830152505050565b60005b83811015611f20578082015181840152602081019050611f05565b83811115611f2f576000848401525b50505050565b60006002820490506001821680611f4d57607f821691505b60208210811415611f6157611f6061200e565b5b50919050565b6000611f7282611ec5565b91507fffffffffffffffffffffffffffffffffffffffffffffffffffffffffffffffff821415611fa557611fa4611fb0565b5b600182019050919050565b7f4e487b7100000000000000000000000000000000000000000000000000000000600052601160045260246000fd5b7f4e487b7100000000000000000000000000000000000000000000000000000000600052602160045260246000fd5b7f4e487b7100000000000000000000000000000000000000000000000000000000600052602260045260246000fd5b7f4e487b7100000000000000000000000000000000000000000000000000000000600052604160045260246000fd5b6000601f19601f8301169050919050565b6003811061208e5761208d611fdf565b5b50565b600781106120a2576120a1611fdf565b5b50565b6120ae81611e6d565b81146120b957600080fd5b50565b6120c581611ec5565b81146120d057600080fd5b5056fea2646970667358221220058f4ab4a5245293ac80ee4f3d47ff200cc95b9ec02978d7865063add80df76664736f6c63430008000033",
  "immutableReferences": {},
  "source": "// SPDX-License-Identifier: MIT\r\npragma solidity ^0.8.0;\r\n\r\ncontract DecentraLoan {\r\n    enum StateType {\r\n        Available,\r\n        DealReached,\r\n        Active,\r\n        AwaitingValidation,\r\n        Delinquent,\r\n        Terminated,\r\n        Withdrawn\r\n    }\r\n\r\n    enum EvidenceStatus {\r\n        Unverified, \r\n        Invalid, \r\n        Valid\r\n    }\r\n\r\n    struct Evidence {\r\n        address sender;\r\n        string transactionHash;\r\n        EvidenceStatus evidenceStatus;\r\n    }\r\n\r\n    // contract owner (who pays for the gas fees..)\r\n    address public _owner;\r\n\r\n    // lender specific variables\r\n    address public Lender;\r\n    address public Borrower;\r\n    uint256 public LoanAmount;\r\n    uint256 public InterestRate;\r\n    uint256 public RepaymentPeriod;\r\n    uint256 public Platform;\r\n\r\n    // loan contract specific variables\r\n    StateType public State;\r\n    mapping(uint256 => Evidence) public Evidences;\r\n    uint256 public Balance;\r\n    uint256 public PaymentNumber;\r\n\r\n    // contract constructor\r\n    constructor(\r\n        address owner,\r\n        address lender,\r\n        uint256 amount,\r\n        uint256 interest,\r\n        uint256 repaymentPeriod,\r\n        uint256 platform\r\n    ) {\r\n        Lender = lender;\r\n        LoanAmount = amount;\r\n        InterestRate = interest;\r\n        RepaymentPeriod = repaymentPeriod;\r\n        Platform = platform;\r\n\r\n        _owner = owner; // set owner to custom address\r\n\r\n        State = StateType.Available;\r\n\r\n        PaymentNumber = 0;\r\n\r\n        emit Created(lender, amount, interest, repaymentPeriod);\r\n    }\r\n\r\n    // modify available (non-active) contract [lender]\r\n    function Modify(\r\n        address user,\r\n        uint256 amount,\r\n        uint256 interest,\r\n        uint256 repaymentPeriod\r\n    ) public payable {\r\n        require(msg.sender == _owner);\r\n        require(user == Lender);\r\n        require(State == StateType.Available);\r\n\r\n        LoanAmount = amount;\r\n        InterestRate = interest;\r\n        RepaymentPeriod = repaymentPeriod;\r\n\r\n        emit Modified(Lender, amount, interest, repaymentPeriod);\r\n    }\r\n\r\n    // leander and borrower reached a deal, \r\n    // do virtual handshake and set loan state to Active\r\n    function Deal(\r\n        address user,\r\n        address _borrower,\r\n        uint256 _amount,\r\n        uint256 _interest,\r\n        uint256 _repaymentPeriod\r\n    ) public payable {\r\n        require(msg.sender == _owner);\r\n        require(user == Lender);\r\n        require(State == StateType.Available);\r\n\r\n        // set borrower\r\n        Borrower = _borrower;\r\n        \r\n        // change loan parameters if reached deal changed any\r\n        LoanAmount = _amount;\r\n        InterestRate = _interest;\r\n        RepaymentPeriod = _repaymentPeriod;\r\n\r\n        // set loan status to Active\r\n        State = StateType.Active;\r\n\r\n        emit DealReached(\r\n            Lender,\r\n            Borrower,\r\n            LoanAmount,\r\n            InterestRate,\r\n            RepaymentPeriod\r\n        );\r\n    }\r\n\r\n    function Withdraw(address _lender, string memory _reason) public payable {\r\n        require(msg.sender == _owner);\r\n        require(State == StateType.Available);\r\n        require(_lender == Lender);\r\n\r\n        State = StateType.Withdrawn;\r\n\r\n        emit Withdrawn(_lender, _reason);\r\n    }\r\n\r\n    // sends payment with required evidence attached [lender|borrower]\r\n    function SendPayment(\r\n        address sender,\r\n        uint256 paymentNumber,\r\n        uint256 amount,\r\n        string memory evidence\r\n    ) public payable {\r\n        require(msg.sender == _owner);\r\n        require(sender == Lender || sender == Borrower || sender == _owner); // require sender is lender or borrower\r\n        require(State == StateType.Active); // require that it is an active contract\r\n        require(amount > 0); // require payment amount is not 0\r\n\r\n        Balance = Balance - amount;\r\n\r\n        // send evidence for counterparty validation, initialy unverified\r\n        Evidences[paymentNumber] = Evidence(\r\n            sender,\r\n            evidence,\r\n            EvidenceStatus.Unverified\r\n        );\r\n\r\n        State = StateType.AwaitingValidation; // set state to awaiting validation\r\n\r\n        emit PaymentSent(\r\n            sender,\r\n            amount,\r\n            paymentNumber,\r\n            Evidences[paymentNumber].transactionHash\r\n        );\r\n    }\r\n\r\n    function GetEvidence(uint256 paymentNumber)\r\n        public\r\n        view\r\n        returns (Evidence memory)\r\n    {\r\n        require(paymentNumber <= PaymentNumber);\r\n\r\n        return Evidences[paymentNumber];\r\n    }\r\n\r\n    function ValidateEvidence(address user, uint256 paymentNumber)\r\n        public\r\n        payable\r\n    {\r\n        require(msg.sender == _owner);\r\n        require(\r\n            (user == Borrower && Evidences[paymentNumber].sender == Lender) ||\r\n                (user == Lender && Evidences[paymentNumber].sender == Borrower)\r\n        );\r\n        require(State == StateType.AwaitingValidation);\r\n\r\n        // validate from website, validation code is stored encrypted in the blockchain\r\n        // encryption is only lifted by having the decryption key that is server unique\r\n        // after some checks, validate...\r\n        Evidences[paymentNumber].evidenceStatus = EvidenceStatus.Valid;\r\n\r\n        PaymentNumber++;\r\n\r\n        State = StateType.Active; // set loan state back to active\r\n\r\n        emit PaymentValidated(\r\n            user,\r\n            paymentNumber,\r\n            Evidences[paymentNumber].transactionHash\r\n        );\r\n    }\r\n\r\n    /**\r\n     * EVENTS\r\n     **/\r\n    event Received(address sender, uint256 amount);\r\n\r\n    event Created(\r\n        address lender,\r\n        uint256 amount,\r\n        uint256 interest,\r\n        uint256 repaymentPeriod\r\n    );\r\n    event Modified(\r\n        address lender,\r\n        uint256 amount,\r\n        uint256 interest,\r\n        uint256 repaymentPeriod\r\n    );\r\n    event Withdrawn(\r\n        address lender,\r\n        string reason \r\n    );\r\n    event DealReached(\r\n        address lender,\r\n        address borrower,\r\n        uint256 amount,\r\n        uint256 interest,\r\n        uint256 repaymentPeriod\r\n    );\r\n    event PaymentSent(\r\n        address sender,\r\n        uint256 amount,\r\n        uint256 paymentNumber,\r\n        string evidence\r\n    );\r\n    event PaymentValidated(\r\n        address sender,\r\n        uint256 paymentNumber,\r\n        string evidence\r\n    );\r\n\r\n    // Receive any ethereum randomly sent to the contract from outside\r\n    receive() external payable {\r\n        emit Received(msg.sender, msg.value);\r\n    }\r\n\r\n    // get tupple with information about current contract\r\n    function Info()\r\n        public\r\n        view\r\n        returns (\r\n            address,\r\n            address,\r\n            uint256,\r\n            uint256,\r\n            uint256,\r\n            uint256,\r\n            StateType\r\n        )\r\n    {\r\n        return (\r\n            Lender,\r\n            Borrower,\r\n            LoanAmount,\r\n            Balance,\r\n            InterestRate,\r\n            RepaymentPeriod,\r\n            State\r\n        );\r\n    }\r\n}\r\n",
  "sourcePath": "C:\\Users\\abdie\\Documents\\Developer\\Capstone\\CAPSTONE_APP\\contracts\\DecentraLoan.sol",
  "compiler": {
    "name": "solc",
    "version": "0.8.0+commit.c7dfd78e.Emscripten.clang"
  },
  "schemaVersion": "3.3.3",
  "updatedAt": "2021-03-14T05:17:40.465Z",
  "devdoc": {
    "kind": "dev",
    "methods": {},
    "version": 1
  },
  "userdoc": {
    "events": {
      "Received(address,uint256)": {
        "notice": "EVENTS*"
      }
    },
    "kind": "user",
    "methods": {},
    "version": 1
  }
}