{
  "contractName": "DecentraLoan",
  "abi": [
    {
      "inputs": [
        {
          "internalType": "address",
          "name": "owner",
          "type": "address"
        },
        {
          "internalType": "address",
          "name": "lender",
          "type": "address"
        },
        {
          "internalType": "uint256",
          "name": "amount",
          "type": "uint256"
        },
        {
          "internalType": "uint256",
          "name": "interest",
          "type": "uint256"
        },
        {
          "internalType": "uint256",
          "name": "repaymentPeriod",
          "type": "uint256"
        }
      ],
      "stateMutability": "nonpayable",
      "type": "constructor"
    },
    {
      "anonymous": false,
      "inputs": [
        {
          "indexed": false,
          "internalType": "address",
          "name": "lender",
          "type": "address"
        },
        {
          "indexed": false,
          "internalType": "uint256",
          "name": "amount",
          "type": "uint256"
        },
        {
          "indexed": false,
          "internalType": "uint256",
          "name": "interest",
          "type": "uint256"
        },
        {
          "indexed": false,
          "internalType": "uint256",
          "name": "repaymentPeriod",
          "type": "uint256"
        }
      ],
      "name": "Created",
      "type": "event"
    },
    {
      "anonymous": false,
      "inputs": [
        {
          "indexed": false,
          "internalType": "address",
          "name": "lender",
          "type": "address"
        },
        {
          "indexed": false,
          "internalType": "address",
          "name": "borrower",
          "type": "address"
        },
        {
          "indexed": false,
          "internalType": "uint256",
          "name": "amount",
          "type": "uint256"
        },
        {
          "indexed": false,
          "internalType": "uint256",
          "name": "interest",
          "type": "uint256"
        },
        {
          "indexed": false,
          "internalType": "uint256",
          "name": "repaymentPeriod",
          "type": "uint256"
        }
      ],
      "name": "DealReached",
      "type": "event"
    },
    {
      "anonymous": false,
      "inputs": [
        {
          "indexed": false,
          "internalType": "address",
          "name": "lender",
          "type": "address"
        },
        {
          "indexed": false,
          "internalType": "uint256",
          "name": "amount",
          "type": "uint256"
        },
        {
          "indexed": false,
          "internalType": "uint256",
          "name": "interest",
          "type": "uint256"
        },
        {
          "indexed": false,
          "internalType": "uint256",
          "name": "repaymentPeriod",
          "type": "uint256"
        }
      ],
      "name": "Modified",
      "type": "event"
    },
    {
      "anonymous": false,
      "inputs": [
        {
          "indexed": false,
          "internalType": "address",
          "name": "sender",
          "type": "address"
        },
        {
          "indexed": false,
          "internalType": "uint256",
          "name": "amount",
          "type": "uint256"
        },
        {
          "indexed": false,
          "internalType": "uint256",
          "name": "paymentNumber",
          "type": "uint256"
        },
        {
          "indexed": false,
          "internalType": "string",
          "name": "evidence",
          "type": "string"
        }
      ],
      "name": "PaymentSent",
      "type": "event"
    },
    {
      "anonymous": false,
      "inputs": [
        {
          "indexed": false,
          "internalType": "address",
          "name": "sender",
          "type": "address"
        },
        {
          "indexed": false,
          "internalType": "uint256",
          "name": "paymentNumber",
          "type": "uint256"
        },
        {
          "indexed": false,
          "internalType": "string",
          "name": "evidence",
          "type": "string"
        }
      ],
      "name": "PaymentValidated",
      "type": "event"
    },
    {
      "anonymous": false,
      "inputs": [
        {
          "indexed": false,
          "internalType": "address",
          "name": "sender",
          "type": "address"
        },
        {
          "indexed": false,
          "internalType": "uint256",
          "name": "amount",
          "type": "uint256"
        }
      ],
      "name": "Received",
      "type": "event"
    },
    {
      "anonymous": false,
      "inputs": [
        {
          "indexed": false,
          "internalType": "address",
          "name": "lender",
          "type": "address"
        },
        {
          "indexed": false,
          "internalType": "string",
          "name": "reason",
          "type": "string"
        }
      ],
      "name": "Withdrawn",
      "type": "event"
    },
    {
      "inputs": [],
      "name": "Balance",
      "outputs": [
        {
          "internalType": "uint256",
          "name": "",
          "type": "uint256"
        }
      ],
      "stateMutability": "view",
      "type": "function"
    },
    {
      "inputs": [],
      "name": "Borrower",
      "outputs": [
        {
          "internalType": "address",
          "name": "",
          "type": "address"
        }
      ],
      "stateMutability": "view",
      "type": "function"
    },
    {
      "inputs": [
        {
          "internalType": "uint256",
          "name": "",
          "type": "uint256"
        }
      ],
      "name": "Evidences",
      "outputs": [
        {
          "internalType": "address",
          "name": "sender",
          "type": "address"
        },
        {
          "internalType": "string",
          "name": "transactionHash",
          "type": "string"
        },
        {
          "internalType": "enum DecentraLoan.EvidenceStatus",
          "name": "evidenceStatus",
          "type": "uint8"
        }
      ],
      "stateMutability": "view",
      "type": "function"
    },
    {
      "inputs": [],
      "name": "InterestRate",
      "outputs": [
        {
          "internalType": "uint256",
          "name": "",
          "type": "uint256"
        }
      ],
      "stateMutability": "view",
      "type": "function"
    },
    {
      "inputs": [],
      "name": "Lender",
      "outputs": [
        {
          "internalType": "address",
          "name": "",
          "type": "address"
        }
      ],
      "stateMutability": "view",
      "type": "function"
    },
    {
      "inputs": [],
      "name": "LoanAmount",
      "outputs": [
        {
          "internalType": "uint256",
          "name": "",
          "type": "uint256"
        }
      ],
      "stateMutability": "view",
      "type": "function"
    },
    {
      "inputs": [],
      "name": "PaymentNumber",
      "outputs": [
        {
          "internalType": "uint256",
          "name": "",
          "type": "uint256"
        }
      ],
      "stateMutability": "view",
      "type": "function"
    },
    {
      "inputs": [],
      "name": "RepaymentPeriod",
      "outputs": [
        {
          "internalType": "uint256",
          "name": "",
          "type": "uint256"
        }
      ],
      "stateMutability": "view",
      "type": "function"
    },
    {
      "inputs": [],
      "name": "State",
      "outputs": [
        {
          "internalType": "enum DecentraLoan.StateType",
          "name": "",
          "type": "uint8"
        }
      ],
      "stateMutability": "view",
      "type": "function"
    },
    {
      "inputs": [],
      "name": "_owner",
      "outputs": [
        {
          "internalType": "address",
          "name": "",
          "type": "address"
        }
      ],
      "stateMutability": "view",
      "type": "function"
    },
    {
      "stateMutability": "payable",
      "type": "receive"
    },
    {
      "inputs": [
        {
          "internalType": "address",
          "name": "user",
          "type": "address"
        },
        {
          "internalType": "uint256",
          "name": "amount",
          "type": "uint256"
        },
        {
          "internalType": "uint256",
          "name": "interest",
          "type": "uint256"
        },
        {
          "internalType": "uint256",
          "name": "repaymentPeriod",
          "type": "uint256"
        }
      ],
      "name": "Modify",
      "outputs": [],
      "stateMutability": "payable",
      "type": "function"
    },
    {
      "inputs": [
        {
          "internalType": "address",
          "name": "user",
          "type": "address"
        },
        {
          "internalType": "address",
          "name": "_borrower",
          "type": "address"
        },
        {
          "internalType": "uint256",
          "name": "_amount",
          "type": "uint256"
        },
        {
          "internalType": "uint256",
          "name": "_interest",
          "type": "uint256"
        },
        {
          "internalType": "uint256",
          "name": "_repaymentPeriod",
          "type": "uint256"
        }
      ],
      "name": "Deal",
      "outputs": [],
      "stateMutability": "payable",
      "type": "function"
    },
    {
      "inputs": [
        {
          "internalType": "address",
          "name": "_lender",
          "type": "address"
        },
        {
          "internalType": "string",
          "name": "_reason",
          "type": "string"
        }
      ],
      "name": "Withdraw",
      "outputs": [],
      "stateMutability": "payable",
      "type": "function"
    },
    {
      "inputs": [
        {
          "internalType": "address",
          "name": "sender",
          "type": "address"
        },
        {
          "internalType": "uint256",
          "name": "paymentNumber",
          "type": "uint256"
        },
        {
          "internalType": "uint256",
          "name": "amount",
          "type": "uint256"
        },
        {
          "internalType": "string",
          "name": "evidence",
          "type": "string"
        }
      ],
      "name": "SendPayment",
      "outputs": [],
      "stateMutability": "payable",
      "type": "function"
    },
    {
      "inputs": [
        {
          "internalType": "uint256",
          "name": "paymentNumber",
          "type": "uint256"
        }
      ],
      "name": "GetEvidence",
      "outputs": [
        {
          "components": [
            {
              "internalType": "address",
              "name": "sender",
              "type": "address"
            },
            {
              "internalType": "string",
              "name": "transactionHash",
              "type": "string"
            },
            {
              "internalType": "enum DecentraLoan.EvidenceStatus",
              "name": "evidenceStatus",
              "type": "uint8"
            }
          ],
          "internalType": "struct DecentraLoan.Evidence",
          "name": "",
          "type": "tuple"
        }
      ],
      "stateMutability": "view",
      "type": "function"
    },
    {
      "inputs": [
        {
          "internalType": "address",
          "name": "user",
          "type": "address"
        },
        {
          "internalType": "uint256",
          "name": "paymentNumber",
          "type": "uint256"
        }
      ],
      "name": "ValidateEvidence",
      "outputs": [],
      "stateMutability": "payable",
      "type": "function"
    },
    {
      "inputs": [],
      "name": "Info",
      "outputs": [
        {
          "internalType": "address",
          "name": "",
          "type": "address"
        },
        {
          "internalType": "address",
          "name": "",
          "type": "address"
        },
        {
          "internalType": "uint256",
          "name": "",
          "type": "uint256"
        },
        {
          "internalType": "uint256",
          "name": "",
          "type": "uint256"
        },
        {
          "internalType": "uint256",
          "name": "",
          "type": "uint256"
        },
        {
          "internalType": "uint256",
          "name": "",
          "type": "uint256"
        },
        {
          "internalType": "enum DecentraLoan.StateType",
          "name": "",
          "type": "uint8"
        }
      ],
      "stateMutability": "view",
      "type": "function"
    }
  ],
  "bytecode": "0x60806040523480156200001157600080fd5b50604051620023de380380620023de83398181016040528101906200003791906200019f565b83600160006101000a81548173ffffffffffffffffffffffffffffffffffffffff021916908373ffffffffffffffffffffffffffffffffffffffff160217905550826003819055508160048190555080600581905550846000806101000a81548173ffffffffffffffffffffffffffffffffffffffff021916908373ffffffffffffffffffffffffffffffffffffffff1602179055506000600660006101000a81548160ff021916908360068111156200011a577f4e487b7100000000000000000000000000000000000000000000000000000000600052602160045260246000fd5b021790555060006009819055507f99a12a7aefbbb67909c2bee4a5e2ddb98b2183b8ae2a59e5a7db47f53453345d848484846040516200015e949392919062000243565b60405180910390a1505050505062000302565b6000815190506200018281620002ce565b92915050565b6000815190506200019981620002e8565b92915050565b600080600080600060a08688031215620001b857600080fd5b6000620001c88882890162000171565b9550506020620001db8882890162000171565b9450506040620001ee8882890162000188565b9350506060620002018882890162000188565b9250506080620002148882890162000188565b9150509295509295909350565b6200022c8162000290565b82525050565b6200023d81620002c4565b82525050565b60006080820190506200025a600083018762000221565b62000269602083018662000232565b62000278604083018562000232565b62000287606083018462000232565b95945050505050565b60006200029d82620002a4565b9050919050565b600073ffffffffffffffffffffffffffffffffffffffff82169050919050565b6000819050919050565b620002d98162000290565b8114620002e557600080fd5b50565b620002f381620002c4565b8114620002ff57600080fd5b50565b6120cc80620003126000396000f3fe6080604052600436106101025760003560e01c806343fa616411610095578063b2bdfa7b11610064578063b2bdfa7b14610336578063e1db806114610361578063eca2dbb2146103a0578063f1b6dccd146103bc578063ff1871ea146103e757610142565b806343fa61641461029657806348dc0b6e146102b25780635677640b146102dd5780636f5cc86a1461031a57610142565b80633cd4730c116100d15780633cd4730c146101f35780633f105d2c1461021e5780634012e02e1461023a5780634097f3681461026b57610142565b806302b89ffc146101475780630cda162d146101725780630ef678871461019d5780631b1917b3146101c857610142565b36610142577f88a5966d370b9919b20f3e2c13ff65706f196a4e32cc2c12bf57088f885258743334604051610138929190611c09565b60405180910390a1005b600080fd5b34801561015357600080fd5b5061015c610403565b6040516101699190611d3e565b60405180910390f35b34801561017e57600080fd5b50610187610409565b6040516101949190611abe565b60405180910390f35b3480156101a957600080fd5b506101b261042f565b6040516101bf9190611d3e565b60405180910390f35b3480156101d457600080fd5b506101dd610435565b6040516101ea9190611d3e565b60405180910390f35b3480156101ff57600080fd5b5061020861043b565b6040516102159190611d3e565b60405180910390f35b6102386004803603810190610233919061178b565b610441565b005b34801561024657600080fd5b5061024f61060c565b6040516102629796959493929190611b2c565b60405180910390f35b34801561027757600080fd5b50610280610690565b60405161028d9190611abe565b60405180910390f35b6102b060048036038101906102ab9190611714565b6106b6565b005b3480156102be57600080fd5b506102c761092b565b6040516102d49190611d3e565b60405180910390f35b3480156102e957600080fd5b5061030460048036038101906102ff91906118f9565b610931565b6040516103119190611d1c565b60405180910390f35b610334600480360381019061032f919061181b565b610adc565b005b34801561034257600080fd5b5061034b610ecc565b6040516103589190611abe565b60405180910390f35b34801561036d57600080fd5b50610388600480360381019061038391906118f9565b610ef0565b60405161039793929190611bcb565b60405180910390f35b6103ba60048036038101906103b59190611896565b610fcf565b005b3480156103c857600080fd5b506103d1611187565b6040516103de9190611d01565b60405180910390f35b61040160048036038101906103fc91906117df565b61119a565b005b60095481565b600260009054906101000a900473ffffffffffffffffffffffffffffffffffffffff1681565b60085481565b60055481565b60035481565b60008054906101000a900473ffffffffffffffffffffffffffffffffffffffff1673ffffffffffffffffffffffffffffffffffffffff163373ffffffffffffffffffffffffffffffffffffffff161461049957600080fd5b600060068111156104d3577f4e487b7100000000000000000000000000000000000000000000000000000000600052602160045260246000fd5b600660009054906101000a900460ff16600681111561051b577f4e487b7100000000000000000000000000000000000000000000000000000000600052602160045260246000fd5b1461052557600080fd5b600160009054906101000a900473ffffffffffffffffffffffffffffffffffffffff1673ffffffffffffffffffffffffffffffffffffffff168273ffffffffffffffffffffffffffffffffffffffff161461057f57600080fd5b60068060006101000a81548160ff021916908360068111156105ca577f4e487b7100000000000000000000000000000000000000000000000000000000600052602160045260246000fd5b02179055507fbd5db3365d7536129a956b8ed83c01b025489fa82650e7c5d916f7e5e3a4ea7b8282604051610600929190611b9b565b60405180910390a15050565b6000806000806000806000600160009054906101000a900473ffffffffffffffffffffffffffffffffffffffff16600260009054906101000a900473ffffffffffffffffffffffffffffffffffffffff16600354600854600454600554600660009054906101000a900460ff16965096509650965096509650965090919293949596565b600160009054906101000a900473ffffffffffffffffffffffffffffffffffffffff1681565b60008054906101000a900473ffffffffffffffffffffffffffffffffffffffff1673ffffffffffffffffffffffffffffffffffffffff163373ffffffffffffffffffffffffffffffffffffffff161461070e57600080fd5b600160009054906101000a900473ffffffffffffffffffffffffffffffffffffffff1673ffffffffffffffffffffffffffffffffffffffff168573ffffffffffffffffffffffffffffffffffffffff161461076857600080fd5b600060068111156107a2577f4e487b7100000000000000000000000000000000000000000000000000000000600052602160045260246000fd5b600660009054906101000a900460ff1660068111156107ea577f4e487b7100000000000000000000000000000000000000000000000000000000600052602160045260246000fd5b146107f457600080fd5b83600260006101000a81548173ffffffffffffffffffffffffffffffffffffffff021916908373ffffffffffffffffffffffffffffffffffffffff1602179055508260038190555081600481905550806005819055506002600660006101000a81548160ff02191690836006811115610896577f4e487b7100000000000000000000000000000000000000000000000000000000600052602160045260246000fd5b02179055507f8fe0ac573acf497793f3dcb9d6a4ee36413e0231ccaa4074d0dd5534be01e38b600160009054906101000a900473ffffffffffffffffffffffffffffffffffffffff16600260009054906101000a900473ffffffffffffffffffffffffffffffffffffffff1660035460045460055460405161091c959493929190611ad9565b60405180910390a15050505050565b60045481565b610939611570565b60095482111561094857600080fd5b600760008381526020019081526020016000206040518060600160405290816000820160009054906101000a900473ffffffffffffffffffffffffffffffffffffffff1673ffffffffffffffffffffffffffffffffffffffff1673ffffffffffffffffffffffffffffffffffffffff1681526020016001820180546109cc90611ef8565b80601f01602080910402602001604051908101604052809291908181526020018280546109f890611ef8565b8015610a455780601f10610a1a57610100808354040283529160200191610a45565b820191906000526020600020905b815481529060010190602001808311610a2857829003601f168201915b505050505081526020016002820160009054906101000a900460ff166002811115610a99577f4e487b7100000000000000000000000000000000000000000000000000000000600052602160045260246000fd5b6002811115610ad1577f4e487b7100000000000000000000000000000000000000000000000000000000600052602160045260246000fd5b815250509050919050565b60008054906101000a900473ffffffffffffffffffffffffffffffffffffffff1673ffffffffffffffffffffffffffffffffffffffff163373ffffffffffffffffffffffffffffffffffffffff1614610b3457600080fd5b600160009054906101000a900473ffffffffffffffffffffffffffffffffffffffff1673ffffffffffffffffffffffffffffffffffffffff168473ffffffffffffffffffffffffffffffffffffffff161480610bdd5750600260009054906101000a900473ffffffffffffffffffffffffffffffffffffffff1673ffffffffffffffffffffffffffffffffffffffff168473ffffffffffffffffffffffffffffffffffffffff16145b80610c33575060008054906101000a900473ffffffffffffffffffffffffffffffffffffffff1673ffffffffffffffffffffffffffffffffffffffff168473ffffffffffffffffffffffffffffffffffffffff16145b610c3c57600080fd5b60026006811115610c76577f4e487b7100000000000000000000000000000000000000000000000000000000600052602160045260246000fd5b600660009054906101000a900460ff166006811115610cbe577f4e487b7100000000000000000000000000000000000000000000000000000000600052602160045260246000fd5b14610cc857600080fd5b60008211610cd557600080fd5b81600854610ce39190611dfc565b60088190555060405180606001604052808573ffffffffffffffffffffffffffffffffffffffff16815260200182815260200160006002811115610d50577f4e487b7100000000000000000000000000000000000000000000000000000000600052602160045260246000fd5b8152506007600085815260200190815260200160002060008201518160000160006101000a81548173ffffffffffffffffffffffffffffffffffffffff021916908373ffffffffffffffffffffffffffffffffffffffff1602179055506020820151816001019080519060200190610dc99291906115df565b5060408201518160020160006101000a81548160ff02191690836002811115610e1b577f4e487b7100000000000000000000000000000000000000000000000000000000600052602160045260246000fd5b02179055509050506003600660006101000a81548160ff02191690836006811115610e6f577f4e487b7100000000000000000000000000000000000000000000000000000000600052602160045260246000fd5b02179055507f5cfc5f208b7752cea928bde39e788a6ba0683d77941de216b2a1c34d754bf90484838560076000888152602001908152602001600020600101604051610ebe9493929190611c70565b60405180910390a150505050565b60008054906101000a900473ffffffffffffffffffffffffffffffffffffffff1681565b60076020528060005260406000206000915090508060000160009054906101000a900473ffffffffffffffffffffffffffffffffffffffff1690806001018054610f3990611ef8565b80601f0160208091040260200160405190810160405280929190818152602001828054610f6590611ef8565b8015610fb25780601f10610f8757610100808354040283529160200191610fb2565b820191906000526020600020905b815481529060010190602001808311610f9557829003601f168201915b5050505050908060020160009054906101000a900460ff16905083565b60008054906101000a900473ffffffffffffffffffffffffffffffffffffffff1673ffffffffffffffffffffffffffffffffffffffff163373ffffffffffffffffffffffffffffffffffffffff161461102757600080fd5b600160009054906101000a900473ffffffffffffffffffffffffffffffffffffffff1673ffffffffffffffffffffffffffffffffffffffff168473ffffffffffffffffffffffffffffffffffffffff161461108157600080fd5b600060068111156110bb577f4e487b7100000000000000000000000000000000000000000000000000000000600052602160045260246000fd5b600660009054906101000a900460ff166006811115611103577f4e487b7100000000000000000000000000000000000000000000000000000000600052602160045260246000fd5b1461110d57600080fd5b8260038190555081600481905550806005819055507fff917abbd5265db0321d1698dfe74287ae6b93d1cd1f486a618d1124feb0b8bc600160009054906101000a900473ffffffffffffffffffffffffffffffffffffffff168484846040516111799493929190611cbc565b60405180910390a150505050565b600660009054906101000a900460ff1681565b60008054906101000a900473ffffffffffffffffffffffffffffffffffffffff1673ffffffffffffffffffffffffffffffffffffffff163373ffffffffffffffffffffffffffffffffffffffff16146111f257600080fd5b600260009054906101000a900473ffffffffffffffffffffffffffffffffffffffff1673ffffffffffffffffffffffffffffffffffffffff168273ffffffffffffffffffffffffffffffffffffffff161480156112d25750600160009054906101000a900473ffffffffffffffffffffffffffffffffffffffff1673ffffffffffffffffffffffffffffffffffffffff166007600083815260200190815260200160002060000160009054906101000a900473ffffffffffffffffffffffffffffffffffffffff1673ffffffffffffffffffffffffffffffffffffffff16145b806113b95750600160009054906101000a900473ffffffffffffffffffffffffffffffffffffffff1673ffffffffffffffffffffffffffffffffffffffff168273ffffffffffffffffffffffffffffffffffffffff161480156113b85750600260009054906101000a900473ffffffffffffffffffffffffffffffffffffffff1673ffffffffffffffffffffffffffffffffffffffff166007600083815260200190815260200160002060000160009054906101000a900473ffffffffffffffffffffffffffffffffffffffff1673ffffffffffffffffffffffffffffffffffffffff16145b5b6113c257600080fd5b600360068111156113fc577f4e487b7100000000000000000000000000000000000000000000000000000000600052602160045260246000fd5b600660009054906101000a900460ff166006811115611444577f4e487b7100000000000000000000000000000000000000000000000000000000600052602160045260246000fd5b1461144e57600080fd5b60026007600083815260200190815260200160002060020160006101000a81548160ff021916908360028111156114ae577f4e487b7100000000000000000000000000000000000000000000000000000000600052602160045260246000fd5b0217905550600960008154809291906114c690611f2a565b91905055506002600660006101000a81548160ff02191690836006811115611517577f4e487b7100000000000000000000000000000000000000000000000000000000600052602160045260246000fd5b02179055507f81c0c81b76f6d40169ac434db902906d87dba0f6ecd6f0249356df7f6977e60282826007600085815260200190815260200160002060010160405161156493929190611c32565b60405180910390a15050565b6040518060600160405280600073ffffffffffffffffffffffffffffffffffffffff16815260200160608152602001600060028111156115d9577f4e487b7100000000000000000000000000000000000000000000000000000000600052602160045260246000fd5b81525090565b8280546115eb90611ef8565b90600052602060002090601f01602090048101928261160d5760008555611654565b82601f1061162657805160ff1916838001178555611654565b82800160010185558215611654579182015b82811115611653578251825591602001919060010190611638565b5b5090506116619190611665565b5090565b5b8082111561167e576000816000905550600101611666565b5090565b600061169561169084611d8a565b611d59565b9050828152602081018484840111156116ad57600080fd5b6116b8848285611eb6565b509392505050565b6000813590506116cf81612068565b92915050565b600082601f8301126116e657600080fd5b81356116f6848260208601611682565b91505092915050565b60008135905061170e8161207f565b92915050565b600080600080600060a0868803121561172c57600080fd5b600061173a888289016116c0565b955050602061174b888289016116c0565b945050604061175c888289016116ff565b935050606061176d888289016116ff565b925050608061177e888289016116ff565b9150509295509295909350565b6000806040838503121561179e57600080fd5b60006117ac858286016116c0565b925050602083013567ffffffffffffffff8111156117c957600080fd5b6117d5858286016116d5565b9150509250929050565b600080604083850312156117f257600080fd5b6000611800858286016116c0565b9250506020611811858286016116ff565b9150509250929050565b6000806000806080858703121561183157600080fd5b600061183f878288016116c0565b9450506020611850878288016116ff565b9350506040611861878288016116ff565b925050606085013567ffffffffffffffff81111561187e57600080fd5b61188a878288016116d5565b91505092959194509250565b600080600080608085870312156118ac57600080fd5b60006118ba878288016116c0565b94505060206118cb878288016116ff565b93505060406118dc878288016116ff565b92505060606118ed878288016116ff565b91505092959194509250565b60006020828403121561190b57600080fd5b6000611919848285016116ff565b91505092915050565b61192b81611e30565b82525050565b61193a81611e30565b82525050565b61194981611e92565b82525050565b61195881611e92565b82525050565b61196781611ea4565b82525050565b600061197882611dcf565b6119828185611dda565b9350611992818560208601611ec5565b61199b8161202f565b840191505092915050565b60006119b182611dcf565b6119bb8185611deb565b93506119cb818560208601611ec5565b6119d48161202f565b840191505092915050565b600081546119ec81611ef8565b6119f68186611deb565b94506001821660008114611a115760018114611a2357611a56565b60ff1983168652602086019350611a56565b611a2c85611dba565b60005b83811015611a4e57815481890152600182019150602081019050611a2f565b808801955050505b50505092915050565b6000606083016000830151611a776000860182611922565b5060208301518482036020860152611a8f828261196d565b9150506040830151611aa46040860182611940565b508091505092915050565b611ab881611e88565b82525050565b6000602082019050611ad36000830184611931565b92915050565b600060a082019050611aee6000830188611931565b611afb6020830187611931565b611b086040830186611aaf565b611b156060830185611aaf565b611b226080830184611aaf565b9695505050505050565b600060e082019050611b41600083018a611931565b611b4e6020830189611931565b611b5b6040830188611aaf565b611b686060830187611aaf565b611b756080830186611aaf565b611b8260a0830185611aaf565b611b8f60c083018461195e565b98975050505050505050565b6000604082019050611bb06000830185611931565b8181036020830152611bc281846119a6565b90509392505050565b6000606082019050611be06000830186611931565b8181036020830152611bf281856119a6565b9050611c01604083018461194f565b949350505050565b6000604082019050611c1e6000830185611931565b611c2b6020830184611aaf565b9392505050565b6000606082019050611c476000830186611931565b611c546020830185611aaf565b8181036040830152611c6681846119df565b9050949350505050565b6000608082019050611c856000830187611931565b611c926020830186611aaf565b611c9f6040830185611aaf565b8181036060830152611cb181846119df565b905095945050505050565b6000608082019050611cd16000830187611931565b611cde6020830186611aaf565b611ceb6040830185611aaf565b611cf86060830184611aaf565b95945050505050565b6000602082019050611d16600083018461195e565b92915050565b60006020820190508181036000830152611d368184611a5f565b905092915050565b6000602082019050611d536000830184611aaf565b92915050565b6000604051905081810181811067ffffffffffffffff82111715611d8057611d7f612000565b5b8060405250919050565b600067ffffffffffffffff821115611da557611da4612000565b5b601f19601f8301169050602081019050919050565b60008190508160005260206000209050919050565b600081519050919050565b600082825260208201905092915050565b600082825260208201905092915050565b6000611e0782611e88565b9150611e1283611e88565b925082821015611e2557611e24611f73565b5b828203905092915050565b6000611e3b82611e68565b9050919050565b6000819050611e5082612040565b919050565b6000819050611e6382612054565b919050565b600073ffffffffffffffffffffffffffffffffffffffff82169050919050565b6000819050919050565b6000611e9d82611e42565b9050919050565b6000611eaf82611e55565b9050919050565b82818337600083830152505050565b60005b83811015611ee3578082015181840152602081019050611ec8565b83811115611ef2576000848401525b50505050565b60006002820490506001821680611f1057607f821691505b60208210811415611f2457611f23611fd1565b5b50919050565b6000611f3582611e88565b91507fffffffffffffffffffffffffffffffffffffffffffffffffffffffffffffffff821415611f6857611f67611f73565b5b600182019050919050565b7f4e487b7100000000000000000000000000000000000000000000000000000000600052601160045260246000fd5b7f4e487b7100000000000000000000000000000000000000000000000000000000600052602160045260246000fd5b7f4e487b7100000000000000000000000000000000000000000000000000000000600052602260045260246000fd5b7f4e487b7100000000000000000000000000000000000000000000000000000000600052604160045260246000fd5b6000601f19601f8301169050919050565b6003811061205157612050611fa2565b5b50565b6007811061206557612064611fa2565b5b50565b61207181611e30565b811461207c57600080fd5b50565b61208881611e88565b811461209357600080fd5b5056fea26469706673582212200aef2292405600c2ca81933bb14a3bd5e2dfa924ca8f64c0821ee6327581fee664736f6c63430008000033",
  "immutableReferences": {},
  "source": "// SPDX-License-Identifier: MIT\r\npragma solidity ^0.8.0;\r\n\r\ncontract DecentraLoan {\r\n    enum StateType {\r\n        Available,\r\n        DealReached,\r\n        Active,\r\n        AwaitingValidation,\r\n        Delinquent,\r\n        Terminated,\r\n        Withdrawn\r\n    }\r\n\r\n    enum EvidenceStatus {\r\n        Unverified, \r\n        Invalid, \r\n        Valid\r\n    }\r\n\r\n    struct Evidence {\r\n        address sender;\r\n        string transactionHash;\r\n        EvidenceStatus evidenceStatus;\r\n    }\r\n\r\n    // contract owner (who pays for the gas fees..)\r\n    address public _owner;\r\n\r\n    // lender specific variables\r\n    address public Lender;\r\n    address public Borrower;\r\n    uint256 public LoanAmount;\r\n    uint256 public InterestRate;\r\n    uint256 public RepaymentPeriod;\r\n\r\n    // loan contract specific variables\r\n    StateType public State;\r\n    mapping(uint256 => Evidence) public Evidences;\r\n    uint256 public Balance;\r\n    uint256 public PaymentNumber;\r\n\r\n    // contract constructor [factory]\r\n    constructor(\r\n        address owner,\r\n        address lender,\r\n        uint256 amount,\r\n        uint256 interest,\r\n        uint256 repaymentPeriod\r\n    ) {\r\n        Lender = lender;\r\n        LoanAmount = amount;\r\n        InterestRate = interest;\r\n        RepaymentPeriod = repaymentPeriod;\r\n\r\n        _owner = owner; // set owner to custom address\r\n\r\n        State = StateType.Available;\r\n\r\n        PaymentNumber = 0;\r\n\r\n        emit Created(lender, amount, interest, repaymentPeriod);\r\n    }\r\n\r\n    // modify available (non-active) contract [lender]\r\n    function Modify(\r\n        address user,\r\n        uint256 amount,\r\n        uint256 interest,\r\n        uint256 repaymentPeriod\r\n    ) public payable {\r\n        require(msg.sender == _owner);\r\n        require(user == Lender);\r\n        require(State == StateType.Available);\r\n\r\n        LoanAmount = amount;\r\n        InterestRate = interest;\r\n        RepaymentPeriod = repaymentPeriod;\r\n\r\n        emit Modified(Lender, amount, interest, repaymentPeriod);\r\n    }\r\n\r\n    // leander and borrower reached a deal, \r\n    // do virtual handshake and set loan state to Active\r\n    function Deal(\r\n        address user,\r\n        address _borrower,\r\n        uint256 _amount,\r\n        uint256 _interest,\r\n        uint256 _repaymentPeriod\r\n    ) public payable {\r\n        require(msg.sender == _owner);\r\n        require(user == Lender);\r\n        require(State == StateType.Available);\r\n\r\n        // set borrower\r\n        Borrower = _borrower;\r\n        \r\n        // change loan parameters if reached deal changed any\r\n        LoanAmount = _amount;\r\n        InterestRate = _interest;\r\n        RepaymentPeriod = _repaymentPeriod;\r\n\r\n        // set loan status to Active\r\n        State = StateType.Active;\r\n\r\n        emit DealReached(\r\n            Lender,\r\n            Borrower,\r\n            LoanAmount,\r\n            InterestRate,\r\n            RepaymentPeriod\r\n        );\r\n    }\r\n\r\n    function Withdraw(address _lender, string memory _reason) public payable {\r\n        require(msg.sender == _owner);\r\n        require(State == StateType.Available);\r\n        require(_lender == Lender);\r\n\r\n        State = StateType.Withdrawn;\r\n\r\n        emit Withdrawn(_lender, _reason);\r\n    }\r\n\r\n    // sends payment with required evidence attached [lender|borrower]\r\n    function SendPayment(\r\n        address sender,\r\n        uint256 paymentNumber,\r\n        uint256 amount,\r\n        string memory evidence\r\n    ) public payable {\r\n        require(msg.sender == _owner);\r\n        require(sender == Lender || sender == Borrower || sender == _owner); // require sender is lender or borrower\r\n        require(State == StateType.Active); // require that it is an active contract\r\n        require(amount > 0); // require payment amount is not 0\r\n\r\n        Balance = Balance - amount;\r\n\r\n        // send evidence for counterparty validation, initialy unverified\r\n        Evidences[paymentNumber] = Evidence(\r\n            sender,\r\n            evidence,\r\n            EvidenceStatus.Unverified\r\n        );\r\n\r\n        State = StateType.AwaitingValidation; // set state to awaiting validation\r\n\r\n        emit PaymentSent(\r\n            sender,\r\n            amount,\r\n            paymentNumber,\r\n            Evidences[paymentNumber].transactionHash\r\n        );\r\n    }\r\n\r\n    function GetEvidence(uint256 paymentNumber)\r\n        public\r\n        view\r\n        returns (Evidence memory)\r\n    {\r\n        require(paymentNumber <= PaymentNumber);\r\n\r\n        return Evidences[paymentNumber];\r\n    }\r\n\r\n    function ValidateEvidence(address user, uint256 paymentNumber)\r\n        public\r\n        payable\r\n    {\r\n        require(msg.sender == _owner);\r\n        require(\r\n            (user == Borrower && Evidences[paymentNumber].sender == Lender) ||\r\n                (user == Lender && Evidences[paymentNumber].sender == Borrower)\r\n        );\r\n        require(State == StateType.AwaitingValidation);\r\n\r\n        // validate from website, validation code is stored encrypted in the blockchain\r\n        // encryption is only lifted by having the decryption key that is server unique\r\n        // after some checks, validate...\r\n        Evidences[paymentNumber].evidenceStatus = EvidenceStatus.Valid;\r\n\r\n        PaymentNumber++;\r\n\r\n        State = StateType.Active; // set loan state back to active\r\n\r\n        emit PaymentValidated(\r\n            user,\r\n            paymentNumber,\r\n            Evidences[paymentNumber].transactionHash\r\n        );\r\n    }\r\n\r\n    /**\r\n     * EVENTS\r\n     **/\r\n    event Received(address sender, uint256 amount);\r\n\r\n    event Created(\r\n        address lender,\r\n        uint256 amount,\r\n        uint256 interest,\r\n        uint256 repaymentPeriod\r\n    );\r\n    event Modified(\r\n        address lender,\r\n        uint256 amount,\r\n        uint256 interest,\r\n        uint256 repaymentPeriod\r\n    );\r\n    event Withdrawn(\r\n        address lender,\r\n        string reason \r\n    );\r\n    event DealReached(\r\n        address lender,\r\n        address borrower,\r\n        uint256 amount,\r\n        uint256 interest,\r\n        uint256 repaymentPeriod\r\n    );\r\n    event PaymentSent(\r\n        address sender,\r\n        uint256 amount,\r\n        uint256 paymentNumber,\r\n        string evidence\r\n    );\r\n    event PaymentValidated(\r\n        address sender,\r\n        uint256 paymentNumber,\r\n        string evidence\r\n    );\r\n\r\n    // Receive any ethereum randomly sent to the contract from outside\r\n    receive() external payable {\r\n        emit Received(msg.sender, msg.value);\r\n    }\r\n\r\n    // get tupple with information about current contract\r\n    function Info()\r\n        public\r\n        view\r\n        returns (\r\n            address,\r\n            address,\r\n            uint256,\r\n            uint256,\r\n            uint256,\r\n            uint256,\r\n            StateType\r\n        )\r\n    {\r\n        return (\r\n            Lender,\r\n            Borrower,\r\n            LoanAmount,\r\n            Balance,\r\n            InterestRate,\r\n            RepaymentPeriod,\r\n            State\r\n        );\r\n    }\r\n}\r\n",
  "sourcePath": "C:\\Users\\abdie\\Documents\\Developer\\Capstone\\CAPSTONE_APP\\contracts\\DecentraLoan.sol",
  "compiler": {
    "name": "solc",
    "version": "0.8.0+commit.c7dfd78e.Emscripten.clang"
  },
  "schemaVersion": "3.3.3",
  "updatedAt": "2021-03-14T04:03:34.042Z",
  "devdoc": {
    "kind": "dev",
    "methods": {},
    "version": 1
  },
  "userdoc": {
    "events": {
      "Received(address,uint256)": {
        "notice": "EVENTS*"
      }
    },
    "kind": "user",
    "methods": {},
    "version": 1
  }
}