{
  "contractName": "DecentraLoan",
  "abi": [
    {
      "inputs": [
        {
          "internalType": "address",
          "name": "owner",
          "type": "address"
        },
        {
          "internalType": "address",
          "name": "lender",
          "type": "address"
        },
        {
          "internalType": "uint256",
          "name": "amount",
          "type": "uint256"
        },
        {
          "internalType": "uint256",
          "name": "interest",
          "type": "uint256"
        },
        {
          "internalType": "uint256",
          "name": "repaymentPeriod",
          "type": "uint256"
        },
        {
          "internalType": "uint256",
          "name": "platform",
          "type": "uint256"
        }
      ],
      "stateMutability": "nonpayable",
      "type": "constructor"
    },
    {
      "anonymous": false,
      "inputs": [
        {
          "indexed": false,
          "internalType": "address",
          "name": "lender",
          "type": "address"
        },
        {
          "indexed": false,
          "internalType": "uint256",
          "name": "amount",
          "type": "uint256"
        },
        {
          "indexed": false,
          "internalType": "uint256",
          "name": "interest",
          "type": "uint256"
        },
        {
          "indexed": false,
          "internalType": "uint256",
          "name": "repaymentPeriod",
          "type": "uint256"
        }
      ],
      "name": "Created",
      "type": "event"
    },
    {
      "anonymous": false,
      "inputs": [
        {
          "indexed": false,
          "internalType": "address",
          "name": "lender",
          "type": "address"
        },
        {
          "indexed": false,
          "internalType": "address",
          "name": "borrower",
          "type": "address"
        },
        {
          "indexed": false,
          "internalType": "uint256",
          "name": "amount",
          "type": "uint256"
        },
        {
          "indexed": false,
          "internalType": "uint256",
          "name": "interest",
          "type": "uint256"
        },
        {
          "indexed": false,
          "internalType": "uint256",
          "name": "repaymentPeriod",
          "type": "uint256"
        }
      ],
      "name": "DealReached",
      "type": "event"
    },
    {
      "anonymous": false,
      "inputs": [
        {
          "indexed": false,
          "internalType": "address",
          "name": "lender",
          "type": "address"
        },
        {
          "indexed": false,
          "internalType": "uint256",
          "name": "amount",
          "type": "uint256"
        },
        {
          "indexed": false,
          "internalType": "uint256",
          "name": "interest",
          "type": "uint256"
        },
        {
          "indexed": false,
          "internalType": "uint256",
          "name": "repaymentPeriod",
          "type": "uint256"
        }
      ],
      "name": "Modified",
      "type": "event"
    },
    {
      "anonymous": false,
      "inputs": [
        {
          "indexed": false,
          "internalType": "address",
          "name": "sender",
          "type": "address"
        },
        {
          "indexed": false,
          "internalType": "uint256",
          "name": "amount",
          "type": "uint256"
        },
        {
          "indexed": false,
          "internalType": "uint256",
          "name": "paymentNumber",
          "type": "uint256"
        },
        {
          "indexed": false,
          "internalType": "string",
          "name": "evidence",
          "type": "string"
        }
      ],
      "name": "PaymentSent",
      "type": "event"
    },
    {
      "anonymous": false,
      "inputs": [
        {
          "indexed": false,
          "internalType": "address",
          "name": "sender",
          "type": "address"
        },
        {
          "indexed": false,
          "internalType": "uint256",
          "name": "paymentNumber",
          "type": "uint256"
        },
        {
          "indexed": false,
          "internalType": "string",
          "name": "evidence",
          "type": "string"
        }
      ],
      "name": "PaymentValidated",
      "type": "event"
    },
    {
      "anonymous": false,
      "inputs": [
        {
          "indexed": false,
          "internalType": "address",
          "name": "sender",
          "type": "address"
        },
        {
          "indexed": false,
          "internalType": "uint256",
          "name": "amount",
          "type": "uint256"
        }
      ],
      "name": "Received",
      "type": "event"
    },
    {
      "anonymous": false,
      "inputs": [
        {
          "indexed": false,
          "internalType": "address",
          "name": "lender",
          "type": "address"
        }
      ],
      "name": "Withdrawn",
      "type": "event"
    },
    {
      "stateMutability": "payable",
      "type": "receive"
    },
    {
      "inputs": [],
      "name": "GetLoanAmount",
      "outputs": [
        {
          "internalType": "uint256",
          "name": "",
          "type": "uint256"
        }
      ],
      "stateMutability": "view",
      "type": "function"
    },
    {
      "inputs": [],
      "name": "Invest",
      "outputs": [],
      "stateMutability": "payable",
      "type": "function"
    },
    {
      "inputs": [],
      "name": "GetInvestors",
      "outputs": [
        {
          "internalType": "address payable[10]",
          "name": "",
          "type": "address[10]"
        }
      ],
      "stateMutability": "view",
      "type": "function"
    },
    {
      "inputs": [],
      "name": "PayInvestors",
      "outputs": [],
      "stateMutability": "payable",
      "type": "function"
    },
    {
      "inputs": [
        {
          "internalType": "uint256",
          "name": "amount",
          "type": "uint256"
        },
        {
          "internalType": "uint256",
          "name": "interest",
          "type": "uint256"
        },
        {
          "internalType": "uint256",
          "name": "repaymentPeriod",
          "type": "uint256"
        }
      ],
      "name": "Modify",
      "outputs": [],
      "stateMutability": "payable",
      "type": "function"
    },
    {
      "inputs": [
        {
          "internalType": "address",
          "name": "_borrower",
          "type": "address"
        },
        {
          "internalType": "uint256",
          "name": "_amount",
          "type": "uint256"
        },
        {
          "internalType": "uint256",
          "name": "_interest",
          "type": "uint256"
        },
        {
          "internalType": "uint256",
          "name": "_repaymentPeriod",
          "type": "uint256"
        }
      ],
      "name": "Deal",
      "outputs": [],
      "stateMutability": "payable",
      "type": "function"
    },
    {
      "inputs": [],
      "name": "Withdraw",
      "outputs": [],
      "stateMutability": "payable",
      "type": "function"
    },
    {
      "inputs": [
        {
          "internalType": "address",
          "name": "sender",
          "type": "address"
        },
        {
          "internalType": "uint256",
          "name": "paymentNumber",
          "type": "uint256"
        },
        {
          "internalType": "uint256",
          "name": "amount",
          "type": "uint256"
        },
        {
          "internalType": "string",
          "name": "evidence",
          "type": "string"
        }
      ],
      "name": "SendPayment",
      "outputs": [],
      "stateMutability": "payable",
      "type": "function"
    },
    {
      "inputs": [
        {
          "internalType": "uint256",
          "name": "paymentNumber",
          "type": "uint256"
        }
      ],
      "name": "GetEvidence",
      "outputs": [
        {
          "components": [
            {
              "internalType": "address",
              "name": "sender",
              "type": "address"
            },
            {
              "internalType": "string",
              "name": "transactionHash",
              "type": "string"
            },
            {
              "internalType": "enum DecentraLoan.EvidenceStatus",
              "name": "evidenceStatus",
              "type": "uint8"
            }
          ],
          "internalType": "struct DecentraLoan.Evidence",
          "name": "",
          "type": "tuple"
        }
      ],
      "stateMutability": "view",
      "type": "function"
    },
    {
      "inputs": [
        {
          "internalType": "address",
          "name": "user",
          "type": "address"
        }
      ],
      "name": "ValidateEvidence",
      "outputs": [],
      "stateMutability": "payable",
      "type": "function"
    },
    {
      "inputs": [],
      "name": "Info",
      "outputs": [
        {
          "internalType": "address",
          "name": "",
          "type": "address"
        },
        {
          "internalType": "address",
          "name": "",
          "type": "address"
        },
        {
          "internalType": "uint256",
          "name": "",
          "type": "uint256"
        },
        {
          "internalType": "uint256",
          "name": "",
          "type": "uint256"
        },
        {
          "internalType": "uint256",
          "name": "",
          "type": "uint256"
        },
        {
          "internalType": "uint256",
          "name": "",
          "type": "uint256"
        },
        {
          "internalType": "uint256",
          "name": "",
          "type": "uint256"
        },
        {
          "internalType": "enum DecentraLoan.StateType",
          "name": "",
          "type": "uint8"
        }
      ],
      "stateMutability": "view",
      "type": "function"
    }
  ],
  "bytecode": "0x60806040523480156200001157600080fd5b50604051620023e1380380620023e18339818101604052810190620000379190620001a7565b84600c60006101000a81548173ffffffffffffffffffffffffffffffffffffffff021916908373ffffffffffffffffffffffffffffffffffffffff16021790555083600e8190555082600f819055508160108190555080601181905550856000806101000a81548173ffffffffffffffffffffffffffffffffffffffff021916908373ffffffffffffffffffffffffffffffffffffffff1602179055506000601260006101000a81548160ff0219169083600681111562000121577f4e487b7100000000000000000000000000000000000000000000000000000000600052602160045260246000fd5b021790555060006015819055507f99a12a7aefbbb67909c2bee4a5e2ddb98b2183b8ae2a59e5a7db47f53453345d858585856040516200016594939291906200025f565b60405180910390a15050505050506200031e565b6000815190506200018a81620002ea565b92915050565b600081519050620001a18162000304565b92915050565b60008060008060008060c08789031215620001c157600080fd5b6000620001d189828a0162000179565b9650506020620001e489828a0162000179565b9550506040620001f789828a0162000190565b94505060606200020a89828a0162000190565b93505060806200021d89828a0162000190565b92505060a06200023089828a0162000190565b9150509295509295509295565b6200024881620002ac565b82525050565b6200025981620002e0565b82525050565b60006080820190506200027660008301876200023d565b6200028560208301866200024e565b6200029460408301856200024e565b620002a360608301846200024e565b95945050505050565b6000620002b982620002c0565b9050919050565b600073ffffffffffffffffffffffffffffffffffffffff82169050919050565b6000819050919050565b620002f581620002ac565b81146200030157600080fd5b50565b6200030f81620002e0565b81146200031b57600080fd5b50565b6120b3806200032e6000396000f3fe6080604052600436106100a05760003560e01c806357ea89b61161006457806357ea89b6146101c65780636f5cc86a146101d05780639364330e146101ec578063c081996114610208578063dab053e214610212578063f2d4007b1461022e576100e0565b80631843d3e3146100e557806324d09da4146101105780634012e02e1461013b5780635677640b1461016d57806357baac0d146101aa576100e0565b366100e0577f88a5966d370b9919b20f3e2c13ff65706f196a4e32cc2c12bf57088f8852587433346040516100d6929190611af6565b60405180910390a1005b600080fd5b3480156100f157600080fd5b506100fa610238565b6040516101079190611bee565b60405180910390f35b34801561011c57600080fd5b506101256102b9565b6040516101329190611c2c565b60405180910390f35b34801561014757600080fd5b506101506102c3565b604051610164989796959493929190611a78565b60405180910390f35b34801561017957600080fd5b50610194600480360381019061018f91906117c0565b61034e565b6040516101a19190611c0a565b60405180910390f35b6101c460048036038101906101bf91906117e9565b61052e565b005b6101ce61068b565b005b6101ea60048036038101906101e591906116e2565b61081b565b005b6102066004803603810190610201919061175d565b610c6f565b005b610210610e89565b005b61022c600480360381019061022791906116b9565b610f5a565b005b61023661140d565b005b6102406114f2565b6001600a806020026040519081016040528092919082600a80156102af576020028201915b8160009054906101000a900473ffffffffffffffffffffffffffffffffffffffff1673ffffffffffffffffffffffffffffffffffffffff1681526020019060010190808311610265575b5050505050905090565b6000600e54905090565b600080600080600080600080600c60009054906101000a900473ffffffffffffffffffffffffffffffffffffffff16600d60009054906101000a900473ffffffffffffffffffffffffffffffffffffffff16600e54601454600f54601054601554601260009054906101000a900460ff16975097509750975097509750975097509091929394959697565b610356611515565b60155482111561036557600080fd5b6013828154811061039f577f4e487b7100000000000000000000000000000000000000000000000000000000600052603260045260246000fd5b90600052602060002090600302016040518060600160405290816000820160009054906101000a900473ffffffffffffffffffffffffffffffffffffffff1673ffffffffffffffffffffffffffffffffffffffff1673ffffffffffffffffffffffffffffffffffffffff16815260200160018201805461041e90611eb0565b80601f016020809104026020016040519081016040528092919081815260200182805461044a90611eb0565b80156104975780601f1061046c57610100808354040283529160200191610497565b820191906000526020600020905b81548152906001019060200180831161047a57829003601f168201915b505050505081526020016002820160009054906101000a900460ff1660028111156104eb577f4e487b7100000000000000000000000000000000000000000000000000000000600052602160045260246000fd5b6002811115610523577f4e487b7100000000000000000000000000000000000000000000000000000000600052602160045260246000fd5b815250509050919050565b60008054906101000a900473ffffffffffffffffffffffffffffffffffffffff1673ffffffffffffffffffffffffffffffffffffffff163373ffffffffffffffffffffffffffffffffffffffff161461058657600080fd5b600060068111156105c0577f4e487b7100000000000000000000000000000000000000000000000000000000600052602160045260246000fd5b601260009054906101000a900460ff166006811115610608577f4e487b7100000000000000000000000000000000000000000000000000000000600052602160045260246000fd5b1461061257600080fd5b82600e8190555081600f81905550806010819055507fff917abbd5265db0321d1698dfe74287ae6b93d1cd1f486a618d1124feb0b8bc600c60009054906101000a900473ffffffffffffffffffffffffffffffffffffffff1684848460405161067e9493929190611ba9565b60405180910390a1505050565b60008054906101000a900473ffffffffffffffffffffffffffffffffffffffff1673ffffffffffffffffffffffffffffffffffffffff163373ffffffffffffffffffffffffffffffffffffffff16146106e357600080fd5b6000600681111561071d577f4e487b7100000000000000000000000000000000000000000000000000000000600052602160045260246000fd5b601260009054906101000a900460ff166006811115610765577f4e487b7100000000000000000000000000000000000000000000000000000000600052602160045260246000fd5b1461076f57600080fd5b6006601260006101000a81548160ff021916908360068111156107bb577f4e487b7100000000000000000000000000000000000000000000000000000000600052602160045260246000fd5b02179055507ff45a04d08a70caa7eb4b747571305559ad9fdf4a093afd41506b35c8a306fa94600c60009054906101000a900473ffffffffffffffffffffffffffffffffffffffff166040516108119190611a0a565b60405180910390a1565b60008054906101000a900473ffffffffffffffffffffffffffffffffffffffff1673ffffffffffffffffffffffffffffffffffffffff163373ffffffffffffffffffffffffffffffffffffffff161461087357600080fd5b600c60009054906101000a900473ffffffffffffffffffffffffffffffffffffffff1673ffffffffffffffffffffffffffffffffffffffff168473ffffffffffffffffffffffffffffffffffffffff16148061091c5750600d60009054906101000a900473ffffffffffffffffffffffffffffffffffffffff1673ffffffffffffffffffffffffffffffffffffffff168473ffffffffffffffffffffffffffffffffffffffff16145b80610972575060008054906101000a900473ffffffffffffffffffffffffffffffffffffffff1673ffffffffffffffffffffffffffffffffffffffff168473ffffffffffffffffffffffffffffffffffffffff16145b61097b57600080fd5b600260068111156109b5577f4e487b7100000000000000000000000000000000000000000000000000000000600052602160045260246000fd5b601260009054906101000a900460ff1660068111156109fd577f4e487b7100000000000000000000000000000000000000000000000000000000600052602160045260246000fd5b14610a0757600080fd5b60008211610a1457600080fd5b60006015541415610a2b5781601481905550610a40565b81601454610a399190611da2565b6014819055505b601360405180606001604052808673ffffffffffffffffffffffffffffffffffffffff16815260200183815260200160006002811115610aa9577f4e487b7100000000000000000000000000000000000000000000000000000000600052602160045260246000fd5b815250908060018154018082558091505060019003906000526020600020906003020160009091909190915060008201518160000160006101000a81548173ffffffffffffffffffffffffffffffffffffffff021916908373ffffffffffffffffffffffffffffffffffffffff1602179055506020820151816001019080519060200190610b38929190611584565b5060408201518160020160006101000a81548160ff02191690836002811115610b8a577f4e487b7100000000000000000000000000000000000000000000000000000000600052602160045260246000fd5b021790555050506003601260006101000a81548160ff02191690836006811115610bdd577f4e487b7100000000000000000000000000000000000000000000000000000000600052602160045260246000fd5b02179055507f5cfc5f208b7752cea928bde39e788a6ba0683d77941de216b2a1c34d754bf90484838560138781548110610c40577f4e487b7100000000000000000000000000000000000000000000000000000000600052603260045260246000fd5b9060005260206000209060030201600101604051610c619493929190611b5d565b60405180910390a150505050565b60008054906101000a900473ffffffffffffffffffffffffffffffffffffffff1673ffffffffffffffffffffffffffffffffffffffff163373ffffffffffffffffffffffffffffffffffffffff1614610cc757600080fd5b60006006811115610d01577f4e487b7100000000000000000000000000000000000000000000000000000000600052602160045260246000fd5b601260009054906101000a900460ff166006811115610d49577f4e487b7100000000000000000000000000000000000000000000000000000000600052602160045260246000fd5b14610d5357600080fd5b83600d60006101000a81548173ffffffffffffffffffffffffffffffffffffffff021916908373ffffffffffffffffffffffffffffffffffffffff16021790555082600e8190555081600f81905550806010819055506002601260006101000a81548160ff02191690836006811115610df5577f4e487b7100000000000000000000000000000000000000000000000000000000600052602160045260246000fd5b02179055507f8fe0ac573acf497793f3dcb9d6a4ee36413e0231ccaa4074d0dd5534be01e38b600c60009054906101000a900473ffffffffffffffffffffffffffffffffffffffff16600d60009054906101000a900473ffffffffffffffffffffffffffffffffffffffff16600e54600f54601054604051610e7b959493929190611a25565b60405180910390a150505050565b600a600b5410610e9857600080fd5b6601c6bf52634000600a600e54610eaf9190611d17565b610eb99190611d48565b3414610ec457600080fd5b336001600b54600a8110610f01577f4e487b7100000000000000000000000000000000000000000000000000000000600052603260045260246000fd5b0160006101000a81548173ffffffffffffffffffffffffffffffffffffffff021916908373ffffffffffffffffffffffffffffffffffffffff160217905550600b6000815480929190610f5390611ee2565b9190505550565b60008054906101000a900473ffffffffffffffffffffffffffffffffffffffff1673ffffffffffffffffffffffffffffffffffffffff163373ffffffffffffffffffffffffffffffffffffffff1614610fb257600080fd5b600d60009054906101000a900473ffffffffffffffffffffffffffffffffffffffff1673ffffffffffffffffffffffffffffffffffffffff168173ffffffffffffffffffffffffffffffffffffffff161480156110c95750600c60009054906101000a900473ffffffffffffffffffffffffffffffffffffffff1673ffffffffffffffffffffffffffffffffffffffff1660136015548154811061107f577f4e487b7100000000000000000000000000000000000000000000000000000000600052603260045260246000fd5b906000526020600020906003020160000160009054906101000a900473ffffffffffffffffffffffffffffffffffffffff1673ffffffffffffffffffffffffffffffffffffffff16145b806111e75750600c60009054906101000a900473ffffffffffffffffffffffffffffffffffffffff1673ffffffffffffffffffffffffffffffffffffffff168173ffffffffffffffffffffffffffffffffffffffff161480156111e65750600d60009054906101000a900473ffffffffffffffffffffffffffffffffffffffff1673ffffffffffffffffffffffffffffffffffffffff1660136015548154811061119c577f4e487b7100000000000000000000000000000000000000000000000000000000600052603260045260246000fd5b906000526020600020906003020160000160009054906101000a900473ffffffffffffffffffffffffffffffffffffffff1673ffffffffffffffffffffffffffffffffffffffff16145b5b6111f057600080fd5b6003600681111561122a577f4e487b7100000000000000000000000000000000000000000000000000000000600052602160045260246000fd5b601260009054906101000a900460ff166006811115611272577f4e487b7100000000000000000000000000000000000000000000000000000000600052602160045260246000fd5b1461127c57600080fd5b60026013601554815481106112ba577f4e487b7100000000000000000000000000000000000000000000000000000000600052603260045260246000fd5b906000526020600020906003020160020160006101000a81548160ff02191690836002811115611313577f4e487b7100000000000000000000000000000000000000000000000000000000600052602160045260246000fd5b02179055506002601260006101000a81548160ff02191690836006811115611364577f4e487b7100000000000000000000000000000000000000000000000000000000600052602160045260246000fd5b02179055507f81c0c81b76f6d40169ac434db902906d87dba0f6ecd6f0249356df7f6977e602816015546013601554815481106113ca577f4e487b7100000000000000000000000000000000000000000000000000000000600052603260045260246000fd5b90600052602060002090600302016001016040516113ea93929190611b1f565b60405180910390a16015600081548092919061140590611ee2565b919050555050565b60005b600b548110156114ef57600181600a8110611454577f4e487b7100000000000000000000000000000000000000000000000000000000600052603260045260246000fd5b0160009054906101000a900473ffffffffffffffffffffffffffffffffffffffff1673ffffffffffffffffffffffffffffffffffffffff166108fc6601c6bf52634000600a600e546114a69190611d17565b6114b09190611d48565b9081150290604051600060405180830381858888f193505050501580156114db573d6000803e3d6000fd5b5080806114e790611ee2565b915050611410565b50565b604051806101400160405280600a90602082028036833780820191505090505090565b6040518060600160405280600073ffffffffffffffffffffffffffffffffffffffff168152602001606081526020016000600281111561157e577f4e487b7100000000000000000000000000000000000000000000000000000000600052602160045260246000fd5b81525090565b82805461159090611eb0565b90600052602060002090601f0160209004810192826115b257600085556115f9565b82601f106115cb57805160ff19168380011785556115f9565b828001600101855582156115f9579182015b828111156115f85782518255916020019190600101906115dd565b5b509050611606919061160a565b5090565b5b8082111561162357600081600090555060010161160b565b5090565b600061163a61163584611c78565b611c47565b90508281526020810184848401111561165257600080fd5b61165d848285611e6e565b509392505050565b6000813590506116748161204f565b92915050565b600082601f83011261168b57600080fd5b813561169b848260208601611627565b91505092915050565b6000813590506116b381612066565b92915050565b6000602082840312156116cb57600080fd5b60006116d984828501611665565b91505092915050565b600080600080608085870312156116f857600080fd5b600061170687828801611665565b9450506020611717878288016116a4565b9350506040611728878288016116a4565b925050606085013567ffffffffffffffff81111561174557600080fd5b6117518782880161167a565b91505092959194509250565b6000806000806080858703121561177357600080fd5b600061178187828801611665565b9450506020611792878288016116a4565b93505060406117a3878288016116a4565b92505060606117b4878288016116a4565b91505092959194509250565b6000602082840312156117d257600080fd5b60006117e0848285016116a4565b91505092915050565b6000806000606084860312156117fe57600080fd5b600061180c868287016116a4565b935050602061181d868287016116a4565b925050604061182e868287016116a4565b9150509250925092565b60006118448383611850565b60208301905092915050565b61185981611de8565b82525050565b61186881611dd6565b82525050565b61187781611dd6565b82525050565b61188681611cc7565b6118908184611cea565b925061189b82611ca8565b8060005b838110156118cc5781516118b38782611838565b96506118be83611cdd565b92505060018101905061189f565b505050505050565b6118dd81611e4a565b82525050565b6118ec81611e5c565b82525050565b60006118fd82611cd2565b6119078185611cf5565b9350611917818560208601611e7d565b61192081612016565b840191505092915050565b6000815461193881611eb0565b6119428186611d06565b9450600182166000811461195d576001811461196f576119a2565b60ff19831686526020860193506119a2565b61197885611cb2565b60005b8381101561199a5781548189015260018201915060208101905061197b565b808801955050505b50505092915050565b60006060830160008301516119c3600086018261185f565b50602083015184820360208601526119db82826118f2565b91505060408301516119f060408601826118d4565b508091505092915050565b611a0481611e40565b82525050565b6000602082019050611a1f600083018461186e565b92915050565b600060a082019050611a3a600083018861186e565b611a47602083018761186e565b611a5460408301866119fb565b611a6160608301856119fb565b611a6e60808301846119fb565b9695505050505050565b600061010082019050611a8e600083018b61186e565b611a9b602083018a61186e565b611aa860408301896119fb565b611ab560608301886119fb565b611ac260808301876119fb565b611acf60a08301866119fb565b611adc60c08301856119fb565b611ae960e08301846118e3565b9998505050505050505050565b6000604082019050611b0b600083018561186e565b611b1860208301846119fb565b9392505050565b6000606082019050611b34600083018661186e565b611b4160208301856119fb565b8181036040830152611b53818461192b565b9050949350505050565b6000608082019050611b72600083018761186e565b611b7f60208301866119fb565b611b8c60408301856119fb565b8181036060830152611b9e818461192b565b905095945050505050565b6000608082019050611bbe600083018761186e565b611bcb60208301866119fb565b611bd860408301856119fb565b611be560608301846119fb565b95945050505050565b600061014082019050611c04600083018461187d565b92915050565b60006020820190508181036000830152611c2481846119ab565b905092915050565b6000602082019050611c4160008301846119fb565b92915050565b6000604051905081810181811067ffffffffffffffff82111715611c6e57611c6d611fe7565b5b8060405250919050565b600067ffffffffffffffff821115611c9357611c92611fe7565b5b601f19601f8301169050602081019050919050565b6000819050919050565b60008190508160005260206000209050919050565b6000600a9050919050565b600081519050919050565b6000602082019050919050565b600081905092915050565b600082825260208201905092915050565b600082825260208201905092915050565b6000611d2282611e40565b9150611d2d83611e40565b925082611d3d57611d3c611f5a565b5b828204905092915050565b6000611d5382611e40565b9150611d5e83611e40565b9250817fffffffffffffffffffffffffffffffffffffffffffffffffffffffffffffffff0483118215151615611d9757611d96611f2b565b5b828202905092915050565b6000611dad82611e40565b9150611db883611e40565b925082821015611dcb57611dca611f2b565b5b828203905092915050565b6000611de182611e20565b9050919050565b6000611df382611e20565b9050919050565b6000819050611e0882612027565b919050565b6000819050611e1b8261203b565b919050565b600073ffffffffffffffffffffffffffffffffffffffff82169050919050565b6000819050919050565b6000611e5582611dfa565b9050919050565b6000611e6782611e0d565b9050919050565b82818337600083830152505050565b60005b83811015611e9b578082015181840152602081019050611e80565b83811115611eaa576000848401525b50505050565b60006002820490506001821680611ec857607f821691505b60208210811415611edc57611edb611fb8565b5b50919050565b6000611eed82611e40565b91507fffffffffffffffffffffffffffffffffffffffffffffffffffffffffffffffff821415611f2057611f1f611f2b565b5b600182019050919050565b7f4e487b7100000000000000000000000000000000000000000000000000000000600052601160045260246000fd5b7f4e487b7100000000000000000000000000000000000000000000000000000000600052601260045260246000fd5b7f4e487b7100000000000000000000000000000000000000000000000000000000600052602160045260246000fd5b7f4e487b7100000000000000000000000000000000000000000000000000000000600052602260045260246000fd5b7f4e487b7100000000000000000000000000000000000000000000000000000000600052604160045260246000fd5b6000601f19601f8301169050919050565b6003811061203857612037611f89565b5b50565b6007811061204c5761204b611f89565b5b50565b61205881611dd6565b811461206357600080fd5b50565b61206f81611e40565b811461207a57600080fd5b5056fea2646970667358221220142422fa02ef724df5f3407b23e2fd39d8dcb3e9ddaa594fa902ba735509d15f64736f6c63430008000033",
  "immutableReferences": {},
  "source": "// SPDX-License-Identifier: MIT\r\npragma solidity ^0.8.0;\r\n\r\ncontract DecentraLoan {\r\n    enum StateType {\r\n        Available,\r\n        DealReached,\r\n        Active,\r\n        AwaitingValidation,\r\n        Delinquent,\r\n        Terminated,\r\n        Withdrawn\r\n    }\r\n\r\n    enum EvidenceStatus {\r\n        Unverified, \r\n        Invalid, \r\n        Valid\r\n    }\r\n\r\n    struct Evidence {\r\n        address sender;\r\n        string transactionHash;\r\n        EvidenceStatus evidenceStatus;\r\n    }\r\n\r\n    // contract owner (who pays for the gas fees..)\r\n    address private _owner;\r\n    address payable[10] private _investors;\r\n    uint256 InvestorIndex;\r\n\r\n    // lender specific variables\r\n    address private Lender;\r\n    address private Borrower;\r\n    uint256 private LoanAmount;\r\n    uint256 private InterestRate;\r\n    uint256 private RepaymentPeriod;\r\n    uint256 private Platform;\r\n\r\n    // loan contract specific variables\r\n    StateType private State;\r\n    Evidence[] private Evidences;\r\n    uint256 private Balance;\r\n    uint256 private PaymentNumber;\r\n\r\n    // contract constructor\r\n    constructor(\r\n        address owner,\r\n        address lender,\r\n        uint256 amount,\r\n        uint256 interest,\r\n        uint256 repaymentPeriod,\r\n        uint256 platform\r\n    ) {\r\n        Lender = lender;\r\n        LoanAmount = amount;\r\n        InterestRate = interest;\r\n        RepaymentPeriod = repaymentPeriod;\r\n        Platform = platform;\r\n\r\n        _owner = owner;\r\n\r\n        State = StateType.Available;\r\n\r\n        PaymentNumber = 0;\r\n\r\n        emit Created(lender, amount, interest, repaymentPeriod);\r\n    }\r\n    \r\n    function GetLoanAmount() public view returns (uint256) {\r\n        return LoanAmount;\r\n    }\r\n    \r\n    function Invest() public payable {\r\n        require(InvestorIndex < 10);\r\n        require(msg.value == ((LoanAmount/10)*(5e14)));\r\n        \r\n        _investors[InvestorIndex] = payable(msg.sender);\r\n        InvestorIndex++;\r\n    }\r\n    \r\n    function GetInvestors() public view returns (address payable[10] memory) {\r\n        return _investors;\r\n    }\r\n    \r\n    function PayInvestors() public payable {\r\n        for (uint256 i = 0; i < InvestorIndex; i++) {\r\n            _investors[i].transfer((LoanAmount/10)*(5e14));\r\n        }\r\n    }\r\n\r\n    // modify available (non-active) contract [lender]\r\n    function Modify(\r\n        // address user,\r\n        uint256 amount,\r\n        uint256 interest,\r\n        uint256 repaymentPeriod\r\n    ) public payable {\r\n        require(msg.sender == _owner);\r\n        // require(user == Lender);\r\n        require(State == StateType.Available);\r\n\r\n        LoanAmount = amount;\r\n        InterestRate = interest;\r\n        RepaymentPeriod = repaymentPeriod;\r\n\r\n        emit Modified(Lender, amount, interest, repaymentPeriod);\r\n    }\r\n\r\n    // leander and borrower reached a deal, \r\n    // do virtual handshake and set loan state to Active\r\n    function Deal(\r\n        // address user,\r\n        address _borrower,\r\n        uint256 _amount,\r\n        uint256 _interest,\r\n        uint256 _repaymentPeriod\r\n    ) public payable {\r\n        require(msg.sender == _owner);\r\n        // require(user == Lender);\r\n        require(State == StateType.Available);\r\n\r\n        // set borrower\r\n        Borrower = _borrower;\r\n        \r\n        // change loan parameters if reached deal changed any\r\n        LoanAmount = _amount;\r\n        InterestRate = _interest;\r\n        RepaymentPeriod = _repaymentPeriod;\r\n\r\n        // set loan status to Active\r\n        State = StateType.Active;\r\n\r\n        emit DealReached(\r\n            Lender,\r\n            Borrower,\r\n            LoanAmount,\r\n            InterestRate,\r\n            RepaymentPeriod\r\n        );\r\n    }\r\n\r\n    function Withdraw() public payable {\r\n        require(msg.sender == _owner);\r\n        require(State == StateType.Available);\r\n        // require(_lender == Lender);\r\n\r\n        State = StateType.Withdrawn;\r\n\r\n        emit Withdrawn(Lender);\r\n    }\r\n\r\n    // sends payment with required evidence attached [lender|borrower]\r\n    function SendPayment(\r\n        address sender,\r\n        uint256 paymentNumber,\r\n        uint256 amount,\r\n        string memory evidence\r\n    ) public payable {\r\n        require(msg.sender == _owner);\r\n        require(sender == Lender || sender == Borrower || sender == _owner); // require sender is lender or borrower\r\n        require(State == StateType.Active); // require that it is an active contract\r\n        require(amount > 0); // require payment amount is not 0\r\n\r\n        if (PaymentNumber == 0) {\r\n            // Lender sent core loan amount, this is considered as payment 0.\r\n            Balance = amount;\r\n        } else {\r\n            // subtract paid amount to the balance\r\n            Balance = Balance - amount;\r\n        }\r\n\r\n        // send evidence for counterparty validation, initialy unverified\r\n        Evidences.push(\r\n            Evidence(\r\n                sender,\r\n                evidence,\r\n                EvidenceStatus.Unverified\r\n            )\r\n        );\r\n\r\n        State = StateType.AwaitingValidation; // set state to awaiting validation\r\n\r\n        emit PaymentSent(\r\n            sender,\r\n            amount,\r\n            paymentNumber,\r\n            Evidences[paymentNumber].transactionHash\r\n        );\r\n    }\r\n\r\n    function GetEvidence(uint256 paymentNumber)\r\n        public\r\n        view\r\n        returns (Evidence memory)\r\n    {\r\n        require(paymentNumber <= PaymentNumber);\r\n\r\n        return Evidences[paymentNumber];\r\n    }\r\n\r\n    function ValidateEvidence(address user)\r\n        public\r\n        payable\r\n    {\r\n        require(msg.sender == _owner);\r\n        require(\r\n            (user == Borrower && Evidences[PaymentNumber].sender == Lender) ||\r\n                (user == Lender && Evidences[PaymentNumber].sender == Borrower)\r\n        );\r\n        require(State == StateType.AwaitingValidation);\r\n\r\n        // validate from website, validation code is stored encrypted in the blockchain\r\n        // encryption is only lifted by having the decryption key that is server unique\r\n        // after some checks, validate...\r\n        Evidences[PaymentNumber].evidenceStatus = EvidenceStatus.Valid;\r\n\r\n        State = StateType.Active; // set loan state back to active\r\n\r\n        emit PaymentValidated(\r\n            user,\r\n            PaymentNumber,\r\n            Evidences[PaymentNumber].transactionHash\r\n        );\r\n        \r\n        PaymentNumber++;\r\n    }\r\n\r\n    /**\r\n     * EVENTS\r\n     **/\r\n    event Received(address sender, uint256 amount);\r\n\r\n    event Created(\r\n        address lender,\r\n        uint256 amount,\r\n        uint256 interest,\r\n        uint256 repaymentPeriod\r\n    );\r\n    event Modified(\r\n        address lender,\r\n        uint256 amount,\r\n        uint256 interest,\r\n        uint256 repaymentPeriod\r\n    );\r\n    event Withdrawn(\r\n        address lender\r\n    );\r\n    event DealReached(\r\n        address lender,\r\n        address borrower,\r\n        uint256 amount,\r\n        uint256 interest,\r\n        uint256 repaymentPeriod\r\n    );\r\n    event PaymentSent(\r\n        address sender,\r\n        uint256 amount,\r\n        uint256 paymentNumber,\r\n        string evidence\r\n    );\r\n    event PaymentValidated(\r\n        address sender,\r\n        uint256 paymentNumber,\r\n        string evidence\r\n    );\r\n\r\n    // Receive any ethereum randomly sent to the contract from outside\r\n    receive() external payable {\r\n        emit Received(msg.sender, msg.value);\r\n    }\r\n\r\n    // get tupple with information about current contract\r\n    function Info()\r\n        public\r\n        view\r\n        returns (\r\n            address,\r\n            address,\r\n            uint256,\r\n            uint256,\r\n            uint256,\r\n            uint256,\r\n            uint256,\r\n            StateType\r\n        )\r\n    {\r\n        return (\r\n            Lender,\r\n            Borrower,\r\n            LoanAmount,\r\n            Balance,\r\n            InterestRate,\r\n            RepaymentPeriod,\r\n            PaymentNumber,\r\n            State\r\n        );\r\n    }\r\n}",
  "sourcePath": "C:/Users/abdie/Documents/Developer/Capstone/CAPSTONE_APP/contracts/DecentraLoan.sol",
  "compiler": {
    "name": "solc",
    "version": "0.8.0+commit.c7dfd78e.Emscripten.clang"
  },
  "schemaVersion": "3.3.3",
  "updatedAt": "2021-04-21T00:36:50.497Z",
  "devdoc": {
    "kind": "dev",
    "methods": {},
    "version": 1
  },
  "userdoc": {
    "events": {
      "Received(address,uint256)": {
        "notice": "EVENTS*"
      }
    },
    "kind": "user",
    "methods": {},
    "version": 1
  }
}