{
  "contractName": "DecentraLoan",
  "abi": [
    {
      "inputs": [
        {
          "internalType": "address",
          "name": "owner",
          "type": "address"
        },
        {
          "internalType": "address",
          "name": "lender",
          "type": "address"
        },
        {
          "internalType": "uint256",
          "name": "amount",
          "type": "uint256"
        },
        {
          "internalType": "uint256",
          "name": "interest",
          "type": "uint256"
        },
        {
          "internalType": "uint256",
          "name": "repaymentPeriod",
          "type": "uint256"
        }
      ],
      "stateMutability": "nonpayable",
      "type": "constructor"
    },
    {
      "anonymous": false,
      "inputs": [
        {
          "indexed": false,
          "internalType": "address",
          "name": "lender",
          "type": "address"
        }
      ],
      "name": "Accepted",
      "type": "event"
    },
    {
      "anonymous": false,
      "inputs": [
        {
          "indexed": false,
          "internalType": "address",
          "name": "sender",
          "type": "address"
        }
      ],
      "name": "BorrowerConfirmed",
      "type": "event"
    },
    {
      "anonymous": false,
      "inputs": [
        {
          "indexed": false,
          "internalType": "address",
          "name": "lender",
          "type": "address"
        },
        {
          "indexed": false,
          "internalType": "uint256",
          "name": "amount",
          "type": "uint256"
        },
        {
          "indexed": false,
          "internalType": "uint256",
          "name": "interest",
          "type": "uint256"
        },
        {
          "indexed": false,
          "internalType": "uint256",
          "name": "repaymentPeriod",
          "type": "uint256"
        }
      ],
      "name": "Created",
      "type": "event"
    },
    {
      "anonymous": false,
      "inputs": [
        {
          "indexed": false,
          "internalType": "address",
          "name": "sender",
          "type": "address"
        },
        {
          "indexed": false,
          "internalType": "uint256",
          "name": "amount",
          "type": "uint256"
        },
        {
          "indexed": false,
          "internalType": "uint256",
          "name": "interest",
          "type": "uint256"
        },
        {
          "indexed": false,
          "internalType": "uint256",
          "name": "repaymentPeriod",
          "type": "uint256"
        }
      ],
      "name": "Modified",
      "type": "event"
    },
    {
      "anonymous": false,
      "inputs": [
        {
          "indexed": false,
          "internalType": "address",
          "name": "sender",
          "type": "address"
        }
      ],
      "name": "OfferAccepted",
      "type": "event"
    },
    {
      "anonymous": false,
      "inputs": [
        {
          "indexed": false,
          "internalType": "address",
          "name": "sender",
          "type": "address"
        },
        {
          "indexed": false,
          "internalType": "uint256",
          "name": "offerAmount",
          "type": "uint256"
        },
        {
          "indexed": false,
          "internalType": "uint256",
          "name": "offerInterestRate",
          "type": "uint256"
        },
        {
          "indexed": false,
          "internalType": "uint256",
          "name": "offerRepaymentPeriod",
          "type": "uint256"
        }
      ],
      "name": "OfferPlaced",
      "type": "event"
    },
    {
      "anonymous": false,
      "inputs": [
        {
          "indexed": false,
          "internalType": "address",
          "name": "sender",
          "type": "address"
        }
      ],
      "name": "OfferRejected",
      "type": "event"
    },
    {
      "anonymous": false,
      "inputs": [
        {
          "indexed": false,
          "internalType": "address",
          "name": "sender",
          "type": "address"
        },
        {
          "indexed": false,
          "internalType": "address",
          "name": "receiver",
          "type": "address"
        },
        {
          "indexed": false,
          "internalType": "uint256",
          "name": "amount",
          "type": "uint256"
        },
        {
          "indexed": false,
          "internalType": "uint256",
          "name": "paymentNumber",
          "type": "uint256"
        },
        {
          "indexed": false,
          "internalType": "string",
          "name": "evidence",
          "type": "string"
        }
      ],
      "name": "PaymentSent",
      "type": "event"
    },
    {
      "anonymous": false,
      "inputs": [
        {
          "indexed": false,
          "internalType": "address",
          "name": "sender",
          "type": "address"
        },
        {
          "indexed": false,
          "internalType": "uint256",
          "name": "paymentNumber",
          "type": "uint256"
        },
        {
          "components": [
            {
              "internalType": "address",
              "name": "sender",
              "type": "address"
            },
            {
              "internalType": "string",
              "name": "transactionHash",
              "type": "string"
            },
            {
              "internalType": "enum DecentraLoan.EvidenceStatus",
              "name": "evidenceStatus",
              "type": "uint8"
            }
          ],
          "indexed": false,
          "internalType": "struct DecentraLoan.Evidence",
          "name": "evidence",
          "type": "tuple"
        }
      ],
      "name": "PaymentValidated",
      "type": "event"
    },
    {
      "anonymous": false,
      "inputs": [
        {
          "indexed": false,
          "internalType": "address",
          "name": "sender",
          "type": "address"
        },
        {
          "indexed": false,
          "internalType": "uint256",
          "name": "amount",
          "type": "uint256"
        }
      ],
      "name": "Received",
      "type": "event"
    },
    {
      "anonymous": false,
      "inputs": [
        {
          "indexed": false,
          "internalType": "address",
          "name": "borrower",
          "type": "address"
        }
      ],
      "name": "Requested",
      "type": "event"
    },
    {
      "inputs": [],
      "name": "Balance",
      "outputs": [
        {
          "internalType": "uint256",
          "name": "",
          "type": "uint256"
        }
      ],
      "stateMutability": "view",
      "type": "function"
    },
    {
      "inputs": [],
      "name": "Borrower",
      "outputs": [
        {
          "internalType": "address",
          "name": "",
          "type": "address"
        }
      ],
      "stateMutability": "view",
      "type": "function"
    },
    {
      "inputs": [
        {
          "internalType": "uint256",
          "name": "",
          "type": "uint256"
        }
      ],
      "name": "Evidences",
      "outputs": [
        {
          "internalType": "address",
          "name": "sender",
          "type": "address"
        },
        {
          "internalType": "string",
          "name": "transactionHash",
          "type": "string"
        },
        {
          "internalType": "enum DecentraLoan.EvidenceStatus",
          "name": "evidenceStatus",
          "type": "uint8"
        }
      ],
      "stateMutability": "view",
      "type": "function"
    },
    {
      "inputs": [],
      "name": "InterestRate",
      "outputs": [
        {
          "internalType": "uint256",
          "name": "",
          "type": "uint256"
        }
      ],
      "stateMutability": "view",
      "type": "function"
    },
    {
      "inputs": [],
      "name": "Lender",
      "outputs": [
        {
          "internalType": "address",
          "name": "",
          "type": "address"
        }
      ],
      "stateMutability": "view",
      "type": "function"
    },
    {
      "inputs": [],
      "name": "LoanAmount",
      "outputs": [
        {
          "internalType": "uint256",
          "name": "",
          "type": "uint256"
        }
      ],
      "stateMutability": "view",
      "type": "function"
    },
    {
      "inputs": [],
      "name": "OfferAmout",
      "outputs": [
        {
          "internalType": "uint256",
          "name": "",
          "type": "uint256"
        }
      ],
      "stateMutability": "view",
      "type": "function"
    },
    {
      "inputs": [],
      "name": "OfferInterestRate",
      "outputs": [
        {
          "internalType": "uint256",
          "name": "",
          "type": "uint256"
        }
      ],
      "stateMutability": "view",
      "type": "function"
    },
    {
      "inputs": [],
      "name": "OfferRepaymentPeriod",
      "outputs": [
        {
          "internalType": "uint256",
          "name": "",
          "type": "uint256"
        }
      ],
      "stateMutability": "view",
      "type": "function"
    },
    {
      "inputs": [],
      "name": "PaymentNumber",
      "outputs": [
        {
          "internalType": "uint256",
          "name": "",
          "type": "uint256"
        }
      ],
      "stateMutability": "view",
      "type": "function"
    },
    {
      "inputs": [],
      "name": "RepaymentPeriod",
      "outputs": [
        {
          "internalType": "uint256",
          "name": "",
          "type": "uint256"
        }
      ],
      "stateMutability": "view",
      "type": "function"
    },
    {
      "inputs": [],
      "name": "State",
      "outputs": [
        {
          "internalType": "enum DecentraLoan.StateType",
          "name": "",
          "type": "uint8"
        }
      ],
      "stateMutability": "view",
      "type": "function"
    },
    {
      "inputs": [],
      "name": "_owner",
      "outputs": [
        {
          "internalType": "address",
          "name": "",
          "type": "address"
        }
      ],
      "stateMutability": "view",
      "type": "function"
    },
    {
      "stateMutability": "payable",
      "type": "receive"
    },
    {
      "inputs": [
        {
          "internalType": "address",
          "name": "user",
          "type": "address"
        }
      ],
      "name": "RequestLoan",
      "outputs": [],
      "stateMutability": "payable",
      "type": "function"
    },
    {
      "inputs": [
        {
          "internalType": "address",
          "name": "user",
          "type": "address"
        }
      ],
      "name": "AcceptRequest",
      "outputs": [],
      "stateMutability": "payable",
      "type": "function"
    },
    {
      "inputs": [
        {
          "internalType": "address",
          "name": "user",
          "type": "address"
        },
        {
          "internalType": "uint256",
          "name": "offerAmount",
          "type": "uint256"
        },
        {
          "internalType": "uint256",
          "name": "offerInterestRate",
          "type": "uint256"
        },
        {
          "internalType": "uint256",
          "name": "offerRepaymentPeriod",
          "type": "uint256"
        }
      ],
      "name": "MakeOffer",
      "outputs": [],
      "stateMutability": "payable",
      "type": "function"
    },
    {
      "inputs": [
        {
          "internalType": "address",
          "name": "user",
          "type": "address"
        }
      ],
      "name": "ConfirmLenderOffer",
      "outputs": [],
      "stateMutability": "payable",
      "type": "function"
    },
    {
      "inputs": [
        {
          "internalType": "address",
          "name": "user",
          "type": "address"
        },
        {
          "internalType": "uint256",
          "name": "amount",
          "type": "uint256"
        },
        {
          "internalType": "uint256",
          "name": "interest",
          "type": "uint256"
        },
        {
          "internalType": "uint256",
          "name": "repaymentPeriod",
          "type": "uint256"
        }
      ],
      "name": "Modify",
      "outputs": [],
      "stateMutability": "payable",
      "type": "function"
    },
    {
      "inputs": [
        {
          "internalType": "address",
          "name": "user",
          "type": "address"
        }
      ],
      "name": "AcceptOffer",
      "outputs": [],
      "stateMutability": "payable",
      "type": "function"
    },
    {
      "inputs": [
        {
          "internalType": "address",
          "name": "user",
          "type": "address"
        }
      ],
      "name": "RejectOffer",
      "outputs": [],
      "stateMutability": "payable",
      "type": "function"
    },
    {
      "inputs": [
        {
          "internalType": "address",
          "name": "user",
          "type": "address"
        },
        {
          "internalType": "address",
          "name": "receiver",
          "type": "address"
        },
        {
          "internalType": "uint256",
          "name": "paymentNumber",
          "type": "uint256"
        },
        {
          "internalType": "uint256",
          "name": "amount",
          "type": "uint256"
        },
        {
          "internalType": "string",
          "name": "evidence",
          "type": "string"
        }
      ],
      "name": "SendPayment",
      "outputs": [],
      "stateMutability": "payable",
      "type": "function"
    },
    {
      "inputs": [
        {
          "internalType": "uint256",
          "name": "paymentNumber",
          "type": "uint256"
        }
      ],
      "name": "GetEvidence",
      "outputs": [
        {
          "components": [
            {
              "internalType": "address",
              "name": "sender",
              "type": "address"
            },
            {
              "internalType": "string",
              "name": "transactionHash",
              "type": "string"
            },
            {
              "internalType": "enum DecentraLoan.EvidenceStatus",
              "name": "evidenceStatus",
              "type": "uint8"
            }
          ],
          "internalType": "struct DecentraLoan.Evidence",
          "name": "",
          "type": "tuple"
        }
      ],
      "stateMutability": "view",
      "type": "function"
    },
    {
      "inputs": [
        {
          "internalType": "address",
          "name": "user",
          "type": "address"
        },
        {
          "internalType": "uint256",
          "name": "paymentNumber",
          "type": "uint256"
        }
      ],
      "name": "ValidateEvidence",
      "outputs": [],
      "stateMutability": "payable",
      "type": "function"
    },
    {
      "inputs": [],
      "name": "Info",
      "outputs": [
        {
          "internalType": "address",
          "name": "",
          "type": "address"
        },
        {
          "internalType": "address",
          "name": "",
          "type": "address"
        },
        {
          "internalType": "uint256",
          "name": "",
          "type": "uint256"
        },
        {
          "internalType": "uint256",
          "name": "",
          "type": "uint256"
        },
        {
          "internalType": "uint256",
          "name": "",
          "type": "uint256"
        },
        {
          "internalType": "uint256",
          "name": "",
          "type": "uint256"
        },
        {
          "internalType": "enum DecentraLoan.StateType",
          "name": "",
          "type": "uint8"
        }
      ],
      "stateMutability": "view",
      "type": "function"
    }
  ],
  "bytecode": "0x60806040523480156200001157600080fd5b5060405162002e5c38038062002e5c83398181016040528101906200003791906200019f565b83600160006101000a81548173ffffffffffffffffffffffffffffffffffffffff021916908373ffffffffffffffffffffffffffffffffffffffff160217905550826002819055508160038190555080600481905550846000806101000a81548173ffffffffffffffffffffffffffffffffffffffff021916908373ffffffffffffffffffffffffffffffffffffffff1602179055506000600960006101000a81548160ff021916908360078111156200011a577f4e487b7100000000000000000000000000000000000000000000000000000000600052602160045260246000fd5b02179055506000600c819055507f99a12a7aefbbb67909c2bee4a5e2ddb98b2183b8ae2a59e5a7db47f53453345d848484846040516200015e949392919062000243565b60405180910390a1505050505062000302565b6000815190506200018281620002ce565b92915050565b6000815190506200019981620002e8565b92915050565b600080600080600060a08688031215620001b857600080fd5b6000620001c88882890162000171565b9550506020620001db8882890162000171565b9450506040620001ee8882890162000188565b9350506060620002018882890162000188565b9250506080620002148882890162000188565b9150509295509295909350565b6200022c8162000290565b82525050565b6200023d81620002c4565b82525050565b60006080820190506200025a600083018762000221565b62000269602083018662000232565b62000278604083018562000232565b62000287606083018462000232565b95945050505050565b60006200029d82620002a4565b9050919050565b600073ffffffffffffffffffffffffffffffffffffffff82169050919050565b6000819050919050565b620002d98162000290565b8114620002e557600080fd5b50565b620002f381620002c4565b8114620002ff57600080fd5b50565b612b4a80620003126000396000f3fe60806040526004361061014f5760003560e01c8063ad099d6f116100b6578063e3fc1c191161006f578063e3fc1c191461047b578063e633fc78146104a6578063eca2dbb2146104c2578063ecf83352146104de578063f1b6dccd146104fa578063ff1871ea146105255761018f565b8063ad099d6f14610383578063ad4829b0146103ae578063b2bdfa7b146103ca578063b56cb8eb146103f5578063e1db806114610420578063e1dd67b51461045f5761018f565b80634012e02e116101085780634012e02e146102875780634097f368146102b857806348dc0b6e146102e35780635677640b1461030e5780635f13f6891461034b57806363307f10146103675761018f565b806302b89ffc146101945780630372a77c146101bf5780630cda162d146101db5780630ef67887146102065780631b1917b3146102315780633cd4730c1461025c5761018f565b3661018f577f88a5966d370b9919b20f3e2c13ff65706f196a4e32cc2c12bf57088f8852587433346040516101859291906126ae565b60405180910390a1005b600080fd5b3480156101a057600080fd5b506101a9610541565b6040516101b69190612797565b60405180910390f35b6101d960048036038101906101d49190612189565b610547565b005b3480156101e757600080fd5b506101f0610732565b6040516101fd919061258c565b60405180910390f35b34801561021257600080fd5b5061021b610758565b6040516102289190612797565b60405180910390f35b34801561023d57600080fd5b5061024661075e565b6040516102539190612797565b60405180910390f35b34801561026857600080fd5b50610271610764565b60405161027e9190612797565b60405180910390f35b34801561029357600080fd5b5061029c61076a565b6040516102af9796959493929190612601565b60405180910390f35b3480156102c457600080fd5b506102cd6107ee565b6040516102da919061258c565b60405180910390f35b3480156102ef57600080fd5b506102f8610814565b6040516103059190612797565b60405180910390f35b34801561031a57600080fd5b50610335600480360381019061033091906122e0565b61081a565b6040516103429190612775565b60405180910390f35b61036560048036038101906103609190612189565b6109c5565b005b610381600480360381019061037c91906121b2565b610c28565b005b34801561038f57600080fd5b50610398611077565b6040516103a59190612797565b60405180910390f35b6103c860048036038101906103c3919061227d565b61107d565b005b3480156103d657600080fd5b506103df611405565b6040516103ec919061258c565b60405180910390f35b34801561040157600080fd5b5061040a611429565b6040516104179190612797565b60405180910390f35b34801561042c57600080fd5b50610447600480360381019061044291906122e0565b61142f565b60405161045693929190612670565b60405180910390f35b61047960048036038101906104749190612189565b61150e565b005b34801561048757600080fd5b506104906116be565b60405161049d9190612797565b60405180910390f35b6104c060048036038101906104bb9190612189565b6116c4565b005b6104dc60048036038101906104d7919061227d565b611896565b005b6104f860048036038101906104f39190612189565b611a4e565b005b34801561050657600080fd5b5061050f611c17565b60405161051c919061275a565b60405180910390f35b61053f600480360381019061053a9190612241565b611c2a565b005b600c5481565b60008054906101000a900473ffffffffffffffffffffffffffffffffffffffff1673ffffffffffffffffffffffffffffffffffffffff163373ffffffffffffffffffffffffffffffffffffffff161461059f57600080fd5b600560009054906101000a900473ffffffffffffffffffffffffffffffffffffffff1673ffffffffffffffffffffffffffffffffffffffff168173ffffffffffffffffffffffffffffffffffffffff16146105f957600080fd5b60026007811115610633577f4e487b7100000000000000000000000000000000000000000000000000000000600052602160045260246000fd5b600960009054906101000a900460ff16600781111561067b577f4e487b7100000000000000000000000000000000000000000000000000000000600052602160045260246000fd5b1461068557600080fd5b6003600960006101000a81548160ff021916908360078111156106d1577f4e487b7100000000000000000000000000000000000000000000000000000000600052602160045260246000fd5b02179055507fcc19dffbfb36e5ea9fc3e267d1daaa98e0b249dcef22165151c04023c3b05c8f600560009054906101000a900473ffffffffffffffffffffffffffffffffffffffff16604051610727919061258c565b60405180910390a150565b600560009054906101000a900473ffffffffffffffffffffffffffffffffffffffff1681565b600b5481565b60045481565b60025481565b6000806000806000806000600160009054906101000a900473ffffffffffffffffffffffffffffffffffffffff16600560009054906101000a900473ffffffffffffffffffffffffffffffffffffffff16600254600b54600354600454600960009054906101000a900460ff16965096509650965096509650965090919293949596565b600160009054906101000a900473ffffffffffffffffffffffffffffffffffffffff1681565b60035481565b610822611fe5565b600c5482111561083157600080fd5b600a60008381526020019081526020016000206040518060600160405290816000820160009054906101000a900473ffffffffffffffffffffffffffffffffffffffff1673ffffffffffffffffffffffffffffffffffffffff1673ffffffffffffffffffffffffffffffffffffffff1681526020016001820180546108b59061297e565b80601f01602080910402602001604051908101604052809291908181526020018280546108e19061297e565b801561092e5780601f106109035761010080835404028352916020019161092e565b820191906000526020600020905b81548152906001019060200180831161091157829003601f168201915b505050505081526020016002820160009054906101000a900460ff166002811115610982577f4e487b7100000000000000000000000000000000000000000000000000000000600052602160045260246000fd5b60028111156109ba577f4e487b7100000000000000000000000000000000000000000000000000000000600052602160045260246000fd5b815250509050919050565b60008054906101000a900473ffffffffffffffffffffffffffffffffffffffff1673ffffffffffffffffffffffffffffffffffffffff163373ffffffffffffffffffffffffffffffffffffffff1614610a1d57600080fd5b600160009054906101000a900473ffffffffffffffffffffffffffffffffffffffff1673ffffffffffffffffffffffffffffffffffffffff168173ffffffffffffffffffffffffffffffffffffffff161480610ac65750600560009054906101000a900473ffffffffffffffffffffffffffffffffffffffff1673ffffffffffffffffffffffffffffffffffffffff168173ffffffffffffffffffffffffffffffffffffffff16145b610acf57600080fd5b60016007811115610b09577f4e487b7100000000000000000000000000000000000000000000000000000000600052602160045260246000fd5b600960009054906101000a900460ff166007811115610b51577f4e487b7100000000000000000000000000000000000000000000000000000000600052602160045260246000fd5b14610b5b57600080fd5b6000600560006101000a81548173ffffffffffffffffffffffffffffffffffffffff021916908373ffffffffffffffffffffffffffffffffffffffff1602179055506000600960006101000a81548160ff02191690836007811115610be9577f4e487b7100000000000000000000000000000000000000000000000000000000600052602160045260246000fd5b02179055507fe0c1a48d34b111953dfef62f5393cdffdd14cb7eeabd62b10f481c12358d625681604051610c1d919061258c565b60405180910390a150565b60008054906101000a900473ffffffffffffffffffffffffffffffffffffffff1673ffffffffffffffffffffffffffffffffffffffff163373ffffffffffffffffffffffffffffffffffffffff1614610c8057600080fd5b600160009054906101000a900473ffffffffffffffffffffffffffffffffffffffff1673ffffffffffffffffffffffffffffffffffffffff168573ffffffffffffffffffffffffffffffffffffffff16148015610d2a5750600560009054906101000a900473ffffffffffffffffffffffffffffffffffffffff1673ffffffffffffffffffffffffffffffffffffffff168473ffffffffffffffffffffffffffffffffffffffff16145b80610ddb5750600560009054906101000a900473ffffffffffffffffffffffffffffffffffffffff1673ffffffffffffffffffffffffffffffffffffffff168573ffffffffffffffffffffffffffffffffffffffff16148015610dda5750600160009054906101000a900473ffffffffffffffffffffffffffffffffffffffff1673ffffffffffffffffffffffffffffffffffffffff168473ffffffffffffffffffffffffffffffffffffffff16145b5b610de457600080fd5b60046007811115610e1e577f4e487b7100000000000000000000000000000000000000000000000000000000600052602160045260246000fd5b600960009054906101000a900460ff166007811115610e66577f4e487b7100000000000000000000000000000000000000000000000000000000600052602160045260246000fd5b14610e7057600080fd5b60008211610e7d57600080fd5b81600b54610e8b9190612855565b600b8190555060405180606001604052808673ffffffffffffffffffffffffffffffffffffffff16815260200182815260200160006002811115610ef8577f4e487b7100000000000000000000000000000000000000000000000000000000600052602160045260246000fd5b815250600a600085815260200190815260200160002060008201518160000160006101000a81548173ffffffffffffffffffffffffffffffffffffffff021916908373ffffffffffffffffffffffffffffffffffffffff1602179055506020820151816001019080519060200190610f71929190612054565b5060408201518160020160006101000a81548160ff02191690836002811115610fc3577f4e487b7100000000000000000000000000000000000000000000000000000000600052602160045260246000fd5b02179055509050506005600960006101000a81548160ff02191690836007811115611017577f4e487b7100000000000000000000000000000000000000000000000000000000600052602160045260246000fd5b02179055507fe932c2fd6649c1e57699998a2520fbb85815ebfef01d9dc99bd02a721dbf277a85858486600a60008981526020019081526020016000206001016040516110689594939291906125a7565b60405180910390a15050505050565b60075481565b60008054906101000a900473ffffffffffffffffffffffffffffffffffffffff1673ffffffffffffffffffffffffffffffffffffffff163373ffffffffffffffffffffffffffffffffffffffff16146110d557600080fd5b600160009054906101000a900473ffffffffffffffffffffffffffffffffffffffff1673ffffffffffffffffffffffffffffffffffffffff168473ffffffffffffffffffffffffffffffffffffffff16148061117e5750600560009054906101000a900473ffffffffffffffffffffffffffffffffffffffff1673ffffffffffffffffffffffffffffffffffffffff168473ffffffffffffffffffffffffffffffffffffffff16145b61118757600080fd5b60008314158015611199575060008114155b80156111a6575060008214155b6111af57600080fd5b600060078111156111e9577f4e487b7100000000000000000000000000000000000000000000000000000000600052602160045260246000fd5b600960009054906101000a900460ff166007811115611231577f4e487b7100000000000000000000000000000000000000000000000000000000600052602160045260246000fd5b14806112bc575060016007811115611272577f4e487b7100000000000000000000000000000000000000000000000000000000600052602160045260246000fd5b600960009054906101000a900460ff1660078111156112ba577f4e487b7100000000000000000000000000000000000000000000000000000000600052602160045260246000fd5b145b6112c557600080fd5b600160009054906101000a900473ffffffffffffffffffffffffffffffffffffffff1673ffffffffffffffffffffffffffffffffffffffff168473ffffffffffffffffffffffffffffffffffffffff161461135c5783600560006101000a81548173ffffffffffffffffffffffffffffffffffffffff021916908373ffffffffffffffffffffffffffffffffffffffff1602179055505b8260068190555081600781905550806008819055506001600960006101000a81548160ff021916908360078111156113bd577f4e487b7100000000000000000000000000000000000000000000000000000000600052602160045260246000fd5b02179055507fd37ceaac9ec103391429007b17a26ddd1669b4442108e931f9d1918a8714659c848484846040516113f79493929190612715565b60405180910390a150505050565b60008054906101000a900473ffffffffffffffffffffffffffffffffffffffff1681565b60065481565b600a6020528060005260406000206000915090508060000160009054906101000a900473ffffffffffffffffffffffffffffffffffffffff16908060010180546114789061297e565b80601f01602080910402602001604051908101604052809291908181526020018280546114a49061297e565b80156114f15780601f106114c6576101008083540402835291602001916114f1565b820191906000526020600020905b8154815290600101906020018083116114d457829003601f168201915b5050505050908060020160009054906101000a900460ff16905083565b60008054906101000a900473ffffffffffffffffffffffffffffffffffffffff1673ffffffffffffffffffffffffffffffffffffffff163373ffffffffffffffffffffffffffffffffffffffff161461156657600080fd5b600060078111156115a0577f4e487b7100000000000000000000000000000000000000000000000000000000600052602160045260246000fd5b600960009054906101000a900460ff1660078111156115e8577f4e487b7100000000000000000000000000000000000000000000000000000000600052602160045260246000fd5b146115f257600080fd5b80600560006101000a81548173ffffffffffffffffffffffffffffffffffffffff021916908373ffffffffffffffffffffffffffffffffffffffff1602179055506003600960006101000a81548160ff0219169083600781111561167f577f4e487b7100000000000000000000000000000000000000000000000000000000600052602160045260246000fd5b02179055507f039f711c9c18dd815b225b1424855e6118e746c6b5d688907f10c4dd29ebe92a816040516116b3919061258c565b60405180910390a150565b60085481565b60008054906101000a900473ffffffffffffffffffffffffffffffffffffffff1673ffffffffffffffffffffffffffffffffffffffff163373ffffffffffffffffffffffffffffffffffffffff161461171c57600080fd5b600160009054906101000a900473ffffffffffffffffffffffffffffffffffffffff1673ffffffffffffffffffffffffffffffffffffffff168173ffffffffffffffffffffffffffffffffffffffff161461177657600080fd5b600360078111156117b0577f4e487b7100000000000000000000000000000000000000000000000000000000600052602160045260246000fd5b600960009054906101000a900460ff1660078111156117f8577f4e487b7100000000000000000000000000000000000000000000000000000000600052602160045260246000fd5b1461180257600080fd5b6004600960006101000a81548160ff0219169083600781111561184e577f4e487b7100000000000000000000000000000000000000000000000000000000600052602160045260246000fd5b0217905550600254600b819055507f2e7bcc1a1a1c1bea0ff9a677c29b43662d6560afbebd99c213389fc15a6279d28160405161188b919061258c565b60405180910390a150565b60008054906101000a900473ffffffffffffffffffffffffffffffffffffffff1673ffffffffffffffffffffffffffffffffffffffff163373ffffffffffffffffffffffffffffffffffffffff16146118ee57600080fd5b600160009054906101000a900473ffffffffffffffffffffffffffffffffffffffff1673ffffffffffffffffffffffffffffffffffffffff168473ffffffffffffffffffffffffffffffffffffffff161461194857600080fd5b60006007811115611982577f4e487b7100000000000000000000000000000000000000000000000000000000600052602160045260246000fd5b600960009054906101000a900460ff1660078111156119ca577f4e487b7100000000000000000000000000000000000000000000000000000000600052602160045260246000fd5b146119d457600080fd5b8260028190555081600381905550806004819055507fff917abbd5265db0321d1698dfe74287ae6b93d1cd1f486a618d1124feb0b8bc600160009054906101000a900473ffffffffffffffffffffffffffffffffffffffff16848484604051611a409493929190612715565b60405180910390a150505050565b60008054906101000a900473ffffffffffffffffffffffffffffffffffffffff1673ffffffffffffffffffffffffffffffffffffffff163373ffffffffffffffffffffffffffffffffffffffff1614611aa657600080fd5b600160009054906101000a900473ffffffffffffffffffffffffffffffffffffffff1673ffffffffffffffffffffffffffffffffffffffff168173ffffffffffffffffffffffffffffffffffffffff1614611b0057600080fd5b60016007811115611b3a577f4e487b7100000000000000000000000000000000000000000000000000000000600052602160045260246000fd5b600960009054906101000a900460ff166007811115611b82577f4e487b7100000000000000000000000000000000000000000000000000000000600052602160045260246000fd5b14611b8c57600080fd5b6002600960006101000a81548160ff02191690836007811115611bd8577f4e487b7100000000000000000000000000000000000000000000000000000000600052602160045260246000fd5b02179055507fa13d0dc21c62e74caff064bba409ce28da1203587604c27c24db78f80e5fcaaf81604051611c0c919061258c565b60405180910390a150565b600960009054906101000a900460ff1681565b60008054906101000a900473ffffffffffffffffffffffffffffffffffffffff1673ffffffffffffffffffffffffffffffffffffffff163373ffffffffffffffffffffffffffffffffffffffff1614611c8257600080fd5b600560009054906101000a900473ffffffffffffffffffffffffffffffffffffffff1673ffffffffffffffffffffffffffffffffffffffff168273ffffffffffffffffffffffffffffffffffffffff16148015611d625750600160009054906101000a900473ffffffffffffffffffffffffffffffffffffffff1673ffffffffffffffffffffffffffffffffffffffff16600a600083815260200190815260200160002060000160009054906101000a900473ffffffffffffffffffffffffffffffffffffffff1673ffffffffffffffffffffffffffffffffffffffff16145b80611e495750600160009054906101000a900473ffffffffffffffffffffffffffffffffffffffff1673ffffffffffffffffffffffffffffffffffffffff168273ffffffffffffffffffffffffffffffffffffffff16148015611e485750600560009054906101000a900473ffffffffffffffffffffffffffffffffffffffff1673ffffffffffffffffffffffffffffffffffffffff16600a600083815260200190815260200160002060000160009054906101000a900473ffffffffffffffffffffffffffffffffffffffff1673ffffffffffffffffffffffffffffffffffffffff16145b5b611e5257600080fd5b60056007811115611e8c577f4e487b7100000000000000000000000000000000000000000000000000000000600052602160045260246000fd5b600960009054906101000a900460ff166007811115611ed4577f4e487b7100000000000000000000000000000000000000000000000000000000600052602160045260246000fd5b14611ede57600080fd5b6002600a600083815260200190815260200160002060020160006101000a81548160ff02191690836002811115611f3e577f4e487b7100000000000000000000000000000000000000000000000000000000600052602160045260246000fd5b02179055506004600960006101000a81548160ff02191690836007811115611f8f577f4e487b7100000000000000000000000000000000000000000000000000000000600052602160045260246000fd5b02179055507f3d1e30d0aea51c6918ea5c0338f07fe671cb4335b407d3426024701611317c8c8282600a6000858152602001908152602001600020604051611fd9939291906126d7565b60405180910390a15050565b6040518060600160405280600073ffffffffffffffffffffffffffffffffffffffff168152602001606081526020016000600281111561204e577f4e487b7100000000000000000000000000000000000000000000000000000000600052602160045260246000fd5b81525090565b8280546120609061297e565b90600052602060002090601f01602090048101928261208257600085556120c9565b82601f1061209b57805160ff19168380011785556120c9565b828001600101855582156120c9579182015b828111156120c85782518255916020019190600101906120ad565b5b5090506120d691906120da565b5090565b5b808211156120f35760008160009055506001016120db565b5090565b600061210a612105846127e3565b6127b2565b90508281526020810184848401111561212257600080fd5b61212d84828561293c565b509392505050565b60008135905061214481612ae6565b92915050565b600082601f83011261215b57600080fd5b813561216b8482602086016120f7565b91505092915050565b60008135905061218381612afd565b92915050565b60006020828403121561219b57600080fd5b60006121a984828501612135565b91505092915050565b600080600080600060a086880312156121ca57600080fd5b60006121d888828901612135565b95505060206121e988828901612135565b94505060406121fa88828901612174565b935050606061220b88828901612174565b925050608086013567ffffffffffffffff81111561222857600080fd5b6122348882890161214a565b9150509295509295909350565b6000806040838503121561225457600080fd5b600061226285828601612135565b925050602061227385828601612174565b9150509250929050565b6000806000806080858703121561229357600080fd5b60006122a187828801612135565b94505060206122b287828801612174565b93505060406122c387828801612174565b92505060606122d487828801612174565b91505092959194509250565b6000602082840312156122f257600080fd5b600061230084828501612174565b91505092915050565b612312816128b6565b82525050565b612321816128b6565b82525050565b61233081612918565b82525050565b61233f81612918565b82525050565b61234e8161292a565b82525050565b600061235f82612828565b6123698185612833565b935061237981856020860161294b565b61238281612aa0565b840191505092915050565b600061239882612828565b6123a28185612844565b93506123b281856020860161294b565b6123bb81612aa0565b840191505092915050565b600081546123d38161297e565b6123dd8186612833565b945060018216600081146123f8576001811461240a5761243d565b60ff198316865260208601935061243d565b61241385612813565b60005b8381101561243557815481890152600182019150602081019050612416565b808801955050505b50505092915050565b600081546124538161297e565b61245d8186612844565b94506001821660008114612478576001811461248a576124bd565b60ff19831686526020860193506124bd565b61249385612813565b60005b838110156124b557815481890152600182019150602081019050612496565b808801955050505b50505092915050565b60006060830160008301516124de6000860182612309565b50602083015184820360208601526124f68282612354565b915050604083015161250b6040860182612327565b508091505092915050565b600060608301600080840154905061252d816129b0565b61253a6000870182612309565b5060018401858303602087015261255183826123c6565b92505060028401549050612564816129ca565b6125716040870182612327565b50819250505092915050565b6125868161290e565b82525050565b60006020820190506125a16000830184612318565b92915050565b600060a0820190506125bc6000830188612318565b6125c96020830187612318565b6125d6604083018661257d565b6125e3606083018561257d565b81810360808301526125f58184612446565b90509695505050505050565b600060e082019050612616600083018a612318565b6126236020830189612318565b612630604083018861257d565b61263d606083018761257d565b61264a608083018661257d565b61265760a083018561257d565b61266460c0830184612345565b98975050505050505050565b60006060820190506126856000830186612318565b8181036020830152612697818561238d565b90506126a66040830184612336565b949350505050565b60006040820190506126c36000830185612318565b6126d0602083018461257d565b9392505050565b60006060820190506126ec6000830186612318565b6126f9602083018561257d565b818103604083015261270b8184612516565b9050949350505050565b600060808201905061272a6000830187612318565b612737602083018661257d565b612744604083018561257d565b612751606083018461257d565b95945050505050565b600060208201905061276f6000830184612345565b92915050565b6000602082019050818103600083015261278f81846124c6565b905092915050565b60006020820190506127ac600083018461257d565b92915050565b6000604051905081810181811067ffffffffffffffff821117156127d9576127d8612a71565b5b8060405250919050565b600067ffffffffffffffff8211156127fe576127fd612a71565b5b601f19601f8301169050602081019050919050565b60008190508160005260206000209050919050565b600081519050919050565b600082825260208201905092915050565b600082825260208201905092915050565b60006128608261290e565b915061286b8361290e565b92508282101561287e5761287d6129e4565b5b828203905092915050565b600073ffffffffffffffffffffffffffffffffffffffff82169050919050565b600060ff82169050919050565b60006128c1826128ee565b9050919050565b60008190506128d682612abe565b919050565b60008190506128e982612ad2565b919050565b600073ffffffffffffffffffffffffffffffffffffffff82169050919050565b6000819050919050565b6000612923826128c8565b9050919050565b6000612935826128db565b9050919050565b82818337600083830152505050565b60005b8381101561296957808201518184015260208101905061294e565b83811115612978576000848401525b50505050565b6000600282049050600182168061299657607f821691505b602082108114156129aa576129a9612a42565b5b50919050565b60006129c36129be83612ab1565b612889565b9050919050565b60006129dd6129d883612ab1565b6128a9565b9050919050565b7f4e487b7100000000000000000000000000000000000000000000000000000000600052601160045260246000fd5b7f4e487b7100000000000000000000000000000000000000000000000000000000600052602160045260246000fd5b7f4e487b7100000000000000000000000000000000000000000000000000000000600052602260045260246000fd5b7f4e487b7100000000000000000000000000000000000000000000000000000000600052604160045260246000fd5b6000601f19601f8301169050919050565b60008160001c9050919050565b60038110612acf57612ace612a13565b5b50565b60088110612ae357612ae2612a13565b5b50565b612aef816128b6565b8114612afa57600080fd5b50565b612b068161290e565b8114612b1157600080fd5b5056fea26469706673582212201071398091d34131b4b5617f86c953e39febda2f7b58be69a20b94dc7318e1cb64736f6c63430008000033",
  "immutableReferences": {},
  "source": "// SPDX-License-Identifier: MIT\r\npragma solidity ^0.8.0;\r\n\r\ncontract DecentraLoan {\r\n    enum StateType {\r\n        Available,\r\n        OfferPlaced,\r\n        LenderAccepted,\r\n        Confirmed,\r\n        Active,\r\n        AwaitingValidation,\r\n        Delinquent,\r\n        Terminated\r\n    }\r\n\r\n    enum EvidenceStatus {Unverified, Invalid, Valid}\r\n\r\n    struct Evidence {\r\n        address sender;\r\n        string transactionHash;\r\n        EvidenceStatus evidenceStatus;\r\n    }\r\n\r\n    // contract owner (who pays for the gas fees..)\r\n    address public _owner;\r\n\r\n    // lender specific variables\r\n    address public Lender;\r\n    uint256 public LoanAmount;\r\n    uint256 public InterestRate;\r\n    uint256 public RepaymentPeriod;\r\n\r\n    // borrower specific variables\r\n    address public Borrower;\r\n    uint256 public OfferAmout;\r\n    uint256 public OfferInterestRate;\r\n    uint256 public OfferRepaymentPeriod;\r\n\r\n    // loan contract specific variables\r\n    StateType public State;\r\n    mapping(uint256 => Evidence) public Evidences;\r\n    uint256 public Balance;\r\n    uint256 public PaymentNumber;\r\n\r\n    // contract constructor [factory]\r\n    constructor(\r\n        address owner,\r\n        address lender,\r\n        uint256 amount,\r\n        uint256 interest,\r\n        uint256 repaymentPeriod\r\n    ) {\r\n        Lender = lender;\r\n        LoanAmount = amount;\r\n        InterestRate = interest;\r\n        RepaymentPeriod = repaymentPeriod;\r\n\r\n        _owner = owner; // set owner to custom address\r\n\r\n        State = StateType.Available;\r\n\r\n        PaymentNumber = 0;\r\n\r\n        emit Created(lender, amount, interest, repaymentPeriod);\r\n    }\r\n\r\n    // Request Loan Directly (accept default terms and wait for lender confirmation) [borrower]\r\n    function RequestLoan( \r\n        address user\r\n    ) public payable {\r\n        require(msg.sender == _owner);\r\n        require(State == StateType.Available);\r\n\r\n        Borrower = user;\r\n        State = StateType.Confirmed;\r\n\r\n        emit Requested(user);\r\n    }\r\n\r\n    // Accept Loan Directly (accept default terms and wait for lender confirmation)\r\n    function AcceptRequest(\r\n        address user\r\n    ) public payable {\r\n        require(msg.sender == _owner);\r\n        require(user == Lender);\r\n        require(State == StateType.Confirmed);\r\n\r\n        State = StateType.Active;\r\n        Balance = LoanAmount;\r\n\r\n        emit Accepted(user);\r\n    }\r\n\r\n    // make offer with different terms [lender|borrower]\r\n    function MakeOffer(\r\n        address user,\r\n        uint256 offerAmount,\r\n        uint256 offerInterestRate,\r\n        uint256 offerRepaymentPeriod\r\n    ) public payable {\r\n        require(msg.sender == _owner);\r\n        require(user == Lender || user == Borrower);\r\n        require(\r\n            offerAmount != 0 &&\r\n                offerRepaymentPeriod != 0 &&\r\n                offerInterestRate != 0\r\n        );\r\n        require(State == StateType.Available || State == StateType.OfferPlaced);\r\n\r\n        if (user != Lender) {\r\n            Borrower = user;\r\n        }\r\n\r\n        OfferAmout = offerAmount;\r\n        OfferInterestRate = offerInterestRate;\r\n        OfferRepaymentPeriod = offerRepaymentPeriod;\r\n\r\n        State = StateType.OfferPlaced;\r\n\r\n        emit OfferPlaced(\r\n            user,\r\n            offerAmount,\r\n            offerInterestRate,\r\n            offerRepaymentPeriod\r\n        );\r\n    }\r\n\r\n    // confirm lender offer [borrower]\r\n    function ConfirmLenderOffer(address user) public payable {\r\n        require(msg.sender == _owner);\r\n        require(user == Borrower);\r\n        require(State == StateType.LenderAccepted);\r\n\r\n        // set state to confirmed (not active yet)\r\n        State = StateType.Confirmed;\r\n\r\n        emit BorrowerConfirmed(Borrower);\r\n    }\r\n\r\n    // modify available (non-active) contract [lender]\r\n    function Modify(\r\n        address user,\r\n        uint256 amount,\r\n        uint256 interest,\r\n        uint256 repaymentPeriod\r\n    ) public payable {\r\n        require(msg.sender == _owner);\r\n        require(user == Lender);\r\n        require(State == StateType.Available);\r\n\r\n        LoanAmount = amount;\r\n        InterestRate = interest;\r\n        RepaymentPeriod = repaymentPeriod;\r\n\r\n        emit Modified(Lender, amount, interest, repaymentPeriod);\r\n    }\r\n\r\n    // accept borrower offer [lender]\r\n    function AcceptOffer(address user) public payable {\r\n        require(msg.sender == _owner);\r\n        require(user == Lender);\r\n        require(State == StateType.OfferPlaced);\r\n\r\n        State = StateType.LenderAccepted;\r\n\r\n        emit OfferAccepted(user);\r\n    }\r\n\r\n    // reject offer [lender|borrower]\r\n    function RejectOffer(address user) public payable {\r\n        require(msg.sender == _owner);\r\n        require(user == Lender || user == Borrower);\r\n        require(State == StateType.OfferPlaced);\r\n\r\n        Borrower = 0x0000000000000000000000000000000000000000;\r\n        State = StateType.Available;\r\n\r\n        emit OfferRejected(user);\r\n    }\r\n\r\n    // sends payment with required evidence attached [lender|borrower]\r\n    function SendPayment(\r\n        address user,\r\n        address receiver,\r\n        uint256 paymentNumber,\r\n        uint256 amount,\r\n        string memory evidence\r\n    ) public payable {\r\n        require(msg.sender == _owner);\r\n        require(\r\n            (user == Lender && receiver == Borrower) ||\r\n                (user == Borrower && receiver == Lender)\r\n        ); // require sender is borrower and receiver is lender or vice-versa\r\n        require(State == StateType.Active); // require that it is an active contract\r\n        require(amount > 0); // require payment amount is not 0\r\n\r\n        Balance = Balance - amount;\r\n\r\n        // send evidence for counterparty validation, initialy unverified\r\n        Evidences[paymentNumber] =\r\n            Evidence(user, evidence, EvidenceStatus.Unverified);\r\n        \r\n\r\n        State = StateType.AwaitingValidation; // set state to awaiting validation\r\n\r\n        emit PaymentSent(\r\n            user,\r\n            receiver,\r\n            amount,\r\n            paymentNumber,\r\n            Evidences[paymentNumber].transactionHash\r\n        );\r\n    }\r\n\r\n    function GetEvidence(uint256 paymentNumber)\r\n        public\r\n        view\r\n        returns (Evidence memory)\r\n    {\r\n        require(paymentNumber <= PaymentNumber);\r\n\r\n        return Evidences[paymentNumber];\r\n    }\r\n\r\n    function ValidateEvidence(address user, uint256 paymentNumber)\r\n        public\r\n        payable\r\n    {\r\n        require(msg.sender == _owner);\r\n        require(\r\n            (user == Borrower && Evidences[paymentNumber].sender == Lender) ||\r\n                (user == Lender && Evidences[paymentNumber].sender == Borrower)\r\n        );\r\n        require(State == StateType.AwaitingValidation);\r\n\r\n        // validate from website, validation code is stored encrypted in the blockchain\r\n        // encryption is only lifted by having the decryption key that is server unique\r\n        // after some checks, validate...\r\n        Evidences[paymentNumber].evidenceStatus = EvidenceStatus.Valid;\r\n\r\n        State = StateType.Active; // set loan state back to active\r\n\r\n        emit PaymentValidated(user, paymentNumber, Evidences[paymentNumber]);\r\n    }\r\n\r\n    /**\r\n     * EVENTS\r\n     **/\r\n    event Received(address sender, uint256 amount);\r\n\r\n    event Requested(address borrower);\r\n    event Accepted(address lender);\r\n\r\n    event Created(\r\n        address lender,\r\n        uint256 amount,\r\n        uint256 interest,\r\n        uint256 repaymentPeriod\r\n    );\r\n    event Modified(\r\n        address sender,\r\n        uint256 amount,\r\n        uint256 interest,\r\n        uint256 repaymentPeriod\r\n    );\r\n    event OfferPlaced(\r\n        address sender,\r\n        uint256 offerAmount,\r\n        uint256 offerInterestRate,\r\n        uint256 offerRepaymentPeriod\r\n    );\r\n    event PaymentSent(\r\n        address sender,\r\n        address receiver,\r\n        uint256 amount,\r\n        uint256 paymentNumber,\r\n        string evidence\r\n    );\r\n    event PaymentValidated(\r\n        address sender,\r\n        uint256 paymentNumber,\r\n        Evidence evidence\r\n    );\r\n    event BorrowerConfirmed(address sender);\r\n    event OfferAccepted(address sender);\r\n    event OfferRejected(address sender);\r\n\r\n    // Receive any ethereum randomly sent to the contract from outside\r\n    receive() external payable {\r\n        emit Received(msg.sender, msg.value);\r\n    }\r\n\r\n    // get tupple with information about current contract\r\n    function Info()\r\n        public\r\n        view\r\n        returns (\r\n            address,\r\n            address,\r\n            uint256,\r\n            uint256,\r\n            uint256,\r\n            uint256,\r\n            // Evidence[] memory,\r\n            StateType\r\n        )\r\n    {\r\n        return (\r\n            Lender,\r\n            Borrower,\r\n            LoanAmount,\r\n            Balance,\r\n            InterestRate,\r\n            RepaymentPeriod,\r\n            // Evidences,\r\n            State\r\n        );\r\n    }\r\n}\r\n",
  "sourcePath": "C:\\Users\\abdie\\Documents\\Developer\\Capstone\\CAPSTONE_APP\\contracts\\DecentraLoan.sol",
  "compiler": {
    "name": "solc",
    "version": "0.8.0+commit.c7dfd78e.Emscripten.clang"
  },
  "schemaVersion": "3.3.3",
  "updatedAt": "2021-03-10T16:09:25.758Z",
  "devdoc": {
    "kind": "dev",
    "methods": {},
    "version": 1
  },
  "userdoc": {
    "events": {
      "Received(address,uint256)": {
        "notice": "EVENTS*"
      }
    },
    "kind": "user",
    "methods": {},
    "version": 1
  }
}