{
  "contractName": "DecentraLoan",
  "abi": [
    {
      "inputs": [
        {
          "internalType": "address",
          "name": "owner",
          "type": "address"
        },
        {
          "internalType": "address",
          "name": "lender",
          "type": "address"
        },
        {
          "internalType": "uint256",
          "name": "amount",
          "type": "uint256"
        },
        {
          "internalType": "uint256",
          "name": "interest",
          "type": "uint256"
        },
        {
          "internalType": "uint256",
          "name": "repaymentPeriod",
          "type": "uint256"
        }
      ],
      "stateMutability": "nonpayable",
      "type": "constructor"
    },
    {
      "anonymous": false,
      "inputs": [
        {
          "indexed": false,
          "internalType": "address",
          "name": "lender",
          "type": "address"
        }
      ],
      "name": "Accepted",
      "type": "event"
    },
    {
      "anonymous": false,
      "inputs": [
        {
          "indexed": false,
          "internalType": "address",
          "name": "sender",
          "type": "address"
        }
      ],
      "name": "BorrowerConfirmed",
      "type": "event"
    },
    {
      "anonymous": false,
      "inputs": [
        {
          "indexed": false,
          "internalType": "address",
          "name": "lender",
          "type": "address"
        },
        {
          "indexed": false,
          "internalType": "uint256",
          "name": "amount",
          "type": "uint256"
        },
        {
          "indexed": false,
          "internalType": "uint256",
          "name": "interest",
          "type": "uint256"
        },
        {
          "indexed": false,
          "internalType": "uint256",
          "name": "repaymentPeriod",
          "type": "uint256"
        }
      ],
      "name": "Created",
      "type": "event"
    },
    {
      "anonymous": false,
      "inputs": [
        {
          "indexed": false,
          "internalType": "address",
          "name": "sender",
          "type": "address"
        },
        {
          "indexed": false,
          "internalType": "uint256",
          "name": "amount",
          "type": "uint256"
        },
        {
          "indexed": false,
          "internalType": "uint256",
          "name": "interest",
          "type": "uint256"
        },
        {
          "indexed": false,
          "internalType": "uint256",
          "name": "repaymentPeriod",
          "type": "uint256"
        }
      ],
      "name": "Modified",
      "type": "event"
    },
    {
      "anonymous": false,
      "inputs": [
        {
          "indexed": false,
          "internalType": "address",
          "name": "sender",
          "type": "address"
        }
      ],
      "name": "OfferAccepted",
      "type": "event"
    },
    {
      "anonymous": false,
      "inputs": [
        {
          "indexed": false,
          "internalType": "address",
          "name": "sender",
          "type": "address"
        },
        {
          "indexed": false,
          "internalType": "uint256",
          "name": "offerAmount",
          "type": "uint256"
        },
        {
          "indexed": false,
          "internalType": "uint256",
          "name": "offerInterestRate",
          "type": "uint256"
        },
        {
          "indexed": false,
          "internalType": "uint256",
          "name": "offerRepaymentPeriod",
          "type": "uint256"
        }
      ],
      "name": "OfferPlaced",
      "type": "event"
    },
    {
      "anonymous": false,
      "inputs": [
        {
          "indexed": false,
          "internalType": "address",
          "name": "sender",
          "type": "address"
        }
      ],
      "name": "OfferRejected",
      "type": "event"
    },
    {
      "anonymous": false,
      "inputs": [
        {
          "indexed": false,
          "internalType": "address",
          "name": "sender",
          "type": "address"
        },
        {
          "indexed": false,
          "internalType": "uint256",
          "name": "amount",
          "type": "uint256"
        },
        {
          "indexed": false,
          "internalType": "uint256",
          "name": "paymentNumber",
          "type": "uint256"
        },
        {
          "indexed": false,
          "internalType": "string",
          "name": "evidence",
          "type": "string"
        }
      ],
      "name": "PaymentSent",
      "type": "event"
    },
    {
      "anonymous": false,
      "inputs": [
        {
          "indexed": false,
          "internalType": "address",
          "name": "sender",
          "type": "address"
        },
        {
          "indexed": false,
          "internalType": "uint256",
          "name": "paymentNumber",
          "type": "uint256"
        },
        {
          "indexed": false,
          "internalType": "string",
          "name": "evidence",
          "type": "string"
        }
      ],
      "name": "PaymentValidated",
      "type": "event"
    },
    {
      "anonymous": false,
      "inputs": [
        {
          "indexed": false,
          "internalType": "address",
          "name": "sender",
          "type": "address"
        },
        {
          "indexed": false,
          "internalType": "uint256",
          "name": "amount",
          "type": "uint256"
        }
      ],
      "name": "Received",
      "type": "event"
    },
    {
      "anonymous": false,
      "inputs": [
        {
          "indexed": false,
          "internalType": "address",
          "name": "borrower",
          "type": "address"
        }
      ],
      "name": "Requested",
      "type": "event"
    },
    {
      "inputs": [],
      "name": "Balance",
      "outputs": [
        {
          "internalType": "uint256",
          "name": "",
          "type": "uint256"
        }
      ],
      "stateMutability": "view",
      "type": "function"
    },
    {
      "inputs": [],
      "name": "Borrower",
      "outputs": [
        {
          "internalType": "address",
          "name": "",
          "type": "address"
        }
      ],
      "stateMutability": "view",
      "type": "function"
    },
    {
      "inputs": [
        {
          "internalType": "uint256",
          "name": "",
          "type": "uint256"
        }
      ],
      "name": "Evidences",
      "outputs": [
        {
          "internalType": "address",
          "name": "sender",
          "type": "address"
        },
        {
          "internalType": "string",
          "name": "transactionHash",
          "type": "string"
        },
        {
          "internalType": "enum DecentraLoan.EvidenceStatus",
          "name": "evidenceStatus",
          "type": "uint8"
        }
      ],
      "stateMutability": "view",
      "type": "function"
    },
    {
      "inputs": [],
      "name": "InterestRate",
      "outputs": [
        {
          "internalType": "uint256",
          "name": "",
          "type": "uint256"
        }
      ],
      "stateMutability": "view",
      "type": "function"
    },
    {
      "inputs": [],
      "name": "Lender",
      "outputs": [
        {
          "internalType": "address",
          "name": "",
          "type": "address"
        }
      ],
      "stateMutability": "view",
      "type": "function"
    },
    {
      "inputs": [],
      "name": "LoanAmount",
      "outputs": [
        {
          "internalType": "uint256",
          "name": "",
          "type": "uint256"
        }
      ],
      "stateMutability": "view",
      "type": "function"
    },
    {
      "inputs": [],
      "name": "OfferAmout",
      "outputs": [
        {
          "internalType": "uint256",
          "name": "",
          "type": "uint256"
        }
      ],
      "stateMutability": "view",
      "type": "function"
    },
    {
      "inputs": [],
      "name": "OfferInterestRate",
      "outputs": [
        {
          "internalType": "uint256",
          "name": "",
          "type": "uint256"
        }
      ],
      "stateMutability": "view",
      "type": "function"
    },
    {
      "inputs": [],
      "name": "OfferRepaymentPeriod",
      "outputs": [
        {
          "internalType": "uint256",
          "name": "",
          "type": "uint256"
        }
      ],
      "stateMutability": "view",
      "type": "function"
    },
    {
      "inputs": [],
      "name": "PaymentNumber",
      "outputs": [
        {
          "internalType": "uint256",
          "name": "",
          "type": "uint256"
        }
      ],
      "stateMutability": "view",
      "type": "function"
    },
    {
      "inputs": [],
      "name": "RepaymentPeriod",
      "outputs": [
        {
          "internalType": "uint256",
          "name": "",
          "type": "uint256"
        }
      ],
      "stateMutability": "view",
      "type": "function"
    },
    {
      "inputs": [],
      "name": "State",
      "outputs": [
        {
          "internalType": "enum DecentraLoan.StateType",
          "name": "",
          "type": "uint8"
        }
      ],
      "stateMutability": "view",
      "type": "function"
    },
    {
      "inputs": [],
      "name": "_owner",
      "outputs": [
        {
          "internalType": "address",
          "name": "",
          "type": "address"
        }
      ],
      "stateMutability": "view",
      "type": "function"
    },
    {
      "stateMutability": "payable",
      "type": "receive"
    },
    {
      "inputs": [
        {
          "internalType": "address",
          "name": "user",
          "type": "address"
        }
      ],
      "name": "RequestLoan",
      "outputs": [],
      "stateMutability": "payable",
      "type": "function"
    },
    {
      "inputs": [
        {
          "internalType": "address",
          "name": "user",
          "type": "address"
        }
      ],
      "name": "AcceptRequest",
      "outputs": [],
      "stateMutability": "payable",
      "type": "function"
    },
    {
      "inputs": [
        {
          "internalType": "address",
          "name": "user",
          "type": "address"
        },
        {
          "internalType": "uint256",
          "name": "offerAmount",
          "type": "uint256"
        },
        {
          "internalType": "uint256",
          "name": "offerInterestRate",
          "type": "uint256"
        },
        {
          "internalType": "uint256",
          "name": "offerRepaymentPeriod",
          "type": "uint256"
        }
      ],
      "name": "MakeOffer",
      "outputs": [],
      "stateMutability": "payable",
      "type": "function"
    },
    {
      "inputs": [
        {
          "internalType": "address",
          "name": "user",
          "type": "address"
        }
      ],
      "name": "ConfirmLenderOffer",
      "outputs": [],
      "stateMutability": "payable",
      "type": "function"
    },
    {
      "inputs": [
        {
          "internalType": "address",
          "name": "user",
          "type": "address"
        },
        {
          "internalType": "uint256",
          "name": "amount",
          "type": "uint256"
        },
        {
          "internalType": "uint256",
          "name": "interest",
          "type": "uint256"
        },
        {
          "internalType": "uint256",
          "name": "repaymentPeriod",
          "type": "uint256"
        }
      ],
      "name": "Modify",
      "outputs": [],
      "stateMutability": "payable",
      "type": "function"
    },
    {
      "inputs": [
        {
          "internalType": "address",
          "name": "user",
          "type": "address"
        }
      ],
      "name": "AcceptOffer",
      "outputs": [],
      "stateMutability": "payable",
      "type": "function"
    },
    {
      "inputs": [
        {
          "internalType": "address",
          "name": "user",
          "type": "address"
        }
      ],
      "name": "RejectOffer",
      "outputs": [],
      "stateMutability": "payable",
      "type": "function"
    },
    {
      "inputs": [
        {
          "internalType": "address",
          "name": "sender",
          "type": "address"
        },
        {
          "internalType": "uint256",
          "name": "paymentNumber",
          "type": "uint256"
        },
        {
          "internalType": "uint256",
          "name": "amount",
          "type": "uint256"
        },
        {
          "internalType": "string",
          "name": "evidence",
          "type": "string"
        }
      ],
      "name": "SendPayment",
      "outputs": [],
      "stateMutability": "payable",
      "type": "function"
    },
    {
      "inputs": [
        {
          "internalType": "uint256",
          "name": "paymentNumber",
          "type": "uint256"
        }
      ],
      "name": "GetEvidence",
      "outputs": [
        {
          "components": [
            {
              "internalType": "address",
              "name": "sender",
              "type": "address"
            },
            {
              "internalType": "string",
              "name": "transactionHash",
              "type": "string"
            },
            {
              "internalType": "enum DecentraLoan.EvidenceStatus",
              "name": "evidenceStatus",
              "type": "uint8"
            }
          ],
          "internalType": "struct DecentraLoan.Evidence",
          "name": "",
          "type": "tuple"
        }
      ],
      "stateMutability": "view",
      "type": "function"
    },
    {
      "inputs": [
        {
          "internalType": "address",
          "name": "user",
          "type": "address"
        },
        {
          "internalType": "uint256",
          "name": "paymentNumber",
          "type": "uint256"
        }
      ],
      "name": "ValidateEvidence",
      "outputs": [],
      "stateMutability": "payable",
      "type": "function"
    },
    {
      "inputs": [],
      "name": "Info",
      "outputs": [
        {
          "internalType": "address",
          "name": "",
          "type": "address"
        },
        {
          "internalType": "address",
          "name": "",
          "type": "address"
        },
        {
          "internalType": "uint256",
          "name": "",
          "type": "uint256"
        },
        {
          "internalType": "uint256",
          "name": "",
          "type": "uint256"
        },
        {
          "internalType": "uint256",
          "name": "",
          "type": "uint256"
        },
        {
          "internalType": "uint256",
          "name": "",
          "type": "uint256"
        },
        {
          "internalType": "enum DecentraLoan.StateType",
          "name": "",
          "type": "uint8"
        }
      ],
      "stateMutability": "view",
      "type": "function"
    }
  ],
  "bytecode": "0x60806040523480156200001157600080fd5b5060405162002cea38038062002cea83398181016040528101906200003791906200019f565b83600160006101000a81548173ffffffffffffffffffffffffffffffffffffffff021916908373ffffffffffffffffffffffffffffffffffffffff160217905550826002819055508160038190555080600481905550846000806101000a81548173ffffffffffffffffffffffffffffffffffffffff021916908373ffffffffffffffffffffffffffffffffffffffff1602179055506000600960006101000a81548160ff021916908360078111156200011a577f4e487b7100000000000000000000000000000000000000000000000000000000600052602160045260246000fd5b02179055506000600c819055507f99a12a7aefbbb67909c2bee4a5e2ddb98b2183b8ae2a59e5a7db47f53453345d848484846040516200015e949392919062000243565b60405180910390a1505050505062000302565b6000815190506200018281620002ce565b92915050565b6000815190506200019981620002e8565b92915050565b600080600080600060a08688031215620001b857600080fd5b6000620001c88882890162000171565b9550506020620001db8882890162000171565b9450506040620001ee8882890162000188565b9350506060620002018882890162000188565b9250506080620002148882890162000188565b9150509295509295909350565b6200022c8162000290565b82525050565b6200023d81620002c4565b82525050565b60006080820190506200025a600083018762000221565b62000269602083018662000232565b62000278604083018562000232565b62000287606083018462000232565b95945050505050565b60006200029d82620002a4565b9050919050565b600073ffffffffffffffffffffffffffffffffffffffff82169050919050565b6000819050919050565b620002d98162000290565b8114620002e557600080fd5b50565b620002f381620002c4565b8114620002ff57600080fd5b50565b6129d880620003126000396000f3fe60806040526004361061014f5760003560e01c8063ad099d6f116100b6578063e3fc1c191161006f578063e3fc1c191461047b578063e633fc78146104a6578063eca2dbb2146104c2578063ecf83352146104de578063f1b6dccd146104fa578063ff1871ea146105255761018f565b8063ad099d6f14610383578063ad4829b0146103ae578063b2bdfa7b146103ca578063b56cb8eb146103f5578063e1db806114610420578063e1dd67b51461045f5761018f565b80634012e02e116101085780634012e02e146102875780634097f368146102b857806348dc0b6e146102e35780635677640b1461030e5780635f13f6891461034b5780636f5cc86a146103675761018f565b806302b89ffc146101945780630372a77c146101bf5780630cda162d146101db5780630ef67887146102065780631b1917b3146102315780633cd4730c1461025c5761018f565b3661018f577f88a5966d370b9919b20f3e2c13ff65706f196a4e32cc2c12bf57088f885258743334604051610185929190612515565b60405180910390a1005b600080fd5b3480156101a057600080fd5b506101a9610541565b6040516101b6919061264a565b60405180910390f35b6101d960048036038101906101d49190612145565b610547565b005b3480156101e757600080fd5b506101f0610732565b6040516101fd919061244d565b60405180910390f35b34801561021257600080fd5b5061021b610758565b604051610228919061264a565b60405180910390f35b34801561023d57600080fd5b5061024661075e565b604051610253919061264a565b60405180910390f35b34801561026857600080fd5b50610271610764565b60405161027e919061264a565b60405180910390f35b34801561029357600080fd5b5061029c61076a565b6040516102af9796959493929190612468565b60405180910390f35b3480156102c457600080fd5b506102cd6107ee565b6040516102da919061244d565b60405180910390f35b3480156102ef57600080fd5b506102f8610814565b604051610305919061264a565b60405180910390f35b34801561031a57600080fd5b5061033560048036038101906103309190612288565b61081a565b6040516103429190612628565b60405180910390f35b61036560048036038101906103609190612145565b6109c5565b005b610381600480360381019061037c91906121aa565b610c28565b005b34801561038f57600080fd5b50610398611018565b6040516103a5919061264a565b60405180910390f35b6103c860048036038101906103c39190612225565b61101e565b005b3480156103d657600080fd5b506103df6113a6565b6040516103ec919061244d565b60405180910390f35b34801561040157600080fd5b5061040a6113ca565b604051610417919061264a565b60405180910390f35b34801561042c57600080fd5b5061044760048036038101906104429190612288565b6113d0565b604051610456939291906124d7565b60405180910390f35b61047960048036038101906104749190612145565b6114af565b005b34801561048757600080fd5b5061049061165f565b60405161049d919061264a565b60405180910390f35b6104c060048036038101906104bb9190612145565b611665565b005b6104dc60048036038101906104d79190612225565b611837565b005b6104f860048036038101906104f39190612145565b6119ef565b005b34801561050657600080fd5b5061050f611bb8565b60405161051c919061260d565b60405180910390f35b61053f600480360381019061053a919061216e565b611bcb565b005b600c5481565b60008054906101000a900473ffffffffffffffffffffffffffffffffffffffff1673ffffffffffffffffffffffffffffffffffffffff163373ffffffffffffffffffffffffffffffffffffffff161461059f57600080fd5b600560009054906101000a900473ffffffffffffffffffffffffffffffffffffffff1673ffffffffffffffffffffffffffffffffffffffff168173ffffffffffffffffffffffffffffffffffffffff16146105f957600080fd5b60026007811115610633577f4e487b7100000000000000000000000000000000000000000000000000000000600052602160045260246000fd5b600960009054906101000a900460ff16600781111561067b577f4e487b7100000000000000000000000000000000000000000000000000000000600052602160045260246000fd5b1461068557600080fd5b6003600960006101000a81548160ff021916908360078111156106d1577f4e487b7100000000000000000000000000000000000000000000000000000000600052602160045260246000fd5b02179055507fcc19dffbfb36e5ea9fc3e267d1daaa98e0b249dcef22165151c04023c3b05c8f600560009054906101000a900473ffffffffffffffffffffffffffffffffffffffff16604051610727919061244d565b60405180910390a150565b600560009054906101000a900473ffffffffffffffffffffffffffffffffffffffff1681565b600b5481565b60045481565b60025481565b6000806000806000806000600160009054906101000a900473ffffffffffffffffffffffffffffffffffffffff16600560009054906101000a900473ffffffffffffffffffffffffffffffffffffffff16600254600b54600354600454600960009054906101000a900460ff16965096509650965096509650965090919293949596565b600160009054906101000a900473ffffffffffffffffffffffffffffffffffffffff1681565b60035481565b610822611fa1565b600c5482111561083157600080fd5b600a60008381526020019081526020016000206040518060600160405290816000820160009054906101000a900473ffffffffffffffffffffffffffffffffffffffff1673ffffffffffffffffffffffffffffffffffffffff1673ffffffffffffffffffffffffffffffffffffffff1681526020016001820180546108b590612804565b80601f01602080910402602001604051908101604052809291908181526020018280546108e190612804565b801561092e5780601f106109035761010080835404028352916020019161092e565b820191906000526020600020905b81548152906001019060200180831161091157829003601f168201915b505050505081526020016002820160009054906101000a900460ff166002811115610982577f4e487b7100000000000000000000000000000000000000000000000000000000600052602160045260246000fd5b60028111156109ba577f4e487b7100000000000000000000000000000000000000000000000000000000600052602160045260246000fd5b815250509050919050565b60008054906101000a900473ffffffffffffffffffffffffffffffffffffffff1673ffffffffffffffffffffffffffffffffffffffff163373ffffffffffffffffffffffffffffffffffffffff1614610a1d57600080fd5b600160009054906101000a900473ffffffffffffffffffffffffffffffffffffffff1673ffffffffffffffffffffffffffffffffffffffff168173ffffffffffffffffffffffffffffffffffffffff161480610ac65750600560009054906101000a900473ffffffffffffffffffffffffffffffffffffffff1673ffffffffffffffffffffffffffffffffffffffff168173ffffffffffffffffffffffffffffffffffffffff16145b610acf57600080fd5b60016007811115610b09577f4e487b7100000000000000000000000000000000000000000000000000000000600052602160045260246000fd5b600960009054906101000a900460ff166007811115610b51577f4e487b7100000000000000000000000000000000000000000000000000000000600052602160045260246000fd5b14610b5b57600080fd5b6000600560006101000a81548173ffffffffffffffffffffffffffffffffffffffff021916908373ffffffffffffffffffffffffffffffffffffffff1602179055506000600960006101000a81548160ff02191690836007811115610be9577f4e487b7100000000000000000000000000000000000000000000000000000000600052602160045260246000fd5b02179055507fe0c1a48d34b111953dfef62f5393cdffdd14cb7eeabd62b10f481c12358d625681604051610c1d919061244d565b60405180910390a150565b60008054906101000a900473ffffffffffffffffffffffffffffffffffffffff1673ffffffffffffffffffffffffffffffffffffffff163373ffffffffffffffffffffffffffffffffffffffff1614610c8057600080fd5b600160009054906101000a900473ffffffffffffffffffffffffffffffffffffffff1673ffffffffffffffffffffffffffffffffffffffff168473ffffffffffffffffffffffffffffffffffffffff161480610d295750600560009054906101000a900473ffffffffffffffffffffffffffffffffffffffff1673ffffffffffffffffffffffffffffffffffffffff168473ffffffffffffffffffffffffffffffffffffffff16145b80610d7f575060008054906101000a900473ffffffffffffffffffffffffffffffffffffffff1673ffffffffffffffffffffffffffffffffffffffff168473ffffffffffffffffffffffffffffffffffffffff16145b610d8857600080fd5b60046007811115610dc2577f4e487b7100000000000000000000000000000000000000000000000000000000600052602160045260246000fd5b600960009054906101000a900460ff166007811115610e0a577f4e487b7100000000000000000000000000000000000000000000000000000000600052602160045260246000fd5b14610e1457600080fd5b60008211610e2157600080fd5b81600b54610e2f9190612708565b600b8190555060405180606001604052808573ffffffffffffffffffffffffffffffffffffffff16815260200182815260200160006002811115610e9c577f4e487b7100000000000000000000000000000000000000000000000000000000600052602160045260246000fd5b815250600a600085815260200190815260200160002060008201518160000160006101000a81548173ffffffffffffffffffffffffffffffffffffffff021916908373ffffffffffffffffffffffffffffffffffffffff1602179055506020820151816001019080519060200190610f15929190612010565b5060408201518160020160006101000a81548160ff02191690836002811115610f67577f4e487b7100000000000000000000000000000000000000000000000000000000600052602160045260246000fd5b02179055509050506005600960006101000a81548160ff02191690836007811115610fbb577f4e487b7100000000000000000000000000000000000000000000000000000000600052602160045260246000fd5b02179055507f5cfc5f208b7752cea928bde39e788a6ba0683d77941de216b2a1c34d754bf904848385600a600088815260200190815260200160002060010160405161100a949392919061257c565b60405180910390a150505050565b60075481565b60008054906101000a900473ffffffffffffffffffffffffffffffffffffffff1673ffffffffffffffffffffffffffffffffffffffff163373ffffffffffffffffffffffffffffffffffffffff161461107657600080fd5b600160009054906101000a900473ffffffffffffffffffffffffffffffffffffffff1673ffffffffffffffffffffffffffffffffffffffff168473ffffffffffffffffffffffffffffffffffffffff16148061111f5750600560009054906101000a900473ffffffffffffffffffffffffffffffffffffffff1673ffffffffffffffffffffffffffffffffffffffff168473ffffffffffffffffffffffffffffffffffffffff16145b61112857600080fd5b6000831415801561113a575060008114155b8015611147575060008214155b61115057600080fd5b6000600781111561118a577f4e487b7100000000000000000000000000000000000000000000000000000000600052602160045260246000fd5b600960009054906101000a900460ff1660078111156111d2577f4e487b7100000000000000000000000000000000000000000000000000000000600052602160045260246000fd5b148061125d575060016007811115611213577f4e487b7100000000000000000000000000000000000000000000000000000000600052602160045260246000fd5b600960009054906101000a900460ff16600781111561125b577f4e487b7100000000000000000000000000000000000000000000000000000000600052602160045260246000fd5b145b61126657600080fd5b600160009054906101000a900473ffffffffffffffffffffffffffffffffffffffff1673ffffffffffffffffffffffffffffffffffffffff168473ffffffffffffffffffffffffffffffffffffffff16146112fd5783600560006101000a81548173ffffffffffffffffffffffffffffffffffffffff021916908373ffffffffffffffffffffffffffffffffffffffff1602179055505b8260068190555081600781905550806008819055506001600960006101000a81548160ff0219169083600781111561135e577f4e487b7100000000000000000000000000000000000000000000000000000000600052602160045260246000fd5b02179055507fd37ceaac9ec103391429007b17a26ddd1669b4442108e931f9d1918a8714659c8484848460405161139894939291906125c8565b60405180910390a150505050565b60008054906101000a900473ffffffffffffffffffffffffffffffffffffffff1681565b60065481565b600a6020528060005260406000206000915090508060000160009054906101000a900473ffffffffffffffffffffffffffffffffffffffff169080600101805461141990612804565b80601f016020809104026020016040519081016040528092919081815260200182805461144590612804565b80156114925780601f1061146757610100808354040283529160200191611492565b820191906000526020600020905b81548152906001019060200180831161147557829003601f168201915b5050505050908060020160009054906101000a900460ff16905083565b60008054906101000a900473ffffffffffffffffffffffffffffffffffffffff1673ffffffffffffffffffffffffffffffffffffffff163373ffffffffffffffffffffffffffffffffffffffff161461150757600080fd5b60006007811115611541577f4e487b7100000000000000000000000000000000000000000000000000000000600052602160045260246000fd5b600960009054906101000a900460ff166007811115611589577f4e487b7100000000000000000000000000000000000000000000000000000000600052602160045260246000fd5b1461159357600080fd5b80600560006101000a81548173ffffffffffffffffffffffffffffffffffffffff021916908373ffffffffffffffffffffffffffffffffffffffff1602179055506003600960006101000a81548160ff02191690836007811115611620577f4e487b7100000000000000000000000000000000000000000000000000000000600052602160045260246000fd5b02179055507f039f711c9c18dd815b225b1424855e6118e746c6b5d688907f10c4dd29ebe92a81604051611654919061244d565b60405180910390a150565b60085481565b60008054906101000a900473ffffffffffffffffffffffffffffffffffffffff1673ffffffffffffffffffffffffffffffffffffffff163373ffffffffffffffffffffffffffffffffffffffff16146116bd57600080fd5b600160009054906101000a900473ffffffffffffffffffffffffffffffffffffffff1673ffffffffffffffffffffffffffffffffffffffff168173ffffffffffffffffffffffffffffffffffffffff161461171757600080fd5b60036007811115611751577f4e487b7100000000000000000000000000000000000000000000000000000000600052602160045260246000fd5b600960009054906101000a900460ff166007811115611799577f4e487b7100000000000000000000000000000000000000000000000000000000600052602160045260246000fd5b146117a357600080fd5b6004600960006101000a81548160ff021916908360078111156117ef577f4e487b7100000000000000000000000000000000000000000000000000000000600052602160045260246000fd5b0217905550600254600b819055507f2e7bcc1a1a1c1bea0ff9a677c29b43662d6560afbebd99c213389fc15a6279d28160405161182c919061244d565b60405180910390a150565b60008054906101000a900473ffffffffffffffffffffffffffffffffffffffff1673ffffffffffffffffffffffffffffffffffffffff163373ffffffffffffffffffffffffffffffffffffffff161461188f57600080fd5b600160009054906101000a900473ffffffffffffffffffffffffffffffffffffffff1673ffffffffffffffffffffffffffffffffffffffff168473ffffffffffffffffffffffffffffffffffffffff16146118e957600080fd5b60006007811115611923577f4e487b7100000000000000000000000000000000000000000000000000000000600052602160045260246000fd5b600960009054906101000a900460ff16600781111561196b577f4e487b7100000000000000000000000000000000000000000000000000000000600052602160045260246000fd5b1461197557600080fd5b8260028190555081600381905550806004819055507fff917abbd5265db0321d1698dfe74287ae6b93d1cd1f486a618d1124feb0b8bc600160009054906101000a900473ffffffffffffffffffffffffffffffffffffffff168484846040516119e194939291906125c8565b60405180910390a150505050565b60008054906101000a900473ffffffffffffffffffffffffffffffffffffffff1673ffffffffffffffffffffffffffffffffffffffff163373ffffffffffffffffffffffffffffffffffffffff1614611a4757600080fd5b600160009054906101000a900473ffffffffffffffffffffffffffffffffffffffff1673ffffffffffffffffffffffffffffffffffffffff168173ffffffffffffffffffffffffffffffffffffffff1614611aa157600080fd5b60016007811115611adb577f4e487b7100000000000000000000000000000000000000000000000000000000600052602160045260246000fd5b600960009054906101000a900460ff166007811115611b23577f4e487b7100000000000000000000000000000000000000000000000000000000600052602160045260246000fd5b14611b2d57600080fd5b6002600960006101000a81548160ff02191690836007811115611b79577f4e487b7100000000000000000000000000000000000000000000000000000000600052602160045260246000fd5b02179055507fa13d0dc21c62e74caff064bba409ce28da1203587604c27c24db78f80e5fcaaf81604051611bad919061244d565b60405180910390a150565b600960009054906101000a900460ff1681565b60008054906101000a900473ffffffffffffffffffffffffffffffffffffffff1673ffffffffffffffffffffffffffffffffffffffff163373ffffffffffffffffffffffffffffffffffffffff1614611c2357600080fd5b600560009054906101000a900473ffffffffffffffffffffffffffffffffffffffff1673ffffffffffffffffffffffffffffffffffffffff168273ffffffffffffffffffffffffffffffffffffffff16148015611d035750600160009054906101000a900473ffffffffffffffffffffffffffffffffffffffff1673ffffffffffffffffffffffffffffffffffffffff16600a600083815260200190815260200160002060000160009054906101000a900473ffffffffffffffffffffffffffffffffffffffff1673ffffffffffffffffffffffffffffffffffffffff16145b80611dea5750600160009054906101000a900473ffffffffffffffffffffffffffffffffffffffff1673ffffffffffffffffffffffffffffffffffffffff168273ffffffffffffffffffffffffffffffffffffffff16148015611de95750600560009054906101000a900473ffffffffffffffffffffffffffffffffffffffff1673ffffffffffffffffffffffffffffffffffffffff16600a600083815260200190815260200160002060000160009054906101000a900473ffffffffffffffffffffffffffffffffffffffff1673ffffffffffffffffffffffffffffffffffffffff16145b5b611df357600080fd5b60056007811115611e2d577f4e487b7100000000000000000000000000000000000000000000000000000000600052602160045260246000fd5b600960009054906101000a900460ff166007811115611e75577f4e487b7100000000000000000000000000000000000000000000000000000000600052602160045260246000fd5b14611e7f57600080fd5b6002600a600083815260200190815260200160002060020160006101000a81548160ff02191690836002811115611edf577f4e487b7100000000000000000000000000000000000000000000000000000000600052602160045260246000fd5b0217905550600c6000815480929190611ef790612836565b91905055506004600960006101000a81548160ff02191690836007811115611f48577f4e487b7100000000000000000000000000000000000000000000000000000000600052602160045260246000fd5b02179055507f81c0c81b76f6d40169ac434db902906d87dba0f6ecd6f0249356df7f6977e6028282600a6000858152602001908152602001600020600101604051611f959392919061253e565b60405180910390a15050565b6040518060600160405280600073ffffffffffffffffffffffffffffffffffffffff168152602001606081526020016000600281111561200a577f4e487b7100000000000000000000000000000000000000000000000000000000600052602160045260246000fd5b81525090565b82805461201c90612804565b90600052602060002090601f01602090048101928261203e5760008555612085565b82601f1061205757805160ff1916838001178555612085565b82800160010185558215612085579182015b82811115612084578251825591602001919060010190612069565b5b5090506120929190612096565b5090565b5b808211156120af576000816000905550600101612097565b5090565b60006120c66120c184612696565b612665565b9050828152602081018484840111156120de57600080fd5b6120e98482856127c2565b509392505050565b60008135905061210081612974565b92915050565b600082601f83011261211757600080fd5b81356121278482602086016120b3565b91505092915050565b60008135905061213f8161298b565b92915050565b60006020828403121561215757600080fd5b6000612165848285016120f1565b91505092915050565b6000806040838503121561218157600080fd5b600061218f858286016120f1565b92505060206121a085828601612130565b9150509250929050565b600080600080608085870312156121c057600080fd5b60006121ce878288016120f1565b94505060206121df87828801612130565b93505060406121f087828801612130565b925050606085013567ffffffffffffffff81111561220d57600080fd5b61221987828801612106565b91505092959194509250565b6000806000806080858703121561223b57600080fd5b6000612249878288016120f1565b945050602061225a87828801612130565b935050604061226b87828801612130565b925050606061227c87828801612130565b91505092959194509250565b60006020828403121561229a57600080fd5b60006122a884828501612130565b91505092915050565b6122ba8161273c565b82525050565b6122c98161273c565b82525050565b6122d88161279e565b82525050565b6122e78161279e565b82525050565b6122f6816127b0565b82525050565b6000612307826126db565b61231181856126e6565b93506123218185602086016127d1565b61232a8161293b565b840191505092915050565b6000612340826126db565b61234a81856126f7565b935061235a8185602086016127d1565b6123638161293b565b840191505092915050565b6000815461237b81612804565b61238581866126f7565b945060018216600081146123a057600181146123b2576123e5565b60ff19831686526020860193506123e5565b6123bb856126c6565b60005b838110156123dd578154818901526001820191506020810190506123be565b808801955050505b50505092915050565b600060608301600083015161240660008601826122b1565b506020830151848203602086015261241e82826122fc565b915050604083015161243360408601826122cf565b508091505092915050565b61244781612794565b82525050565b600060208201905061246260008301846122c0565b92915050565b600060e08201905061247d600083018a6122c0565b61248a60208301896122c0565b612497604083018861243e565b6124a4606083018761243e565b6124b1608083018661243e565b6124be60a083018561243e565b6124cb60c08301846122ed565b98975050505050505050565b60006060820190506124ec60008301866122c0565b81810360208301526124fe8185612335565b905061250d60408301846122de565b949350505050565b600060408201905061252a60008301856122c0565b612537602083018461243e565b9392505050565b600060608201905061255360008301866122c0565b612560602083018561243e565b8181036040830152612572818461236e565b9050949350505050565b600060808201905061259160008301876122c0565b61259e602083018661243e565b6125ab604083018561243e565b81810360608301526125bd818461236e565b905095945050505050565b60006080820190506125dd60008301876122c0565b6125ea602083018661243e565b6125f7604083018561243e565b612604606083018461243e565b95945050505050565b600060208201905061262260008301846122ed565b92915050565b6000602082019050818103600083015261264281846123ee565b905092915050565b600060208201905061265f600083018461243e565b92915050565b6000604051905081810181811067ffffffffffffffff8211171561268c5761268b61290c565b5b8060405250919050565b600067ffffffffffffffff8211156126b1576126b061290c565b5b601f19601f8301169050602081019050919050565b60008190508160005260206000209050919050565b600081519050919050565b600082825260208201905092915050565b600082825260208201905092915050565b600061271382612794565b915061271e83612794565b9250828210156127315761273061287f565b5b828203905092915050565b600061274782612774565b9050919050565b600081905061275c8261294c565b919050565b600081905061276f82612960565b919050565b600073ffffffffffffffffffffffffffffffffffffffff82169050919050565b6000819050919050565b60006127a98261274e565b9050919050565b60006127bb82612761565b9050919050565b82818337600083830152505050565b60005b838110156127ef5780820151818401526020810190506127d4565b838111156127fe576000848401525b50505050565b6000600282049050600182168061281c57607f821691505b602082108114156128305761282f6128dd565b5b50919050565b600061284182612794565b91507fffffffffffffffffffffffffffffffffffffffffffffffffffffffffffffffff8214156128745761287361287f565b5b600182019050919050565b7f4e487b7100000000000000000000000000000000000000000000000000000000600052601160045260246000fd5b7f4e487b7100000000000000000000000000000000000000000000000000000000600052602160045260246000fd5b7f4e487b7100000000000000000000000000000000000000000000000000000000600052602260045260246000fd5b7f4e487b7100000000000000000000000000000000000000000000000000000000600052604160045260246000fd5b6000601f19601f8301169050919050565b6003811061295d5761295c6128ae565b5b50565b60088110612971576129706128ae565b5b50565b61297d8161273c565b811461298857600080fd5b50565b61299481612794565b811461299f57600080fd5b5056fea2646970667358221220c1f11dad2c13b54ecb4d0c3cdc9cea2d5885b34f0c2d79ab5198bbaf3bb27bde64736f6c63430008000033",
  "immutableReferences": {},
  "source": "// SPDX-License-Identifier: MIT\r\npragma solidity ^0.8.0;\r\n\r\ncontract DecentraLoan {\r\n    enum StateType {\r\n        Available,\r\n        OfferPlaced,\r\n        LenderAccepted,\r\n        Confirmed,\r\n        Active,\r\n        AwaitingValidation,\r\n        Delinquent,\r\n        Terminated\r\n    }\r\n\r\n    enum EvidenceStatus {Unverified, Invalid, Valid}\r\n\r\n    struct Evidence {\r\n        address sender;\r\n        string transactionHash;\r\n        EvidenceStatus evidenceStatus;\r\n    }\r\n\r\n    // contract owner (who pays for the gas fees..)\r\n    address public _owner;\r\n\r\n    // lender specific variables\r\n    address public Lender;\r\n    uint256 public LoanAmount;\r\n    uint256 public InterestRate;\r\n    uint256 public RepaymentPeriod;\r\n\r\n    // borrower specific variables\r\n    address public Borrower;\r\n    uint256 public OfferAmout;\r\n    uint256 public OfferInterestRate;\r\n    uint256 public OfferRepaymentPeriod;\r\n\r\n    // loan contract specific variables\r\n    StateType public State;\r\n    mapping(uint256 => Evidence) public Evidences;\r\n    uint256 public Balance;\r\n    uint256 public PaymentNumber;\r\n\r\n    // contract constructor [factory]\r\n    constructor(\r\n        address owner,\r\n        address lender,\r\n        uint256 amount,\r\n        uint256 interest,\r\n        uint256 repaymentPeriod\r\n    ) {\r\n        Lender = lender;\r\n        LoanAmount = amount;\r\n        InterestRate = interest;\r\n        RepaymentPeriod = repaymentPeriod;\r\n\r\n        _owner = owner; // set owner to custom address\r\n\r\n        State = StateType.Available;\r\n\r\n        PaymentNumber = 0;\r\n\r\n        emit Created(lender, amount, interest, repaymentPeriod);\r\n    }\r\n\r\n    // Request Loan Directly (accept default terms and wait for lender confirmation) [borrower]\r\n    function RequestLoan( \r\n        address user\r\n    ) public payable {\r\n        require(msg.sender == _owner);\r\n        require(State == StateType.Available);\r\n\r\n        Borrower = user;\r\n        State = StateType.Confirmed;\r\n\r\n        emit Requested(user);\r\n    }\r\n\r\n    // Accept Loan Directly (accept default terms and wait for lender confirmation)\r\n    function AcceptRequest(\r\n        address user\r\n    ) public payable {\r\n        require(msg.sender == _owner);\r\n        require(user == Lender);\r\n        require(State == StateType.Confirmed);\r\n\r\n        State = StateType.Active;\r\n        Balance = LoanAmount;\r\n\r\n        emit Accepted(user);\r\n    }\r\n\r\n    // make offer with different terms [lender|borrower]\r\n    function MakeOffer(\r\n        address user,\r\n        uint256 offerAmount,\r\n        uint256 offerInterestRate,\r\n        uint256 offerRepaymentPeriod\r\n    ) public payable {\r\n        require(msg.sender == _owner);\r\n        require(user == Lender || user == Borrower);\r\n        require(\r\n            offerAmount != 0 &&\r\n                offerRepaymentPeriod != 0 &&\r\n                offerInterestRate != 0\r\n        );\r\n        require(State == StateType.Available || State == StateType.OfferPlaced);\r\n\r\n        if (user != Lender) {\r\n            Borrower = user;\r\n        }\r\n\r\n        OfferAmout = offerAmount;\r\n        OfferInterestRate = offerInterestRate;\r\n        OfferRepaymentPeriod = offerRepaymentPeriod;\r\n\r\n        State = StateType.OfferPlaced;\r\n\r\n        emit OfferPlaced(\r\n            user,\r\n            offerAmount,\r\n            offerInterestRate,\r\n            offerRepaymentPeriod\r\n        );\r\n    }\r\n\r\n    // confirm lender offer [borrower]\r\n    function ConfirmLenderOffer(address user) public payable {\r\n        require(msg.sender == _owner);\r\n        require(user == Borrower);\r\n        require(State == StateType.LenderAccepted);\r\n\r\n        // set state to confirmed (not active yet)\r\n        State = StateType.Confirmed;\r\n\r\n        emit BorrowerConfirmed(Borrower);\r\n    }\r\n\r\n    // modify available (non-active) contract [lender]\r\n    function Modify(\r\n        address user,\r\n        uint256 amount,\r\n        uint256 interest,\r\n        uint256 repaymentPeriod\r\n    ) public payable {\r\n        require(msg.sender == _owner);\r\n        require(user == Lender);\r\n        require(State == StateType.Available);\r\n\r\n        LoanAmount = amount;\r\n        InterestRate = interest;\r\n        RepaymentPeriod = repaymentPeriod;\r\n\r\n        emit Modified(Lender, amount, interest, repaymentPeriod);\r\n    }\r\n\r\n    // accept borrower offer [lender]\r\n    function AcceptOffer(address user) public payable {\r\n        require(msg.sender == _owner);\r\n        require(user == Lender);\r\n        require(State == StateType.OfferPlaced);\r\n\r\n        State = StateType.LenderAccepted;\r\n\r\n        emit OfferAccepted(user);\r\n    }\r\n\r\n    // reject offer [lender|borrower]\r\n    function RejectOffer(address user) public payable {\r\n        require(msg.sender == _owner);\r\n        require(user == Lender || user == Borrower);\r\n        require(State == StateType.OfferPlaced);\r\n\r\n        Borrower = 0x0000000000000000000000000000000000000000;\r\n        State = StateType.Available;\r\n\r\n        emit OfferRejected(user);\r\n    }\r\n\r\n    // sends payment with required evidence attached [lender|borrower]\r\n    function SendPayment(\r\n        address sender,\r\n        uint256 paymentNumber,\r\n        uint256 amount,\r\n        string memory evidence\r\n    ) public payable {\r\n        require(msg.sender == _owner);\r\n        require(sender == Lender || sender == Borrower || sender == _owner); // require sender is lender or borrower\r\n        require(State == StateType.Active); // require that it is an active contract\r\n        require(amount > 0); // require payment amount is not 0\r\n\r\n        Balance = Balance - amount;\r\n\r\n        // send evidence for counterparty validation, initialy unverified\r\n        Evidences[paymentNumber] = Evidence(sender, evidence, EvidenceStatus.Unverified);\r\n        \r\n        State = StateType.AwaitingValidation; // set state to awaiting validation\r\n\r\n        emit PaymentSent(\r\n            sender,\r\n            amount,\r\n            paymentNumber,\r\n            Evidences[paymentNumber].transactionHash\r\n        );\r\n    }\r\n\r\n    function GetEvidence(uint256 paymentNumber)\r\n        public\r\n        view\r\n        returns (Evidence memory)\r\n    {\r\n        require(paymentNumber <= PaymentNumber);\r\n\r\n        return Evidences[paymentNumber];\r\n    }\r\n\r\n    function ValidateEvidence(address user, uint256 paymentNumber)\r\n        public\r\n        payable\r\n    {\r\n        require(msg.sender == _owner);\r\n        require(\r\n            (user == Borrower && Evidences[paymentNumber].sender == Lender) ||\r\n                (user == Lender && Evidences[paymentNumber].sender == Borrower)\r\n        );\r\n        require(State == StateType.AwaitingValidation);\r\n\r\n        // validate from website, validation code is stored encrypted in the blockchain\r\n        // encryption is only lifted by having the decryption key that is server unique\r\n        // after some checks, validate...\r\n        Evidences[paymentNumber].evidenceStatus = EvidenceStatus.Valid;\r\n\r\n        PaymentNumber++;\r\n\r\n        State = StateType.Active; // set loan state back to active\r\n\r\n        emit PaymentValidated(user, paymentNumber, Evidences[paymentNumber].transactionHash);\r\n    }\r\n\r\n    /**\r\n     * EVENTS\r\n     **/\r\n    event Received(address sender, uint256 amount);\r\n\r\n    event Requested(address borrower);\r\n    event Accepted(address lender);\r\n\r\n    event Created(\r\n        address lender,\r\n        uint256 amount,\r\n        uint256 interest,\r\n        uint256 repaymentPeriod\r\n    );\r\n    event Modified(\r\n        address sender,\r\n        uint256 amount,\r\n        uint256 interest,\r\n        uint256 repaymentPeriod\r\n    );\r\n    event OfferPlaced(\r\n        address sender,\r\n        uint256 offerAmount,\r\n        uint256 offerInterestRate,\r\n        uint256 offerRepaymentPeriod\r\n    );\r\n    event PaymentSent(\r\n        address sender,\r\n        uint256 amount,\r\n        uint256 paymentNumber,\r\n        string evidence\r\n    );\r\n    event PaymentValidated(\r\n        address sender,\r\n        uint256 paymentNumber,\r\n        string evidence\r\n    );\r\n    event BorrowerConfirmed(address sender);\r\n    event OfferAccepted(address sender);\r\n    event OfferRejected(address sender);\r\n\r\n    // Receive any ethereum randomly sent to the contract from outside\r\n    receive() external payable {\r\n        emit Received(msg.sender, msg.value);\r\n    }\r\n\r\n    // get tupple with information about current contract\r\n    function Info()\r\n        public\r\n        view\r\n        returns (\r\n            address,\r\n            address,\r\n            uint256,\r\n            uint256,\r\n            uint256,\r\n            uint256,\r\n            // Evidence[] memory,\r\n            StateType\r\n        )\r\n    {\r\n        return (\r\n            Lender,\r\n            Borrower,\r\n            LoanAmount,\r\n            Balance,\r\n            InterestRate,\r\n            RepaymentPeriod,\r\n            // Evidences,\r\n            State\r\n        );\r\n    }\r\n}\r\n",
  "sourcePath": "C:\\Users\\abdie\\Documents\\Developer\\Capstone\\CAPSTONE_APP\\contracts\\DecentraLoan.sol",
  "compiler": {
    "name": "solc",
    "version": "0.8.0+commit.c7dfd78e.Emscripten.clang"
  },
  "schemaVersion": "3.3.3",
  "updatedAt": "2021-03-12T03:22:16.748Z",
  "devdoc": {
    "kind": "dev",
    "methods": {},
    "version": 1
  },
  "userdoc": {
    "events": {
      "Received(address,uint256)": {
        "notice": "EVENTS*"
      }
    },
    "kind": "user",
    "methods": {},
    "version": 1
  }
}