{
  "contractName": "DecentraLoan",
  "abi": [
    {
      "inputs": [
        {
          "internalType": "address",
          "name": "lender",
          "type": "address"
        },
        {
          "internalType": "uint256",
          "name": "amount",
          "type": "uint256"
        },
        {
          "internalType": "uint256",
          "name": "interest",
          "type": "uint256"
        },
        {
          "internalType": "uint256",
          "name": "repaymentPeriod",
          "type": "uint256"
        },
        {
          "internalType": "uint256",
          "name": "platform",
          "type": "uint256"
        }
      ],
      "stateMutability": "nonpayable",
      "type": "constructor"
    },
    {
      "anonymous": false,
      "inputs": [
        {
          "indexed": false,
          "internalType": "address",
          "name": "lender",
          "type": "address"
        },
        {
          "indexed": false,
          "internalType": "uint256",
          "name": "amount",
          "type": "uint256"
        },
        {
          "indexed": false,
          "internalType": "uint256",
          "name": "interest",
          "type": "uint256"
        },
        {
          "indexed": false,
          "internalType": "uint256",
          "name": "repaymentPeriod",
          "type": "uint256"
        }
      ],
      "name": "Created",
      "type": "event"
    },
    {
      "anonymous": false,
      "inputs": [
        {
          "indexed": false,
          "internalType": "address",
          "name": "lender",
          "type": "address"
        },
        {
          "indexed": false,
          "internalType": "address",
          "name": "borrower",
          "type": "address"
        },
        {
          "indexed": false,
          "internalType": "uint256",
          "name": "amount",
          "type": "uint256"
        },
        {
          "indexed": false,
          "internalType": "uint256",
          "name": "interest",
          "type": "uint256"
        },
        {
          "indexed": false,
          "internalType": "uint256",
          "name": "repaymentPeriod",
          "type": "uint256"
        }
      ],
      "name": "DealReached",
      "type": "event"
    },
    {
      "anonymous": false,
      "inputs": [
        {
          "indexed": false,
          "internalType": "address",
          "name": "lender",
          "type": "address"
        },
        {
          "indexed": false,
          "internalType": "uint256",
          "name": "amount",
          "type": "uint256"
        },
        {
          "indexed": false,
          "internalType": "uint256",
          "name": "interest",
          "type": "uint256"
        },
        {
          "indexed": false,
          "internalType": "uint256",
          "name": "repaymentPeriod",
          "type": "uint256"
        }
      ],
      "name": "Modified",
      "type": "event"
    },
    {
      "anonymous": false,
      "inputs": [
        {
          "indexed": false,
          "internalType": "address",
          "name": "sender",
          "type": "address"
        },
        {
          "indexed": false,
          "internalType": "uint256",
          "name": "amount",
          "type": "uint256"
        },
        {
          "indexed": false,
          "internalType": "uint256",
          "name": "paymentNumber",
          "type": "uint256"
        },
        {
          "indexed": false,
          "internalType": "string",
          "name": "evidence",
          "type": "string"
        }
      ],
      "name": "PaymentSent",
      "type": "event"
    },
    {
      "anonymous": false,
      "inputs": [
        {
          "indexed": false,
          "internalType": "address",
          "name": "sender",
          "type": "address"
        },
        {
          "indexed": false,
          "internalType": "uint256",
          "name": "paymentNumber",
          "type": "uint256"
        },
        {
          "indexed": false,
          "internalType": "string",
          "name": "evidence",
          "type": "string"
        }
      ],
      "name": "PaymentValidated",
      "type": "event"
    },
    {
      "anonymous": false,
      "inputs": [
        {
          "indexed": false,
          "internalType": "address",
          "name": "sender",
          "type": "address"
        },
        {
          "indexed": false,
          "internalType": "uint256",
          "name": "amount",
          "type": "uint256"
        }
      ],
      "name": "Received",
      "type": "event"
    },
    {
      "anonymous": false,
      "inputs": [
        {
          "indexed": false,
          "internalType": "address",
          "name": "lender",
          "type": "address"
        }
      ],
      "name": "Withdrawn",
      "type": "event"
    },
    {
      "stateMutability": "payable",
      "type": "receive"
    },
    {
      "inputs": [],
      "name": "GetLoanAmount",
      "outputs": [
        {
          "internalType": "uint256",
          "name": "",
          "type": "uint256"
        }
      ],
      "stateMutability": "view",
      "type": "function"
    },
    {
      "inputs": [],
      "name": "Invest",
      "outputs": [],
      "stateMutability": "payable",
      "type": "function"
    },
    {
      "inputs": [],
      "name": "GetInvestors",
      "outputs": [
        {
          "internalType": "address[10]",
          "name": "",
          "type": "address[10]"
        }
      ],
      "stateMutability": "view",
      "type": "function"
    },
    {
      "inputs": [
        {
          "internalType": "uint256",
          "name": "amount",
          "type": "uint256"
        },
        {
          "internalType": "uint256",
          "name": "interest",
          "type": "uint256"
        },
        {
          "internalType": "uint256",
          "name": "repaymentPeriod",
          "type": "uint256"
        }
      ],
      "name": "Modify",
      "outputs": [],
      "stateMutability": "payable",
      "type": "function"
    },
    {
      "inputs": [
        {
          "internalType": "address",
          "name": "_borrower",
          "type": "address"
        },
        {
          "internalType": "uint256",
          "name": "_amount",
          "type": "uint256"
        },
        {
          "internalType": "uint256",
          "name": "_interest",
          "type": "uint256"
        },
        {
          "internalType": "uint256",
          "name": "_repaymentPeriod",
          "type": "uint256"
        }
      ],
      "name": "Deal",
      "outputs": [],
      "stateMutability": "payable",
      "type": "function"
    },
    {
      "inputs": [],
      "name": "Withdraw",
      "outputs": [],
      "stateMutability": "payable",
      "type": "function"
    },
    {
      "inputs": [
        {
          "internalType": "address",
          "name": "sender",
          "type": "address"
        },
        {
          "internalType": "uint256",
          "name": "paymentNumber",
          "type": "uint256"
        },
        {
          "internalType": "uint256",
          "name": "amount",
          "type": "uint256"
        },
        {
          "internalType": "string",
          "name": "evidence",
          "type": "string"
        }
      ],
      "name": "SendPayment",
      "outputs": [],
      "stateMutability": "payable",
      "type": "function"
    },
    {
      "inputs": [
        {
          "internalType": "uint256",
          "name": "paymentNumber",
          "type": "uint256"
        }
      ],
      "name": "GetEvidence",
      "outputs": [
        {
          "components": [
            {
              "internalType": "address",
              "name": "sender",
              "type": "address"
            },
            {
              "internalType": "string",
              "name": "transactionHash",
              "type": "string"
            },
            {
              "internalType": "enum DecentraLoan.EvidenceStatus",
              "name": "evidenceStatus",
              "type": "uint8"
            }
          ],
          "internalType": "struct DecentraLoan.Evidence",
          "name": "",
          "type": "tuple"
        }
      ],
      "stateMutability": "view",
      "type": "function"
    },
    {
      "inputs": [
        {
          "internalType": "address",
          "name": "user",
          "type": "address"
        }
      ],
      "name": "ValidateEvidence",
      "outputs": [],
      "stateMutability": "payable",
      "type": "function"
    },
    {
      "inputs": [],
      "name": "Info",
      "outputs": [
        {
          "internalType": "address",
          "name": "",
          "type": "address"
        },
        {
          "internalType": "address",
          "name": "",
          "type": "address"
        },
        {
          "internalType": "uint256",
          "name": "",
          "type": "uint256"
        },
        {
          "internalType": "uint256",
          "name": "",
          "type": "uint256"
        },
        {
          "internalType": "uint256",
          "name": "",
          "type": "uint256"
        },
        {
          "internalType": "uint256",
          "name": "",
          "type": "uint256"
        },
        {
          "internalType": "uint256",
          "name": "",
          "type": "uint256"
        },
        {
          "internalType": "enum DecentraLoan.StateType",
          "name": "",
          "type": "uint8"
        }
      ],
      "stateMutability": "view",
      "type": "function"
    }
  ],
  "bytecode": "0x60806040523480156200001157600080fd5b50604051620022b1380380620022b18339818101604052810190620000379190620001a6565b84600c60006101000a81548173ffffffffffffffffffffffffffffffffffffffff021916908373ffffffffffffffffffffffffffffffffffffffff16021790555083600e8190555082600f819055508160108190555080601181905550336000806101000a81548173ffffffffffffffffffffffffffffffffffffffff021916908373ffffffffffffffffffffffffffffffffffffffff1602179055506000601260006101000a81548160ff0219169083600681111562000121577f4e487b7100000000000000000000000000000000000000000000000000000000600052602160045260246000fd5b021790555060006015819055507f99a12a7aefbbb67909c2bee4a5e2ddb98b2183b8ae2a59e5a7db47f53453345d858585856040516200016594939291906200024a565b60405180910390a1505050505062000309565b6000815190506200018981620002d5565b92915050565b600081519050620001a081620002ef565b92915050565b600080600080600060a08688031215620001bf57600080fd5b6000620001cf8882890162000178565b9550506020620001e2888289016200018f565b9450506040620001f5888289016200018f565b935050606062000208888289016200018f565b92505060806200021b888289016200018f565b9150509295509295909350565b620002338162000297565b82525050565b6200024481620002cb565b82525050565b600060808201905062000261600083018762000228565b62000270602083018662000239565b6200027f604083018562000239565b6200028e606083018462000239565b95945050505050565b6000620002a482620002ab565b9050919050565b600073ffffffffffffffffffffffffffffffffffffffff82169050919050565b6000819050919050565b620002e08162000297565b8114620002ec57600080fd5b50565b620002fa81620002cb565b81146200030657600080fd5b50565b611f9880620003196000396000f3fe6080604052600436106100955760003560e01c806357ea89b61161005957806357ea89b6146101bb5780636f5cc86a146101c55780639364330e146101e1578063c0819961146101fd578063dab053e214610207576100d5565b80631843d3e3146100da57806324d09da4146101055780634012e02e146101305780635677640b1461016257806357baac0d1461019f576100d5565b366100d5577f88a5966d370b9919b20f3e2c13ff65706f196a4e32cc2c12bf57088f8852587433346040516100cb9291906119ed565b60405180910390a1005b600080fd5b3480156100e657600080fd5b506100ef610223565b6040516100fc9190611ae5565b60405180910390f35b34801561011157600080fd5b5061011a6102a4565b6040516101279190611b23565b60405180910390f35b34801561013c57600080fd5b506101456102ae565b60405161015998979695949392919061196f565b60405180910390f35b34801561016e57600080fd5b50610189600480360381019061018491906116c6565b610339565b6040516101969190611b01565b60405180910390f35b6101b960048036038101906101b491906116ef565b610519565b005b6101c3610676565b005b6101df60048036038101906101da91906115e8565b610806565b005b6101fb60048036038101906101f69190611663565b610c5a565b005b610205610e74565b005b610221600480360381019061021c91906115bf565b610f45565b005b61022b6113f8565b6001600a806020026040519081016040528092919082600a801561029a576020028201915b8160009054906101000a900473ffffffffffffffffffffffffffffffffffffffff1673ffffffffffffffffffffffffffffffffffffffff1681526020019060010190808311610250575b5050505050905090565b6000600e54905090565b600080600080600080600080600c60009054906101000a900473ffffffffffffffffffffffffffffffffffffffff16600d60009054906101000a900473ffffffffffffffffffffffffffffffffffffffff16600e54601454600f54601054601554601260009054906101000a900460ff16975097509750975097509750975097509091929394959697565b61034161141b565b60155482111561035057600080fd5b6013828154811061038a577f4e487b7100000000000000000000000000000000000000000000000000000000600052603260045260246000fd5b90600052602060002090600302016040518060600160405290816000820160009054906101000a900473ffffffffffffffffffffffffffffffffffffffff1673ffffffffffffffffffffffffffffffffffffffff1673ffffffffffffffffffffffffffffffffffffffff16815260200160018201805461040990611d95565b80601f016020809104026020016040519081016040528092919081815260200182805461043590611d95565b80156104825780601f1061045757610100808354040283529160200191610482565b820191906000526020600020905b81548152906001019060200180831161046557829003601f168201915b505050505081526020016002820160009054906101000a900460ff1660028111156104d6577f4e487b7100000000000000000000000000000000000000000000000000000000600052602160045260246000fd5b600281111561050e577f4e487b7100000000000000000000000000000000000000000000000000000000600052602160045260246000fd5b815250509050919050565b60008054906101000a900473ffffffffffffffffffffffffffffffffffffffff1673ffffffffffffffffffffffffffffffffffffffff163373ffffffffffffffffffffffffffffffffffffffff161461057157600080fd5b600060068111156105ab577f4e487b7100000000000000000000000000000000000000000000000000000000600052602160045260246000fd5b601260009054906101000a900460ff1660068111156105f3577f4e487b7100000000000000000000000000000000000000000000000000000000600052602160045260246000fd5b146105fd57600080fd5b82600e8190555081600f81905550806010819055507fff917abbd5265db0321d1698dfe74287ae6b93d1cd1f486a618d1124feb0b8bc600c60009054906101000a900473ffffffffffffffffffffffffffffffffffffffff168484846040516106699493929190611aa0565b60405180910390a1505050565b60008054906101000a900473ffffffffffffffffffffffffffffffffffffffff1673ffffffffffffffffffffffffffffffffffffffff163373ffffffffffffffffffffffffffffffffffffffff16146106ce57600080fd5b60006006811115610708577f4e487b7100000000000000000000000000000000000000000000000000000000600052602160045260246000fd5b601260009054906101000a900460ff166006811115610750577f4e487b7100000000000000000000000000000000000000000000000000000000600052602160045260246000fd5b1461075a57600080fd5b6006601260006101000a81548160ff021916908360068111156107a6577f4e487b7100000000000000000000000000000000000000000000000000000000600052602160045260246000fd5b02179055507ff45a04d08a70caa7eb4b747571305559ad9fdf4a093afd41506b35c8a306fa94600c60009054906101000a900473ffffffffffffffffffffffffffffffffffffffff166040516107fc9190611901565b60405180910390a1565b60008054906101000a900473ffffffffffffffffffffffffffffffffffffffff1673ffffffffffffffffffffffffffffffffffffffff163373ffffffffffffffffffffffffffffffffffffffff161461085e57600080fd5b600c60009054906101000a900473ffffffffffffffffffffffffffffffffffffffff1673ffffffffffffffffffffffffffffffffffffffff168473ffffffffffffffffffffffffffffffffffffffff1614806109075750600d60009054906101000a900473ffffffffffffffffffffffffffffffffffffffff1673ffffffffffffffffffffffffffffffffffffffff168473ffffffffffffffffffffffffffffffffffffffff16145b8061095d575060008054906101000a900473ffffffffffffffffffffffffffffffffffffffff1673ffffffffffffffffffffffffffffffffffffffff168473ffffffffffffffffffffffffffffffffffffffff16145b61096657600080fd5b600260068111156109a0577f4e487b7100000000000000000000000000000000000000000000000000000000600052602160045260246000fd5b601260009054906101000a900460ff1660068111156109e8577f4e487b7100000000000000000000000000000000000000000000000000000000600052602160045260246000fd5b146109f257600080fd5b600082116109ff57600080fd5b60006015541415610a165781601481905550610a2b565b81601454610a249190611c99565b6014819055505b601360405180606001604052808673ffffffffffffffffffffffffffffffffffffffff16815260200183815260200160006002811115610a94577f4e487b7100000000000000000000000000000000000000000000000000000000600052602160045260246000fd5b815250908060018154018082558091505060019003906000526020600020906003020160009091909190915060008201518160000160006101000a81548173ffffffffffffffffffffffffffffffffffffffff021916908373ffffffffffffffffffffffffffffffffffffffff1602179055506020820151816001019080519060200190610b2392919061148a565b5060408201518160020160006101000a81548160ff02191690836002811115610b75577f4e487b7100000000000000000000000000000000000000000000000000000000600052602160045260246000fd5b021790555050506003601260006101000a81548160ff02191690836006811115610bc8577f4e487b7100000000000000000000000000000000000000000000000000000000600052602160045260246000fd5b02179055507f5cfc5f208b7752cea928bde39e788a6ba0683d77941de216b2a1c34d754bf90484838560138781548110610c2b577f4e487b7100000000000000000000000000000000000000000000000000000000600052603260045260246000fd5b9060005260206000209060030201600101604051610c4c9493929190611a54565b60405180910390a150505050565b60008054906101000a900473ffffffffffffffffffffffffffffffffffffffff1673ffffffffffffffffffffffffffffffffffffffff163373ffffffffffffffffffffffffffffffffffffffff1614610cb257600080fd5b60006006811115610cec577f4e487b7100000000000000000000000000000000000000000000000000000000600052602160045260246000fd5b601260009054906101000a900460ff166006811115610d34577f4e487b7100000000000000000000000000000000000000000000000000000000600052602160045260246000fd5b14610d3e57600080fd5b83600d60006101000a81548173ffffffffffffffffffffffffffffffffffffffff021916908373ffffffffffffffffffffffffffffffffffffffff16021790555082600e8190555081600f81905550806010819055506002601260006101000a81548160ff02191690836006811115610de0577f4e487b7100000000000000000000000000000000000000000000000000000000600052602160045260246000fd5b02179055507f8fe0ac573acf497793f3dcb9d6a4ee36413e0231ccaa4074d0dd5534be01e38b600c60009054906101000a900473ffffffffffffffffffffffffffffffffffffffff16600d60009054906101000a900473ffffffffffffffffffffffffffffffffffffffff16600e54600f54601054604051610e6695949392919061191c565b60405180910390a150505050565b600a600b5410610e8357600080fd5b6601c6bf52634000600a600e54610e9a9190611c0e565b610ea49190611c3f565b3414610eaf57600080fd5b336001600b54600a8110610eec577f4e487b7100000000000000000000000000000000000000000000000000000000600052603260045260246000fd5b0160006101000a81548173ffffffffffffffffffffffffffffffffffffffff021916908373ffffffffffffffffffffffffffffffffffffffff160217905550600b6000815480929190610f3e90611dc7565b9190505550565b60008054906101000a900473ffffffffffffffffffffffffffffffffffffffff1673ffffffffffffffffffffffffffffffffffffffff163373ffffffffffffffffffffffffffffffffffffffff1614610f9d57600080fd5b600d60009054906101000a900473ffffffffffffffffffffffffffffffffffffffff1673ffffffffffffffffffffffffffffffffffffffff168173ffffffffffffffffffffffffffffffffffffffff161480156110b45750600c60009054906101000a900473ffffffffffffffffffffffffffffffffffffffff1673ffffffffffffffffffffffffffffffffffffffff1660136015548154811061106a577f4e487b7100000000000000000000000000000000000000000000000000000000600052603260045260246000fd5b906000526020600020906003020160000160009054906101000a900473ffffffffffffffffffffffffffffffffffffffff1673ffffffffffffffffffffffffffffffffffffffff16145b806111d25750600c60009054906101000a900473ffffffffffffffffffffffffffffffffffffffff1673ffffffffffffffffffffffffffffffffffffffff168173ffffffffffffffffffffffffffffffffffffffff161480156111d15750600d60009054906101000a900473ffffffffffffffffffffffffffffffffffffffff1673ffffffffffffffffffffffffffffffffffffffff16601360155481548110611187577f4e487b7100000000000000000000000000000000000000000000000000000000600052603260045260246000fd5b906000526020600020906003020160000160009054906101000a900473ffffffffffffffffffffffffffffffffffffffff1673ffffffffffffffffffffffffffffffffffffffff16145b5b6111db57600080fd5b60036006811115611215577f4e487b7100000000000000000000000000000000000000000000000000000000600052602160045260246000fd5b601260009054906101000a900460ff16600681111561125d577f4e487b7100000000000000000000000000000000000000000000000000000000600052602160045260246000fd5b1461126757600080fd5b60026013601554815481106112a5577f4e487b7100000000000000000000000000000000000000000000000000000000600052603260045260246000fd5b906000526020600020906003020160020160006101000a81548160ff021916908360028111156112fe577f4e487b7100000000000000000000000000000000000000000000000000000000600052602160045260246000fd5b02179055506002601260006101000a81548160ff0219169083600681111561134f577f4e487b7100000000000000000000000000000000000000000000000000000000600052602160045260246000fd5b02179055507f81c0c81b76f6d40169ac434db902906d87dba0f6ecd6f0249356df7f6977e602816015546013601554815481106113b5577f4e487b7100000000000000000000000000000000000000000000000000000000600052603260045260246000fd5b90600052602060002090600302016001016040516113d593929190611a16565b60405180910390a1601560008154809291906113f090611dc7565b919050555050565b604051806101400160405280600a90602082028036833780820191505090505090565b6040518060600160405280600073ffffffffffffffffffffffffffffffffffffffff1681526020016060815260200160006002811115611484577f4e487b7100000000000000000000000000000000000000000000000000000000600052602160045260246000fd5b81525090565b82805461149690611d95565b90600052602060002090601f0160209004810192826114b857600085556114ff565b82601f106114d157805160ff19168380011785556114ff565b828001600101855582156114ff579182015b828111156114fe5782518255916020019190600101906114e3565b5b50905061150c9190611510565b5090565b5b80821115611529576000816000905550600101611511565b5090565b600061154061153b84611b6f565b611b3e565b90508281526020810184848401111561155857600080fd5b611563848285611d53565b509392505050565b60008135905061157a81611f34565b92915050565b600082601f83011261159157600080fd5b81356115a184826020860161152d565b91505092915050565b6000813590506115b981611f4b565b92915050565b6000602082840312156115d157600080fd5b60006115df8482850161156b565b91505092915050565b600080600080608085870312156115fe57600080fd5b600061160c8782880161156b565b945050602061161d878288016115aa565b935050604061162e878288016115aa565b925050606085013567ffffffffffffffff81111561164b57600080fd5b61165787828801611580565b91505092959194509250565b6000806000806080858703121561167957600080fd5b60006116878782880161156b565b9450506020611698878288016115aa565b93505060406116a9878288016115aa565b92505060606116ba878288016115aa565b91505092959194509250565b6000602082840312156116d857600080fd5b60006116e6848285016115aa565b91505092915050565b60008060006060848603121561170457600080fd5b6000611712868287016115aa565b9350506020611723868287016115aa565b9250506040611734868287016115aa565b9150509250925092565b600061174a8383611756565b60208301905092915050565b61175f81611ccd565b82525050565b61176e81611ccd565b82525050565b61177d81611bbe565b6117878184611be1565b925061179282611b9f565b8060005b838110156117c35781516117aa878261173e565b96506117b583611bd4565b925050600181019050611796565b505050505050565b6117d481611d2f565b82525050565b6117e381611d41565b82525050565b60006117f482611bc9565b6117fe8185611bec565b935061180e818560208601611d62565b61181781611efb565b840191505092915050565b6000815461182f81611d95565b6118398186611bfd565b94506001821660008114611854576001811461186657611899565b60ff1983168652602086019350611899565b61186f85611ba9565b60005b8381101561189157815481890152600182019150602081019050611872565b808801955050505b50505092915050565b60006060830160008301516118ba6000860182611756565b50602083015184820360208601526118d282826117e9565b91505060408301516118e760408601826117cb565b508091505092915050565b6118fb81611d25565b82525050565b60006020820190506119166000830184611765565b92915050565b600060a0820190506119316000830188611765565b61193e6020830187611765565b61194b60408301866118f2565b61195860608301856118f2565b61196560808301846118f2565b9695505050505050565b600061010082019050611985600083018b611765565b611992602083018a611765565b61199f60408301896118f2565b6119ac60608301886118f2565b6119b960808301876118f2565b6119c660a08301866118f2565b6119d360c08301856118f2565b6119e060e08301846117da565b9998505050505050505050565b6000604082019050611a026000830185611765565b611a0f60208301846118f2565b9392505050565b6000606082019050611a2b6000830186611765565b611a3860208301856118f2565b8181036040830152611a4a8184611822565b9050949350505050565b6000608082019050611a696000830187611765565b611a7660208301866118f2565b611a8360408301856118f2565b8181036060830152611a958184611822565b905095945050505050565b6000608082019050611ab56000830187611765565b611ac260208301866118f2565b611acf60408301856118f2565b611adc60608301846118f2565b95945050505050565b600061014082019050611afb6000830184611774565b92915050565b60006020820190508181036000830152611b1b81846118a2565b905092915050565b6000602082019050611b3860008301846118f2565b92915050565b6000604051905081810181811067ffffffffffffffff82111715611b6557611b64611ecc565b5b8060405250919050565b600067ffffffffffffffff821115611b8a57611b89611ecc565b5b601f19601f8301169050602081019050919050565b6000819050919050565b60008190508160005260206000209050919050565b6000600a9050919050565b600081519050919050565b6000602082019050919050565b600081905092915050565b600082825260208201905092915050565b600082825260208201905092915050565b6000611c1982611d25565b9150611c2483611d25565b925082611c3457611c33611e3f565b5b828204905092915050565b6000611c4a82611d25565b9150611c5583611d25565b9250817fffffffffffffffffffffffffffffffffffffffffffffffffffffffffffffffff0483118215151615611c8e57611c8d611e10565b5b828202905092915050565b6000611ca482611d25565b9150611caf83611d25565b925082821015611cc257611cc1611e10565b5b828203905092915050565b6000611cd882611d05565b9050919050565b6000819050611ced82611f0c565b919050565b6000819050611d0082611f20565b919050565b600073ffffffffffffffffffffffffffffffffffffffff82169050919050565b6000819050919050565b6000611d3a82611cdf565b9050919050565b6000611d4c82611cf2565b9050919050565b82818337600083830152505050565b60005b83811015611d80578082015181840152602081019050611d65565b83811115611d8f576000848401525b50505050565b60006002820490506001821680611dad57607f821691505b60208210811415611dc157611dc0611e9d565b5b50919050565b6000611dd282611d25565b91507fffffffffffffffffffffffffffffffffffffffffffffffffffffffffffffffff821415611e0557611e04611e10565b5b600182019050919050565b7f4e487b7100000000000000000000000000000000000000000000000000000000600052601160045260246000fd5b7f4e487b7100000000000000000000000000000000000000000000000000000000600052601260045260246000fd5b7f4e487b7100000000000000000000000000000000000000000000000000000000600052602160045260246000fd5b7f4e487b7100000000000000000000000000000000000000000000000000000000600052602260045260246000fd5b7f4e487b7100000000000000000000000000000000000000000000000000000000600052604160045260246000fd5b6000601f19601f8301169050919050565b60038110611f1d57611f1c611e6e565b5b50565b60078110611f3157611f30611e6e565b5b50565b611f3d81611ccd565b8114611f4857600080fd5b50565b611f5481611d25565b8114611f5f57600080fd5b5056fea26469706673582212204a51eba15c58162f37c470220a675b53995efa45a9fd34768ddfc77a28a779d664736f6c63430008000033",
  "immutableReferences": {},
  "source": "// SPDX-License-Identifier: MIT\r\npragma solidity ^0.8.0;\r\n\r\ncontract DecentraLoan {\r\n    enum StateType {\r\n        Available,\r\n        DealReached,\r\n        Active,\r\n        AwaitingValidation,\r\n        Delinquent,\r\n        Terminated,\r\n        Withdrawn\r\n    }\r\n\r\n    enum EvidenceStatus {\r\n        Unverified, \r\n        Invalid, \r\n        Valid\r\n    }\r\n\r\n    struct Evidence {\r\n        address sender;\r\n        string transactionHash;\r\n        EvidenceStatus evidenceStatus;\r\n    }\r\n\r\n    // contract owner (who pays for the gas fees..)\r\n    address private _owner;\r\n    address[10] private _investors;\r\n    uint256 InvestorIndex;\r\n\r\n    // lender specific variables\r\n    address private Lender;\r\n    address private Borrower;\r\n    uint256 private LoanAmount;\r\n    uint256 private InterestRate;\r\n    uint256 private RepaymentPeriod;\r\n    uint256 private Platform;\r\n\r\n    // loan contract specific variables\r\n    StateType private State;\r\n    Evidence[] private Evidences;\r\n    uint256 private Balance;\r\n    uint256 private PaymentNumber;\r\n\r\n    // contract constructor\r\n    constructor(\r\n        address lender,\r\n        uint256 amount,\r\n        uint256 interest,\r\n        uint256 repaymentPeriod,\r\n        uint256 platform\r\n    ) {\r\n        Lender = lender;\r\n        LoanAmount = amount;\r\n        InterestRate = interest;\r\n        RepaymentPeriod = repaymentPeriod;\r\n        Platform = platform;\r\n\r\n        _owner = msg.sender;\r\n\r\n        State = StateType.Available;\r\n\r\n        PaymentNumber = 0;\r\n\r\n        emit Created(lender, amount, interest, repaymentPeriod);\r\n    }\r\n    \r\n    function GetLoanAmount() public view returns (uint256) {\r\n        return LoanAmount;\r\n    }\r\n    \r\n    function Invest() public payable {\r\n        require(InvestorIndex < 10);\r\n        require(msg.value ==  ((LoanAmount/10)*(5e14)));\r\n        \r\n        _investors[InvestorIndex] = msg.sender;\r\n        InvestorIndex++;\r\n    }\r\n    \r\n    function GetInvestors() public view returns (address[10] memory) {\r\n        return _investors;\r\n    }\r\n\r\n    // modify available (non-active) contract [lender]\r\n    function Modify(\r\n        // address user,\r\n        uint256 amount,\r\n        uint256 interest,\r\n        uint256 repaymentPeriod\r\n    ) public payable {\r\n        require(msg.sender == _owner);\r\n        // require(user == Lender);\r\n        require(State == StateType.Available);\r\n\r\n        LoanAmount = amount;\r\n        InterestRate = interest;\r\n        RepaymentPeriod = repaymentPeriod;\r\n\r\n        emit Modified(Lender, amount, interest, repaymentPeriod);\r\n    }\r\n\r\n    // leander and borrower reached a deal, \r\n    // do virtual handshake and set loan state to Active\r\n    function Deal(\r\n        // address user,\r\n        address _borrower,\r\n        uint256 _amount,\r\n        uint256 _interest,\r\n        uint256 _repaymentPeriod\r\n    ) public payable {\r\n        require(msg.sender == _owner);\r\n        // require(user == Lender);\r\n        require(State == StateType.Available);\r\n\r\n        // set borrower\r\n        Borrower = _borrower;\r\n        \r\n        // change loan parameters if reached deal changed any\r\n        LoanAmount = _amount;\r\n        InterestRate = _interest;\r\n        RepaymentPeriod = _repaymentPeriod;\r\n\r\n        // set loan status to Active\r\n        State = StateType.Active;\r\n\r\n        emit DealReached(\r\n            Lender,\r\n            Borrower,\r\n            LoanAmount,\r\n            InterestRate,\r\n            RepaymentPeriod\r\n        );\r\n    }\r\n\r\n    function Withdraw() public payable {\r\n        require(msg.sender == _owner);\r\n        require(State == StateType.Available);\r\n        // require(_lender == Lender);\r\n\r\n        State = StateType.Withdrawn;\r\n\r\n        emit Withdrawn(Lender);\r\n    }\r\n\r\n    // sends payment with required evidence attached [lender|borrower]\r\n    function SendPayment(\r\n        address sender,\r\n        uint256 paymentNumber,\r\n        uint256 amount,\r\n        string memory evidence\r\n    ) public payable {\r\n        require(msg.sender == _owner);\r\n        require(sender == Lender || sender == Borrower || sender == _owner); // require sender is lender or borrower\r\n        require(State == StateType.Active); // require that it is an active contract\r\n        require(amount > 0); // require payment amount is not 0\r\n\r\n        if (PaymentNumber == 0) {\r\n            // Lender sent core loan amount, this is considered as payment 0.\r\n            Balance = amount;\r\n        } else {\r\n            // subtract paid amount to the balance\r\n            Balance = Balance - amount;\r\n        }\r\n\r\n        // send evidence for counterparty validation, initialy unverified\r\n        Evidences.push(\r\n            Evidence(\r\n                sender,\r\n                evidence,\r\n                EvidenceStatus.Unverified\r\n            )\r\n        );\r\n\r\n        State = StateType.AwaitingValidation; // set state to awaiting validation\r\n\r\n        emit PaymentSent(\r\n            sender,\r\n            amount,\r\n            paymentNumber,\r\n            Evidences[paymentNumber].transactionHash\r\n        );\r\n    }\r\n\r\n    function GetEvidence(uint256 paymentNumber)\r\n        public\r\n        view\r\n        returns (Evidence memory)\r\n    {\r\n        require(paymentNumber <= PaymentNumber);\r\n\r\n        return Evidences[paymentNumber];\r\n    }\r\n\r\n    function ValidateEvidence(address user)\r\n        public\r\n        payable\r\n    {\r\n        require(msg.sender == _owner);\r\n        require(\r\n            (user == Borrower && Evidences[PaymentNumber].sender == Lender) ||\r\n                (user == Lender && Evidences[PaymentNumber].sender == Borrower)\r\n        );\r\n        require(State == StateType.AwaitingValidation);\r\n\r\n        // validate from website, validation code is stored encrypted in the blockchain\r\n        // encryption is only lifted by having the decryption key that is server unique\r\n        // after some checks, validate...\r\n        Evidences[PaymentNumber].evidenceStatus = EvidenceStatus.Valid;\r\n\r\n        State = StateType.Active; // set loan state back to active\r\n\r\n        emit PaymentValidated(\r\n            user,\r\n            PaymentNumber,\r\n            Evidences[PaymentNumber].transactionHash\r\n        );\r\n        \r\n        PaymentNumber++;\r\n    }\r\n\r\n    /**\r\n     * EVENTS\r\n     **/\r\n    event Received(address sender, uint256 amount);\r\n\r\n    event Created(\r\n        address lender,\r\n        uint256 amount,\r\n        uint256 interest,\r\n        uint256 repaymentPeriod\r\n    );\r\n    event Modified(\r\n        address lender,\r\n        uint256 amount,\r\n        uint256 interest,\r\n        uint256 repaymentPeriod\r\n    );\r\n    event Withdrawn(\r\n        address lender\r\n    );\r\n    event DealReached(\r\n        address lender,\r\n        address borrower,\r\n        uint256 amount,\r\n        uint256 interest,\r\n        uint256 repaymentPeriod\r\n    );\r\n    event PaymentSent(\r\n        address sender,\r\n        uint256 amount,\r\n        uint256 paymentNumber,\r\n        string evidence\r\n    );\r\n    event PaymentValidated(\r\n        address sender,\r\n        uint256 paymentNumber,\r\n        string evidence\r\n    );\r\n\r\n    // Receive any ethereum randomly sent to the contract from outside\r\n    receive() external payable {\r\n        emit Received(msg.sender, msg.value);\r\n    }\r\n\r\n    // get tupple with information about current contract\r\n    function Info()\r\n        public\r\n        view\r\n        returns (\r\n            address,\r\n            address,\r\n            uint256,\r\n            uint256,\r\n            uint256,\r\n            uint256,\r\n            uint256,\r\n            StateType\r\n        )\r\n    {\r\n        return (\r\n            Lender,\r\n            Borrower,\r\n            LoanAmount,\r\n            Balance,\r\n            InterestRate,\r\n            RepaymentPeriod,\r\n            PaymentNumber,\r\n            State\r\n        );\r\n    }\r\n}",
  "sourcePath": "C:/Users/abdie/Documents/Developer/Capstone/CAPSTONE_APP/contracts/DecentraLoan.sol",
  "compiler": {
    "name": "solc",
    "version": "0.8.0+commit.c7dfd78e.Emscripten.clang"
  },
  "schemaVersion": "3.3.3",
  "updatedAt": "2021-04-20T01:15:24.641Z",
  "devdoc": {
    "kind": "dev",
    "methods": {},
    "version": 1
  },
  "userdoc": {
    "events": {
      "Received(address,uint256)": {
        "notice": "EVENTS*"
      }
    },
    "kind": "user",
    "methods": {},
    "version": 1
  }
}