{
  "contractName": "DecentraLoan",
  "abi": [
    {
      "inputs": [
        {
          "internalType": "address",
          "name": "owner",
          "type": "address"
        },
        {
          "internalType": "address",
          "name": "lender",
          "type": "address"
        },
        {
          "internalType": "uint256",
          "name": "amount",
          "type": "uint256"
        },
        {
          "internalType": "uint256",
          "name": "interest",
          "type": "uint256"
        },
        {
          "internalType": "uint256",
          "name": "repayment_period",
          "type": "uint256"
        }
      ],
      "stateMutability": "nonpayable",
      "type": "constructor"
    },
    {
      "anonymous": false,
      "inputs": [
        {
          "indexed": false,
          "internalType": "address",
          "name": "sender",
          "type": "address"
        }
      ],
      "name": "OfferAccepted",
      "type": "event"
    },
    {
      "anonymous": false,
      "inputs": [
        {
          "indexed": false,
          "internalType": "address",
          "name": "sender",
          "type": "address"
        },
        {
          "indexed": false,
          "internalType": "uint256",
          "name": "offerAmount",
          "type": "uint256"
        },
        {
          "indexed": false,
          "internalType": "uint256",
          "name": "offerInterestRate",
          "type": "uint256"
        },
        {
          "indexed": false,
          "internalType": "uint256",
          "name": "offerRepaymentPeriod",
          "type": "uint256"
        }
      ],
      "name": "OfferPlaced",
      "type": "event"
    },
    {
      "anonymous": false,
      "inputs": [
        {
          "indexed": false,
          "internalType": "address",
          "name": "sender",
          "type": "address"
        }
      ],
      "name": "OfferRejected",
      "type": "event"
    },
    {
      "anonymous": false,
      "inputs": [
        {
          "indexed": false,
          "internalType": "address",
          "name": "sender",
          "type": "address"
        },
        {
          "indexed": false,
          "internalType": "address",
          "name": "receiver",
          "type": "address"
        },
        {
          "indexed": false,
          "internalType": "uint256",
          "name": "amount",
          "type": "uint256"
        },
        {
          "indexed": false,
          "internalType": "uint256",
          "name": "paymentNumber",
          "type": "uint256"
        },
        {
          "components": [
            {
              "internalType": "string",
              "name": "transactionHash",
              "type": "string"
            },
            {
              "internalType": "enum DecentraLoan.EvidenceStatus",
              "name": "evidenceStatus",
              "type": "uint8"
            }
          ],
          "indexed": false,
          "internalType": "struct DecentraLoan.Evidence",
          "name": "evidence",
          "type": "tuple"
        }
      ],
      "name": "PaymentEmitted",
      "type": "event"
    },
    {
      "anonymous": false,
      "inputs": [
        {
          "indexed": false,
          "internalType": "address",
          "name": "sender",
          "type": "address"
        },
        {
          "indexed": false,
          "internalType": "address",
          "name": "receiver",
          "type": "address"
        },
        {
          "components": [
            {
              "internalType": "string",
              "name": "transactionHash",
              "type": "string"
            },
            {
              "internalType": "enum DecentraLoan.EvidenceStatus",
              "name": "evidenceStatus",
              "type": "uint8"
            }
          ],
          "indexed": false,
          "internalType": "struct DecentraLoan.Evidence",
          "name": "evidence",
          "type": "tuple"
        }
      ],
      "name": "PaymentValidated",
      "type": "event"
    },
    {
      "anonymous": false,
      "inputs": [
        {
          "indexed": false,
          "internalType": "address",
          "name": "sender",
          "type": "address"
        },
        {
          "indexed": false,
          "internalType": "uint256",
          "name": "amount",
          "type": "uint256"
        }
      ],
      "name": "Received",
      "type": "event"
    },
    {
      "inputs": [],
      "name": "Balance",
      "outputs": [
        {
          "internalType": "uint256",
          "name": "",
          "type": "uint256"
        }
      ],
      "stateMutability": "view",
      "type": "function"
    },
    {
      "inputs": [],
      "name": "Borrower",
      "outputs": [
        {
          "internalType": "address",
          "name": "",
          "type": "address"
        }
      ],
      "stateMutability": "view",
      "type": "function"
    },
    {
      "inputs": [],
      "name": "InterestRate",
      "outputs": [
        {
          "internalType": "uint256",
          "name": "",
          "type": "uint256"
        }
      ],
      "stateMutability": "view",
      "type": "function"
    },
    {
      "inputs": [],
      "name": "Lender",
      "outputs": [
        {
          "internalType": "address",
          "name": "",
          "type": "address"
        }
      ],
      "stateMutability": "view",
      "type": "function"
    },
    {
      "inputs": [],
      "name": "LoanAmount",
      "outputs": [
        {
          "internalType": "uint256",
          "name": "",
          "type": "uint256"
        }
      ],
      "stateMutability": "view",
      "type": "function"
    },
    {
      "inputs": [],
      "name": "OfferAmout",
      "outputs": [
        {
          "internalType": "uint256",
          "name": "",
          "type": "uint256"
        }
      ],
      "stateMutability": "view",
      "type": "function"
    },
    {
      "inputs": [],
      "name": "OfferInterestRate",
      "outputs": [
        {
          "internalType": "uint256",
          "name": "",
          "type": "uint256"
        }
      ],
      "stateMutability": "view",
      "type": "function"
    },
    {
      "inputs": [],
      "name": "OfferRepaymentPeriod",
      "outputs": [
        {
          "internalType": "uint256",
          "name": "",
          "type": "uint256"
        }
      ],
      "stateMutability": "view",
      "type": "function"
    },
    {
      "inputs": [],
      "name": "RepaymentPeriod",
      "outputs": [
        {
          "internalType": "uint256",
          "name": "",
          "type": "uint256"
        }
      ],
      "stateMutability": "view",
      "type": "function"
    },
    {
      "inputs": [],
      "name": "State",
      "outputs": [
        {
          "internalType": "enum DecentraLoan.StateType",
          "name": "",
          "type": "uint8"
        }
      ],
      "stateMutability": "view",
      "type": "function"
    },
    {
      "stateMutability": "payable",
      "type": "receive"
    },
    {
      "inputs": [
        {
          "internalType": "address",
          "name": "user",
          "type": "address"
        },
        {
          "internalType": "uint256",
          "name": "offerAmount",
          "type": "uint256"
        },
        {
          "internalType": "uint256",
          "name": "offerInterestRate",
          "type": "uint256"
        },
        {
          "internalType": "uint256",
          "name": "offerRepaymentPeriod",
          "type": "uint256"
        }
      ],
      "name": "MakeOffer",
      "outputs": [],
      "stateMutability": "nonpayable",
      "type": "function"
    },
    {
      "inputs": [
        {
          "internalType": "address",
          "name": "user",
          "type": "address"
        }
      ],
      "name": "ConfirmLenderOffer",
      "outputs": [],
      "stateMutability": "nonpayable",
      "type": "function"
    },
    {
      "inputs": [
        {
          "internalType": "address",
          "name": "user",
          "type": "address"
        },
        {
          "internalType": "uint256",
          "name": "amount",
          "type": "uint256"
        },
        {
          "internalType": "uint256",
          "name": "interest",
          "type": "uint256"
        },
        {
          "internalType": "uint256",
          "name": "repayment_period",
          "type": "uint256"
        }
      ],
      "name": "Modify",
      "outputs": [],
      "stateMutability": "nonpayable",
      "type": "function"
    },
    {
      "inputs": [
        {
          "internalType": "address",
          "name": "user",
          "type": "address"
        }
      ],
      "name": "AcceptOffer",
      "outputs": [],
      "stateMutability": "nonpayable",
      "type": "function"
    },
    {
      "inputs": [
        {
          "internalType": "address",
          "name": "user",
          "type": "address"
        }
      ],
      "name": "RejectOffer",
      "outputs": [],
      "stateMutability": "nonpayable",
      "type": "function"
    },
    {
      "inputs": [
        {
          "internalType": "address",
          "name": "user",
          "type": "address"
        },
        {
          "internalType": "address",
          "name": "receiver",
          "type": "address"
        },
        {
          "internalType": "uint256",
          "name": "paymentNumber",
          "type": "uint256"
        },
        {
          "internalType": "uint256",
          "name": "amount",
          "type": "uint256"
        },
        {
          "internalType": "string",
          "name": "evidence",
          "type": "string"
        }
      ],
      "name": "EmitPayment",
      "outputs": [],
      "stateMutability": "nonpayable",
      "type": "function"
    },
    {
      "inputs": [
        {
          "internalType": "address",
          "name": "user",
          "type": "address"
        },
        {
          "internalType": "uint256",
          "name": "paymentNumber",
          "type": "uint256"
        }
      ],
      "name": "ValidateEvidence",
      "outputs": [],
      "stateMutability": "payable",
      "type": "function"
    },
    {
      "inputs": [],
      "name": "Info",
      "outputs": [
        {
          "internalType": "address",
          "name": "",
          "type": "address"
        },
        {
          "internalType": "address",
          "name": "",
          "type": "address"
        },
        {
          "internalType": "uint256",
          "name": "",
          "type": "uint256"
        },
        {
          "internalType": "uint256",
          "name": "",
          "type": "uint256"
        },
        {
          "internalType": "uint256",
          "name": "",
          "type": "uint256"
        },
        {
          "internalType": "uint256",
          "name": "",
          "type": "uint256"
        },
        {
          "internalType": "enum DecentraLoan.StateType",
          "name": "",
          "type": "uint8"
        }
      ],
      "stateMutability": "view",
      "type": "function"
    }
  ],
  "bytecode": "0x60806040523480156200001157600080fd5b5060405162001d9638038062001d96833981810160405281019062000037919062000158565b83600160006101000a81548173ffffffffffffffffffffffffffffffffffffffff021916908373ffffffffffffffffffffffffffffffffffffffff160217905550826002819055508160038190555080600481905550846000806101000a81548173ffffffffffffffffffffffffffffffffffffffff021916908373ffffffffffffffffffffffffffffffffffffffff1602179055506000600960006101000a81548160ff021916908360078111156200011a577f4e487b7100000000000000000000000000000000000000000000000000000000600052602160045260246000fd5b021790555050505050506200024c565b6000815190506200013b8162000218565b92915050565b600081519050620001528162000232565b92915050565b600080600080600060a086880312156200017157600080fd5b600062000181888289016200012a565b955050602062000194888289016200012a565b9450506040620001a78882890162000141565b9350506060620001ba8882890162000141565b9250506080620001cd8882890162000141565b9150509295509295909350565b6000620001e782620001ee565b9050919050565b600073ffffffffffffffffffffffffffffffffffffffff82169050919050565b6000819050919050565b6200022381620001da565b81146200022f57600080fd5b50565b6200023d816200020e565b81146200024957600080fd5b50565b611b3a806200025c6000396000f3fe60806040526004361061010d5760003560e01c80635f13f68911610095578063e3fc1c1911610064578063e3fc1c191461037f578063eca2dbb2146103aa578063ecf83352146103d3578063f1b6dccd146103fc578063ff1871ea146104275761014d565b80635f13f689146102d7578063ad099d6f14610300578063ad4829b01461032b578063b56cb8eb146103545761014d565b80631db9504e116100dc5780631db9504e146101fc5780633cd4730c146102255780634012e02e146102505780634097f3681461028157806348dc0b6e146102ac5761014d565b80630372a77c146101525780630cda162d1461017b5780630ef67887146101a65780631b1917b3146101d15761014d565b3661014d577f88a5966d370b9919b20f3e2c13ff65706f196a4e32cc2c12bf57088f885258743334604051610143929190611870565b60405180910390a1005b600080fd5b34801561015e57600080fd5b5061017960048036038101906101749190611662565b610443565b005b34801561018757600080fd5b506101906105d5565b60405161019d91906117e6565b60405180910390f35b3480156101b257600080fd5b506101bb6105fb565b6040516101c891906118b4565b60405180910390f35b3480156101dd57600080fd5b506101e6610601565b6040516101f391906118b4565b60405180910390f35b34801561020857600080fd5b50610223600480360381019061021e919061168b565b610607565b005b34801561023157600080fd5b5061023a6109a0565b60405161024791906118b4565b60405180910390f35b34801561025c57600080fd5b506102656109a6565b6040516102789796959493929190611801565b60405180910390f35b34801561028d57600080fd5b50610296610a2a565b6040516102a391906117e6565b60405180910390f35b3480156102b857600080fd5b506102c1610a50565b6040516102ce91906118b4565b60405180910390f35b3480156102e357600080fd5b506102fe60048036038101906102f99190611662565b610a56565b005b34801561030c57600080fd5b50610315610c82565b60405161032291906118b4565b60405180910390f35b34801561033757600080fd5b50610352600480360381019061034d9190611756565b610c88565b005b34801561036057600080fd5b50610369610fd3565b60405161037691906118b4565b60405180910390f35b34801561038b57600080fd5b50610394610fd9565b6040516103a191906118b4565b60405180910390f35b3480156103b657600080fd5b506103d160048036038101906103cc9190611756565b610fdf565b005b3480156103df57600080fd5b506103fa60048036038101906103f59190611662565b611138565b005b34801561040857600080fd5b506104116112ca565b60405161041e9190611899565b60405180910390f35b610441600480360381019061043c919061171a565b6112dd565b005b60008054906101000a900473ffffffffffffffffffffffffffffffffffffffff1673ffffffffffffffffffffffffffffffffffffffff163373ffffffffffffffffffffffffffffffffffffffff161461049b57600080fd5b600560009054906101000a900473ffffffffffffffffffffffffffffffffffffffff1673ffffffffffffffffffffffffffffffffffffffff168173ffffffffffffffffffffffffffffffffffffffff16146104f557600080fd5b6002600781111561052f577f4e487b7100000000000000000000000000000000000000000000000000000000600052602160045260246000fd5b600960009054906101000a900460ff166007811115610577577f4e487b7100000000000000000000000000000000000000000000000000000000600052602160045260246000fd5b1461058157600080fd5b6003600960006101000a81548160ff021916908360078111156105cd577f4e487b7100000000000000000000000000000000000000000000000000000000600052602160045260246000fd5b021790555050565b600560009054906101000a900473ffffffffffffffffffffffffffffffffffffffff1681565b600b5481565b60045481565b60008054906101000a900473ffffffffffffffffffffffffffffffffffffffff1673ffffffffffffffffffffffffffffffffffffffff163373ffffffffffffffffffffffffffffffffffffffff161461065f57600080fd5b600160009054906101000a900473ffffffffffffffffffffffffffffffffffffffff1673ffffffffffffffffffffffffffffffffffffffff168573ffffffffffffffffffffffffffffffffffffffff161480156107095750600560009054906101000a900473ffffffffffffffffffffffffffffffffffffffff1673ffffffffffffffffffffffffffffffffffffffff168473ffffffffffffffffffffffffffffffffffffffff16145b806107ba5750600560009054906101000a900473ffffffffffffffffffffffffffffffffffffffff1673ffffffffffffffffffffffffffffffffffffffff168573ffffffffffffffffffffffffffffffffffffffff161480156107b95750600160009054906101000a900473ffffffffffffffffffffffffffffffffffffffff1673ffffffffffffffffffffffffffffffffffffffff168473ffffffffffffffffffffffffffffffffffffffff16145b5b6107c357600080fd5b600460078111156107fd577f4e487b7100000000000000000000000000000000000000000000000000000000600052602160045260246000fd5b600960009054906101000a900460ff166007811115610845577f4e487b7100000000000000000000000000000000000000000000000000000000600052602160045260246000fd5b1461084f57600080fd5b600082141561085d57600080fd5b81600b5461086b9190611930565b600b819055506040518060400160405280828152602001600060028111156108bc577f4e487b7100000000000000000000000000000000000000000000000000000000600052602160045260246000fd5b815250600a600085815260200190815260200160002060008201518160000190805190602001906108ee92919061152d565b5060208201518160010160006101000a81548160ff02191690836002811115610940577f4e487b7100000000000000000000000000000000000000000000000000000000600052602160045260246000fd5b02179055509050506005600960006101000a81548160ff02191690836007811115610994577f4e487b7100000000000000000000000000000000000000000000000000000000600052602160045260246000fd5b02179055505050505050565b60025481565b6000806000806000806000600160009054906101000a900473ffffffffffffffffffffffffffffffffffffffff16600560009054906101000a900473ffffffffffffffffffffffffffffffffffffffff16600254600b54600354600454600960009054906101000a900460ff16965096509650965096509650965090919293949596565b600160009054906101000a900473ffffffffffffffffffffffffffffffffffffffff1681565b60035481565b60008054906101000a900473ffffffffffffffffffffffffffffffffffffffff1673ffffffffffffffffffffffffffffffffffffffff163373ffffffffffffffffffffffffffffffffffffffff1614610aae57600080fd5b600160009054906101000a900473ffffffffffffffffffffffffffffffffffffffff1673ffffffffffffffffffffffffffffffffffffffff168173ffffffffffffffffffffffffffffffffffffffff161480610b575750600560009054906101000a900473ffffffffffffffffffffffffffffffffffffffff1673ffffffffffffffffffffffffffffffffffffffff168173ffffffffffffffffffffffffffffffffffffffff16145b610b6057600080fd5b60016007811115610b9a577f4e487b7100000000000000000000000000000000000000000000000000000000600052602160045260246000fd5b600960009054906101000a900460ff166007811115610be2577f4e487b7100000000000000000000000000000000000000000000000000000000600052602160045260246000fd5b14610bec57600080fd5b6000600560006101000a81548173ffffffffffffffffffffffffffffffffffffffff021916908373ffffffffffffffffffffffffffffffffffffffff1602179055506000600960006101000a81548160ff02191690836007811115610c7a577f4e487b7100000000000000000000000000000000000000000000000000000000600052602160045260246000fd5b021790555050565b60075481565b60008054906101000a900473ffffffffffffffffffffffffffffffffffffffff1673ffffffffffffffffffffffffffffffffffffffff163373ffffffffffffffffffffffffffffffffffffffff1614610ce057600080fd5b600160009054906101000a900473ffffffffffffffffffffffffffffffffffffffff1673ffffffffffffffffffffffffffffffffffffffff168473ffffffffffffffffffffffffffffffffffffffff161480610d895750600560009054906101000a900473ffffffffffffffffffffffffffffffffffffffff1673ffffffffffffffffffffffffffffffffffffffff168473ffffffffffffffffffffffffffffffffffffffff16145b610d9257600080fd5b60008314158015610da4575060008114155b8015610db1575060008214155b610dba57600080fd5b60006007811115610df4577f4e487b7100000000000000000000000000000000000000000000000000000000600052602160045260246000fd5b600960009054906101000a900460ff166007811115610e3c577f4e487b7100000000000000000000000000000000000000000000000000000000600052602160045260246000fd5b1480610ec7575060016007811115610e7d577f4e487b7100000000000000000000000000000000000000000000000000000000600052602160045260246000fd5b600960009054906101000a900460ff166007811115610ec5577f4e487b7100000000000000000000000000000000000000000000000000000000600052602160045260246000fd5b145b610ed057600080fd5b600160009054906101000a900473ffffffffffffffffffffffffffffffffffffffff1673ffffffffffffffffffffffffffffffffffffffff168473ffffffffffffffffffffffffffffffffffffffff1614610f675783600560006101000a81548173ffffffffffffffffffffffffffffffffffffffff021916908373ffffffffffffffffffffffffffffffffffffffff1602179055505b8260068190555081600781905550806008819055506001600960006101000a81548160ff02191690836007811115610fc8577f4e487b7100000000000000000000000000000000000000000000000000000000600052602160045260246000fd5b021790555050505050565b60065481565b60085481565b60008054906101000a900473ffffffffffffffffffffffffffffffffffffffff1673ffffffffffffffffffffffffffffffffffffffff163373ffffffffffffffffffffffffffffffffffffffff161461103757600080fd5b600160009054906101000a900473ffffffffffffffffffffffffffffffffffffffff1673ffffffffffffffffffffffffffffffffffffffff168473ffffffffffffffffffffffffffffffffffffffff161461109157600080fd5b600060078111156110cb577f4e487b7100000000000000000000000000000000000000000000000000000000600052602160045260246000fd5b600960009054906101000a900460ff166007811115611113577f4e487b7100000000000000000000000000000000000000000000000000000000600052602160045260246000fd5b1461111d57600080fd5b82600281905550816003819055508060048190555050505050565b60008054906101000a900473ffffffffffffffffffffffffffffffffffffffff1673ffffffffffffffffffffffffffffffffffffffff163373ffffffffffffffffffffffffffffffffffffffff161461119057600080fd5b600160009054906101000a900473ffffffffffffffffffffffffffffffffffffffff1673ffffffffffffffffffffffffffffffffffffffff168173ffffffffffffffffffffffffffffffffffffffff16146111ea57600080fd5b60016007811115611224577f4e487b7100000000000000000000000000000000000000000000000000000000600052602160045260246000fd5b600960009054906101000a900460ff16600781111561126c577f4e487b7100000000000000000000000000000000000000000000000000000000600052602160045260246000fd5b1461127657600080fd5b6002600960006101000a81548160ff021916908360078111156112c2577f4e487b7100000000000000000000000000000000000000000000000000000000600052602160045260246000fd5b021790555050565b600960009054906101000a900460ff1681565b60008054906101000a900473ffffffffffffffffffffffffffffffffffffffff1673ffffffffffffffffffffffffffffffffffffffff163373ffffffffffffffffffffffffffffffffffffffff161461133557600080fd5b600560009054906101000a900473ffffffffffffffffffffffffffffffffffffffff1673ffffffffffffffffffffffffffffffffffffffff168273ffffffffffffffffffffffffffffffffffffffff1614806113de5750600160009054906101000a900473ffffffffffffffffffffffffffffffffffffffff1673ffffffffffffffffffffffffffffffffffffffff168273ffffffffffffffffffffffffffffffffffffffff16145b6113e757600080fd5b60056007811115611421577f4e487b7100000000000000000000000000000000000000000000000000000000600052602160045260246000fd5b600960009054906101000a900460ff166007811115611469577f4e487b7100000000000000000000000000000000000000000000000000000000600052602160045260246000fd5b1461147357600080fd5b6002600a600083815260200190815260200160002060010160006101000a81548160ff021916908360028111156114d3577f4e487b7100000000000000000000000000000000000000000000000000000000600052602160045260246000fd5b02179055506004600960006101000a81548160ff02191690836007811115611524577f4e487b7100000000000000000000000000000000000000000000000000000000600052602160045260246000fd5b02179055505050565b828054611539906119d4565b90600052602060002090601f01602090048101928261155b57600085556115a2565b82601f1061157457805160ff19168380011785556115a2565b828001600101855582156115a2579182015b828111156115a1578251825591602001919060010190611586565b5b5090506115af91906115b3565b5090565b5b808211156115cc5760008160009055506001016115b4565b5090565b60006115e36115de84611900565b6118cf565b9050828152602081018484840111156115fb57600080fd5b6116068482856119c5565b509392505050565b60008135905061161d81611ad6565b92915050565b600082601f83011261163457600080fd5b81356116448482602086016115d0565b91505092915050565b60008135905061165c81611aed565b92915050565b60006020828403121561167457600080fd5b60006116828482850161160e565b91505092915050565b600080600080600060a086880312156116a357600080fd5b60006116b18882890161160e565b95505060206116c28882890161160e565b94505060406116d38882890161164d565b93505060606116e48882890161164d565b925050608086013567ffffffffffffffff81111561170157600080fd5b61170d88828901611623565b9150509295509295909350565b6000806040838503121561172d57600080fd5b600061173b8582860161160e565b925050602061174c8582860161164d565b9150509250929050565b6000806000806080858703121561176c57600080fd5b600061177a8782880161160e565b945050602061178b8782880161164d565b935050604061179c8782880161164d565b92505060606117ad8782880161164d565b91505092959194509250565b6117c281611964565b82525050565b6117d1816119b3565b82525050565b6117e0816119a9565b82525050565b60006020820190506117fb60008301846117b9565b92915050565b600060e082019050611816600083018a6117b9565b61182360208301896117b9565b61183060408301886117d7565b61183d60608301876117d7565b61184a60808301866117d7565b61185760a08301856117d7565b61186460c08301846117c8565b98975050505050505050565b600060408201905061188560008301856117b9565b61189260208301846117d7565b9392505050565b60006020820190506118ae60008301846117c8565b92915050565b60006020820190506118c960008301846117d7565b92915050565b6000604051905081810181811067ffffffffffffffff821117156118f6576118f5611a93565b5b8060405250919050565b600067ffffffffffffffff82111561191b5761191a611a93565b5b601f19601f8301169050602081019050919050565b600061193b826119a9565b9150611946836119a9565b92508282101561195957611958611a06565b5b828203905092915050565b600061196f82611989565b9050919050565b600081905061198482611ac2565b919050565b600073ffffffffffffffffffffffffffffffffffffffff82169050919050565b6000819050919050565b60006119be82611976565b9050919050565b82818337600083830152505050565b600060028204905060018216806119ec57607f821691505b60208210811415611a00576119ff611a64565b5b50919050565b7f4e487b7100000000000000000000000000000000000000000000000000000000600052601160045260246000fd5b7f4e487b7100000000000000000000000000000000000000000000000000000000600052602160045260246000fd5b7f4e487b7100000000000000000000000000000000000000000000000000000000600052602260045260246000fd5b7f4e487b7100000000000000000000000000000000000000000000000000000000600052604160045260246000fd5b60088110611ad357611ad2611a35565b5b50565b611adf81611964565b8114611aea57600080fd5b50565b611af6816119a9565b8114611b0157600080fd5b5056fea2646970667358221220265fc0be0b1e95034c864eaf18e853bd8614bce20d318195b975b9c49ef28e6464736f6c63430008000033",
  "immutableReferences": {},
  "source": "// SPDX-License-Identifier: MIT\r\npragma solidity ^0.8.0;\r\n\r\ncontract DecentraLoan {\r\n    enum StateType {\r\n        Available,\r\n        OfferPlaced,\r\n        LenderAccepted,\r\n        Confirmed,\r\n        Active,\r\n        AwaitingValidation,\r\n        Delinquent,\r\n        Terminated\r\n    }\r\n\r\n    enum EvidenceStatus {Unverified, Invalid, Valid}\r\n\r\n    struct Evidence {\r\n        string transactionHash;\r\n        EvidenceStatus evidenceStatus;\r\n    }\r\n\r\n    // contract owner (who pays for the gas fees..)\r\n    address _owner;\r\n\r\n    // lender specific variables\r\n    address public Lender;\r\n    uint256 public LoanAmount;\r\n    uint256 public InterestRate;\r\n    uint256 public RepaymentPeriod;\r\n\r\n    // borrower specific variables\r\n    address public Borrower;\r\n    uint256 public OfferAmout;\r\n    uint256 public OfferInterestRate;\r\n    uint256 public OfferRepaymentPeriod;\r\n\r\n    // loan contract specific variables\r\n    StateType public State;\r\n    mapping(uint256 => Evidence) evidences;\r\n    uint256 public Balance;\r\n\r\n    // contract constructor [factory]\r\n    constructor(\r\n        address owner,\r\n        address lender,\r\n        uint256 amount,\r\n        uint256 interest,\r\n        uint256 repayment_period\r\n    ) {\r\n        Lender = lender;\r\n        LoanAmount = amount;\r\n        InterestRate = interest;\r\n        RepaymentPeriod = repayment_period;\r\n\r\n        _owner = owner; // set owner to custom address\r\n\r\n        State = StateType.Available;\r\n    }\r\n\r\n    // make offer with different terms [lender|borrower]\r\n    function MakeOffer(\r\n        address user,\r\n        uint256 offerAmount,\r\n        uint256 offerInterestRate,\r\n        uint256 offerRepaymentPeriod\r\n    ) public {\r\n        require(msg.sender == _owner);\r\n        require(user == Lender || user == Borrower);\r\n        require(\r\n            offerAmount != 0 &&\r\n                offerRepaymentPeriod != 0 &&\r\n                offerInterestRate != 0\r\n        );\r\n        require(State == StateType.Available || State == StateType.OfferPlaced);\r\n\r\n        if (user != Lender) {\r\n            Borrower = user;\r\n        }\r\n\r\n        OfferAmout = offerAmount;\r\n        OfferInterestRate = offerInterestRate;\r\n        OfferRepaymentPeriod = offerRepaymentPeriod;\r\n\r\n        State = StateType.OfferPlaced;\r\n    }\r\n\r\n    // modify offer that was already submitted, but not accepted [lender|borrower]\r\n    // This function is not necessary, removed for now..\r\n    // function ModifyOffer(\r\n    //     address user,\r\n    //     uint256 offerAmount,\r\n    //     uint256 offerInterestRate,\r\n    //     uint256 offerRepaymentPeriod\r\n    // ) public {\r\n    //     require(msg.sender == _owner);\r\n    //     require(user == Borrower || user == Lender);\r\n    //     require(State == StateType.OfferPlaced);\r\n    //     require(\r\n    //         offerAmount != 0 &&\r\n    //             offerRepaymentPeriod != 0 &&\r\n    //             offerInterestRate != 0\r\n    //     );\r\n\r\n    //     OfferAmout = offerAmount;\r\n    //     OfferInterestRate = offerInterestRate;\r\n    //     OfferRepaymentPeriod = offerRepaymentPeriod;\r\n    // }\r\n\r\n    // confirm lender offer [borrower]\r\n    function ConfirmLenderOffer(address user) public {\r\n        require(msg.sender == _owner);\r\n        require(user == Borrower);\r\n        require(State == StateType.LenderAccepted);\r\n\r\n        // set state to confirmed (not active yet)\r\n        State = StateType.Confirmed;\r\n    }\r\n\r\n    // modify available (non-active) contract [lender]\r\n    function Modify(\r\n        address user,\r\n        uint256 amount,\r\n        uint256 interest,\r\n        uint256 repayment_period\r\n    ) public {\r\n        require(msg.sender == _owner);\r\n        require(user == Lender);\r\n        require(State == StateType.Available);\r\n\r\n        LoanAmount = amount;\r\n        InterestRate = interest;\r\n        RepaymentPeriod = repayment_period;\r\n    }\r\n\r\n    // accept borrower offer [lender]\r\n    function AcceptOffer(address user) public {\r\n        require(msg.sender == _owner);\r\n        require(user == Lender);\r\n        require(State == StateType.OfferPlaced);\r\n\r\n        State = StateType.LenderAccepted;\r\n    }\r\n\r\n    // reject offer [lender|borrower]\r\n    function RejectOffer(address user) public {\r\n        require(msg.sender == _owner);\r\n        require(user == Lender || user == Borrower);\r\n        require(State == StateType.OfferPlaced);\r\n\r\n        Borrower = 0x0000000000000000000000000000000000000000;\r\n        State = StateType.Available;\r\n    }\r\n\r\n    // emits payment with required evidence attached [lender|borrower]\r\n    function EmitPayment(\r\n        address user,\r\n        address receiver,\r\n        uint256 paymentNumber,\r\n        uint256 amount,\r\n        string memory evidence\r\n    ) public {\r\n        require(msg.sender == _owner);\r\n        require(\r\n            (user == Lender && receiver == Borrower) ||\r\n                (user == Borrower && receiver == Lender)\r\n        ); // require sender is borrower and receiver is lender or vice-versa\r\n        require(State == StateType.Active); // require that it is an active contract\r\n        require(amount != 0); // require payment amount is not 0\r\n\r\n        Balance = Balance - amount;\r\n\r\n        // send evidence for counterparty validation, initialy unverified\r\n        evidences[paymentNumber] = Evidence(\r\n            evidence,\r\n            EvidenceStatus.Unverified\r\n        );\r\n\r\n        State = StateType.AwaitingValidation; // set state to awaiting validation\r\n    }\r\n\r\n    function ValidateEvidence(address user, uint256 paymentNumber)\r\n        public\r\n        payable\r\n    {\r\n        require(msg.sender == _owner);\r\n        require(user == Borrower || user == Lender);\r\n        require(State == StateType.AwaitingValidation);\r\n\r\n        // validate from website, validation code is stored encrypted in the blockchain\r\n        // encryption is only lifted by having the decryption key that is server unique\r\n        // after some checks, validate...\r\n        evidences[paymentNumber].evidenceStatus = EvidenceStatus.Valid;\r\n\r\n        State = StateType.Active; // set loan state back to active\r\n    }\r\n\r\n    /**\r\n     * EVENTS\r\n     **/\r\n    event Received(address sender, uint256 amount);\r\n    event OfferPlaced(\r\n        address sender,\r\n        uint256 offerAmount,\r\n        uint256 offerInterestRate,\r\n        uint256 offerRepaymentPeriod\r\n    );\r\n    event OfferAccepted(address sender);\r\n    event OfferRejected(address sender);\r\n    event PaymentEmitted(\r\n        address sender,\r\n        address receiver,\r\n        uint256 amount,\r\n        uint256 paymentNumber,\r\n        Evidence evidence\r\n    );\r\n    event PaymentValidated(address sender, address receiver, Evidence evidence);\r\n\r\n    // Receive any ethereum randomly sent to the contract from outside\r\n    receive() external payable {\r\n        emit Received(msg.sender, msg.value);\r\n    }\r\n\r\n    // get tupple with information about current contract\r\n    function Info()\r\n        public\r\n        view\r\n        returns (\r\n            address,\r\n            address,\r\n            uint256,\r\n            uint256,\r\n            uint256,\r\n            uint256,\r\n            StateType\r\n        )\r\n    {\r\n        return (Lender, Borrower, LoanAmount, Balance, InterestRate, RepaymentPeriod, State);\r\n    }\r\n}\r\n",
  "sourcePath": "C:/Users/abdie/Documents/Developer/Python/Web3_Ganache_ENV1/contracts/DecentraLoan.sol",
  "compiler": {
    "name": "solc",
    "version": "0.8.0+commit.c7dfd78e.Emscripten.clang"
  },
  "schemaVersion": "3.3.3",
  "updatedAt": "2021-02-19T21:06:42.944Z",
  "devdoc": {
    "kind": "dev",
    "methods": {},
    "version": 1
  },
  "userdoc": {
    "events": {
      "Received(address,uint256)": {
        "notice": "EVENTS*"
      }
    },
    "kind": "user",
    "methods": {},
    "version": 1
  }
}