{
  "contractName": "DecentraLoan",
  "abi": [
    {
      "inputs": [
        {
          "internalType": "address",
          "name": "owner",
          "type": "address"
        },
        {
          "internalType": "address",
          "name": "lender",
          "type": "address"
        },
        {
          "internalType": "uint256",
          "name": "amount",
          "type": "uint256"
        },
        {
          "internalType": "uint256",
          "name": "interest",
          "type": "uint256"
        },
        {
          "internalType": "uint256",
          "name": "repaymentPeriod",
          "type": "uint256"
        }
      ],
      "stateMutability": "nonpayable",
      "type": "constructor"
    },
    {
      "anonymous": false,
      "inputs": [
        {
          "indexed": false,
          "internalType": "address",
          "name": "sender",
          "type": "address"
        }
      ],
      "name": "BorrowerConfirmed",
      "type": "event"
    },
    {
      "anonymous": false,
      "inputs": [
        {
          "indexed": false,
          "internalType": "address",
          "name": "lender",
          "type": "address"
        },
        {
          "indexed": false,
          "internalType": "uint256",
          "name": "amount",
          "type": "uint256"
        },
        {
          "indexed": false,
          "internalType": "uint256",
          "name": "interest",
          "type": "uint256"
        },
        {
          "indexed": false,
          "internalType": "uint256",
          "name": "repaymentPeriod",
          "type": "uint256"
        }
      ],
      "name": "Created",
      "type": "event"
    },
    {
      "anonymous": false,
      "inputs": [
        {
          "indexed": false,
          "internalType": "address",
          "name": "sender",
          "type": "address"
        },
        {
          "indexed": false,
          "internalType": "uint256",
          "name": "amount",
          "type": "uint256"
        },
        {
          "indexed": false,
          "internalType": "uint256",
          "name": "interest",
          "type": "uint256"
        },
        {
          "indexed": false,
          "internalType": "uint256",
          "name": "repaymentPeriod",
          "type": "uint256"
        }
      ],
      "name": "Modified",
      "type": "event"
    },
    {
      "anonymous": false,
      "inputs": [
        {
          "indexed": false,
          "internalType": "address",
          "name": "sender",
          "type": "address"
        }
      ],
      "name": "OfferAccepted",
      "type": "event"
    },
    {
      "anonymous": false,
      "inputs": [
        {
          "indexed": false,
          "internalType": "address",
          "name": "sender",
          "type": "address"
        },
        {
          "indexed": false,
          "internalType": "uint256",
          "name": "offerAmount",
          "type": "uint256"
        },
        {
          "indexed": false,
          "internalType": "uint256",
          "name": "offerInterestRate",
          "type": "uint256"
        },
        {
          "indexed": false,
          "internalType": "uint256",
          "name": "offerRepaymentPeriod",
          "type": "uint256"
        }
      ],
      "name": "OfferPlaced",
      "type": "event"
    },
    {
      "anonymous": false,
      "inputs": [
        {
          "indexed": false,
          "internalType": "address",
          "name": "sender",
          "type": "address"
        }
      ],
      "name": "OfferRejected",
      "type": "event"
    },
    {
      "anonymous": false,
      "inputs": [
        {
          "indexed": false,
          "internalType": "address",
          "name": "sender",
          "type": "address"
        },
        {
          "indexed": false,
          "internalType": "address",
          "name": "receiver",
          "type": "address"
        },
        {
          "indexed": false,
          "internalType": "uint256",
          "name": "amount",
          "type": "uint256"
        },
        {
          "indexed": false,
          "internalType": "uint256",
          "name": "paymentNumber",
          "type": "uint256"
        },
        {
          "components": [
            {
              "internalType": "address",
              "name": "sender",
              "type": "address"
            },
            {
              "internalType": "string",
              "name": "transactionHash",
              "type": "string"
            },
            {
              "internalType": "enum DecentraLoan.EvidenceStatus",
              "name": "evidenceStatus",
              "type": "uint8"
            }
          ],
          "indexed": false,
          "internalType": "struct DecentraLoan.Evidence",
          "name": "evidence",
          "type": "tuple"
        }
      ],
      "name": "PaymentSent",
      "type": "event"
    },
    {
      "anonymous": false,
      "inputs": [
        {
          "indexed": false,
          "internalType": "address",
          "name": "sender",
          "type": "address"
        },
        {
          "indexed": false,
          "internalType": "uint256",
          "name": "paymentNumber",
          "type": "uint256"
        },
        {
          "components": [
            {
              "internalType": "address",
              "name": "sender",
              "type": "address"
            },
            {
              "internalType": "string",
              "name": "transactionHash",
              "type": "string"
            },
            {
              "internalType": "enum DecentraLoan.EvidenceStatus",
              "name": "evidenceStatus",
              "type": "uint8"
            }
          ],
          "indexed": false,
          "internalType": "struct DecentraLoan.Evidence",
          "name": "evidence",
          "type": "tuple"
        }
      ],
      "name": "PaymentValidated",
      "type": "event"
    },
    {
      "anonymous": false,
      "inputs": [
        {
          "indexed": false,
          "internalType": "address",
          "name": "sender",
          "type": "address"
        },
        {
          "indexed": false,
          "internalType": "uint256",
          "name": "amount",
          "type": "uint256"
        }
      ],
      "name": "Received",
      "type": "event"
    },
    {
      "inputs": [],
      "name": "Balance",
      "outputs": [
        {
          "internalType": "uint256",
          "name": "",
          "type": "uint256"
        }
      ],
      "stateMutability": "view",
      "type": "function"
    },
    {
      "inputs": [],
      "name": "Borrower",
      "outputs": [
        {
          "internalType": "address",
          "name": "",
          "type": "address"
        }
      ],
      "stateMutability": "view",
      "type": "function"
    },
    {
      "inputs": [
        {
          "internalType": "uint256",
          "name": "",
          "type": "uint256"
        }
      ],
      "name": "Evidences",
      "outputs": [
        {
          "internalType": "address",
          "name": "sender",
          "type": "address"
        },
        {
          "internalType": "string",
          "name": "transactionHash",
          "type": "string"
        },
        {
          "internalType": "enum DecentraLoan.EvidenceStatus",
          "name": "evidenceStatus",
          "type": "uint8"
        }
      ],
      "stateMutability": "view",
      "type": "function"
    },
    {
      "inputs": [],
      "name": "InterestRate",
      "outputs": [
        {
          "internalType": "uint256",
          "name": "",
          "type": "uint256"
        }
      ],
      "stateMutability": "view",
      "type": "function"
    },
    {
      "inputs": [],
      "name": "Lender",
      "outputs": [
        {
          "internalType": "address",
          "name": "",
          "type": "address"
        }
      ],
      "stateMutability": "view",
      "type": "function"
    },
    {
      "inputs": [],
      "name": "LoanAmount",
      "outputs": [
        {
          "internalType": "uint256",
          "name": "",
          "type": "uint256"
        }
      ],
      "stateMutability": "view",
      "type": "function"
    },
    {
      "inputs": [],
      "name": "OfferAmout",
      "outputs": [
        {
          "internalType": "uint256",
          "name": "",
          "type": "uint256"
        }
      ],
      "stateMutability": "view",
      "type": "function"
    },
    {
      "inputs": [],
      "name": "OfferInterestRate",
      "outputs": [
        {
          "internalType": "uint256",
          "name": "",
          "type": "uint256"
        }
      ],
      "stateMutability": "view",
      "type": "function"
    },
    {
      "inputs": [],
      "name": "OfferRepaymentPeriod",
      "outputs": [
        {
          "internalType": "uint256",
          "name": "",
          "type": "uint256"
        }
      ],
      "stateMutability": "view",
      "type": "function"
    },
    {
      "inputs": [],
      "name": "PaymentNumber",
      "outputs": [
        {
          "internalType": "uint256",
          "name": "",
          "type": "uint256"
        }
      ],
      "stateMutability": "view",
      "type": "function"
    },
    {
      "inputs": [],
      "name": "RepaymentPeriod",
      "outputs": [
        {
          "internalType": "uint256",
          "name": "",
          "type": "uint256"
        }
      ],
      "stateMutability": "view",
      "type": "function"
    },
    {
      "inputs": [],
      "name": "State",
      "outputs": [
        {
          "internalType": "enum DecentraLoan.StateType",
          "name": "",
          "type": "uint8"
        }
      ],
      "stateMutability": "view",
      "type": "function"
    },
    {
      "inputs": [],
      "name": "_owner",
      "outputs": [
        {
          "internalType": "address",
          "name": "",
          "type": "address"
        }
      ],
      "stateMutability": "view",
      "type": "function"
    },
    {
      "stateMutability": "payable",
      "type": "receive"
    },
    {
      "inputs": [
        {
          "internalType": "address",
          "name": "user",
          "type": "address"
        },
        {
          "internalType": "uint256",
          "name": "offerAmount",
          "type": "uint256"
        },
        {
          "internalType": "uint256",
          "name": "offerInterestRate",
          "type": "uint256"
        },
        {
          "internalType": "uint256",
          "name": "offerRepaymentPeriod",
          "type": "uint256"
        }
      ],
      "name": "MakeOffer",
      "outputs": [],
      "stateMutability": "nonpayable",
      "type": "function"
    },
    {
      "inputs": [
        {
          "internalType": "address",
          "name": "user",
          "type": "address"
        }
      ],
      "name": "ConfirmLenderOffer",
      "outputs": [],
      "stateMutability": "nonpayable",
      "type": "function"
    },
    {
      "inputs": [
        {
          "internalType": "address",
          "name": "user",
          "type": "address"
        },
        {
          "internalType": "uint256",
          "name": "amount",
          "type": "uint256"
        },
        {
          "internalType": "uint256",
          "name": "interest",
          "type": "uint256"
        },
        {
          "internalType": "uint256",
          "name": "repaymentPeriod",
          "type": "uint256"
        }
      ],
      "name": "Modify",
      "outputs": [],
      "stateMutability": "nonpayable",
      "type": "function"
    },
    {
      "inputs": [
        {
          "internalType": "address",
          "name": "user",
          "type": "address"
        }
      ],
      "name": "AcceptOffer",
      "outputs": [],
      "stateMutability": "nonpayable",
      "type": "function"
    },
    {
      "inputs": [
        {
          "internalType": "address",
          "name": "user",
          "type": "address"
        }
      ],
      "name": "RejectOffer",
      "outputs": [],
      "stateMutability": "nonpayable",
      "type": "function"
    },
    {
      "inputs": [
        {
          "internalType": "address",
          "name": "user",
          "type": "address"
        },
        {
          "internalType": "address",
          "name": "receiver",
          "type": "address"
        },
        {
          "internalType": "uint256",
          "name": "paymentNumber",
          "type": "uint256"
        },
        {
          "internalType": "uint256",
          "name": "amount",
          "type": "uint256"
        },
        {
          "internalType": "string",
          "name": "evidence",
          "type": "string"
        }
      ],
      "name": "SendPayment",
      "outputs": [],
      "stateMutability": "nonpayable",
      "type": "function"
    },
    {
      "inputs": [
        {
          "internalType": "uint256",
          "name": "paymentNumber",
          "type": "uint256"
        }
      ],
      "name": "GetEvidence",
      "outputs": [
        {
          "components": [
            {
              "internalType": "address",
              "name": "sender",
              "type": "address"
            },
            {
              "internalType": "string",
              "name": "transactionHash",
              "type": "string"
            },
            {
              "internalType": "enum DecentraLoan.EvidenceStatus",
              "name": "evidenceStatus",
              "type": "uint8"
            }
          ],
          "internalType": "struct DecentraLoan.Evidence",
          "name": "",
          "type": "tuple"
        }
      ],
      "stateMutability": "view",
      "type": "function"
    },
    {
      "inputs": [
        {
          "internalType": "address",
          "name": "user",
          "type": "address"
        },
        {
          "internalType": "uint256",
          "name": "paymentNumber",
          "type": "uint256"
        }
      ],
      "name": "ValidateEvidence",
      "outputs": [],
      "stateMutability": "payable",
      "type": "function"
    },
    {
      "inputs": [],
      "name": "Info",
      "outputs": [
        {
          "internalType": "address",
          "name": "",
          "type": "address"
        },
        {
          "internalType": "address",
          "name": "",
          "type": "address"
        },
        {
          "internalType": "uint256",
          "name": "",
          "type": "uint256"
        },
        {
          "internalType": "uint256",
          "name": "",
          "type": "uint256"
        },
        {
          "internalType": "uint256",
          "name": "",
          "type": "uint256"
        },
        {
          "internalType": "uint256",
          "name": "",
          "type": "uint256"
        },
        {
          "internalType": "enum DecentraLoan.StateType",
          "name": "",
          "type": "uint8"
        }
      ],
      "stateMutability": "view",
      "type": "function"
    }
  ],
  "bytecode": "0x60806040523480156200001157600080fd5b5060405162002a5838038062002a5883398181016040528101906200003791906200019f565b83600160006101000a81548173ffffffffffffffffffffffffffffffffffffffff021916908373ffffffffffffffffffffffffffffffffffffffff160217905550826002819055508160038190555080600481905550846000806101000a81548173ffffffffffffffffffffffffffffffffffffffff021916908373ffffffffffffffffffffffffffffffffffffffff1602179055506000600960006101000a81548160ff021916908360078111156200011a577f4e487b7100000000000000000000000000000000000000000000000000000000600052602160045260246000fd5b02179055506000600c819055507f99a12a7aefbbb67909c2bee4a5e2ddb98b2183b8ae2a59e5a7db47f53453345d848484846040516200015e949392919062000243565b60405180910390a1505050505062000302565b6000815190506200018281620002ce565b92915050565b6000815190506200019981620002e8565b92915050565b600080600080600060a08688031215620001b857600080fd5b6000620001c88882890162000171565b9550506020620001db8882890162000171565b9450506040620001ee8882890162000188565b9350506060620002018882890162000188565b9250506080620002148882890162000188565b9150509295509295909350565b6200022c8162000290565b82525050565b6200023d81620002c4565b82525050565b60006080820190506200025a600083018762000221565b62000269602083018662000232565b62000278604083018562000232565b62000287606083018462000232565b95945050505050565b60006200029d82620002a4565b9050919050565b600073ffffffffffffffffffffffffffffffffffffffff82169050919050565b6000819050919050565b620002d98162000290565b8114620002e557600080fd5b50565b620002f381620002c4565b8114620002ff57600080fd5b50565b61274680620003126000396000f3fe6080604052600436106101395760003560e01c806363307f10116100ab578063e1db80611161006f578063e1db80611461043e578063e3fc1c191461047d578063eca2dbb2146104a8578063ecf83352146104d1578063f1b6dccd146104fa578063ff1871ea1461052557610179565b806363307f101461036b578063ad099d6f14610394578063ad4829b0146103bf578063b2bdfa7b146103e8578063b56cb8eb1461041357610179565b80633cd4730c116100fd5780633cd4730c146102535780634012e02e1461027e5780634097f368146102af57806348dc0b6e146102da5780635677640b146103055780635f13f6891461034257610179565b806302b89ffc1461017e5780630372a77c146101a95780630cda162d146101d25780630ef67887146101fd5780631b1917b31461022857610179565b36610179577f88a5966d370b9919b20f3e2c13ff65706f196a4e32cc2c12bf57088f88525874333460405161016f9291906122aa565b60405180910390a1005b600080fd5b34801561018a57600080fd5b50610193610541565b6040516101a09190612393565b60405180910390f35b3480156101b557600080fd5b506101d060048036038101906101cb9190611e05565b610547565b005b3480156101de57600080fd5b506101e7610732565b6040516101f49190612188565b60405180910390f35b34801561020957600080fd5b50610212610758565b60405161021f9190612393565b60405180910390f35b34801561023457600080fd5b5061023d61075e565b60405161024a9190612393565b60405180910390f35b34801561025f57600080fd5b50610268610764565b6040516102759190612393565b60405180910390f35b34801561028a57600080fd5b5061029361076a565b6040516102a697969594939291906121fd565b60405180910390f35b3480156102bb57600080fd5b506102c46107ee565b6040516102d19190612188565b60405180910390f35b3480156102e657600080fd5b506102ef610814565b6040516102fc9190612393565b60405180910390f35b34801561031157600080fd5b5061032c60048036038101906103279190611f5c565b61081a565b6040516103399190612371565b60405180910390f35b34801561034e57600080fd5b5061036960048036038101906103649190611e05565b6109c5565b005b34801561037757600080fd5b50610392600480360381019061038d9190611e2e565b610c28565b005b3480156103a057600080fd5b506103a9611075565b6040516103b69190612393565b60405180910390f35b3480156103cb57600080fd5b506103e660048036038101906103e19190611ef9565b61107b565b005b3480156103f457600080fd5b506103fd611403565b60405161040a9190612188565b60405180910390f35b34801561041f57600080fd5b50610428611427565b6040516104359190612393565b60405180910390f35b34801561044a57600080fd5b5061046560048036038101906104609190611f5c565b61142d565b6040516104749392919061226c565b60405180910390f35b34801561048957600080fd5b5061049261150c565b60405161049f9190612393565b60405180910390f35b3480156104b457600080fd5b506104cf60048036038101906104ca9190611ef9565b611512565b005b3480156104dd57600080fd5b506104f860048036038101906104f39190611e05565b6116ca565b005b34801561050657600080fd5b5061050f611893565b60405161051c9190612356565b60405180910390f35b61053f600480360381019061053a9190611ebd565b6118a6565b005b600c5481565b60008054906101000a900473ffffffffffffffffffffffffffffffffffffffff1673ffffffffffffffffffffffffffffffffffffffff163373ffffffffffffffffffffffffffffffffffffffff161461059f57600080fd5b600560009054906101000a900473ffffffffffffffffffffffffffffffffffffffff1673ffffffffffffffffffffffffffffffffffffffff168173ffffffffffffffffffffffffffffffffffffffff16146105f957600080fd5b60026007811115610633577f4e487b7100000000000000000000000000000000000000000000000000000000600052602160045260246000fd5b600960009054906101000a900460ff16600781111561067b577f4e487b7100000000000000000000000000000000000000000000000000000000600052602160045260246000fd5b1461068557600080fd5b6003600960006101000a81548160ff021916908360078111156106d1577f4e487b7100000000000000000000000000000000000000000000000000000000600052602160045260246000fd5b02179055507fcc19dffbfb36e5ea9fc3e267d1daaa98e0b249dcef22165151c04023c3b05c8f600560009054906101000a900473ffffffffffffffffffffffffffffffffffffffff166040516107279190612188565b60405180910390a150565b600560009054906101000a900473ffffffffffffffffffffffffffffffffffffffff1681565b600b5481565b60045481565b60025481565b6000806000806000806000600160009054906101000a900473ffffffffffffffffffffffffffffffffffffffff16600560009054906101000a900473ffffffffffffffffffffffffffffffffffffffff16600254600b54600354600454600960009054906101000a900460ff16965096509650965096509650965090919293949596565b600160009054906101000a900473ffffffffffffffffffffffffffffffffffffffff1681565b60035481565b610822611c61565b600c5482111561083157600080fd5b600a60008381526020019081526020016000206040518060600160405290816000820160009054906101000a900473ffffffffffffffffffffffffffffffffffffffff1673ffffffffffffffffffffffffffffffffffffffff1673ffffffffffffffffffffffffffffffffffffffff1681526020016001820180546108b59061257a565b80601f01602080910402602001604051908101604052809291908181526020018280546108e19061257a565b801561092e5780601f106109035761010080835404028352916020019161092e565b820191906000526020600020905b81548152906001019060200180831161091157829003601f168201915b505050505081526020016002820160009054906101000a900460ff166002811115610982577f4e487b7100000000000000000000000000000000000000000000000000000000600052602160045260246000fd5b60028111156109ba577f4e487b7100000000000000000000000000000000000000000000000000000000600052602160045260246000fd5b815250509050919050565b60008054906101000a900473ffffffffffffffffffffffffffffffffffffffff1673ffffffffffffffffffffffffffffffffffffffff163373ffffffffffffffffffffffffffffffffffffffff1614610a1d57600080fd5b600160009054906101000a900473ffffffffffffffffffffffffffffffffffffffff1673ffffffffffffffffffffffffffffffffffffffff168173ffffffffffffffffffffffffffffffffffffffff161480610ac65750600560009054906101000a900473ffffffffffffffffffffffffffffffffffffffff1673ffffffffffffffffffffffffffffffffffffffff168173ffffffffffffffffffffffffffffffffffffffff16145b610acf57600080fd5b60016007811115610b09577f4e487b7100000000000000000000000000000000000000000000000000000000600052602160045260246000fd5b600960009054906101000a900460ff166007811115610b51577f4e487b7100000000000000000000000000000000000000000000000000000000600052602160045260246000fd5b14610b5b57600080fd5b6000600560006101000a81548173ffffffffffffffffffffffffffffffffffffffff021916908373ffffffffffffffffffffffffffffffffffffffff1602179055506000600960006101000a81548160ff02191690836007811115610be9577f4e487b7100000000000000000000000000000000000000000000000000000000600052602160045260246000fd5b02179055507fe0c1a48d34b111953dfef62f5393cdffdd14cb7eeabd62b10f481c12358d625681604051610c1d9190612188565b60405180910390a150565b60008054906101000a900473ffffffffffffffffffffffffffffffffffffffff1673ffffffffffffffffffffffffffffffffffffffff163373ffffffffffffffffffffffffffffffffffffffff1614610c8057600080fd5b600160009054906101000a900473ffffffffffffffffffffffffffffffffffffffff1673ffffffffffffffffffffffffffffffffffffffff168573ffffffffffffffffffffffffffffffffffffffff16148015610d2a5750600560009054906101000a900473ffffffffffffffffffffffffffffffffffffffff1673ffffffffffffffffffffffffffffffffffffffff168473ffffffffffffffffffffffffffffffffffffffff16145b80610ddb5750600560009054906101000a900473ffffffffffffffffffffffffffffffffffffffff1673ffffffffffffffffffffffffffffffffffffffff168573ffffffffffffffffffffffffffffffffffffffff16148015610dda5750600160009054906101000a900473ffffffffffffffffffffffffffffffffffffffff1673ffffffffffffffffffffffffffffffffffffffff168473ffffffffffffffffffffffffffffffffffffffff16145b5b610de457600080fd5b60046007811115610e1e577f4e487b7100000000000000000000000000000000000000000000000000000000600052602160045260246000fd5b600960009054906101000a900460ff166007811115610e66577f4e487b7100000000000000000000000000000000000000000000000000000000600052602160045260246000fd5b14610e7057600080fd5b6000821415610e7e57600080fd5b81600b54610e8c9190612451565b600b8190555060405180606001604052808673ffffffffffffffffffffffffffffffffffffffff16815260200182815260200160006002811115610ef9577f4e487b7100000000000000000000000000000000000000000000000000000000600052602160045260246000fd5b815250600a600085815260200190815260200160002060008201518160000160006101000a81548173ffffffffffffffffffffffffffffffffffffffff021916908373ffffffffffffffffffffffffffffffffffffffff1602179055506020820151816001019080519060200190610f72929190611cd0565b5060408201518160020160006101000a81548160ff02191690836002811115610fc4577f4e487b7100000000000000000000000000000000000000000000000000000000600052602160045260246000fd5b02179055509050506005600960006101000a81548160ff02191690836007811115611018577f4e487b7100000000000000000000000000000000000000000000000000000000600052602160045260246000fd5b02179055507f9a19828c5f8e4877bfa36088f3a65b819277388ba69a37e582413c4716529db585858486600a60008981526020019081526020016000206040516110669594939291906121a3565b60405180910390a15050505050565b60075481565b60008054906101000a900473ffffffffffffffffffffffffffffffffffffffff1673ffffffffffffffffffffffffffffffffffffffff163373ffffffffffffffffffffffffffffffffffffffff16146110d357600080fd5b600160009054906101000a900473ffffffffffffffffffffffffffffffffffffffff1673ffffffffffffffffffffffffffffffffffffffff168473ffffffffffffffffffffffffffffffffffffffff16148061117c5750600560009054906101000a900473ffffffffffffffffffffffffffffffffffffffff1673ffffffffffffffffffffffffffffffffffffffff168473ffffffffffffffffffffffffffffffffffffffff16145b61118557600080fd5b60008314158015611197575060008114155b80156111a4575060008214155b6111ad57600080fd5b600060078111156111e7577f4e487b7100000000000000000000000000000000000000000000000000000000600052602160045260246000fd5b600960009054906101000a900460ff16600781111561122f577f4e487b7100000000000000000000000000000000000000000000000000000000600052602160045260246000fd5b14806112ba575060016007811115611270577f4e487b7100000000000000000000000000000000000000000000000000000000600052602160045260246000fd5b600960009054906101000a900460ff1660078111156112b8577f4e487b7100000000000000000000000000000000000000000000000000000000600052602160045260246000fd5b145b6112c357600080fd5b600160009054906101000a900473ffffffffffffffffffffffffffffffffffffffff1673ffffffffffffffffffffffffffffffffffffffff168473ffffffffffffffffffffffffffffffffffffffff161461135a5783600560006101000a81548173ffffffffffffffffffffffffffffffffffffffff021916908373ffffffffffffffffffffffffffffffffffffffff1602179055505b8260068190555081600781905550806008819055506001600960006101000a81548160ff021916908360078111156113bb577f4e487b7100000000000000000000000000000000000000000000000000000000600052602160045260246000fd5b02179055507fd37ceaac9ec103391429007b17a26ddd1669b4442108e931f9d1918a8714659c848484846040516113f59493929190612311565b60405180910390a150505050565b60008054906101000a900473ffffffffffffffffffffffffffffffffffffffff1681565b60065481565b600a6020528060005260406000206000915090508060000160009054906101000a900473ffffffffffffffffffffffffffffffffffffffff16908060010180546114769061257a565b80601f01602080910402602001604051908101604052809291908181526020018280546114a29061257a565b80156114ef5780601f106114c4576101008083540402835291602001916114ef565b820191906000526020600020905b8154815290600101906020018083116114d257829003601f168201915b5050505050908060020160009054906101000a900460ff16905083565b60085481565b60008054906101000a900473ffffffffffffffffffffffffffffffffffffffff1673ffffffffffffffffffffffffffffffffffffffff163373ffffffffffffffffffffffffffffffffffffffff161461156a57600080fd5b600160009054906101000a900473ffffffffffffffffffffffffffffffffffffffff1673ffffffffffffffffffffffffffffffffffffffff168473ffffffffffffffffffffffffffffffffffffffff16146115c457600080fd5b600060078111156115fe577f4e487b7100000000000000000000000000000000000000000000000000000000600052602160045260246000fd5b600960009054906101000a900460ff166007811115611646577f4e487b7100000000000000000000000000000000000000000000000000000000600052602160045260246000fd5b1461165057600080fd5b8260028190555081600381905550806004819055507fff917abbd5265db0321d1698dfe74287ae6b93d1cd1f486a618d1124feb0b8bc600160009054906101000a900473ffffffffffffffffffffffffffffffffffffffff168484846040516116bc9493929190612311565b60405180910390a150505050565b60008054906101000a900473ffffffffffffffffffffffffffffffffffffffff1673ffffffffffffffffffffffffffffffffffffffff163373ffffffffffffffffffffffffffffffffffffffff161461172257600080fd5b600160009054906101000a900473ffffffffffffffffffffffffffffffffffffffff1673ffffffffffffffffffffffffffffffffffffffff168173ffffffffffffffffffffffffffffffffffffffff161461177c57600080fd5b600160078111156117b6577f4e487b7100000000000000000000000000000000000000000000000000000000600052602160045260246000fd5b600960009054906101000a900460ff1660078111156117fe577f4e487b7100000000000000000000000000000000000000000000000000000000600052602160045260246000fd5b1461180857600080fd5b6002600960006101000a81548160ff02191690836007811115611854577f4e487b7100000000000000000000000000000000000000000000000000000000600052602160045260246000fd5b02179055507fa13d0dc21c62e74caff064bba409ce28da1203587604c27c24db78f80e5fcaaf816040516118889190612188565b60405180910390a150565b600960009054906101000a900460ff1681565b60008054906101000a900473ffffffffffffffffffffffffffffffffffffffff1673ffffffffffffffffffffffffffffffffffffffff163373ffffffffffffffffffffffffffffffffffffffff16146118fe57600080fd5b600560009054906101000a900473ffffffffffffffffffffffffffffffffffffffff1673ffffffffffffffffffffffffffffffffffffffff168273ffffffffffffffffffffffffffffffffffffffff161480156119de5750600160009054906101000a900473ffffffffffffffffffffffffffffffffffffffff1673ffffffffffffffffffffffffffffffffffffffff16600a600083815260200190815260200160002060000160009054906101000a900473ffffffffffffffffffffffffffffffffffffffff1673ffffffffffffffffffffffffffffffffffffffff16145b80611ac55750600160009054906101000a900473ffffffffffffffffffffffffffffffffffffffff1673ffffffffffffffffffffffffffffffffffffffff168273ffffffffffffffffffffffffffffffffffffffff16148015611ac45750600560009054906101000a900473ffffffffffffffffffffffffffffffffffffffff1673ffffffffffffffffffffffffffffffffffffffff16600a600083815260200190815260200160002060000160009054906101000a900473ffffffffffffffffffffffffffffffffffffffff1673ffffffffffffffffffffffffffffffffffffffff16145b5b611ace57600080fd5b60056007811115611b08577f4e487b7100000000000000000000000000000000000000000000000000000000600052602160045260246000fd5b600960009054906101000a900460ff166007811115611b50577f4e487b7100000000000000000000000000000000000000000000000000000000600052602160045260246000fd5b14611b5a57600080fd5b6002600a600083815260200190815260200160002060020160006101000a81548160ff02191690836002811115611bba577f4e487b7100000000000000000000000000000000000000000000000000000000600052602160045260246000fd5b02179055506004600960006101000a81548160ff02191690836007811115611c0b577f4e487b7100000000000000000000000000000000000000000000000000000000600052602160045260246000fd5b02179055507f3d1e30d0aea51c6918ea5c0338f07fe671cb4335b407d3426024701611317c8c8282600a6000858152602001908152602001600020604051611c55939291906122d3565b60405180910390a15050565b6040518060600160405280600073ffffffffffffffffffffffffffffffffffffffff1681526020016060815260200160006002811115611cca577f4e487b7100000000000000000000000000000000000000000000000000000000600052602160045260246000fd5b81525090565b828054611cdc9061257a565b90600052602060002090601f016020900481019282611cfe5760008555611d45565b82601f10611d1757805160ff1916838001178555611d45565b82800160010185558215611d45579182015b82811115611d44578251825591602001919060010190611d29565b5b509050611d529190611d56565b5090565b5b80821115611d6f576000816000905550600101611d57565b5090565b6000611d86611d81846123df565b6123ae565b905082815260208101848484011115611d9e57600080fd5b611da9848285612538565b509392505050565b600081359050611dc0816126e2565b92915050565b600082601f830112611dd757600080fd5b8135611de7848260208601611d73565b91505092915050565b600081359050611dff816126f9565b92915050565b600060208284031215611e1757600080fd5b6000611e2584828501611db1565b91505092915050565b600080600080600060a08688031215611e4657600080fd5b6000611e5488828901611db1565b9550506020611e6588828901611db1565b9450506040611e7688828901611df0565b9350506060611e8788828901611df0565b925050608086013567ffffffffffffffff811115611ea457600080fd5b611eb088828901611dc6565b9150509295509295909350565b60008060408385031215611ed057600080fd5b6000611ede85828601611db1565b9250506020611eef85828601611df0565b9150509250929050565b60008060008060808587031215611f0f57600080fd5b6000611f1d87828801611db1565b9450506020611f2e87828801611df0565b9350506040611f3f87828801611df0565b9250506060611f5087828801611df0565b91505092959194509250565b600060208284031215611f6e57600080fd5b6000611f7c84828501611df0565b91505092915050565b611f8e816124b2565b82525050565b611f9d816124b2565b82525050565b611fac81612514565b82525050565b611fbb81612514565b82525050565b611fca81612526565b82525050565b6000611fdb82612424565b611fe5818561242f565b9350611ff5818560208601612547565b611ffe8161269c565b840191505092915050565b600061201482612424565b61201e8185612440565b935061202e818560208601612547565b6120378161269c565b840191505092915050565b6000815461204f8161257a565b612059818661242f565b945060018216600081146120745760018114612086576120b9565b60ff19831686526020860193506120b9565b61208f8561240f565b60005b838110156120b157815481890152600182019150602081019050612092565b808801955050505b50505092915050565b60006060830160008301516120da6000860182611f85565b50602083015184820360208601526120f28282611fd0565b91505060408301516121076040860182611fa3565b508091505092915050565b6000606083016000808401549050612129816125ac565b6121366000870182611f85565b5060018401858303602087015261214d8382612042565b92505060028401549050612160816125c6565b61216d6040870182611fa3565b50819250505092915050565b6121828161250a565b82525050565b600060208201905061219d6000830184611f94565b92915050565b600060a0820190506121b86000830188611f94565b6121c56020830187611f94565b6121d26040830186612179565b6121df6060830185612179565b81810360808301526121f18184612112565b90509695505050505050565b600060e082019050612212600083018a611f94565b61221f6020830189611f94565b61222c6040830188612179565b6122396060830187612179565b6122466080830186612179565b61225360a0830185612179565b61226060c0830184611fc1565b98975050505050505050565b60006060820190506122816000830186611f94565b81810360208301526122938185612009565b90506122a26040830184611fb2565b949350505050565b60006040820190506122bf6000830185611f94565b6122cc6020830184612179565b9392505050565b60006060820190506122e86000830186611f94565b6122f56020830185612179565b81810360408301526123078184612112565b9050949350505050565b60006080820190506123266000830187611f94565b6123336020830186612179565b6123406040830185612179565b61234d6060830184612179565b95945050505050565b600060208201905061236b6000830184611fc1565b92915050565b6000602082019050818103600083015261238b81846120c2565b905092915050565b60006020820190506123a86000830184612179565b92915050565b6000604051905081810181811067ffffffffffffffff821117156123d5576123d461266d565b5b8060405250919050565b600067ffffffffffffffff8211156123fa576123f961266d565b5b601f19601f8301169050602081019050919050565b60008190508160005260206000209050919050565b600081519050919050565b600082825260208201905092915050565b600082825260208201905092915050565b600061245c8261250a565b91506124678361250a565b92508282101561247a576124796125e0565b5b828203905092915050565b600073ffffffffffffffffffffffffffffffffffffffff82169050919050565b600060ff82169050919050565b60006124bd826124ea565b9050919050565b60008190506124d2826126ba565b919050565b60008190506124e5826126ce565b919050565b600073ffffffffffffffffffffffffffffffffffffffff82169050919050565b6000819050919050565b600061251f826124c4565b9050919050565b6000612531826124d7565b9050919050565b82818337600083830152505050565b60005b8381101561256557808201518184015260208101905061254a565b83811115612574576000848401525b50505050565b6000600282049050600182168061259257607f821691505b602082108114156125a6576125a561263e565b5b50919050565b60006125bf6125ba836126ad565b612485565b9050919050565b60006125d96125d4836126ad565b6124a5565b9050919050565b7f4e487b7100000000000000000000000000000000000000000000000000000000600052601160045260246000fd5b7f4e487b7100000000000000000000000000000000000000000000000000000000600052602160045260246000fd5b7f4e487b7100000000000000000000000000000000000000000000000000000000600052602260045260246000fd5b7f4e487b7100000000000000000000000000000000000000000000000000000000600052604160045260246000fd5b6000601f19601f8301169050919050565b60008160001c9050919050565b600381106126cb576126ca61260f565b5b50565b600881106126df576126de61260f565b5b50565b6126eb816124b2565b81146126f657600080fd5b50565b6127028161250a565b811461270d57600080fd5b5056fea2646970667358221220b2604d986ee512bd1ced22744a0f650855c6a3fd5c305a7d7943a77f48a86fbf64736f6c63430008000033",
  "immutableReferences": {},
  "source": "// SPDX-License-Identifier: MIT\r\npragma solidity ^0.8.0;\r\n\r\ncontract DecentraLoan {\r\n    enum StateType {\r\n        Available,\r\n        OfferPlaced,\r\n        LenderAccepted,\r\n        Confirmed,\r\n        Active,\r\n        AwaitingValidation,\r\n        Delinquent,\r\n        Terminated\r\n    }\r\n\r\n    enum EvidenceStatus {Unverified, Invalid, Valid}\r\n\r\n    struct Evidence {\r\n        address sender;\r\n        string transactionHash;\r\n        EvidenceStatus evidenceStatus;\r\n    }\r\n\r\n    // contract owner (who pays for the gas fees..)\r\n    address public _owner;\r\n\r\n    // lender specific variables\r\n    address public Lender;\r\n    uint256 public LoanAmount;\r\n    uint256 public InterestRate;\r\n    uint256 public RepaymentPeriod;\r\n\r\n    // borrower specific variables\r\n    address public Borrower;\r\n    uint256 public OfferAmout;\r\n    uint256 public OfferInterestRate;\r\n    uint256 public OfferRepaymentPeriod;\r\n\r\n    // loan contract specific variables\r\n    StateType public State;\r\n    mapping(uint256 => Evidence) public Evidences;\r\n    uint256 public Balance;\r\n    uint256 public PaymentNumber;\r\n\r\n    // contract constructor [factory]\r\n    constructor(\r\n        address owner,\r\n        address lender,\r\n        uint256 amount,\r\n        uint256 interest,\r\n        uint256 repaymentPeriod\r\n    ) {\r\n        Lender = lender;\r\n        LoanAmount = amount;\r\n        InterestRate = interest;\r\n        RepaymentPeriod = repaymentPeriod;\r\n\r\n        _owner = owner; // set owner to custom address\r\n\r\n        State = StateType.Available;\r\n\r\n        PaymentNumber = 0;\r\n\r\n        emit Created(lender, amount, interest, repaymentPeriod);\r\n    }\r\n\r\n    // make offer with different terms [lender|borrower]\r\n    function MakeOffer(\r\n        address user,\r\n        uint256 offerAmount,\r\n        uint256 offerInterestRate,\r\n        uint256 offerRepaymentPeriod\r\n    ) public {\r\n        require(msg.sender == _owner);\r\n        require(user == Lender || user == Borrower);\r\n        require(\r\n            offerAmount != 0 &&\r\n                offerRepaymentPeriod != 0 &&\r\n                offerInterestRate != 0\r\n        );\r\n        require(State == StateType.Available || State == StateType.OfferPlaced);\r\n\r\n        if (user != Lender) {\r\n            Borrower = user;\r\n        }\r\n\r\n        OfferAmout = offerAmount;\r\n        OfferInterestRate = offerInterestRate;\r\n        OfferRepaymentPeriod = offerRepaymentPeriod;\r\n\r\n        State = StateType.OfferPlaced;\r\n\r\n        emit OfferPlaced(\r\n            user,\r\n            offerAmount,\r\n            offerInterestRate,\r\n            offerRepaymentPeriod\r\n        );\r\n    }\r\n\r\n    // confirm lender offer [borrower]\r\n    function ConfirmLenderOffer(address user) public {\r\n        require(msg.sender == _owner);\r\n        require(user == Borrower);\r\n        require(State == StateType.LenderAccepted);\r\n\r\n        // set state to confirmed (not active yet)\r\n        State = StateType.Confirmed;\r\n\r\n        emit BorrowerConfirmed(Borrower);\r\n    }\r\n\r\n    // modify available (non-active) contract [lender]\r\n    function Modify(\r\n        address user,\r\n        uint256 amount,\r\n        uint256 interest,\r\n        uint256 repaymentPeriod\r\n    ) public {\r\n        require(msg.sender == _owner);\r\n        require(user == Lender);\r\n        require(State == StateType.Available);\r\n\r\n        LoanAmount = amount;\r\n        InterestRate = interest;\r\n        RepaymentPeriod = repaymentPeriod;\r\n\r\n        emit Modified(Lender, amount, interest, repaymentPeriod);\r\n    }\r\n\r\n    // accept borrower offer [lender]\r\n    function AcceptOffer(address user) public {\r\n        require(msg.sender == _owner);\r\n        require(user == Lender);\r\n        require(State == StateType.OfferPlaced);\r\n\r\n        State = StateType.LenderAccepted;\r\n\r\n        emit OfferAccepted(user);\r\n    }\r\n\r\n    // reject offer [lender|borrower]\r\n    function RejectOffer(address user) public {\r\n        require(msg.sender == _owner);\r\n        require(user == Lender || user == Borrower);\r\n        require(State == StateType.OfferPlaced);\r\n\r\n        Borrower = 0x0000000000000000000000000000000000000000;\r\n        State = StateType.Available;\r\n\r\n        emit OfferRejected(user);\r\n    }\r\n\r\n    // sends payment with required evidence attached [lender|borrower]\r\n    function SendPayment(\r\n        address user,\r\n        address receiver,\r\n        uint256 paymentNumber,\r\n        uint256 amount,\r\n        string memory evidence\r\n    ) public {\r\n        require(msg.sender == _owner);\r\n        require(\r\n            (user == Lender && receiver == Borrower) ||\r\n                (user == Borrower && receiver == Lender)\r\n        ); // require sender is borrower and receiver is lender or vice-versa\r\n        require(State == StateType.Active); // require that it is an active contract\r\n        require(amount != 0); // require payment amount is not 0\r\n\r\n        Balance = Balance - amount;\r\n\r\n        // send evidence for counterparty validation, initialy unverified\r\n        Evidences[paymentNumber] = Evidence(\r\n            user,\r\n            evidence,\r\n            EvidenceStatus.Unverified\r\n        );\r\n\r\n        State = StateType.AwaitingValidation; // set state to awaiting validation\r\n\r\n        emit PaymentSent(\r\n            user,\r\n            receiver,\r\n            amount,\r\n            paymentNumber,\r\n            Evidences[paymentNumber]\r\n        );\r\n    }\r\n\r\n    function GetEvidence(uint256 paymentNumber)\r\n        public\r\n        view\r\n        returns (Evidence memory)\r\n    {\r\n        require(paymentNumber <= PaymentNumber);\r\n\r\n        return Evidences[paymentNumber];\r\n    }\r\n\r\n    function ValidateEvidence(address user, uint256 paymentNumber)\r\n        public\r\n        payable\r\n    {\r\n        require(msg.sender == _owner);\r\n        require(\r\n            (user == Borrower && Evidences[paymentNumber].sender == Lender) ||\r\n                (user == Lender && Evidences[paymentNumber].sender == Borrower)\r\n        );\r\n        require(State == StateType.AwaitingValidation);\r\n\r\n        // validate from website, validation code is stored encrypted in the blockchain\r\n        // encryption is only lifted by having the decryption key that is server unique\r\n        // after some checks, validate...\r\n        Evidences[paymentNumber].evidenceStatus = EvidenceStatus.Valid;\r\n\r\n        State = StateType.Active; // set loan state back to active\r\n\r\n        emit PaymentValidated(user, paymentNumber, Evidences[paymentNumber]);\r\n    }\r\n\r\n    /**\r\n     * EVENTS\r\n     **/\r\n    event Received(address sender, uint256 amount);\r\n\r\n    event Created(\r\n        address lender,\r\n        uint256 amount,\r\n        uint256 interest,\r\n        uint256 repaymentPeriod\r\n    );\r\n    event Modified(\r\n        address sender,\r\n        uint256 amount,\r\n        uint256 interest,\r\n        uint256 repaymentPeriod\r\n    );\r\n    event OfferPlaced(\r\n        address sender,\r\n        uint256 offerAmount,\r\n        uint256 offerInterestRate,\r\n        uint256 offerRepaymentPeriod\r\n    );\r\n    event PaymentSent(\r\n        address sender,\r\n        address receiver,\r\n        uint256 amount,\r\n        uint256 paymentNumber,\r\n        Evidence evidence\r\n    );\r\n    event PaymentValidated(\r\n        address sender,\r\n        uint256 paymentNumber,\r\n        Evidence evidence\r\n    );\r\n    event BorrowerConfirmed(address sender);\r\n    event OfferAccepted(address sender);\r\n    event OfferRejected(address sender);\r\n\r\n    // Receive any ethereum randomly sent to the contract from outside\r\n    receive() external payable {\r\n        emit Received(msg.sender, msg.value);\r\n    }\r\n\r\n    // get tupple with information about current contract\r\n    function Info()\r\n        public\r\n        view\r\n        returns (\r\n            address,\r\n            address,\r\n            uint256,\r\n            uint256,\r\n            uint256,\r\n            uint256,\r\n            // Evidence[] memory,\r\n            StateType\r\n        )\r\n    {\r\n        return (\r\n            Lender,\r\n            Borrower,\r\n            LoanAmount,\r\n            Balance,\r\n            InterestRate,\r\n            RepaymentPeriod,\r\n            // Evidences,\r\n            State\r\n        );\r\n    }\r\n}\r\n",
  "sourcePath": "C:\\Users\\abdie\\Documents\\Developer\\Capstone\\CAPSTONE_APP\\contracts\\DecentraLoan.sol",
  "compiler": {
    "name": "solc",
    "version": "0.8.0+commit.c7dfd78e.Emscripten.clang"
  },
  "schemaVersion": "3.3.3",
  "updatedAt": "2021-03-08T21:37:55.171Z",
  "devdoc": {
    "kind": "dev",
    "methods": {},
    "version": 1
  },
  "userdoc": {
    "events": {
      "Received(address,uint256)": {
        "notice": "EVENTS*"
      }
    },
    "kind": "user",
    "methods": {},
    "version": 1
  }
}