{
  "contractName": "DecentraLoanFactory",
  "abi": [
    {
      "anonymous": false,
      "inputs": [
        {
          "indexed": false,
          "internalType": "address",
          "name": "loan",
          "type": "address"
        },
        {
          "indexed": false,
          "internalType": "address",
          "name": "from",
          "type": "address"
        },
        {
          "indexed": false,
          "internalType": "address",
          "name": "to",
          "type": "address"
        },
        {
          "indexed": false,
          "internalType": "uint256",
          "name": "createdAt",
          "type": "uint256"
        },
        {
          "indexed": false,
          "internalType": "uint256",
          "name": "amount",
          "type": "uint256"
        },
        {
          "indexed": false,
          "internalType": "uint256",
          "name": "interest",
          "type": "uint256"
        },
        {
          "indexed": false,
          "internalType": "uint256",
          "name": "repayment_period",
          "type": "uint256"
        }
      ],
      "name": "Created",
      "type": "event"
    },
    {
      "anonymous": false,
      "inputs": [
        {
          "indexed": false,
          "internalType": "address",
          "name": "",
          "type": "address"
        },
        {
          "indexed": false,
          "internalType": "uint256",
          "name": "",
          "type": "uint256"
        }
      ],
      "name": "Received",
      "type": "event"
    },
    {
      "stateMutability": "payable",
      "type": "receive"
    },
    {
      "inputs": [
        {
          "internalType": "address",
          "name": "user",
          "type": "address"
        }
      ],
      "name": "GetLoans",
      "outputs": [
        {
          "internalType": "address[]",
          "name": "",
          "type": "address[]"
        }
      ],
      "stateMutability": "view",
      "type": "function"
    },
    {
      "inputs": [
        {
          "internalType": "address",
          "name": "lender",
          "type": "address"
        },
        {
          "internalType": "uint256",
          "name": "amount",
          "type": "uint256"
        },
        {
          "internalType": "uint256",
          "name": "interest",
          "type": "uint256"
        },
        {
          "internalType": "uint256",
          "name": "repayment_period",
          "type": "uint256"
        }
      ],
      "name": "CreateLoan",
      "outputs": [
        {
          "internalType": "address",
          "name": "loanAddress",
          "type": "address"
        }
      ],
      "stateMutability": "payable",
      "type": "function"
    }
  ],
  "bytecode": "0x608060405234801561001057600080fd5b506134ca806100206000396000f3fe608060405260043610620000315760003560e01c8063074962fb14620000795780635e156e7314620000af5762000074565b3662000074577f88a5966d370b9919b20f3e2c13ff65706f196a4e32cc2c12bf57088f8852587433346040516200006a92919062000579565b60405180910390a1005b600080fd5b6200009760048036038101906200009191906200035f565b620000f3565b604051620000a6919062000482565b60405180910390f35b348015620000bc57600080fd5b50620000db6004803603810190620000d5919062000333565b62000229565b604051620000ea9190620005a6565b60405180910390f35b60008033868686866040516200010990620002f7565b620001199594939291906200051c565b604051809103906000f08015801562000136573d6000803e3d6000fd5b5090508091506000808773ffffffffffffffffffffffffffffffffffffffff1673ffffffffffffffffffffffffffffffffffffffff168152602001908152602001600020829080600181540180825580915050600190039060005260206000200160009091909190916101000a81548173ffffffffffffffffffffffffffffffffffffffff021916908373ffffffffffffffffffffffffffffffffffffffff1602179055507fe9149e2e36741aa7dd8613a68b375a095b59199199aafe3590af8db7c387d956823388428989896040516200021897969594939291906200049f565b60405180910390a150949350505050565b60606000808373ffffffffffffffffffffffffffffffffffffffff1673ffffffffffffffffffffffffffffffffffffffff168152602001908152602001600020805480602002602001604051908101604052809291908181526020018280548015620002eb57602002820191906000526020600020905b8160009054906101000a900473ffffffffffffffffffffffffffffffffffffffff1673ffffffffffffffffffffffffffffffffffffffff1681526020019060010190808311620002a0575b50505050509050919050565b612e1f806200067683390190565b600081359050620003168162000641565b92915050565b6000813590506200032d816200065b565b92915050565b6000602082840312156200034657600080fd5b6000620003568482850162000305565b91505092915050565b600080600080608085870312156200037657600080fd5b6000620003868782880162000305565b945050602062000399878288016200031c565b9350506040620003ac878288016200031c565b9250506060620003bf878288016200031c565b91505092959194509250565b6000620003d98383620003e5565b60208301905092915050565b620003f08162000603565b82525050565b620004018162000603565b82525050565b60006200041482620005da565b620004208185620005f2565b93506200042d83620005ca565b8060005b8381101562000464578151620004488882620003cb565b97506200045583620005e5565b92505060018101905062000431565b5085935050505092915050565b6200047c8162000637565b82525050565b6000602082019050620004996000830184620003f6565b92915050565b600060e082019050620004b6600083018a620003f6565b620004c56020830189620003f6565b620004d46040830188620003f6565b620004e3606083018762000471565b620004f2608083018662000471565b6200050160a083018562000471565b6200051060c083018462000471565b98975050505050505050565b600060a082019050620005336000830188620003f6565b620005426020830187620003f6565b62000551604083018662000471565b62000560606083018562000471565b6200056f608083018462000471565b9695505050505050565b6000604082019050620005906000830185620003f6565b6200059f602083018462000471565b9392505050565b60006020820190508181036000830152620005c2818462000407565b905092915050565b6000819050602082019050919050565b600081519050919050565b6000602082019050919050565b600082825260208201905092915050565b6000620006108262000617565b9050919050565b600073ffffffffffffffffffffffffffffffffffffffff82169050919050565b6000819050919050565b6200064c8162000603565b81146200065857600080fd5b50565b620006668162000637565b81146200067257600080fd5b5056fe60806040523480156200001157600080fd5b5060405162002e1f38038062002e1f83398181016040528101906200003791906200019f565b83600160006101000a81548173ffffffffffffffffffffffffffffffffffffffff021916908373ffffffffffffffffffffffffffffffffffffffff160217905550826002819055508160038190555080600481905550846000806101000a81548173ffffffffffffffffffffffffffffffffffffffff021916908373ffffffffffffffffffffffffffffffffffffffff1602179055506000600960006101000a81548160ff021916908360078111156200011a577f4e487b7100000000000000000000000000000000000000000000000000000000600052602160045260246000fd5b02179055506000600c819055507f99a12a7aefbbb67909c2bee4a5e2ddb98b2183b8ae2a59e5a7db47f53453345d848484846040516200015e949392919062000243565b60405180910390a1505050505062000302565b6000815190506200018281620002ce565b92915050565b6000815190506200019981620002e8565b92915050565b600080600080600060a08688031215620001b857600080fd5b6000620001c88882890162000171565b9550506020620001db8882890162000171565b9450506040620001ee8882890162000188565b9350506060620002018882890162000188565b9250506080620002148882890162000188565b9150509295509295909350565b6200022c8162000290565b82525050565b6200023d81620002c4565b82525050565b60006080820190506200025a600083018762000221565b62000269602083018662000232565b62000278604083018562000232565b62000287606083018462000232565b95945050505050565b60006200029d82620002a4565b9050919050565b600073ffffffffffffffffffffffffffffffffffffffff82169050919050565b6000819050919050565b620002d98162000290565b8114620002e557600080fd5b50565b620002f381620002c4565b8114620002ff57600080fd5b50565b612b0d80620003126000396000f3fe60806040526004361061014f5760003560e01c8063ad099d6f116100b6578063e3fc1c191161006f578063e3fc1c19146104af578063e633fc78146104da578063eca2dbb2146104f6578063ecf833521461051f578063f1b6dccd14610548578063ff1871ea146105735761018f565b8063ad099d6f146103aa578063ad4829b0146103d5578063b2bdfa7b146103fe578063b56cb8eb14610429578063e1db806114610454578063e1dd67b5146104935761018f565b80634012e02e116101085780634012e02e146102945780634097f368146102c557806348dc0b6e146102f05780635677640b1461031b5780635f13f6891461035857806363307f10146103815761018f565b806302b89ffc146101945780630372a77c146101bf5780630cda162d146101e85780630ef67887146102135780631b1917b31461023e5780633cd4730c146102695761018f565b3661018f577f88a5966d370b9919b20f3e2c13ff65706f196a4e32cc2c12bf57088f885258743334604051610185929190612671565b60405180910390a1005b600080fd5b3480156101a057600080fd5b506101a961058f565b6040516101b6919061275a565b60405180910390f35b3480156101cb57600080fd5b506101e660048036038101906101e191906121cc565b610595565b005b3480156101f457600080fd5b506101fd610780565b60405161020a919061254f565b60405180910390f35b34801561021f57600080fd5b506102286107a6565b604051610235919061275a565b60405180910390f35b34801561024a57600080fd5b506102536107ac565b604051610260919061275a565b60405180910390f35b34801561027557600080fd5b5061027e6107b2565b60405161028b919061275a565b60405180910390f35b3480156102a057600080fd5b506102a96107b8565b6040516102bc97969594939291906125c4565b60405180910390f35b3480156102d157600080fd5b506102da61083c565b6040516102e7919061254f565b60405180910390f35b3480156102fc57600080fd5b50610305610862565b604051610312919061275a565b60405180910390f35b34801561032757600080fd5b50610342600480360381019061033d9190612323565b610868565b60405161034f9190612738565b60405180910390f35b34801561036457600080fd5b5061037f600480360381019061037a91906121cc565b610a13565b005b34801561038d57600080fd5b506103a860048036038101906103a391906121f5565b610c76565b005b3480156103b657600080fd5b506103bf6110c3565b6040516103cc919061275a565b60405180910390f35b3480156103e157600080fd5b506103fc60048036038101906103f791906122c0565b6110c9565b005b34801561040a57600080fd5b50610413611451565b604051610420919061254f565b60405180910390f35b34801561043557600080fd5b5061043e611475565b60405161044b919061275a565b60405180910390f35b34801561046057600080fd5b5061047b60048036038101906104769190612323565b61147b565b60405161048a93929190612633565b60405180910390f35b6104ad60048036038101906104a891906121cc565b61155a565b005b3480156104bb57600080fd5b506104c461170a565b6040516104d1919061275a565b60405180910390f35b6104f460048036038101906104ef91906121cc565b611710565b005b34801561050257600080fd5b5061051d600480360381019061051891906122c0565b6118d9565b005b34801561052b57600080fd5b50610546600480360381019061054191906121cc565b611a91565b005b34801561055457600080fd5b5061055d611c5a565b60405161056a919061271d565b60405180910390f35b61058d60048036038101906105889190612284565b611c6d565b005b600c5481565b60008054906101000a900473ffffffffffffffffffffffffffffffffffffffff1673ffffffffffffffffffffffffffffffffffffffff163373ffffffffffffffffffffffffffffffffffffffff16146105ed57600080fd5b600560009054906101000a900473ffffffffffffffffffffffffffffffffffffffff1673ffffffffffffffffffffffffffffffffffffffff168173ffffffffffffffffffffffffffffffffffffffff161461064757600080fd5b60026007811115610681577f4e487b7100000000000000000000000000000000000000000000000000000000600052602160045260246000fd5b600960009054906101000a900460ff1660078111156106c9577f4e487b7100000000000000000000000000000000000000000000000000000000600052602160045260246000fd5b146106d357600080fd5b6003600960006101000a81548160ff0219169083600781111561071f577f4e487b7100000000000000000000000000000000000000000000000000000000600052602160045260246000fd5b02179055507fcc19dffbfb36e5ea9fc3e267d1daaa98e0b249dcef22165151c04023c3b05c8f600560009054906101000a900473ffffffffffffffffffffffffffffffffffffffff16604051610775919061254f565b60405180910390a150565b600560009054906101000a900473ffffffffffffffffffffffffffffffffffffffff1681565b600b5481565b60045481565b60025481565b6000806000806000806000600160009054906101000a900473ffffffffffffffffffffffffffffffffffffffff16600560009054906101000a900473ffffffffffffffffffffffffffffffffffffffff16600254600b54600354600454600960009054906101000a900460ff16965096509650965096509650965090919293949596565b600160009054906101000a900473ffffffffffffffffffffffffffffffffffffffff1681565b60035481565b610870612028565b600c5482111561087f57600080fd5b600a60008381526020019081526020016000206040518060600160405290816000820160009054906101000a900473ffffffffffffffffffffffffffffffffffffffff1673ffffffffffffffffffffffffffffffffffffffff1673ffffffffffffffffffffffffffffffffffffffff16815260200160018201805461090390612941565b80601f016020809104026020016040519081016040528092919081815260200182805461092f90612941565b801561097c5780601f106109515761010080835404028352916020019161097c565b820191906000526020600020905b81548152906001019060200180831161095f57829003601f168201915b505050505081526020016002820160009054906101000a900460ff1660028111156109d0577f4e487b7100000000000000000000000000000000000000000000000000000000600052602160045260246000fd5b6002811115610a08577f4e487b7100000000000000000000000000000000000000000000000000000000600052602160045260246000fd5b815250509050919050565b60008054906101000a900473ffffffffffffffffffffffffffffffffffffffff1673ffffffffffffffffffffffffffffffffffffffff163373ffffffffffffffffffffffffffffffffffffffff1614610a6b57600080fd5b600160009054906101000a900473ffffffffffffffffffffffffffffffffffffffff1673ffffffffffffffffffffffffffffffffffffffff168173ffffffffffffffffffffffffffffffffffffffff161480610b145750600560009054906101000a900473ffffffffffffffffffffffffffffffffffffffff1673ffffffffffffffffffffffffffffffffffffffff168173ffffffffffffffffffffffffffffffffffffffff16145b610b1d57600080fd5b60016007811115610b57577f4e487b7100000000000000000000000000000000000000000000000000000000600052602160045260246000fd5b600960009054906101000a900460ff166007811115610b9f577f4e487b7100000000000000000000000000000000000000000000000000000000600052602160045260246000fd5b14610ba957600080fd5b6000600560006101000a81548173ffffffffffffffffffffffffffffffffffffffff021916908373ffffffffffffffffffffffffffffffffffffffff1602179055506000600960006101000a81548160ff02191690836007811115610c37577f4e487b7100000000000000000000000000000000000000000000000000000000600052602160045260246000fd5b02179055507fe0c1a48d34b111953dfef62f5393cdffdd14cb7eeabd62b10f481c12358d625681604051610c6b919061254f565b60405180910390a150565b60008054906101000a900473ffffffffffffffffffffffffffffffffffffffff1673ffffffffffffffffffffffffffffffffffffffff163373ffffffffffffffffffffffffffffffffffffffff1614610cce57600080fd5b600160009054906101000a900473ffffffffffffffffffffffffffffffffffffffff1673ffffffffffffffffffffffffffffffffffffffff168573ffffffffffffffffffffffffffffffffffffffff16148015610d785750600560009054906101000a900473ffffffffffffffffffffffffffffffffffffffff1673ffffffffffffffffffffffffffffffffffffffff168473ffffffffffffffffffffffffffffffffffffffff16145b80610e295750600560009054906101000a900473ffffffffffffffffffffffffffffffffffffffff1673ffffffffffffffffffffffffffffffffffffffff168573ffffffffffffffffffffffffffffffffffffffff16148015610e285750600160009054906101000a900473ffffffffffffffffffffffffffffffffffffffff1673ffffffffffffffffffffffffffffffffffffffff168473ffffffffffffffffffffffffffffffffffffffff16145b5b610e3257600080fd5b60046007811115610e6c577f4e487b7100000000000000000000000000000000000000000000000000000000600052602160045260246000fd5b600960009054906101000a900460ff166007811115610eb4577f4e487b7100000000000000000000000000000000000000000000000000000000600052602160045260246000fd5b14610ebe57600080fd5b6000821415610ecc57600080fd5b81600b54610eda9190612818565b600b8190555060405180606001604052808673ffffffffffffffffffffffffffffffffffffffff16815260200182815260200160006002811115610f47577f4e487b7100000000000000000000000000000000000000000000000000000000600052602160045260246000fd5b815250600a600085815260200190815260200160002060008201518160000160006101000a81548173ffffffffffffffffffffffffffffffffffffffff021916908373ffffffffffffffffffffffffffffffffffffffff1602179055506020820151816001019080519060200190610fc0929190612097565b5060408201518160020160006101000a81548160ff02191690836002811115611012577f4e487b7100000000000000000000000000000000000000000000000000000000600052602160045260246000fd5b02179055509050506005600960006101000a81548160ff02191690836007811115611066577f4e487b7100000000000000000000000000000000000000000000000000000000600052602160045260246000fd5b02179055507f9a19828c5f8e4877bfa36088f3a65b819277388ba69a37e582413c4716529db585858486600a60008981526020019081526020016000206040516110b495949392919061256a565b60405180910390a15050505050565b60075481565b60008054906101000a900473ffffffffffffffffffffffffffffffffffffffff1673ffffffffffffffffffffffffffffffffffffffff163373ffffffffffffffffffffffffffffffffffffffff161461112157600080fd5b600160009054906101000a900473ffffffffffffffffffffffffffffffffffffffff1673ffffffffffffffffffffffffffffffffffffffff168473ffffffffffffffffffffffffffffffffffffffff1614806111ca5750600560009054906101000a900473ffffffffffffffffffffffffffffffffffffffff1673ffffffffffffffffffffffffffffffffffffffff168473ffffffffffffffffffffffffffffffffffffffff16145b6111d357600080fd5b600083141580156111e5575060008114155b80156111f2575060008214155b6111fb57600080fd5b60006007811115611235577f4e487b7100000000000000000000000000000000000000000000000000000000600052602160045260246000fd5b600960009054906101000a900460ff16600781111561127d577f4e487b7100000000000000000000000000000000000000000000000000000000600052602160045260246000fd5b14806113085750600160078111156112be577f4e487b7100000000000000000000000000000000000000000000000000000000600052602160045260246000fd5b600960009054906101000a900460ff166007811115611306577f4e487b7100000000000000000000000000000000000000000000000000000000600052602160045260246000fd5b145b61131157600080fd5b600160009054906101000a900473ffffffffffffffffffffffffffffffffffffffff1673ffffffffffffffffffffffffffffffffffffffff168473ffffffffffffffffffffffffffffffffffffffff16146113a85783600560006101000a81548173ffffffffffffffffffffffffffffffffffffffff021916908373ffffffffffffffffffffffffffffffffffffffff1602179055505b8260068190555081600781905550806008819055506001600960006101000a81548160ff02191690836007811115611409577f4e487b7100000000000000000000000000000000000000000000000000000000600052602160045260246000fd5b02179055507fd37ceaac9ec103391429007b17a26ddd1669b4442108e931f9d1918a8714659c8484848460405161144394939291906126d8565b60405180910390a150505050565b60008054906101000a900473ffffffffffffffffffffffffffffffffffffffff1681565b60065481565b600a6020528060005260406000206000915090508060000160009054906101000a900473ffffffffffffffffffffffffffffffffffffffff16908060010180546114c490612941565b80601f01602080910402602001604051908101604052809291908181526020018280546114f090612941565b801561153d5780601f106115125761010080835404028352916020019161153d565b820191906000526020600020905b81548152906001019060200180831161152057829003601f168201915b5050505050908060020160009054906101000a900460ff16905083565b60008054906101000a900473ffffffffffffffffffffffffffffffffffffffff1673ffffffffffffffffffffffffffffffffffffffff163373ffffffffffffffffffffffffffffffffffffffff16146115b257600080fd5b600060078111156115ec577f4e487b7100000000000000000000000000000000000000000000000000000000600052602160045260246000fd5b600960009054906101000a900460ff166007811115611634577f4e487b7100000000000000000000000000000000000000000000000000000000600052602160045260246000fd5b1461163e57600080fd5b80600560006101000a81548173ffffffffffffffffffffffffffffffffffffffff021916908373ffffffffffffffffffffffffffffffffffffffff1602179055506003600960006101000a81548160ff021916908360078111156116cb577f4e487b7100000000000000000000000000000000000000000000000000000000600052602160045260246000fd5b02179055507f039f711c9c18dd815b225b1424855e6118e746c6b5d688907f10c4dd29ebe92a816040516116ff919061254f565b60405180910390a150565b60085481565b60008054906101000a900473ffffffffffffffffffffffffffffffffffffffff1673ffffffffffffffffffffffffffffffffffffffff163373ffffffffffffffffffffffffffffffffffffffff161461176857600080fd5b600160009054906101000a900473ffffffffffffffffffffffffffffffffffffffff1673ffffffffffffffffffffffffffffffffffffffff168173ffffffffffffffffffffffffffffffffffffffff16146117c257600080fd5b600360078111156117fc577f4e487b7100000000000000000000000000000000000000000000000000000000600052602160045260246000fd5b600960009054906101000a900460ff166007811115611844577f4e487b7100000000000000000000000000000000000000000000000000000000600052602160045260246000fd5b1461184e57600080fd5b6004600960006101000a81548160ff0219169083600781111561189a577f4e487b7100000000000000000000000000000000000000000000000000000000600052602160045260246000fd5b02179055507f2e7bcc1a1a1c1bea0ff9a677c29b43662d6560afbebd99c213389fc15a6279d2816040516118ce919061254f565b60405180910390a150565b60008054906101000a900473ffffffffffffffffffffffffffffffffffffffff1673ffffffffffffffffffffffffffffffffffffffff163373ffffffffffffffffffffffffffffffffffffffff161461193157600080fd5b600160009054906101000a900473ffffffffffffffffffffffffffffffffffffffff1673ffffffffffffffffffffffffffffffffffffffff168473ffffffffffffffffffffffffffffffffffffffff161461198b57600080fd5b600060078111156119c5577f4e487b7100000000000000000000000000000000000000000000000000000000600052602160045260246000fd5b600960009054906101000a900460ff166007811115611a0d577f4e487b7100000000000000000000000000000000000000000000000000000000600052602160045260246000fd5b14611a1757600080fd5b8260028190555081600381905550806004819055507fff917abbd5265db0321d1698dfe74287ae6b93d1cd1f486a618d1124feb0b8bc600160009054906101000a900473ffffffffffffffffffffffffffffffffffffffff16848484604051611a8394939291906126d8565b60405180910390a150505050565b60008054906101000a900473ffffffffffffffffffffffffffffffffffffffff1673ffffffffffffffffffffffffffffffffffffffff163373ffffffffffffffffffffffffffffffffffffffff1614611ae957600080fd5b600160009054906101000a900473ffffffffffffffffffffffffffffffffffffffff1673ffffffffffffffffffffffffffffffffffffffff168173ffffffffffffffffffffffffffffffffffffffff1614611b4357600080fd5b60016007811115611b7d577f4e487b7100000000000000000000000000000000000000000000000000000000600052602160045260246000fd5b600960009054906101000a900460ff166007811115611bc5577f4e487b7100000000000000000000000000000000000000000000000000000000600052602160045260246000fd5b14611bcf57600080fd5b6002600960006101000a81548160ff02191690836007811115611c1b577f4e487b7100000000000000000000000000000000000000000000000000000000600052602160045260246000fd5b02179055507fa13d0dc21c62e74caff064bba409ce28da1203587604c27c24db78f80e5fcaaf81604051611c4f919061254f565b60405180910390a150565b600960009054906101000a900460ff1681565b60008054906101000a900473ffffffffffffffffffffffffffffffffffffffff1673ffffffffffffffffffffffffffffffffffffffff163373ffffffffffffffffffffffffffffffffffffffff1614611cc557600080fd5b600560009054906101000a900473ffffffffffffffffffffffffffffffffffffffff1673ffffffffffffffffffffffffffffffffffffffff168273ffffffffffffffffffffffffffffffffffffffff16148015611da55750600160009054906101000a900473ffffffffffffffffffffffffffffffffffffffff1673ffffffffffffffffffffffffffffffffffffffff16600a600083815260200190815260200160002060000160009054906101000a900473ffffffffffffffffffffffffffffffffffffffff1673ffffffffffffffffffffffffffffffffffffffff16145b80611e8c5750600160009054906101000a900473ffffffffffffffffffffffffffffffffffffffff1673ffffffffffffffffffffffffffffffffffffffff168273ffffffffffffffffffffffffffffffffffffffff16148015611e8b5750600560009054906101000a900473ffffffffffffffffffffffffffffffffffffffff1673ffffffffffffffffffffffffffffffffffffffff16600a600083815260200190815260200160002060000160009054906101000a900473ffffffffffffffffffffffffffffffffffffffff1673ffffffffffffffffffffffffffffffffffffffff16145b5b611e9557600080fd5b60056007811115611ecf577f4e487b7100000000000000000000000000000000000000000000000000000000600052602160045260246000fd5b600960009054906101000a900460ff166007811115611f17577f4e487b7100000000000000000000000000000000000000000000000000000000600052602160045260246000fd5b14611f2157600080fd5b6002600a600083815260200190815260200160002060020160006101000a81548160ff02191690836002811115611f81577f4e487b7100000000000000000000000000000000000000000000000000000000600052602160045260246000fd5b02179055506004600960006101000a81548160ff02191690836007811115611fd2577f4e487b7100000000000000000000000000000000000000000000000000000000600052602160045260246000fd5b02179055507f3d1e30d0aea51c6918ea5c0338f07fe671cb4335b407d3426024701611317c8c8282600a600085815260200190815260200160002060405161201c9392919061269a565b60405180910390a15050565b6040518060600160405280600073ffffffffffffffffffffffffffffffffffffffff1681526020016060815260200160006002811115612091577f4e487b7100000000000000000000000000000000000000000000000000000000600052602160045260246000fd5b81525090565b8280546120a390612941565b90600052602060002090601f0160209004810192826120c5576000855561210c565b82601f106120de57805160ff191683800117855561210c565b8280016001018555821561210c579182015b8281111561210b5782518255916020019190600101906120f0565b5b509050612119919061211d565b5090565b5b8082111561213657600081600090555060010161211e565b5090565b600061214d612148846127a6565b612775565b90508281526020810184848401111561216557600080fd5b6121708482856128ff565b509392505050565b60008135905061218781612aa9565b92915050565b600082601f83011261219e57600080fd5b81356121ae84826020860161213a565b91505092915050565b6000813590506121c681612ac0565b92915050565b6000602082840312156121de57600080fd5b60006121ec84828501612178565b91505092915050565b600080600080600060a0868803121561220d57600080fd5b600061221b88828901612178565b955050602061222c88828901612178565b945050604061223d888289016121b7565b935050606061224e888289016121b7565b925050608086013567ffffffffffffffff81111561226b57600080fd5b6122778882890161218d565b9150509295509295909350565b6000806040838503121561229757600080fd5b60006122a585828601612178565b92505060206122b6858286016121b7565b9150509250929050565b600080600080608085870312156122d657600080fd5b60006122e487828801612178565b94505060206122f5878288016121b7565b9350506040612306878288016121b7565b9250506060612317878288016121b7565b91505092959194509250565b60006020828403121561233557600080fd5b6000612343848285016121b7565b91505092915050565b61235581612879565b82525050565b61236481612879565b82525050565b612373816128db565b82525050565b612382816128db565b82525050565b612391816128ed565b82525050565b60006123a2826127eb565b6123ac81856127f6565b93506123bc81856020860161290e565b6123c581612a63565b840191505092915050565b60006123db826127eb565b6123e58185612807565b93506123f581856020860161290e565b6123fe81612a63565b840191505092915050565b6000815461241681612941565b61242081866127f6565b9450600182166000811461243b576001811461244d57612480565b60ff1983168652602086019350612480565b612456856127d6565b60005b8381101561247857815481890152600182019150602081019050612459565b808801955050505b50505092915050565b60006060830160008301516124a1600086018261234c565b50602083015184820360208601526124b98282612397565b91505060408301516124ce604086018261236a565b508091505092915050565b60006060830160008084015490506124f081612973565b6124fd600087018261234c565b506001840185830360208701526125148382612409565b925050600284015490506125278161298d565b612534604087018261236a565b50819250505092915050565b612549816128d1565b82525050565b6000602082019050612564600083018461235b565b92915050565b600060a08201905061257f600083018861235b565b61258c602083018761235b565b6125996040830186612540565b6125a66060830185612540565b81810360808301526125b881846124d9565b90509695505050505050565b600060e0820190506125d9600083018a61235b565b6125e6602083018961235b565b6125f36040830188612540565b6126006060830187612540565b61260d6080830186612540565b61261a60a0830185612540565b61262760c0830184612388565b98975050505050505050565b6000606082019050612648600083018661235b565b818103602083015261265a81856123d0565b90506126696040830184612379565b949350505050565b6000604082019050612686600083018561235b565b6126936020830184612540565b9392505050565b60006060820190506126af600083018661235b565b6126bc6020830185612540565b81810360408301526126ce81846124d9565b9050949350505050565b60006080820190506126ed600083018761235b565b6126fa6020830186612540565b6127076040830185612540565b6127146060830184612540565b95945050505050565b60006020820190506127326000830184612388565b92915050565b600060208201905081810360008301526127528184612489565b905092915050565b600060208201905061276f6000830184612540565b92915050565b6000604051905081810181811067ffffffffffffffff8211171561279c5761279b612a34565b5b8060405250919050565b600067ffffffffffffffff8211156127c1576127c0612a34565b5b601f19601f8301169050602081019050919050565b60008190508160005260206000209050919050565b600081519050919050565b600082825260208201905092915050565b600082825260208201905092915050565b6000612823826128d1565b915061282e836128d1565b925082821015612841576128406129a7565b5b828203905092915050565b600073ffffffffffffffffffffffffffffffffffffffff82169050919050565b600060ff82169050919050565b6000612884826128b1565b9050919050565b600081905061289982612a81565b919050565b60008190506128ac82612a95565b919050565b600073ffffffffffffffffffffffffffffffffffffffff82169050919050565b6000819050919050565b60006128e68261288b565b9050919050565b60006128f88261289e565b9050919050565b82818337600083830152505050565b60005b8381101561292c578082015181840152602081019050612911565b8381111561293b576000848401525b50505050565b6000600282049050600182168061295957607f821691505b6020821081141561296d5761296c612a05565b5b50919050565b600061298661298183612a74565b61284c565b9050919050565b60006129a061299b83612a74565b61286c565b9050919050565b7f4e487b7100000000000000000000000000000000000000000000000000000000600052601160045260246000fd5b7f4e487b7100000000000000000000000000000000000000000000000000000000600052602160045260246000fd5b7f4e487b7100000000000000000000000000000000000000000000000000000000600052602260045260246000fd5b7f4e487b7100000000000000000000000000000000000000000000000000000000600052604160045260246000fd5b6000601f19601f8301169050919050565b60008160001c9050919050565b60038110612a9257612a916129d6565b5b50565b60088110612aa657612aa56129d6565b5b50565b612ab281612879565b8114612abd57600080fd5b50565b612ac9816128d1565b8114612ad457600080fd5b5056fea2646970667358221220d795f75c045872a1129e8b206ba8ae9601805f3132f7f0ee64241fe1595d93a864736f6c63430008000033a264697066735822122020e2b26eece0e0b65b500859cf22adc798c7513bf7ff5eb339e1d7537c7a131a64736f6c63430008000033",
  "immutableReferences": {},
  "source": "// SPDX-License-Identifier: MIT\r\npragma solidity ^0.8.0;\r\n\r\nimport \"./DecentraLoan.sol\";\r\n\r\ncontract DecentraLoanFactory {\r\n    mapping(address => address[]) loans;\r\n\r\n    function GetLoans(address user) public view returns (address[] memory) {\r\n        return loans[user];\r\n    }\r\n\r\n    function CreateLoan(address lender, uint256 amount, uint256 interest, uint256 repayment_period)\r\n        public\r\n        payable\r\n        returns (address loanAddress)\r\n    {\r\n        DecentraLoan loan = new DecentraLoan(msg.sender, lender, amount, interest, repayment_period);\r\n        loanAddress = address(loan);\r\n\r\n        loans[lender].push(loanAddress);\r\n\r\n        // Emit Created() event.\r\n        Created(loanAddress, msg.sender, lender, block.timestamp, amount, interest, repayment_period);\r\n    }\r\n\r\n    /**\r\n     * Events\r\n     */\r\n    event Received(address, uint);\r\n    event Created(address loan, address from, address to, uint256 createdAt, uint256 amount, uint256 interest, uint256 repayment_period);\r\n\r\n    // Receive any ethereum randomly sent to the contract from outside\r\n    receive() external payable {\r\n        emit Received(msg.sender, msg.value);\r\n    }\r\n}\r\n",
  "sourcePath": "C:/Users/abdie/Documents/Developer/Capstone/CAPSTONE_APP/contracts/DecentraLoanFactory.sol",
  "compiler": {
    "name": "solc",
    "version": "0.8.0+commit.c7dfd78e.Emscripten.clang"
  },
  "schemaVersion": "3.3.3",
  "updatedAt": "2021-03-09T21:56:35.199Z",
  "devdoc": {
    "kind": "dev",
    "methods": {},
    "version": 1
  },
  "userdoc": {
    "events": {
      "Received(address,uint256)": {
        "notice": "Events"
      }
    },
    "kind": "user",
    "methods": {},
    "version": 1
  }
}