{
  "contractName": "DecentraLoanPlatform",
  "abi": [
    {
      "inputs": [],
      "stateMutability": "nonpayable",
      "type": "constructor"
    },
    {
      "inputs": [],
      "name": "GetLoans",
      "outputs": [
        {
          "internalType": "address[]",
          "name": "",
          "type": "address[]"
        }
      ],
      "stateMutability": "view",
      "type": "function",
      "constant": true
    },
    {
      "inputs": [
        {
          "internalType": "address",
          "name": "lender",
          "type": "address"
        },
        {
          "internalType": "uint256",
          "name": "amount",
          "type": "uint256"
        },
        {
          "internalType": "uint256",
          "name": "interest",
          "type": "uint256"
        },
        {
          "internalType": "uint256",
          "name": "months",
          "type": "uint256"
        },
        {
          "internalType": "uint256",
          "name": "platform",
          "type": "uint256"
        }
      ],
      "name": "NewLoan",
      "outputs": [],
      "stateMutability": "payable",
      "type": "function",
      "payable": true
    },
    {
      "inputs": [],
      "name": "Decomise",
      "outputs": [],
      "stateMutability": "payable",
      "type": "function",
      "payable": true
    }
  ],
  "bytecode": "0x608060405234801561001057600080fd5b5033600160006101000a81548173ffffffffffffffffffffffffffffffffffffffff021916908373ffffffffffffffffffffffffffffffffffffffff1602179055506000600160146101000a81548160ff021916908315150217905550612e818061007c6000396000f3fe608060405260043610620000385760003560e01c80633151a669146200003d578063583f4a44146200006d578063aa8ba74c146200008d575b600080fd5b3480156200004a57600080fd5b506200005562000099565b6040516200006491906200048b565b60405180910390f35b6200008b6004803603810190620000859190620002e5565b62000144565b005b6200009762000217565b005b6060600160149054906101000a900460ff1615620000b657600080fd5b60008054806020026020016040519081016040528092919081815260200182805480156200013a57602002820191906000526020600020905b8160009054906101000a900473ffffffffffffffffffffffffffffffffffffffff1673ffffffffffffffffffffffffffffffffffffffff1681526020019060010190808311620000ef575b5050505050905090565b600160149054906101000a900460ff16156200015f57600080fd5b60003386868686866040516200017590620002a9565b62000186969594939291906200041e565b604051809103906000f080158015620001a3573d6000803e3d6000fd5b50905060008190506000819080600181540180825580915050600190039060005260206000200160009091909190916101000a81548173ffffffffffffffffffffffffffffffffffffffff021916908373ffffffffffffffffffffffffffffffffffffffff16021790555050505050505050565b600160149054906101000a900460ff16156200023257600080fd5b600160009054906101000a900473ffffffffffffffffffffffffffffffffffffffff1673ffffffffffffffffffffffffffffffffffffffff163373ffffffffffffffffffffffffffffffffffffffff16146200028d57600080fd5b60018060146101000a81548160ff021916908315150217905550565b6128f1806200055b83390190565b600081359050620002c88162000526565b92915050565b600081359050620002df8162000540565b92915050565b600080600080600060a08688031215620002fe57600080fd5b60006200030e88828901620002b7565b95505060206200032188828901620002ce565b94505060406200033488828901620002ce565b93505060606200034788828901620002ce565b92505060806200035a88828901620002ce565b9150509295509295909350565b600062000375838362000381565b60208301905092915050565b6200038c81620004e8565b82525050565b6200039d81620004e8565b82525050565b6000620003b082620004bf565b620003bc8185620004d7565b9350620003c983620004af565b8060005b8381101562000400578151620003e4888262000367565b9750620003f183620004ca565b925050600181019050620003cd565b5085935050505092915050565b62000418816200051c565b82525050565b600060c08201905062000435600083018962000392565b62000444602083018862000392565b6200045360408301876200040d565b6200046260608301866200040d565b6200047160808301856200040d565b6200048060a08301846200040d565b979650505050505050565b60006020820190508181036000830152620004a78184620003a3565b905092915050565b6000819050602082019050919050565b600081519050919050565b6000602082019050919050565b600082825260208201905092915050565b6000620004f582620004fc565b9050919050565b600073ffffffffffffffffffffffffffffffffffffffff82169050919050565b6000819050919050565b6200053181620004e8565b81146200053d57600080fd5b50565b6200054b816200051c565b81146200055757600080fd5b5056fe60806040523480156200001157600080fd5b50604051620028f1380380620028f18339818101604052810190620000379190620001a7565b84600c60006101000a81548173ffffffffffffffffffffffffffffffffffffffff021916908373ffffffffffffffffffffffffffffffffffffffff16021790555083600e8190555082600f819055508160108190555080601181905550856000806101000a81548173ffffffffffffffffffffffffffffffffffffffff021916908373ffffffffffffffffffffffffffffffffffffffff1602179055506000601260006101000a81548160ff0219169083600681111562000121577f4e487b7100000000000000000000000000000000000000000000000000000000600052602160045260246000fd5b021790555060006015819055507f99a12a7aefbbb67909c2bee4a5e2ddb98b2183b8ae2a59e5a7db47f53453345d858585856040516200016594939291906200025f565b60405180910390a15050505050506200031e565b6000815190506200018a81620002ea565b92915050565b600081519050620001a18162000304565b92915050565b60008060008060008060c08789031215620001c157600080fd5b6000620001d189828a0162000179565b9650506020620001e489828a0162000179565b9550506040620001f789828a0162000190565b94505060606200020a89828a0162000190565b93505060806200021d89828a0162000190565b92505060a06200023089828a0162000190565b9150509295509295509295565b6200024881620002ac565b82525050565b6200025981620002e0565b82525050565b60006080820190506200027660008301876200023d565b6200028560208301866200024e565b6200029460408301856200024e565b620002a360608301846200024e565b95945050505050565b6000620002b982620002c0565b9050919050565b600073ffffffffffffffffffffffffffffffffffffffff82169050919050565b6000819050919050565b620002f581620002ac565b81146200030157600080fd5b50565b6200030f81620002e0565b81146200031b57600080fd5b50565b6125c3806200032e6000396000f3fe6080604052600436106100ab5760003560e01c806357ea89b61161006457806357ea89b6146101db5780639364330e146101e5578063b3a8191914610201578063c08199611461021d578063d383d2e314610227578063dab053e214610243576100eb565b80631843d3e3146100f057806324c859641461011b57806324d09da4146101255780634012e02e146101505780635677640b1461018257806357baac0d146101bf576100eb565b366100eb577f88a5966d370b9919b20f3e2c13ff65706f196a4e32cc2c12bf57088f8852587433346040516100e1929190611f7a565b60405180910390a1005b600080fd5b3480156100fc57600080fd5b5061010561025f565b6040516101129190612072565b60405180910390f35b6101236102e0565b005b34801561013157600080fd5b5061013a6104c6565b60405161014791906120b0565b60405180910390f35b34801561015c57600080fd5b506101656104d0565b604051610179989796959493929190611efc565b60405180910390f35b34801561018e57600080fd5b506101a960048036038101906101a49190611c0c565b61055b565b6040516101b6919061208e565b60405180910390f35b6101d960048036038101906101d49190611c35565b61073b565b005b6101e3610898565b005b6101ff60048036038101906101fa9190611b1a565b610a28565b005b61021b60048036038101906102169190611c0c565b610c42565b005b610225610e18565b005b610241600480360381019061023c9190611b7d565b611000565b005b61025d60048036038101906102589190611af1565b611477565b005b61026761192a565b6001600a806020026040519081016040528092919082600a80156102d6576020028201915b8160009054906101000a900473ffffffffffffffffffffffffffffffffffffffff1673ffffffffffffffffffffffffffffffffffffffff168152602001906001019080831161028c575b5050505050905090565b60008054906101000a900473ffffffffffffffffffffffffffffffffffffffff1673ffffffffffffffffffffffffffffffffffffffff163373ffffffffffffffffffffffffffffffffffffffff161461033857600080fd5b60005b600b548110156104c357600181600a811061037f577f4e487b7100000000000000000000000000000000000000000000000000000000600052603260045260246000fd5b0160009054906101000a900473ffffffffffffffffffffffffffffffffffffffff1673ffffffffffffffffffffffffffffffffffffffff166108fc6601c6bf52634000600b54600e546103d291906121f1565b6103dc9190612222565b9081150290604051600060405180830381858888f19350505050158015610407573d6000803e3d6000fd5b507fd14c96933a4a33d20a125a7148222f07ef59ed810a59a3fffd9137bbdd0ddd9c600182600a8110610463577f4e487b7100000000000000000000000000000000000000000000000000000000600052603260045260246000fd5b0160009054906101000a900473ffffffffffffffffffffffffffffffffffffffff166601c6bf52634000600e5461049a9190612222565b6040516104a8929190611e80565b60405180910390a180806104bb906123f2565b91505061033b565b50565b6000600e54905090565b600080600080600080600080600c60009054906101000a900473ffffffffffffffffffffffffffffffffffffffff16600d60009054906101000a900473ffffffffffffffffffffffffffffffffffffffff16600e54601454600f54601054601554601260009054906101000a900460ff16975097509750975097509750975097509091929394959697565b61056361194d565b60155482111561057257600080fd5b601382815481106105ac577f4e487b7100000000000000000000000000000000000000000000000000000000600052603260045260246000fd5b90600052602060002090600302016040518060600160405290816000820160009054906101000a900473ffffffffffffffffffffffffffffffffffffffff1673ffffffffffffffffffffffffffffffffffffffff1673ffffffffffffffffffffffffffffffffffffffff16815260200160018201805461062b906123c0565b80601f0160208091040260200160405190810160405280929190818152602001828054610657906123c0565b80156106a45780601f10610679576101008083540402835291602001916106a4565b820191906000526020600020905b81548152906001019060200180831161068757829003601f168201915b505050505081526020016002820160009054906101000a900460ff1660028111156106f8577f4e487b7100000000000000000000000000000000000000000000000000000000600052602160045260246000fd5b6002811115610730577f4e487b7100000000000000000000000000000000000000000000000000000000600052602160045260246000fd5b815250509050919050565b60008054906101000a900473ffffffffffffffffffffffffffffffffffffffff1673ffffffffffffffffffffffffffffffffffffffff163373ffffffffffffffffffffffffffffffffffffffff161461079357600080fd5b600060068111156107cd577f4e487b7100000000000000000000000000000000000000000000000000000000600052602160045260246000fd5b601260009054906101000a900460ff166006811115610815577f4e487b7100000000000000000000000000000000000000000000000000000000600052602160045260246000fd5b1461081f57600080fd5b82600e8190555081600f81905550806010819055507fff917abbd5265db0321d1698dfe74287ae6b93d1cd1f486a618d1124feb0b8bc600c60009054906101000a900473ffffffffffffffffffffffffffffffffffffffff1684848460405161088b949392919061202d565b60405180910390a1505050565b60008054906101000a900473ffffffffffffffffffffffffffffffffffffffff1673ffffffffffffffffffffffffffffffffffffffff163373ffffffffffffffffffffffffffffffffffffffff16146108f057600080fd5b6000600681111561092a577f4e487b7100000000000000000000000000000000000000000000000000000000600052602160045260246000fd5b601260009054906101000a900460ff166006811115610972577f4e487b7100000000000000000000000000000000000000000000000000000000600052602160045260246000fd5b1461097c57600080fd5b6006601260006101000a81548160ff021916908360068111156109c8577f4e487b7100000000000000000000000000000000000000000000000000000000600052602160045260246000fd5b02179055507ff45a04d08a70caa7eb4b747571305559ad9fdf4a093afd41506b35c8a306fa94600c60009054906101000a900473ffffffffffffffffffffffffffffffffffffffff16604051610a1e9190611e65565b60405180910390a1565b60008054906101000a900473ffffffffffffffffffffffffffffffffffffffff1673ffffffffffffffffffffffffffffffffffffffff163373ffffffffffffffffffffffffffffffffffffffff1614610a8057600080fd5b60006006811115610aba577f4e487b7100000000000000000000000000000000000000000000000000000000600052602160045260246000fd5b601260009054906101000a900460ff166006811115610b02577f4e487b7100000000000000000000000000000000000000000000000000000000600052602160045260246000fd5b14610b0c57600080fd5b83600d60006101000a81548173ffffffffffffffffffffffffffffffffffffffff021916908373ffffffffffffffffffffffffffffffffffffffff16021790555082600e8190555081600f81905550806010819055506002601260006101000a81548160ff02191690836006811115610bae577f4e487b7100000000000000000000000000000000000000000000000000000000600052602160045260246000fd5b02179055507f8fe0ac573acf497793f3dcb9d6a4ee36413e0231ccaa4074d0dd5534be01e38b600c60009054906101000a900473ffffffffffffffffffffffffffffffffffffffff16600d60009054906101000a900473ffffffffffffffffffffffffffffffffffffffff16600e54600f54601054604051610c34959493929190611ea9565b60405180910390a150505050565b60008054906101000a900473ffffffffffffffffffffffffffffffffffffffff1673ffffffffffffffffffffffffffffffffffffffff163373ffffffffffffffffffffffffffffffffffffffff1614610c9a57600080fd5b60005b600b54811015610e1457600181600a8110610ce1577f4e487b7100000000000000000000000000000000000000000000000000000000600052603260045260246000fd5b0160009054906101000a900473ffffffffffffffffffffffffffffffffffffffff1673ffffffffffffffffffffffffffffffffffffffff166108fc6601c6bf5263400084610d2f9190612222565b9081150290604051600060405180830381858888f19350505050158015610d5a573d6000803e3d6000fd5b507f6bb3934e1c154e4f4f60d85c51a1a47a51c3f4a954b921baaa558cdf7ba9f025600182600a8110610db6577f4e487b7100000000000000000000000000000000000000000000000000000000600052603260045260246000fd5b0160009054906101000a900473ffffffffffffffffffffffffffffffffffffffff166601c6bf5263400084610deb9190612222565b604051610df9929190611e80565b60405180910390a18080610e0c906123f2565b915050610c9d565b5050565b600680811115610e51577f4e487b7100000000000000000000000000000000000000000000000000000000600052602160045260246000fd5b601260009054906101000a900460ff166006811115610e99577f4e487b7100000000000000000000000000000000000000000000000000000000600052602160045260246000fd5b141580610f26575060046006811115610edb577f4e487b7100000000000000000000000000000000000000000000000000000000600052602160045260246000fd5b601260009054906101000a900460ff166006811115610f23577f4e487b7100000000000000000000000000000000000000000000000000000000600052602160045260246000fd5b14155b610f2f57600080fd5b600a600b5410610f3e57600080fd5b6601c6bf52634000600a600e54610f5591906121f1565b610f5f9190612222565b3414610f6a57600080fd5b336001600b54600a8110610fa7577f4e487b7100000000000000000000000000000000000000000000000000000000600052603260045260246000fd5b0160006101000a81548173ffffffffffffffffffffffffffffffffffffffff021916908373ffffffffffffffffffffffffffffffffffffffff160217905550600b6000815480929190610ff9906123f2565b9190505550565b60008054906101000a900473ffffffffffffffffffffffffffffffffffffffff1673ffffffffffffffffffffffffffffffffffffffff163373ffffffffffffffffffffffffffffffffffffffff161461105857600080fd5b600c60009054906101000a900473ffffffffffffffffffffffffffffffffffffffff1673ffffffffffffffffffffffffffffffffffffffff168573ffffffffffffffffffffffffffffffffffffffff1614806111015750600d60009054906101000a900473ffffffffffffffffffffffffffffffffffffffff1673ffffffffffffffffffffffffffffffffffffffff168573ffffffffffffffffffffffffffffffffffffffff16145b80611157575060008054906101000a900473ffffffffffffffffffffffffffffffffffffffff1673ffffffffffffffffffffffffffffffffffffffff168573ffffffffffffffffffffffffffffffffffffffff16145b61116057600080fd5b6002600681111561119a577f4e487b7100000000000000000000000000000000000000000000000000000000600052602160045260246000fd5b601260009054906101000a900460ff1660068111156111e2577f4e487b7100000000000000000000000000000000000000000000000000000000600052602160045260246000fd5b146111ec57600080fd5b600083116111f957600080fd5b600060155414156112105782601481905550611247565b8260145461121e919061227c565b6014819055506112466001600b54611236919061219b565b8361124191906121f1565b610c42565b5b601360405180606001604052808773ffffffffffffffffffffffffffffffffffffffff168152602001838152602001600060028111156112b0577f4e487b7100000000000000000000000000000000000000000000000000000000600052602160045260246000fd5b815250908060018154018082558091505060019003906000526020600020906003020160009091909190915060008201518160000160006101000a81548173ffffffffffffffffffffffffffffffffffffffff021916908373ffffffffffffffffffffffffffffffffffffffff160217905550602082015181600101908051906020019061133f9291906119bc565b5060408201518160020160006101000a81548160ff02191690836002811115611391577f4e487b7100000000000000000000000000000000000000000000000000000000600052602160045260246000fd5b021790555050506003601260006101000a81548160ff021916908360068111156113e4577f4e487b7100000000000000000000000000000000000000000000000000000000600052602160045260246000fd5b02179055507f5cfc5f208b7752cea928bde39e788a6ba0683d77941de216b2a1c34d754bf90485848660138881548110611447577f4e487b7100000000000000000000000000000000000000000000000000000000600052603260045260246000fd5b90600052602060002090600302016001016040516114689493929190611fe1565b60405180910390a15050505050565b60008054906101000a900473ffffffffffffffffffffffffffffffffffffffff1673ffffffffffffffffffffffffffffffffffffffff163373ffffffffffffffffffffffffffffffffffffffff16146114cf57600080fd5b600d60009054906101000a900473ffffffffffffffffffffffffffffffffffffffff1673ffffffffffffffffffffffffffffffffffffffff168173ffffffffffffffffffffffffffffffffffffffff161480156115e65750600c60009054906101000a900473ffffffffffffffffffffffffffffffffffffffff1673ffffffffffffffffffffffffffffffffffffffff1660136015548154811061159c577f4e487b7100000000000000000000000000000000000000000000000000000000600052603260045260246000fd5b906000526020600020906003020160000160009054906101000a900473ffffffffffffffffffffffffffffffffffffffff1673ffffffffffffffffffffffffffffffffffffffff16145b806117045750600c60009054906101000a900473ffffffffffffffffffffffffffffffffffffffff1673ffffffffffffffffffffffffffffffffffffffff168173ffffffffffffffffffffffffffffffffffffffff161480156117035750600d60009054906101000a900473ffffffffffffffffffffffffffffffffffffffff1673ffffffffffffffffffffffffffffffffffffffff166013601554815481106116b9577f4e487b7100000000000000000000000000000000000000000000000000000000600052603260045260246000fd5b906000526020600020906003020160000160009054906101000a900473ffffffffffffffffffffffffffffffffffffffff1673ffffffffffffffffffffffffffffffffffffffff16145b5b61170d57600080fd5b60036006811115611747577f4e487b7100000000000000000000000000000000000000000000000000000000600052602160045260246000fd5b601260009054906101000a900460ff16600681111561178f577f4e487b7100000000000000000000000000000000000000000000000000000000600052602160045260246000fd5b1461179957600080fd5b60026013601554815481106117d7577f4e487b7100000000000000000000000000000000000000000000000000000000600052603260045260246000fd5b906000526020600020906003020160020160006101000a81548160ff02191690836002811115611830577f4e487b7100000000000000000000000000000000000000000000000000000000600052602160045260246000fd5b02179055506002601260006101000a81548160ff02191690836006811115611881577f4e487b7100000000000000000000000000000000000000000000000000000000600052602160045260246000fd5b02179055507f81c0c81b76f6d40169ac434db902906d87dba0f6ecd6f0249356df7f6977e602816015546013601554815481106118e7577f4e487b7100000000000000000000000000000000000000000000000000000000600052603260045260246000fd5b906000526020600020906003020160010160405161190793929190611fa3565b60405180910390a160156000815480929190611922906123f2565b919050555050565b604051806101400160405280600a90602082028036833780820191505090505090565b6040518060600160405280600073ffffffffffffffffffffffffffffffffffffffff16815260200160608152602001600060028111156119b6577f4e487b7100000000000000000000000000000000000000000000000000000000600052602160045260246000fd5b81525090565b8280546119c8906123c0565b90600052602060002090601f0160209004810192826119ea5760008555611a31565b82601f10611a0357805160ff1916838001178555611a31565b82800160010185558215611a31579182015b82811115611a30578251825591602001919060010190611a15565b5b509050611a3e9190611a42565b5090565b5b80821115611a5b576000816000905550600101611a43565b5090565b6000611a72611a6d846120fc565b6120cb565b905082815260208101848484011115611a8a57600080fd5b611a9584828561237e565b509392505050565b600081359050611aac8161255f565b92915050565b600082601f830112611ac357600080fd5b8135611ad3848260208601611a5f565b91505092915050565b600081359050611aeb81612576565b92915050565b600060208284031215611b0357600080fd5b6000611b1184828501611a9d565b91505092915050565b60008060008060808587031215611b3057600080fd5b6000611b3e87828801611a9d565b9450506020611b4f87828801611adc565b9350506040611b6087828801611adc565b9250506060611b7187828801611adc565b91505092959194509250565b600080600080600060a08688031215611b9557600080fd5b6000611ba388828901611a9d565b9550506020611bb488828901611adc565b9450506040611bc588828901611adc565b9350506060611bd688828901611adc565b925050608086013567ffffffffffffffff811115611bf357600080fd5b611bff88828901611ab2565b9150509295509295909350565b600060208284031215611c1e57600080fd5b6000611c2c84828501611adc565b91505092915050565b600080600060608486031215611c4a57600080fd5b6000611c5886828701611adc565b9350506020611c6986828701611adc565b9250506040611c7a86828701611adc565b9150509250925092565b6000611c908383611cab565b60208301905092915050565b611ca581612324565b82525050565b611cb4816122c2565b82525050565b611cc3816122b0565b82525050565b611cd2816122b0565b82525050565b611ce18161214b565b611ceb818461216e565b9250611cf68261212c565b8060005b83811015611d27578151611d0e8782611c84565b9650611d1983612161565b925050600181019050611cfa565b505050505050565b611d3881612336565b82525050565b611d4781612348565b82525050565b6000611d5882612156565b611d628185612179565b9350611d7281856020860161238d565b611d7b81612526565b840191505092915050565b60008154611d93816123c0565b611d9d818661218a565b94506001821660008114611db85760018114611dca57611dfd565b60ff1983168652602086019350611dfd565b611dd385612136565b60005b83811015611df557815481890152600182019150602081019050611dd6565b808801955050505b50505092915050565b6000606083016000830151611e1e6000860182611cba565b5060208301518482036020860152611e368282611d4d565b9150506040830151611e4b6040860182611d2f565b508091505092915050565b611e5f8161231a565b82525050565b6000602082019050611e7a6000830184611cc9565b92915050565b6000604082019050611e956000830185611c9c565b611ea26020830184611e56565b9392505050565b600060a082019050611ebe6000830188611cc9565b611ecb6020830187611cc9565b611ed86040830186611e56565b611ee56060830185611e56565b611ef26080830184611e56565b9695505050505050565b600061010082019050611f12600083018b611cc9565b611f1f602083018a611cc9565b611f2c6040830189611e56565b611f396060830188611e56565b611f466080830187611e56565b611f5360a0830186611e56565b611f6060c0830185611e56565b611f6d60e0830184611d3e565b9998505050505050505050565b6000604082019050611f8f6000830185611cc9565b611f9c6020830184611e56565b9392505050565b6000606082019050611fb86000830186611cc9565b611fc56020830185611e56565b8181036040830152611fd78184611d86565b9050949350505050565b6000608082019050611ff66000830187611cc9565b6120036020830186611e56565b6120106040830185611e56565b81810360608301526120228184611d86565b905095945050505050565b60006080820190506120426000830187611cc9565b61204f6020830186611e56565b61205c6040830185611e56565b6120696060830184611e56565b95945050505050565b6000610140820190506120886000830184611cd8565b92915050565b600060208201905081810360008301526120a88184611e06565b905092915050565b60006020820190506120c56000830184611e56565b92915050565b6000604051905081810181811067ffffffffffffffff821117156120f2576120f16124f7565b5b8060405250919050565b600067ffffffffffffffff821115612117576121166124f7565b5b601f19601f8301169050602081019050919050565b6000819050919050565b60008190508160005260206000209050919050565b6000600a9050919050565b600081519050919050565b6000602082019050919050565b600081905092915050565b600082825260208201905092915050565b600082825260208201905092915050565b60006121a68261231a565b91506121b18361231a565b9250827fffffffffffffffffffffffffffffffffffffffffffffffffffffffffffffffff038211156121e6576121e561243b565b5b828201905092915050565b60006121fc8261231a565b91506122078361231a565b9250826122175761221661246a565b5b828204905092915050565b600061222d8261231a565b91506122388361231a565b9250817fffffffffffffffffffffffffffffffffffffffffffffffffffffffffffffffff04831182151516156122715761227061243b565b5b828202905092915050565b60006122878261231a565b91506122928361231a565b9250828210156122a5576122a461243b565b5b828203905092915050565b60006122bb826122fa565b9050919050565b60006122cd826122fa565b9050919050565b60008190506122e282612537565b919050565b60008190506122f58261254b565b919050565b600073ffffffffffffffffffffffffffffffffffffffff82169050919050565b6000819050919050565b600061232f8261235a565b9050919050565b6000612341826122d4565b9050919050565b6000612353826122e7565b9050919050565b60006123658261236c565b9050919050565b6000612377826122fa565b9050919050565b82818337600083830152505050565b60005b838110156123ab578082015181840152602081019050612390565b838111156123ba576000848401525b50505050565b600060028204905060018216806123d857607f821691505b602082108114156123ec576123eb6124c8565b5b50919050565b60006123fd8261231a565b91507fffffffffffffffffffffffffffffffffffffffffffffffffffffffffffffffff8214156124305761242f61243b565b5b600182019050919050565b7f4e487b7100000000000000000000000000000000000000000000000000000000600052601160045260246000fd5b7f4e487b7100000000000000000000000000000000000000000000000000000000600052601260045260246000fd5b7f4e487b7100000000000000000000000000000000000000000000000000000000600052602160045260246000fd5b7f4e487b7100000000000000000000000000000000000000000000000000000000600052602260045260246000fd5b7f4e487b7100000000000000000000000000000000000000000000000000000000600052604160045260246000fd5b6000601f19601f8301169050919050565b6003811061254857612547612499565b5b50565b6007811061255c5761255b612499565b5b50565b612568816122b0565b811461257357600080fd5b50565b61257f8161231a565b811461258a57600080fd5b5056fea264697066735822122043ddcbd5749592cd7be4ea15404b1c6f4697ca7e19ac0de09e5ffbe02e26767d64736f6c63430008000033a2646970667358221220fb3bb6f18f8e7d3b21edc36bf599386c94166ba75434abbf5cbff2958febd2a164736f6c63430008000033",
  "immutableReferences": {},
  "source": "// SPDX-License-Identifier: MIT\r\npragma solidity ^0.8.0;\r\n\r\nimport \"./DecentraLoan.sol\";\r\n\r\ncontract DecentraLoanPlatform {\r\n    address[] private _loans;\r\n    \r\n    address private _owner;\r\n    bool private _obsolete;\r\n\r\n    constructor () {\r\n        _owner = msg.sender;\r\n        _obsolete = false;\r\n    }\r\n\r\n    function GetLoans() public view returns (address[] memory) {\r\n        require(!_obsolete);\r\n        \r\n        return _loans;\r\n    }\r\n\r\n    // Loan Factory Methods\r\n    function NewLoan(\r\n        address lender,\r\n        uint256 amount,\r\n        uint256 interest,\r\n        uint256 months,\r\n        uint256 platform\r\n    ) \r\n    public \r\n    payable \r\n    {\r\n        require(!_obsolete);\r\n        \r\n        DecentraLoan newContract = new DecentraLoan(msg.sender, lender, amount, interest, months, platform);\r\n        \r\n        address contractAddress = address(newContract);\r\n       \r\n        _loans.push(contractAddress);\r\n    }\r\n    \r\n    function Decomise() public payable {\r\n        require(!_obsolete);\r\n        require(msg.sender == _owner);\r\n        _obsolete = true;\r\n    }\r\n\r\n}",
  "sourcePath": "C:/Users/abdie/Documents/Developer/Capstone/CAPSTONE_APP/contracts/DecentraLoanPlatform.sol",
  "compiler": {
    "name": "solc",
    "version": "0.8.0+commit.c7dfd78e.Emscripten.clang"
  },
  "schemaVersion": "3.3.3",
  "updatedAt": "2021-04-23T20:53:37.263Z",
  "networkType": "ethereum",
  "devdoc": {
    "kind": "dev",
    "methods": {},
    "version": 1
  },
  "userdoc": {
    "kind": "user",
    "methods": {},
    "version": 1
  }
}