{
  "contractName": "DecentraLoanFactory",
  "abi": [
    {
      "anonymous": false,
      "inputs": [
        {
          "indexed": false,
          "internalType": "address",
          "name": "loan",
          "type": "address"
        },
        {
          "indexed": false,
          "internalType": "address",
          "name": "from",
          "type": "address"
        },
        {
          "indexed": false,
          "internalType": "address",
          "name": "to",
          "type": "address"
        },
        {
          "indexed": false,
          "internalType": "uint256",
          "name": "createdAt",
          "type": "uint256"
        },
        {
          "indexed": false,
          "internalType": "uint256",
          "name": "amount",
          "type": "uint256"
        },
        {
          "indexed": false,
          "internalType": "uint256",
          "name": "interest",
          "type": "uint256"
        },
        {
          "indexed": false,
          "internalType": "uint256",
          "name": "repayment_period",
          "type": "uint256"
        }
      ],
      "name": "Created",
      "type": "event"
    },
    {
      "anonymous": false,
      "inputs": [
        {
          "indexed": false,
          "internalType": "address",
          "name": "",
          "type": "address"
        },
        {
          "indexed": false,
          "internalType": "uint256",
          "name": "",
          "type": "uint256"
        }
      ],
      "name": "Received",
      "type": "event"
    },
    {
      "stateMutability": "payable",
      "type": "receive",
      "payable": true
    },
    {
      "inputs": [
        {
          "internalType": "address",
          "name": "user",
          "type": "address"
        }
      ],
      "name": "GetLoans",
      "outputs": [
        {
          "internalType": "address[]",
          "name": "",
          "type": "address[]"
        }
      ],
      "stateMutability": "view",
      "type": "function",
      "constant": true
    },
    {
      "inputs": [
        {
          "internalType": "address",
          "name": "lender",
          "type": "address"
        },
        {
          "internalType": "uint256",
          "name": "amount",
          "type": "uint256"
        },
        {
          "internalType": "uint256",
          "name": "interest",
          "type": "uint256"
        },
        {
          "internalType": "uint256",
          "name": "repayment_period",
          "type": "uint256"
        }
      ],
      "name": "CreateLoan",
      "outputs": [
        {
          "internalType": "address",
          "name": "loanAddress",
          "type": "address"
        }
      ],
      "stateMutability": "payable",
      "type": "function",
      "payable": true
    }
  ],
  "bytecode": "0x608060405234801561001057600080fd5b506125b8806100206000396000f3fe60806040526004361061002d5760003560e01c8063074962fb146100725780635e156e73146100a25761006d565b3661006d577f88a5966d370b9919b20f3e2c13ff65706f196a4e32cc2c12bf57088f88525874333460405161006392919061051e565b60405180910390a1005b600080fd5b61008c6004803603810190610087919061033b565b6100df565b6040516100999190610441565b60405180910390f35b3480156100ae57600080fd5b506100c960048036038101906100c49190610312565b61020e565b6040516100d69190610547565b60405180910390f35b60008033868686866040516100f3906102da565b6101019594939291906104cb565b604051809103906000f08015801561011d573d6000803e3d6000fd5b5090508091506000808773ffffffffffffffffffffffffffffffffffffffff1673ffffffffffffffffffffffffffffffffffffffff168152602001908152602001600020829080600181540180825580915050600190039060005260206000200160009091909190916101000a81548173ffffffffffffffffffffffffffffffffffffffff021916908373ffffffffffffffffffffffffffffffffffffffff1602179055507fe9149e2e36741aa7dd8613a68b375a095b59199199aafe3590af8db7c387d956823388428989896040516101fd979695949392919061045c565b60405180910390a150949350505050565b60606000808373ffffffffffffffffffffffffffffffffffffffff1673ffffffffffffffffffffffffffffffffffffffff1681526020019081526020016000208054806020026020016040519081016040528092919081815260200182805480156102ce57602002820191906000526020600020905b8160009054906101000a900473ffffffffffffffffffffffffffffffffffffffff1673ffffffffffffffffffffffffffffffffffffffff1681526020019060010190808311610284575b50505050509050919050565b611f76806200060d83390190565b6000813590506102f7816105de565b92915050565b60008135905061030c816105f5565b92915050565b60006020828403121561032457600080fd5b6000610332848285016102e8565b91505092915050565b6000806000806080858703121561035157600080fd5b600061035f878288016102e8565b9450506020610370878288016102fd565b9350506040610381878288016102fd565b9250506060610392878288016102fd565b91505092959194509250565b60006103aa83836103b6565b60208301905092915050565b6103bf816105a2565b82525050565b6103ce816105a2565b82525050565b60006103df82610579565b6103e98185610591565b93506103f483610569565b8060005b8381101561042557815161040c888261039e565b975061041783610584565b9250506001810190506103f8565b5085935050505092915050565b61043b816105d4565b82525050565b600060208201905061045660008301846103c5565b92915050565b600060e082019050610471600083018a6103c5565b61047e60208301896103c5565b61048b60408301886103c5565b6104986060830187610432565b6104a56080830186610432565b6104b260a0830185610432565b6104bf60c0830184610432565b98975050505050505050565b600060a0820190506104e060008301886103c5565b6104ed60208301876103c5565b6104fa6040830186610432565b6105076060830185610432565b6105146080830184610432565b9695505050505050565b600060408201905061053360008301856103c5565b6105406020830184610432565b9392505050565b6000602082019050818103600083015261056181846103d4565b905092915050565b6000819050602082019050919050565b600081519050919050565b6000602082019050919050565b600082825260208201905092915050565b60006105ad826105b4565b9050919050565b600073ffffffffffffffffffffffffffffffffffffffff82169050919050565b6000819050919050565b6105e7816105a2565b81146105f257600080fd5b50565b6105fe816105d4565b811461060957600080fd5b5056fe60806040523480156200001157600080fd5b5060405162001f7638038062001f76833981810160405281019062000037919062000158565b83600160006101000a81548173ffffffffffffffffffffffffffffffffffffffff021916908373ffffffffffffffffffffffffffffffffffffffff160217905550826002819055508160038190555080600481905550846000806101000a81548173ffffffffffffffffffffffffffffffffffffffff021916908373ffffffffffffffffffffffffffffffffffffffff1602179055506000600960006101000a81548160ff021916908360078111156200011a577f4e487b7100000000000000000000000000000000000000000000000000000000600052602160045260246000fd5b021790555050505050506200024c565b6000815190506200013b8162000218565b92915050565b600081519050620001528162000232565b92915050565b600080600080600060a086880312156200017157600080fd5b600062000181888289016200012a565b955050602062000194888289016200012a565b9450506040620001a78882890162000141565b9350506060620001ba8882890162000141565b9250506080620001cd8882890162000141565b9150509295509295909350565b6000620001e782620001ee565b9050919050565b600073ffffffffffffffffffffffffffffffffffffffff82169050919050565b6000819050919050565b6200022381620001da565b81146200022f57600080fd5b50565b6200023d816200020e565b81146200024957600080fd5b50565b611d1a806200025c6000396000f3fe6080604052600436106101185760003560e01c806348dc0b6e116100a0578063e3fc1c1911610064578063e3fc1c19146103b1578063eca2dbb2146103dc578063ecf8335214610405578063f1b6dccd1461042e578063ff1871ea1461045957610158565b806348dc0b6e146102de5780635f13f68914610309578063ad099d6f14610332578063ad4829b01461035d578063b56cb8eb1461038657610158565b80631b1917b3116100e75780631b1917b3146102055780631db9504e146102305780633cd4730c146102595780634012e02e146102845780634097f368146102b357610158565b80630372a77c1461015d5780630cda162d146101865780630ef67887146101b1578063119aef84146101dc57610158565b36610158577f88a5966d370b9919b20f3e2c13ff65706f196a4e32cc2c12bf57088f88525874333460405161014e929190611a50565b60405180910390a1005b600080fd5b34801561016957600080fd5b50610184600480360381019061017f919061185e565b610475565b005b34801561019257600080fd5b5061019b610607565b6040516101a891906119e2565b60405180910390f35b3480156101bd57600080fd5b506101c661062d565b6040516101d39190611a94565b60405180910390f35b3480156101e857600080fd5b5061020360048036038101906101fe9190611952565b610633565b005b34801561021157600080fd5b5061021a61080c565b6040516102279190611a94565b60405180910390f35b34801561023c57600080fd5b5061025760048036038101906102529190611887565b610812565b005b34801561026557600080fd5b5061026e610bab565b60405161027b9190611a94565b60405180910390f35b34801561029057600080fd5b50610299610bb1565b6040516102aa9594939291906119fd565b60405180910390f35b3480156102bf57600080fd5b506102c8610c26565b6040516102d591906119e2565b60405180910390f35b3480156102ea57600080fd5b506102f3610c4c565b6040516103009190611a94565b60405180910390f35b34801561031557600080fd5b50610330600480360381019061032b919061185e565b610c52565b005b34801561033e57600080fd5b50610347610e7e565b6040516103549190611a94565b60405180910390f35b34801561036957600080fd5b50610384600480360381019061037f9190611952565b610e84565b005b34801561039257600080fd5b5061039b6111cf565b6040516103a89190611a94565b60405180910390f35b3480156103bd57600080fd5b506103c66111d5565b6040516103d39190611a94565b60405180910390f35b3480156103e857600080fd5b5061040360048036038101906103fe9190611952565b6111db565b005b34801561041157600080fd5b5061042c6004803603810190610427919061185e565b611334565b005b34801561043a57600080fd5b506104436114c6565b6040516104509190611a79565b60405180910390f35b610473600480360381019061046e9190611916565b6114d9565b005b60008054906101000a900473ffffffffffffffffffffffffffffffffffffffff1673ffffffffffffffffffffffffffffffffffffffff163373ffffffffffffffffffffffffffffffffffffffff16146104cd57600080fd5b600560009054906101000a900473ffffffffffffffffffffffffffffffffffffffff1673ffffffffffffffffffffffffffffffffffffffff168173ffffffffffffffffffffffffffffffffffffffff161461052757600080fd5b60026007811115610561577f4e487b7100000000000000000000000000000000000000000000000000000000600052602160045260246000fd5b600960009054906101000a900460ff1660078111156105a9577f4e487b7100000000000000000000000000000000000000000000000000000000600052602160045260246000fd5b146105b357600080fd5b6003600960006101000a81548160ff021916908360078111156105ff577f4e487b7100000000000000000000000000000000000000000000000000000000600052602160045260246000fd5b021790555050565b600560009054906101000a900473ffffffffffffffffffffffffffffffffffffffff1681565b600b5481565b60008054906101000a900473ffffffffffffffffffffffffffffffffffffffff1673ffffffffffffffffffffffffffffffffffffffff163373ffffffffffffffffffffffffffffffffffffffff161461068b57600080fd5b600560009054906101000a900473ffffffffffffffffffffffffffffffffffffffff1673ffffffffffffffffffffffffffffffffffffffff168473ffffffffffffffffffffffffffffffffffffffff1614806107345750600160009054906101000a900473ffffffffffffffffffffffffffffffffffffffff1673ffffffffffffffffffffffffffffffffffffffff168473ffffffffffffffffffffffffffffffffffffffff16145b61073d57600080fd5b60016007811115610777577f4e487b7100000000000000000000000000000000000000000000000000000000600052602160045260246000fd5b600960009054906101000a900460ff1660078111156107bf577f4e487b7100000000000000000000000000000000000000000000000000000000600052602160045260246000fd5b146107c957600080fd5b600083141580156107db575060008114155b80156107e8575060008214155b6107f157600080fd5b82600681905550816007819055508060088190555050505050565b60045481565b60008054906101000a900473ffffffffffffffffffffffffffffffffffffffff1673ffffffffffffffffffffffffffffffffffffffff163373ffffffffffffffffffffffffffffffffffffffff161461086a57600080fd5b600160009054906101000a900473ffffffffffffffffffffffffffffffffffffffff1673ffffffffffffffffffffffffffffffffffffffff168573ffffffffffffffffffffffffffffffffffffffff161480156109145750600560009054906101000a900473ffffffffffffffffffffffffffffffffffffffff1673ffffffffffffffffffffffffffffffffffffffff168473ffffffffffffffffffffffffffffffffffffffff16145b806109c55750600560009054906101000a900473ffffffffffffffffffffffffffffffffffffffff1673ffffffffffffffffffffffffffffffffffffffff168573ffffffffffffffffffffffffffffffffffffffff161480156109c45750600160009054906101000a900473ffffffffffffffffffffffffffffffffffffffff1673ffffffffffffffffffffffffffffffffffffffff168473ffffffffffffffffffffffffffffffffffffffff16145b5b6109ce57600080fd5b60046007811115610a08577f4e487b7100000000000000000000000000000000000000000000000000000000600052602160045260246000fd5b600960009054906101000a900460ff166007811115610a50577f4e487b7100000000000000000000000000000000000000000000000000000000600052602160045260246000fd5b14610a5a57600080fd5b6000821415610a6857600080fd5b81600b54610a769190611b10565b600b81905550604051806040016040528082815260200160006002811115610ac7577f4e487b7100000000000000000000000000000000000000000000000000000000600052602160045260246000fd5b815250600a60008581526020019081526020016000206000820151816000019080519060200190610af9929190611729565b5060208201518160010160006101000a81548160ff02191690836002811115610b4b577f4e487b7100000000000000000000000000000000000000000000000000000000600052602160045260246000fd5b02179055509050506005600960006101000a81548160ff02191690836007811115610b9f577f4e487b7100000000000000000000000000000000000000000000000000000000600052602160045260246000fd5b02179055505050505050565b60025481565b6000806000806000600160009054906101000a900473ffffffffffffffffffffffffffffffffffffffff16600560009054906101000a900473ffffffffffffffffffffffffffffffffffffffff16600254600354600960009054906101000a900460ff16945094509450945094509091929394565b600160009054906101000a900473ffffffffffffffffffffffffffffffffffffffff1681565b60035481565b60008054906101000a900473ffffffffffffffffffffffffffffffffffffffff1673ffffffffffffffffffffffffffffffffffffffff163373ffffffffffffffffffffffffffffffffffffffff1614610caa57600080fd5b600160009054906101000a900473ffffffffffffffffffffffffffffffffffffffff1673ffffffffffffffffffffffffffffffffffffffff168173ffffffffffffffffffffffffffffffffffffffff161480610d535750600560009054906101000a900473ffffffffffffffffffffffffffffffffffffffff1673ffffffffffffffffffffffffffffffffffffffff168173ffffffffffffffffffffffffffffffffffffffff16145b610d5c57600080fd5b60016007811115610d96577f4e487b7100000000000000000000000000000000000000000000000000000000600052602160045260246000fd5b600960009054906101000a900460ff166007811115610dde577f4e487b7100000000000000000000000000000000000000000000000000000000600052602160045260246000fd5b14610de857600080fd5b6000600560006101000a81548173ffffffffffffffffffffffffffffffffffffffff021916908373ffffffffffffffffffffffffffffffffffffffff1602179055506000600960006101000a81548160ff02191690836007811115610e76577f4e487b7100000000000000000000000000000000000000000000000000000000600052602160045260246000fd5b021790555050565b60075481565b60008054906101000a900473ffffffffffffffffffffffffffffffffffffffff1673ffffffffffffffffffffffffffffffffffffffff163373ffffffffffffffffffffffffffffffffffffffff1614610edc57600080fd5b600160009054906101000a900473ffffffffffffffffffffffffffffffffffffffff1673ffffffffffffffffffffffffffffffffffffffff168473ffffffffffffffffffffffffffffffffffffffff161480610f855750600560009054906101000a900473ffffffffffffffffffffffffffffffffffffffff1673ffffffffffffffffffffffffffffffffffffffff168473ffffffffffffffffffffffffffffffffffffffff16145b610f8e57600080fd5b60008314158015610fa0575060008114155b8015610fad575060008214155b610fb657600080fd5b60006007811115610ff0577f4e487b7100000000000000000000000000000000000000000000000000000000600052602160045260246000fd5b600960009054906101000a900460ff166007811115611038577f4e487b7100000000000000000000000000000000000000000000000000000000600052602160045260246000fd5b14806110c3575060016007811115611079577f4e487b7100000000000000000000000000000000000000000000000000000000600052602160045260246000fd5b600960009054906101000a900460ff1660078111156110c1577f4e487b7100000000000000000000000000000000000000000000000000000000600052602160045260246000fd5b145b6110cc57600080fd5b600160009054906101000a900473ffffffffffffffffffffffffffffffffffffffff1673ffffffffffffffffffffffffffffffffffffffff168473ffffffffffffffffffffffffffffffffffffffff16146111635783600560006101000a81548173ffffffffffffffffffffffffffffffffffffffff021916908373ffffffffffffffffffffffffffffffffffffffff1602179055505b8260068190555081600781905550806008819055506001600960006101000a81548160ff021916908360078111156111c4577f4e487b7100000000000000000000000000000000000000000000000000000000600052602160045260246000fd5b021790555050505050565b60065481565b60085481565b60008054906101000a900473ffffffffffffffffffffffffffffffffffffffff1673ffffffffffffffffffffffffffffffffffffffff163373ffffffffffffffffffffffffffffffffffffffff161461123357600080fd5b600160009054906101000a900473ffffffffffffffffffffffffffffffffffffffff1673ffffffffffffffffffffffffffffffffffffffff168473ffffffffffffffffffffffffffffffffffffffff161461128d57600080fd5b600060078111156112c7577f4e487b7100000000000000000000000000000000000000000000000000000000600052602160045260246000fd5b600960009054906101000a900460ff16600781111561130f577f4e487b7100000000000000000000000000000000000000000000000000000000600052602160045260246000fd5b1461131957600080fd5b82600281905550816003819055508060048190555050505050565b60008054906101000a900473ffffffffffffffffffffffffffffffffffffffff1673ffffffffffffffffffffffffffffffffffffffff163373ffffffffffffffffffffffffffffffffffffffff161461138c57600080fd5b600160009054906101000a900473ffffffffffffffffffffffffffffffffffffffff1673ffffffffffffffffffffffffffffffffffffffff168173ffffffffffffffffffffffffffffffffffffffff16146113e657600080fd5b60016007811115611420577f4e487b7100000000000000000000000000000000000000000000000000000000600052602160045260246000fd5b600960009054906101000a900460ff166007811115611468577f4e487b7100000000000000000000000000000000000000000000000000000000600052602160045260246000fd5b1461147257600080fd5b6002600960006101000a81548160ff021916908360078111156114be577f4e487b7100000000000000000000000000000000000000000000000000000000600052602160045260246000fd5b021790555050565b600960009054906101000a900460ff1681565b60008054906101000a900473ffffffffffffffffffffffffffffffffffffffff1673ffffffffffffffffffffffffffffffffffffffff163373ffffffffffffffffffffffffffffffffffffffff161461153157600080fd5b600560009054906101000a900473ffffffffffffffffffffffffffffffffffffffff1673ffffffffffffffffffffffffffffffffffffffff168273ffffffffffffffffffffffffffffffffffffffff1614806115da5750600160009054906101000a900473ffffffffffffffffffffffffffffffffffffffff1673ffffffffffffffffffffffffffffffffffffffff168273ffffffffffffffffffffffffffffffffffffffff16145b6115e357600080fd5b6005600781111561161d577f4e487b7100000000000000000000000000000000000000000000000000000000600052602160045260246000fd5b600960009054906101000a900460ff166007811115611665577f4e487b7100000000000000000000000000000000000000000000000000000000600052602160045260246000fd5b1461166f57600080fd5b6002600a600083815260200190815260200160002060010160006101000a81548160ff021916908360028111156116cf577f4e487b7100000000000000000000000000000000000000000000000000000000600052602160045260246000fd5b02179055506004600960006101000a81548160ff02191690836007811115611720577f4e487b7100000000000000000000000000000000000000000000000000000000600052602160045260246000fd5b02179055505050565b82805461173590611bb4565b90600052602060002090601f016020900481019282611757576000855561179e565b82601f1061177057805160ff191683800117855561179e565b8280016001018555821561179e579182015b8281111561179d578251825591602001919060010190611782565b5b5090506117ab91906117af565b5090565b5b808211156117c85760008160009055506001016117b0565b5090565b60006117df6117da84611ae0565b611aaf565b9050828152602081018484840111156117f757600080fd5b611802848285611ba5565b509392505050565b60008135905061181981611cb6565b92915050565b600082601f83011261183057600080fd5b81356118408482602086016117cc565b91505092915050565b60008135905061185881611ccd565b92915050565b60006020828403121561187057600080fd5b600061187e8482850161180a565b91505092915050565b600080600080600060a0868803121561189f57600080fd5b60006118ad8882890161180a565b95505060206118be8882890161180a565b94505060406118cf88828901611849565b93505060606118e088828901611849565b925050608086013567ffffffffffffffff8111156118fd57600080fd5b6119098882890161181f565b9150509295509295909350565b6000806040838503121561192957600080fd5b60006119378582860161180a565b925050602061194885828601611849565b9150509250929050565b6000806000806080858703121561196857600080fd5b60006119768782880161180a565b945050602061198787828801611849565b935050604061199887828801611849565b92505060606119a987828801611849565b91505092959194509250565b6119be81611b44565b82525050565b6119cd81611b93565b82525050565b6119dc81611b89565b82525050565b60006020820190506119f760008301846119b5565b92915050565b600060a082019050611a1260008301886119b5565b611a1f60208301876119b5565b611a2c60408301866119d3565b611a3960608301856119d3565b611a4660808301846119c4565b9695505050505050565b6000604082019050611a6560008301856119b5565b611a7260208301846119d3565b9392505050565b6000602082019050611a8e60008301846119c4565b92915050565b6000602082019050611aa960008301846119d3565b92915050565b6000604051905081810181811067ffffffffffffffff82111715611ad657611ad5611c73565b5b8060405250919050565b600067ffffffffffffffff821115611afb57611afa611c73565b5b601f19601f8301169050602081019050919050565b6000611b1b82611b89565b9150611b2683611b89565b925082821015611b3957611b38611be6565b5b828203905092915050565b6000611b4f82611b69565b9050919050565b6000819050611b6482611ca2565b919050565b600073ffffffffffffffffffffffffffffffffffffffff82169050919050565b6000819050919050565b6000611b9e82611b56565b9050919050565b82818337600083830152505050565b60006002820490506001821680611bcc57607f821691505b60208210811415611be057611bdf611c44565b5b50919050565b7f4e487b7100000000000000000000000000000000000000000000000000000000600052601160045260246000fd5b7f4e487b7100000000000000000000000000000000000000000000000000000000600052602160045260246000fd5b7f4e487b7100000000000000000000000000000000000000000000000000000000600052602260045260246000fd5b7f4e487b7100000000000000000000000000000000000000000000000000000000600052604160045260246000fd5b60088110611cb357611cb2611c15565b5b50565b611cbf81611b44565b8114611cca57600080fd5b50565b611cd681611b89565b8114611ce157600080fd5b5056fea264697066735822122096db54df6bd4ac20b9e5fb673e9fde52bdd8a6bb53972a713af344e9d83479d064736f6c63430008000033a2646970667358221220870c75853578891872eae97799d1d025c184573a35732eee90c47f7ee4d547c164736f6c63430008000033",
  "immutableReferences": {},
  "source": "// SPDX-License-Identifier: MIT\r\npragma solidity ^0.8.0;\r\n\r\nimport \"./DecentraLoan.sol\";\r\n\r\ncontract DecentraLoanFactory {\r\n    mapping(address => address[]) loans;\r\n\r\n    function GetLoans(address user) public view returns (address[] memory) {\r\n        return loans[user];\r\n    }\r\n\r\n    function CreateLoan(address lender, uint256 amount, uint256 interest, uint256 repayment_period)\r\n        public\r\n        payable\r\n        returns (address loanAddress)\r\n    {\r\n        DecentraLoan loan = new DecentraLoan(msg.sender, lender, amount, interest, repayment_period);\r\n        loanAddress = address(loan);\r\n\r\n        loans[lender].push(loanAddress);\r\n\r\n        // Emit Created() event.\r\n        Created(loanAddress, msg.sender, lender, block.timestamp, amount, interest, repayment_period);\r\n    }\r\n\r\n    /**\r\n     * Events\r\n     */\r\n    event Received(address, uint);\r\n    event Created(address loan, address from, address to, uint256 createdAt, uint256 amount, uint256 interest, uint256 repayment_period);\r\n\r\n    // Receive any ethereum randomly sent to the contract from outside\r\n    receive() external payable {\r\n        emit Received(msg.sender, msg.value);\r\n    }\r\n}\r\n",
  "sourcePath": "C:/Users/abdie/Documents/Developer/Python/Web3_Ganache_ENV1/contracts/DecentraLoanFactory.sol",
  "compiler": {
    "name": "solc",
    "version": "0.8.0+commit.c7dfd78e.Emscripten.clang"
  },
  "schemaVersion": "3.3.3",
  "updatedAt": "2021-02-26T17:01:25.034Z",
  "networkType": "ethereum",
  "devdoc": {
    "kind": "dev",
    "methods": {},
    "version": 1
  },
  "userdoc": {
    "events": {
      "Received(address,uint256)": {
        "notice": "Events"
      }
    },
    "kind": "user",
    "methods": {},
    "version": 1
  }
}